:020000040000fa
:080000000001040000000000f3
:020000040000fa
:100008009401000094010000940100009401000094
:100018009401000094010000940100009401000084
:10002800940100009401000094010000541800009d
:10003800940100009401000094010000bc18000025
:100048009401000094010000940100009401000054
:100058009401000094010000940100009401000044
:100068009401000094010000940100009401000034
:100078009401000094010000940100009401000024
:100088004e15000094010000940100009401000046
:100098009401000094010000940100009401000004
:1000a80094010000940100009401000094010000f4
:1000b80094010000940100009401000094010000e4
:1000c80094010000940100009401000094010000d4
:1000d80094010000940100009401000094010000c4
:1000e80094010000940100009401000094010000b4
:0800f8009401000094010000d6
:020000040000fa
:100108009401000094010000940100009401000093
:100118009401000094010000940100009401000083
:10012800940100009401000094010000541800009c
:10013800940100009401000094010000bc18000024
:100148009401000094010000940100009401000053
:100158009401000094010000940100009401000043
:100168009401000094010000940100009401000033
:100178009401000094010000940100009401000023
:100188004e15000094010000940100009401000045
:100198009401000094010000940100009401000003
:1001a80094010000940100009401000094010000f3
:1001b80094010000940100009401000094010000e3
:1001c80094010000940100009401000094010000d3
:1001d80094010000940100009401000094010000c3
:1001e80094010000940100009401000094010000b3
:0801f8009401000094010000d5
:020000040000fa
:100200000f8f20000eff20000e018800000000006c
:100210000c000700a08d2100010020001100070044
:10022000000020000000e000020032000000020098
:100230000000000002190200000000000040da0087
:100240000000fe004440a900800e20000000e000f5
:100250000300320000002000a00188004440a800f4
:100260000000060091018800800078000000eb008b
:1002700015003700e280400032a0b4009101ba00be
:10028000e280400032a0b4009102ba00e280400057
:1002900032a0b4000002eb00472bde00f507b200ed
:1002a000602ce10004003a000059eb008301e900f2
:1002b000fdff3e00040037006128e100010032002c
:1002c0000082eb00040007001101ba000200e00008
:1002d000e8ff3a00000006003159ba008301e90046
:1002e0000c0032002159ba008301e90008003200f5
:1002f0000400e00003003a00e280400032a0b400b5
:10030000f5ff370011d9ba008301e900faff3a007e
:100310008100e800e180400032a0b4000000060047
:1003200000000000000000000040da000000fe00b5
:100330000200240031108000e1806000fdff3a00df
:100340003010800064006000810f5000f9ff3a0017
:1003500031108000e8806000808f5000f5ff3a0087
:100360003010800070006000810f5000f1ff3a00f3
:100370004110800082806000808f5000edff3a00c5
:100380000000060006a2a8000682a80000000600e1
:100390000602a800000006000642a80000000600b1
:1003a00003f0a200889fbe008a9fbe008c1f7800c9
:1003b000340107003b0133006450e1004f0032007c
:1003c0006420e1005200320003826c0007003b0011
:1003d0000905d0000306d000820f54000c065d0012
:1003e000020039000200320089017800030678001b
:1003f0008582550004003d000003fd008103fd00df
:100400008502ea008b854200840f720002003b00e7
:1004100060001000e08018006011b8000005eb00db
:100420007a28e1000a00390006007800c75ddd0087
:10043000f707b200878075002d00370082817100b8
:100440000a017800610560008180d1000080d3003e
:100450008502e900f9ff3b0006044000878448005c
:1004600002003b0060041400e0841c000988a30023
:10047000070032008a81710082817100610164008d
:100480008904d1000884d3008b05e80017003700e9
:100490000978a30013003a000b00e00013003400b9
:1004a0008b05e9000804440089844c000a44740068
:1004b0000978a3000d003a000b00e00007003400ab
:1004c0008b05e9000804440089844c0001003a00cf
:1004d0000b0020000978a300f7ff32000001eb00b9
:1004e00002003700828171000a017800aa0007002b
:1004f0000cf0a70001f0a000f30037006420e10039
:1005000002003a00838f6c00f30033000801be0044
:100510000200be00ec003700889fbe008a9fbe002c
:100520008c1f7800d7000700de00330003866c00c4
:100530006450e1002e0032006420e10033003200fc
:100540006150e1002f0032006120e10031003200f3
:1005500085855500eb07b000090020000804200045
:10056000050037000804440089844c000a0031006b
:100570000603430087834b000001530081815b0029
:10058000f8ff33000203be000800a0000804440086
:1005900089844c00f6ff3900c639dd008301730001
:1005a00001003200130020008904d1000884d30028
:1005b0000998a300050032000800a7000300a0006e
:1005c0008904d1000884d3008b05e8008904d10098
:1005d0000884d3000001eb000281d2006e00070006
:1005e00001f0a1000cf0a70001f0a000b600370058
:1005f0006420e100b80032000801be000200be0025
:10060000f7ff37006120e100b30032006000b8005e
:10061000f3ff37000000200001f82700f0ff37004b
:10062000839f68000100e00002003d0060001000b0
:10063000e08018000300e00002003d0060011100ae
:10064000e0811900b60007004f00e00002003b0007
:1006500060001000e0801800000006000001be00ed
:10066000730007000470a70003f0a1006509b10042
:10067000160032000d0035006828e1000600350044
:10068000f0ff2f00f1ff27000300e00013003b0004
:1006900001002800000005000000400081804800a3
:1006a0008502e900fcff3a0008003700f88f42009d
:1006b00002003c008000eb00000005008100d1003a
:1006c0000080d3008502e800fcff3a000300e00050
:1006d00002003b0060001000e080180000000600ef
:1006e000881f7800010478000100e00005003d004b
:1006f00060001000e080180002003b0001f02c00b8
:10070000030037000400070008f0a70001f0a00074
:100710004f04780000000600889fbe008a9fbe003c
:10072000010578000000e000180032000004be005f
:100730006011b8006b0920000982cf000200390067
:100740000882cf000441b000694252000e0032001e
:1007500008003b0082817100610164008904d100be
:100760000884d3008b05e8000442e800f9ff3a0052
:10077000050037000804440089844c008b05e9001b
:100780000442e900fbff3a00030007004f05be00ea
:100790004f04be000000060081002000618055006b
:1007a0000b003d000b00200061fe2f000100e10066
:1007b0001d00340082817100610164008904d10050
:1007c0000884d3000000e800faff3a00710020001e
:1007d0006100640003007000020060000900320044
:1007e00061044400e0844c000988a5000500320043
:1007f0008b05e8006808e10002003a008904d10096
:100800000884d300f20f20000258e10005003d00eb
:10081000c75ddd00f907b200898075000800780027
:10082000000006000bf827008b0078000000050090
:10083000c70ade00f107b200f50fb200080032006f
:10084000e1cf4200020032000170a0002400050048
:10085000810f70000100320004080500440005000b
:10086000810f700002003a00140005008502e900c3
:100870000000400081c04800fcff3b000170a00068
:10088000240005000004be00e9ff07000003be00cd
:100890000405be000200be00e5ff0700844f75009e
:1008a000000006000200be006450e10005003600b2
:1008b0006420e100020036000968a30001003a004c
:1008c0000800be000160a0004f0678004f05be0082
:1008d0004f04be0000000600f0ff2f00f1ff2700cc
:1008e000f9ff3700811f78000100e00002003d00a1
:1008f00060001000e08018000300e00002003d00ee
:1009000060011100e0811900150007004f00e000b0
:1009100002003b0060001000e080180000000600ac
:100920006022b800060220000000d0008180d200c2
:100930000482d2008582d2000000a0000202520090
:1009400083825a00030031000202420083824a007f
:100950000000a1000603e900f3ff3a0000000600d2
:10096000efff07000400be0000000600010278004f
:100970000100370003007800809fbe0011000900cd
:100980000282d800000278004f00be008001e8001b
:10099000e00f5200f7ff3a00844978000002780027
:1009a000110009008280d8000002fd00810178005a
:1009b00084007800e9cf510001003400e7c1410014
:1009c00005c3b30005d04100e00f5200f3ff3a0029
:1009d00000000600881f780000047800e08f5000b7
:1009e00005003d0088017800d0c2b300805978002e
:1009f0008100ea00010037008801780003007800d8
:100a0000daff0700080078004f04780000000600b5
:100a10008001780002003700b159780004017800a5
:100a20000202e900e00f5100fbff3a00000006005f
:100a3000800178003141780082597800e04f510000
:100a4000fcff3a0000000600800078000041eb0047
:100a5000b14f1100fdff3a000080ea000080400025
:100a6000000006000d00370010417800e04f5100f3
:100a700002003200914f5100050032000281fb005c
:100a8000914078000180fb0000005100000006004a
:100a90000000e8008100e800030178008201e9001d
:100aa000e00f5100f0ff3a0002007800000006005d
:020000040000fa
:100ab000536100006c6700006f2000006465000057
:100ac000204d000079530000746100007274000032
:100ad000207000006f72000020540000696d00005b
:100ae0006572000000530000616c0000676f000039
:100af00020640000652000004d7900005265000070
:100b0000737400006172000074200000706f0000b8
:100b100072200000546900006d6500007200000042
:100b2000536100006c6700006f20000064650000e6
:100b3000206d0000795f0000537400006f700000aa
:100b4000207000006f72000020540000696d0000ea
:100b50006572000000530000616c0000676f0000c8
:100b600020640000652000006d7900005f570000e0
:100b70007269000074650000207000006f72000050
:100b800020540000696d00006572000000530000f1
:100b9000616c0000676f00002064000065200000a9
:100ba0006d7900005f490000646c00006520000062
:100bb000706f000072200000546900006d65000035
:100bc00072000000484f00004c410000205100001e
:100bd0005545000020540000414c00002045000015
:100be0005354000041530000207900006f200000a2
:100bf00065730000746f0000792000006d750000bf
:100c00007920000062690000656e00002079000014
:100c10002074000075200000717500006520000040
:100c2000746100006c00000020000000656e000090
:100c30007472000065000000707200006f630000b5
:100c400065730000616400006f0000004047000011
:100c50004f00000040530000544f000050000000bf
:100c6000404300005200000052650000636900002c
:100c700062690000646f00003a200000000000007c
:020000040000fa
:100c80000000fa0040ef2700000c880040ef27002a
:100c9000300c880040ef2700600c880040ef2700f0
:100ca000900c88000080fa00000006000200fa00a4
:100cb0000000eb00000f78001c003700900c800053
:100cc0000000e800900c8800600c80000000e80044
:100cd000600c8800300c80000000e800300c8800b8
:100ce000000c80000000e800000c88008038210023
:100cf00054090700910c8000b0ff2000808f500045
:100d00000a003600f0ff2000900c8800f0ff200061
:100d1000600c8800f0ff2000300c8800f0ff2000fd
:100d2000000c880010002000000f78001e007800e2
:100d3000e00f5000e1ff32001c003700900c8000f3
:100d40000000e900900c8800600c80000000e900c1
:100d5000600c8800300c80000000e900300c880036
:100d6000000c80000000e900000c880080382100a1
:100d700034090700910c800000072000808f50008c
:100d80000a003e000000eb00900c88000000eb0021
:100d9000600c88000000eb00300c88000000eb00c5
:100da000000c88000000eb00000f78001e007800a7
:100db000e10f5000e1ff32000080fa000000060061
:100dc0000200fa000000eb00000f78000080eb004a
:100dd000000f78000c003700ca22a8001e0078001f
:100de000900c88001e007800600c88001e007800bf
:100df000300c88001e007800000c8800803821002c
:100e0000100907001e0fe9001e007800e00f5000d7
:100e1000f1ff34000080fa00000006000200fa0032
:100e2000000f78009e007800a084200000ff0700db
:100e3000a084200004ff070080007800a084200028
:100e4000aa06070080382100fe0807000080fa008b
:100e5000000006000000fa00f0108000a200200050
:100e600080007800a0842000dafe0700a084200023
:100e7000f5fe070080007800a08420009b06070094
:100e8000f0108000a200200080007800a0842000e4
:100e9000d0fe0700a0842000ebfe07008000780051
:100ea000a084200091060700f0108000a20020001e
:100eb00080007800a0842000c6fe0700a0842000e7
:100ec000e1fe070080007800a0842000870607006c
:100ed000f0108000a200200080007800a084200094
:100ee000bcfe0700a0842000d7fe07008000780029
:100ef000a08420007d06070022032000215e280038
:100f0000a0842000c2fe0700a0842000cefe0700bf
:100f100080007800a084200074060700803821003b
:100f2000c8080700a0842000c7fe070080007800e2
:100f3000a08420006d06070080382100c10807004a
:100f4000a0842000c0fe070080007800a08420005c
:100f50006606070080382100ba080700a084200038
:100f6000b9fe070080007800a08420005f0607001b
:100f700080382100b3080700a0842000b2fe0700db
:100f800080007800a08420005806070080382100e7
:100f9000ac080700a0842000abfe070080007800aa
:100fa000a08420005106070080382100a508070012
:100fb000a0842000a4fe070080007800a084200008
:100fc0004a060700803821009e080700a084200000
:100fd0009dfe070080007800a084200043060700e3
:100fe00080382100970807000080fa000000060002
:100ff0000000fa00cefc0700e5fc0700000000003e
:101000003010800061006000e00f5000fcff3a00eb
:1010100000cdb300f604070000000000411080007e
:101020000000280000806000e00f5000fbff3a0045
:10103000bffc070050c7b300ed040700000000002c
:10104000411080000000280000806000e00f500088
:10105000fbff3a00b6fc07000622a80000000000d3
:10106000000000003010800062006000e00f5000bf
:10107000fcff3a0010cdb300dd04070000000000c3
:10108000411080000000280000806000e00f500048
:10109000fbff3a00a6fc07000662a8000000000063
:1010a0004010800062006000e00f5000fcff320042
:1010b000b4fc0700b8fc07000000000030108000fe
:1010c00064006000e00f5000fcff3a000080fa006e
:1010d000000006000200fa007116800000002200e5
:1010e00000806000e00f5000430032001203070050
:1010f0000000eb00000f7800030037000040eb0019
:10110000ca0707001e0fe800b01220009e007800fa
:10111000808f5000f9ff3400cb42a8000000eb00a4
:10112000000f7800030037000040eb00bf07070006
:101130001e0fe800b01220009e007800808f500043
:10114000f9ff3400cb22a8000000eb00000f78006c
:10115000030037000040eb00b40707001e0fe80053
:10116000b01220009e007800808f5000f9ff3400fc
:10117000ca02a8000000eb00000f7800030037004f
:101180000040eb00a90707001e0fe800b012200086
:101190009e007800808f5000f9ff3400ca22a8001a
:1011a0000000eb00000f7800030037000040eb0068
:1011b0009e0707001e0fe800b01220009e00780076
:1011c000808f5000f9ff3400ca42a8000000eb00f5
:1011d000000f7800030037000040eb009307070082
:1011e0001e0fe800b01220009e007800808f500093
:1011f000f9ff34005e0037007116800000002800ff
:1012000000806000e00f500043003200ca02070077
:101210000000eb00000f7800030037000040eb00f7
:10122000820707001e0fe800b01220009e00780021
:10123000808f5000f9ff3400ca42a8000000eb0084
:10124000000f7800030037000040eb00770707002d
:101250001e0fe800b01220009e007800808f500022
:10126000f9ff3400ca22a8000000eb00000f78004c
:10127000030037000040eb006c0707001e0fe8007a
:10128000b01220009e007800808f5000f9ff3400db
:10129000ca02a8000000eb00000f7800030037002e
:1012a0000040eb00610707001e0fe800b0122000ad
:1012b0009e007800808f5000f9ff3400cb22a800f8
:1012c0000000eb00000f7800030037000040eb0047
:1012d000560707001e0fe800b01220009e0078009d
:1012e000808f5000f9ff3400cb42a8000000eb00d3
:1012f000000f7800030037000040eb004b070700a9
:101300001e0fe800b01220009e007800808f500071
:10131000f9ff340016003700870207000000eb00d9
:10132000000f7800030037000040eb003f07070084
:101330001e0fe800b01220009e007800808f500041
:10134000f9ff3400740207000000eb00000f780082
:10135000030037000040eb00340707001e0fe800d1
:10136000b01220009e007800808f5000f9ff3400fa
:101370000080fa00000006001a00fa00200f980012
:10138000310f9800420f98000000eb001007980002
:101390002e089000be089000600798007107980022
:1013a0006e0090000100200020079800310798008f
:1013b0007e0090000074a1000080fb00010020006e
:1013c000c000dd00000020002e019000be01900052
:1013d00002004000838048002007980031079800f1
:1013e0002e019000be0190000000200001082000a6
:1013f00002004000838048002007980031079800d1
:101400007e009000c700de0000c0eb0080c06000de
:1014100010c8b30000c04000004f98000e48900074
:10142000f24f500010003400ce08900090c4b3007a
:10143000804878004e0890008000e800e0c6b300c5
:10144000804878004e0890008080e80060c6b300b5
:10145000804878004e089000e30040000040eb0018
:1014600080487800da0037000e489000e34f4000d3
:1014700008003d00ce08900000c3b300804878000b
:101480004e0890008000e8000040eb0080487800a3
:10149000cf0037000000eb0010079800fe0090001e
:1014a0000000280000806000e00f500006003200bd
:1014b000ce089000d0c2b300804878001e00900093
:1014c0000000e800100798000e4890000000fb00a4
:1014d000770110002e009000be009000820178007d
:1014e0008301e900030033008100d1000080d300b4
:1014f000fbff3700500798001e009000ce089000b8
:10150000008140005e00900001002000b200070052
:101510000000eb00000f78000a0037001e00780082
:10152000ce0890000080400010407800e04f50004e
:1015300003003a001e0278001407980004003700e8
:101540001e0fe8001e007800e70f5000f3ff340084
:101550001e009000e50f50009c003c001e00900013
:10156000ce08900080804000e0c2b3008048780040
:101570001e0090000000e800100798000e48900040
:101580000000fb00740110002e009000be009000cf
:101590000002be00020378000603e90003003300e6
:1015a0008502d1000482d300fbff37000401be0096
:1015b0007000200001002000020278000301780082
:1015c00080017800010078000302620000006100e1
:1015d00001002000c000dd00000020000001be006e
:1015e0006120b8000001710081817100700020004d
:1015f00001002000800f5100818f590059003e00ea
:1016000002600100070037001000370019003700a2
:10161000220037002b003700340037003d00370030
:1016200046003700f000470000c3b3008048780050
:10163000f000470000c3b30090409800f00047005e
:1016400000c3b300a040980046003700f0004700f8
:1016500010c3b30080487800f000470020c3b300f7
:1016600090409800f000470050c3b300a04098009d
:101670003c003700f000470020c3b30080487800ea
:10168000f000470050c3b30090409800f0004700be
:1016900000c3b300a040980032003700f0004700bc
:1016a00030c3b30080487800f000470070c3b30037
:1016b00090409800f000470050c3b300a04098004d
:1016c00028003700f000470050c3b300804878007e
:1016d000f000470000c3b30090409800f0004700be
:1016e00000c3b300a04098001e003700f000470080
:1016f00060c3b30080487800f000470020c3b30007
:1017000090409800f000470050c3b300a0409800fc
:1017100014003700f000470070c3b3008048780021
:10172000f000470050c3b30090409800f00047001d
:1017300000c3b300a04098000a003700f000470043
:1017400080c3b30080487800f000470070c3b30046
:1017500090409800f000470050c3b300a0409800ac
:10176000000000000000eb00000f78000e003700c2
:101770001e009000e60f50000a003c001e00900082
:10178000ce08900080804000700047001e0040009e
:1017900010407800804878001e0090000000e800ab
:1017a000100798001e0fe8001e007800e20f50009e
:1017b000efff34001e009000ce08900080804000b3
:1017c0000040eb0080487800010037000000000076
:1017d0000080fa00000006000c00fa00881f780064
:1017e0003007980041079800520798003e0090008b
:1017f000ce00900010079800210798001e0090006e
:10180000ae009000e00f5000e08f580006003d0051
:101810003e009000ce00900060001000e0801800b4
:1018200030079800410798000000eb00000f780097
:101830001e007800de009000008440003e00900012
:10184000ce009000a20020000300200025fc07002d
:10185000004078000043b000004c78001e0fe80004
:101860003e009000ce009000a20020000300200067
:101870006bfb070030079800410798003e0090007e
:10188000ce009000e00f5000e08f5800e8ff3c00d1
:101890001e009000ae009000e00f5000e08f580056
:1018a00006003d001e007800de00900080804000b1
:1018b000d0c2b300804878001e0fe8001e007800f8
:1018c000de009000808040000040eb0080487800ff
:1018d0005e009000030007004f0478000080fa00cb
:1018e000000006000800fa00300798000000eb0036
:1018f000000f78003e00900053fc07000000e90054
:1019000010079800160037001e007800be009000f7
:101910000080400090407800414798001e00780009
:10192000be009000808040001e0090003e019000ac
:101930000000410010407800804878001e009000b0
:10194000be00900000804000ce409000014878002a
:101950001e0fe8001e0090000000e900100798002c
:101960001e0090009e007800808f5000e6ff35003a
:101970000080fa00000006000000fa000080fa0073
:10198000000006000000fa000000eb00203a88008a
:10199000a00020002b0607000080eb004015880007
:1019a000a0002000270607000080eb00001688003a
:1019b000a000200023060700809f2f00301688001b
:1019c000a00020001f060700f0ff2b006016880013
:1019d000a00020001b06070000ef2f0090168800d3
:1019e000a000200017060700c0f92f00f01688009d
:1019f000a0002000130607000000eb00101688006e
:101a0000a00020000f0607000000eb004016880031
:101a1000a00020000b0607000000eb0070168800f5
:101a2000a0002000070607000000eb00a0168800b9
:101a3000a0002000030607000000eb00001788004c
:101a4000a0002000ff0507000080fa00000006004b
:101a50000000fa0000352c00fa0507000040eb00fa
:101a600072050700c00320002010880007a2a9000b
:101a7000000000000782a800000000000762a90023
:101a8000000000000742a900000000000722a90092
:101a9000000000000702a9000000000006e2a90003
:101aa0000000000006c2a9000000000006a2a90074
:101ab000000000000682a900000000000662a900e4
:101ac000000000000642a900000000000622a90054
:101ad000000000000602a900000000000040eb002a
:101ae0005205070007e2a800550407000080fa002d
:101af000000006000000fa008401a90000000000b8
:101b00008421a900000000008441a9000000000019
:101b10008461a900000000008a01a9000000000003
:101b20008a21a900000000008a41a90000000000ed
:101b30008a61a900000000009001a90000000000d7
:101b40009021a900000000009041a90000000000c1
:101b50009061a900000000009601a90000000000ab
:101b60009621a900000000009641a9000000000095
:101b70009661a9000000000011e1a900000000002a
:101b800011a1a9000000000010c1a9000000000080
:101b90001021a900000000001061a9000000000051
:101ba00084c0a90000000000000025001008880083
:101bb0000000eb00000c8800000025006008880091
:101bc0000000eb00300c8800000025007008880041
:101bd0000000eb00600c880000002500d0088800a1
:101be0000000eb00900c88008401a90000000000b8
:101bf0008421a800000000008441a800000000002b
:101c00008a01a900000000008a21a800000000004d
:101c10008a41a800000000009001a9000000000017
:101c20009021a800000000009041a80000000000e2
:101c30009601a900000000009621a8000000000005
:101c40009641a8000000000081088000f0fc2f00f1
:101c500000806000800888000000000011e1a800fa
:101c60000000eb00000c88000000eb00300c880046
:101c70000000eb00600c88000000eb00900c880076
:101c80000080fa00000006000000fa0017e2a80039
:101c900000000000000000000000000019e2a900a0
:101ca00000000000c1108000f0f32f0000806000f1
:101cb000c010880000000000b110800090ff2f00cd
:101cc00000806000b0108800000000001602a9002b
:101cd0000000000016a2a90000000000f000200093
:101ce000f0108800000000001942a8000000000069
:101cf0008700a900000000008720a9000000000064
:101d00008f00a800000000008f20a9000000000044
:101d10000080fa00000006000000fa00ca42a80095
:101d2000ca22a800cb22a800ca02a800cb42a80061
:101d30000080fa00000006000000fa00ca42a90074
:101d4000ca22a900cb22a900ca02a900cb42a9003d
:101d50000080fa00000006001000fa0070079800ea
:101d6000103a8000000f7800f08f2f001e0f6000e7
:101d70001e0078004880de00000f78007e00900092
:101d8000010020007200200003002000820f50009c
:101d9000838f580067003e00006001000700370095
:101da0000b0037000f0037001300370063003700c7
:101db0006200370061003700140037009e00780091
:101dc0007e00900000807000000f78001400370043
:101dd0009e0078007e00900000807000000f780068
:101de0000f0037009e0078007e0090000080700099
:101df000000f78000a0037009e0078007e009000f7
:101e000000807000000f7800050037009e00780009
:101e10007e00900000807000000f7800000000003d
:101e200080c7b30020479800a0c9b300304798008e
:101e3000207420000000e8002007980010028000b5
:101e40004500de00674060000080fb00300798001e
:101e50009002800040079800ff3ffc0011028000c4
:101e6000000e200000807000100288004e009000dc
:101e700090028800000088002e0190002e40900003
:101e8000be4090009e01780000497800014978002a
:101e90000349780060c4b3002047980070c5b300c0
:101ea000304798002074200020079800103a8000e6
:101eb000004078000004a000204f9800ae01900080
:101ec0002e409000be4090002e499000804978003e
:101ed000814978008249780000000000103a8000b3
:101ee00061006000e00f5000fcff3a0090028000ab
:101ef00060079800ff3ffc003e0090000040780023
:101f0000674060000080fb00670060004500dd0066
:101f100012028000f1f12f0081006100008070004a
:101f2000100288006e009000900288000000880077
:101f3000030037000000000001003700000000002f
:101f40000080fa00000006000200fa000000eb002a
:101f5000000f7800010037001e0fe800100320007a
:101f60009e007800808f5000fbff34000040eb00a3
:101f70002e0407007000200077ff0700c05d2000de
:101f8000b00407000080fa00000006002a00fa00f2
:101f9000500f9800610f9800720f98000317980077
:101fa00014179800251798003617980047179800bf
:101fb0005e0890004b0407007e0890001000780037
:101fc000cf80de00c6f907001007980021079800af
:101fd0000e10900010007800cf80de00c0f90700de
:101fe000100f9800210f98001e109000100078002c
:101ff000cf80de00baf90700300f9800410f98003b
:102000002e10900010007800cf80de00b4f9070099
:1020100030079800410798003e10900010007800ab
:10202000cf80de00aef907005007980061079800e6
:102030004e10900010007800cf80de00a8f9070055
:1020400070079800010f98000000eb00000f780067
:102050003400370009030700cf80de00a0f9070035
:102060003e019000ce019000cef8070010079800c6
:102070002107980011030700cf80de0098f90700c0
:102080005e019000ee019000c6f80700100f980066
:10209000210f980019030700cf80de0090f9070098
:1020a0007e0190008e099000bef80700300f980066
:1020b000410f980021030700cf80de0088f9070058
:1020c0000001be003e009000ce009000b5f8070071
:1020d000300798004107980028030700cf80de00f2
:1020e0007ff907000001be005e009000ee00900046
:1020f000acf8070050079800610798002f0307000d
:10210000cf80de0076f907000001be007e0090005f
:102110008e089000a3f8070070079800010f980040
:102120001e0fe8006e0890009e007800808f50001f
:10213000c8ff350002002000832424001e00900008
:10214000ae009000f4f8070044f907008000780022
:102150007e089000010878000200200083242400fb
:102160001e009000ae009000ebf807003bf907005e
:10217000800078000e109000010878000200200016
:10218000832424001e009000ae009000e2f80700b7
:1021900032f90700800078001e10900001087800d6
:1021a00002002000832424001e009000ae00900056
:1021b000d9f8070029f90700800078002e10900058
:1021c0000108780002002000832424001e009000f3
:1021d000ae009000d0f8070020f9070080007800da
:1021e0003e109000010878000200200083242400a3
:1021f0001e009000ae009000c7f8070017f9070016
:10220000800078004e109000010878000080fa00ed
:10221000000006000600fa00000f78001107980081
:1022200022079800ae009000803e20000001780058
:10223000110009008200d80070478800c046800065
:102240009e00900080805000704780000088b90098
:102250008000780060478000008040006047880070
:10226000704780008000ea00f2468000e04680006f
:10227000000041000088b90000017800914680000c
:10228000704780000088b90000007800800041009d
:10229000d046800000804000d04688007047800013
:1022a0008000ea00004780000088b90080007800c4
:1022b000e046800000804000e046880070478000d3
:1022c0008000ea00004780000088b90080007800a4
:1022d000f046800000804000f0468800a146800063
:1022e000704780000088b9008000780000478000b7
:1022f0000080400000478800604780001e001000fa
:1023000020478800d1468000b04680000080400011
:1023100030478800d14680003047800000017800b7
:10232000110009008200d80040478800f146800073
:102330003047800000017800110009008200d800b9
:102340005047880041478000204780000088b9003e
:10235000800078006047800000804000604788006f
:1023600051478000204780000088b9008000780035
:10237000c046800000804000c04688004047800082
:10238000e1001000d04680000088b900000078000d
:10239000d046880040478000e1001000e046800001
:1023a0000088b90000007800e0468800f24680000e
:1023b00051478000d04680000088b90000007800b6
:1023c00000005100f046880002478000514780001d
:1023d000e04680000088b90000007800000051004d
:1023e00000478800604780000080fa000000060077
:1023f0000200fa00004f78009e4078000180fb0048
:102400001010880000000000401080006100600093
:10241000e00f5000fcff3a000080fa0000000600c8
:102420000000fa00000220009008880000572000f9
:10243000700888000000eb005008880084e0a900c4
:1024400013e1a9008ce0a90013e1a8000080fa00c4
:10245000000006000000fa000602a800f0ff0700d6
:1024600084e0a900000000003010800061006000de
:10247000e00f500005003200210480000008200019
:1024800000806000e00f5000f7ff320013e1a90068
:10249000210480000008200000806000e00f500050
:1024a0000200320080552800730107000000eb0095
:1024b0000080fa00000006000000fa000622a800d2
:1024c000d7ff070084e0a900000000003010800062
:1024d00062006000e00f500005003200210480001f
:1024e0000008200000806000e00f5000f7ff32007d
:1024f00013e1a90021048000000820000080600092
:10250000e00f500002003200305728005a01070047
:102510000000eb000080fa00000006000000fa0056
:102520000642a800beff070084e0a90000000000ea
:102530003010800064006000e00f500005003200a1
:10254000210480000008200000806000e00f50009f
:10255000f7ff320013e1a9002104800000082000e9
:1025600000806000e00f5000020032000059280097
:10257000410107000000eb000080fa0000000600a7
:102580000200fa00004f78009e4078000180fb00b6
:1025900010108800a2ff070084e0a90000000000de
:1025a0004010800061006000e00f50000500320024
:1025b000210480000008200000806000e00f50002f
:1025c000f7ff320013e1a900210480000008200079
:1025d00000806000e00f500002003200b05a280076
:1025e000250107000000eb000080fa000000060053
:1025f0000000fa008aff070084e0a9000000000044
:10260000411080000000240000806000e00f5000b6
:1026100005003200210480000008200000806000d6
:10262000e00f5000f6ff320013e1a9002104800002
:102630000008200000806000e00f5000020032001f
:10264000705c28000c0107000000eb000080fa001d
:10265000000006000000fa00401080000080ea0040
:102660004f00de000080fa00000006000000fa00c3
:1026700006a2a8000682a80000000000301080001a
:1026800070006000e00f5000fcff3a0006a2a900b5
:102690000000eb000080fa00000006000000fa00d5
:1026a00006a2a9000682a8000000000030108000e9
:1026b00070006000e00f5000fcff3a000000eb00eb
:1026c0000080fa00000006000000fa000662a80080
:1026d000000000004010800062006000e00f500029
:1026e000fcff3200001080000080fa0000000600ad
:1026f0000000fa000662a80010002000d1020700c6
:10270000000000003010800068006000e00f500002
:10271000fcff3a00100020000080fa0000000600d4
:102720000400fa00000f78002147980010003700dd
:10273000e5ff0700004078009e00780080487800a0
:102740001e0fe80041108000004020000080600063
:10275000e00f5000020032000080eb000f00370055
:102760002e409000e04f500001003200cbff0700e8
:102770002e4090000080fb000000ea004f00de00c9
:1027800000407800ae4090008140e9002147980069
:10279000e04f5000e6ff3a000000eb000080fa0036
:1027a000000006000200fa00004f780090ff0700ca
:1027b00028ff070020cdb30071ff07008cff070042
:1027c0001e4078006eff070089ff07003aff0700f0
:1027d00030cdb3006aff070085ff0700c4ff070084
:1027e000a2ff07004dff0700001080000080fa00e4
:1027f000000006000200fa00004f78001147980020
:1028000014ff070020cdb3005dff070078ff07002d
:102810001e4078005aff070075ff07001e40900019
:1028200057ff070072ff07003cff07000080fa0017
:10283000000006000000fa00d0002000d010880040
:1028400000000000c1108000001020000080600027
:10285000e00f5000fbff3200a0002000d0108800e5
:1028600000000000c1108000001020000080600007
:10287000e00f5000fbff32000080fa00000006006d
:102880000600fa0010079800210798000040eb00ae
:10289000004f78000e0037009e4078000180fb005a
:1028a0009e00900000804000104078000000fb0077
:1028b000d010880000000000c1108000001020002f
:1028c00000806000e00f5000fbff32001e4fe80068
:1028d0001e4078008080fb002e009000808f50000a
:1028e000edff35000080fa00000006000400fa0049
:1028f000000f7800110798009e0090001e007800dd
:10290000dfff0700cbff07000080fa000000060091
:102910000600fa0010079800210798000040eb001d
:10292000004f78000e0037009e4078000180fb00c9
:102930009e00900000804000104078000080fb0066
:10294000d010880000000000c1108000001020009e
:1029500000806000e00f5000fbff32001e4fe800d7
:102960001e4078008080fb002e009000808f500079
:10297000edff35000080fa00000006000400fa00b8
:10298000000f7800110798009e0090001e0078004c
:10299000dfff0700a7ff07000080fa000000060025
:1029a0000400fa00100798001e009000000fe900d4
:1029b000180037001e0078008000400000802000d2
:1029c0000080400010007800a20020008000780005
:1029d000a0842000fff70700a08420001af8070059
:1029e00080007800a0842000a5ff070022002000be
:1029f00041612800a084200005f80700a084200081
:102a000011f8070080007800a08420009cff0700d8
:102a10001e0fe9001e007800e00f5000e5ff3d00aa
:102a200084ff07000080fa00000006000400fa009e
:102a3000000f7800110798001e00780002f80700c8
:102a4000800078001e0078008dff0700a2002000a3
:102a50009e009000a0842000def70700a0842000e4
:102a6000f9f7070080007800a08420009fff07008e
:102a70000080fa00000006000200fa00000f780053
:102a80001e007800f0f70700800078001e00780034
:102a900096ff07000080fa00000006003600f800ec
:102aa000809fbe00829fbe00849fbe00869fbe00a6
:102ab0000200fa00cb22a80060612800eeff0700a8
:102ac00062468000e010800000407800a18920006c
:102ad00081004100804878006146800000032000aa
:102ae000808f500003003c00604680000000e8003a
:102af00060468800604680008000e900a0892000d0
:102b00000080400010407800ed4f500014003a0063
:102b1000604680000000e90060468800215c2100da
:102b2000a0892000010001000000eb00000f7800e8
:102b300005003700a08920009e00400000c2b300bd
:102b4000804878001e0fe800100320009e007800e7
:102b5000808f5000f7ff34000000eb0060468800d3
:102b60008700a9001822a9000080fa004f03be00c8
:102b70004f02be004f01be004f00be003600f900fc
:102b8000004006000200fa00000f7800c061280033
:102b9000b9ff070032002000616228001e007800a3
:102ba000b0f70700e00f500002003a006a0107008a
:102bb0002100370032002000a16228001e007800aa
:102bc000a8f70700e00f500002003a006601070076
:102bd0001900370032002000016328001e00780031
:102be000a0f70700e00f500002003a0011ff0700b5
:102bf00011003700b200200041632800a0842000ab
:102c000083f70700a08420008ff70700800078007a
:102c1000a08420001aff07009e007800a0842000f6
:102c200083f70700a084200087f707008000780062
:102c3000a08420002dff07000080fa00000006009d
:102c40000000fa0011c0b300b0c6b300e9fe0700ef
:102c500021c0b300b0c1b300e6fe070031c0b3002d
:102c6000c0c1b300e3fe070061c0b300a0c1b30060
:102c7000e0fe07000080fa00000006000400fa00f1
:102c80000000eb00000f78000000eb001007980038
:102c9000b0c3b300c3fe070010079800c0c3b30061
:102ca000c0fe0700000f78001e0090004800dd0005
:102cb0001e0040000080fa00000006000400fa0038
:102cc0000000eb00000f78000000eb0010079800f8
:102cd000d0c3b300b3fe070010079800e0c3b300f1
:102ce000b0fe0700000f78001e0090004800dd00d5
:102cf0001e0040000080fa00000006000400fa00f8
:102d00000000eb00000f78000000eb0010079800b7
:102d1000f0c3b300a3fe07001007980000c4b3007f
:102d2000a0fe0700000f78001e0090004800dd00a4
:102d30001e0040000080fa00000006000400fa00b7
:102d40000000eb00000f78000000eb001007980077
:102d500030c4b30093fe07001007980040c4b300ce
:102d600090fe0700000f78001e0090004800dd0074
:102d70001e0040000080fa00000006000400fa0077
:102d80000000eb00000f78000000eb001007980037
:102d900050c4b30083fe07001007980060c4b3005e
:102da00080fe0700000f78001e0090004800dd0044
:102db0001e0040000080fa00000006000400fa0037
:102dc0000000eb00000f78000000eb0010079800f7
:102dd00070c4b30073fe07001007980080c4b300ee
:102de00070fe0700000f78001e0090004800dd0014
:102df0001e0040000080fa00000006000400fa00f7
:102e00000000eb00000f78000000eb0010079800b6
:102e100010c4b30063fe07001007980020c4b3007d
:102e200060fe0700000f78001e0090004800dd00e3
:102e30001e0040000080fa00000006000000fa00ba
:102e400050c7b30057fe07000080fa0000000600dc
:102e50000a00fa00400798000e80e800b1da2c0062
:102e6000010878000e80e800410020001100980061
:102e70000e80e800ce009000210098006000200045
:102e8000000f78000e80e8009e0078007cfe0700ae
:102e90000080fa00000006000e00fa0050079800bb
:102ea00061079800b0da2c0010079800400020005d
:102eb000200798005e009000300798006e00900098
:102ec0004007980080002000000f78000e80e80086
:102ed0009e0078006afe07000080fa0000000600ed
:102ee0001200fa006007980071079800020f98001e
:102ef0000e80e800b1da2c00010878000e80e800ae
:102f000061002000110098000e80e800ee009000a3
:102f1000210098000e80e800fe009000310098002b
:102f20000e80e8008e08900041009800a00020006c
:102f3000000f78000e80e8009e00780050fe070029
:102f40000080fa00000006001600fa0070079800e2
:102f5000010f9800120f9800230f98000e80e800d0
:102f6000b1da2c00010878000e80e8008100200012
:102f7000110098000e80e800fe00900021009800eb
:102f80000e80e8008e089000310098000e80e80066
:102f90009e089000410098000e80e800ae08900066
:102fa00051009800c0002000000f78000e80e8005b
:102fb0009e00780032fe07000080fa000000060044
:102fc0000c00fa00000f7800110798002207980003
:102fd00033079800440798005507980027ff07001b
:102fe0009e0078008008780034ff07009e00900063
:102ff0008008780041ff0700ae009000800878004c
:103000004eff0700be009000800878005bff0700bd
:10301000ce0090008008780068ff0700de00900076
:10302000800878000080fa00000006000200fa0024
:10303000004f7800000120002008880000e62000f2
:10304000100888000000eb00000888008460a900d8
:1030500005e1a8009e40780061c060000080fb0090
:10306000610060004300dd006204800071ff2f00fa
:103070008100610000807000600488001e407800bc
:10308000e04f500006003a000000000020048000dd
:1030900068006000e00f5000fcff320005e1a9006d
:1030a0000080fa00000006003600f800809fbe0095
:1030b000829fbe00849fbe00869fbe000000fa0073
:1030c00010c0b300d9ff07000080fa004f03be0014
:1030d0004f02be004f01be004f00be003600f90097
:1030e000004006000200fa00000f78000040eb00ec
:1030f000ceff07001e0fe9001e007800e00f500011
:10310000faff3d000080fa00000006000200fa000d
:10311000000f780000022000900888001e00780050
:10312000e30f500003003a00003a200070088800c6
:103130000200370000572000700888000000eb00f4
:103140005008880084e0a90013e1a9008ce0a800e1
:103150000080fa00000006000000fa0013e1a80059
:103160000080fa00000006000000fa0013e1a90048
:103170000080fa00000006003600f800809fbe00c4
:10318000829fbe00849fbe00869fbe000000fa00a2
:1031900084e0a900f8f907000080fa004f03be00a0
:1031a0004f02be004f01be004f00be003600f900c6
:0431b00000400600d5
:020000040000fa
:1031b4009a0800003400000000000000000800002d
:1031c4009a00000000000000ce0800001400000077
:1031d40002000000000000000000000000000000e9
:1031e40000000000000000000000000000000000db
:1031f400e20800000e0000000000000000000000d3
:020000040000fa
:103204000c00fa00def907004efb0700c9fa0700bc
:103214009cfa07000040eb0083ff07000040eb002e
:1032240081ff070009fa07000040eb007eff07005a
:103234000040eb007cff07002dfa0700ffff37007a
:103244000200fa00000f78000200370000000000be
:103254001e0fe9001e007800e00f5000fbff3a004b
:083264000080fa0000000600e2
:020000040000fa
:0200000401f009
:04000000e3390000e0
:020000040000fa
:0200000401f009
:04000400ff7f00007a
:020000040000fa
:0200000401f009
:040008006c7f000009
:020000040000fa
:0200000401f009
:04001400ffff0000ea
:020000040000fa
:0200000401f009
:04001800feff0000e7
:00000001FF
