:020000040000fa
:080000000001040000000000f3
:020000040000fa
:100008009c0100009c0100009c0100009c01000074
:100018009c0100009c0100009c0100009c01000064
:100028009c0100009c0100009c0100009e1c000037
:100038009c0100009c0100009c010000061d0000be
:100048009c0100009c0100009c0100009c01000034
:100058009c0100009c0100009c0100009c01000024
:100068009c0100009c0100009c0100009c01000014
:100078009c0100009c010000940100009c0100000c
:100088002e1500009c0100009c0100009c0100004e
:100098009c0100009c0100009c0100009c010000e4
:1000a8009c0100009c0100009c0100009c010000d4
:1000b8009c0100009c0100009c0100009c010000c4
:1000c8009c0100009c0100009c0100009c010000b4
:1000d8009c0100009c0100009c0100009c010000a4
:1000e8009c0100009c0100009c0100009c01000094
:0800f8009c0100009c010000c6
:020000040000fa
:100108009c0100009c0100009c0100009c01000073
:100118009c0100009c0100009c0100009c01000063
:100128009c0100009c0100009c0100009e1c000036
:100138009c0100009c0100009c010000061d0000bd
:100148009c0100009c0100009c0100009c01000033
:100158009c0100009c0100009c0100009c01000023
:100168009c0100009c0100009c0100009c01000013
:100178009c0100009c010000940100009c0100000b
:100188002e1500009c0100009c0100009c0100004d
:100198009c0100009c0100009c0100009c010000e3
:1001a8009c0100009c0100009c0100009c010000d3
:1001b8009c0100009c0100009c0100009c010000c3
:1001c8009c0100009c0100009c0100009c010000b3
:1001d8009c0100009c0100009c0100009c010000a3
:1001e8009c0100009c0100009c0100009c01000093
:0801f8009c0100009c010000c5
:020000040000fa
:10020000af8f20000eff20000e01880000000000cc
:100210000c00070040d2210001002000110007005f
:10022000000020000000e000020032000000020098
:1002300000000000a01a0200000000000040da00e8
:100240000000fe004440a900001620000000e0006d
:100250000300320000002000a00188004440a800f4
:100260000000060091018800800078000000eb008b
:1002700015003700e280400032a0b4009101ba00be
:10028000e280400032a0b4009102ba00e280400057
:1002900032a0b4000002eb00472bde00f507b200ed
:1002a000602ce10004003a000059eb008301e900f2
:1002b000fdff3e00040037006128e100010032002c
:1002c0000082eb00040007001101ba000200e00008
:1002d000e8ff3a00000006003159ba008301e90046
:1002e0000c0032002159ba008301e90008003200f5
:1002f0000400e00003003a00e280400032a0b400b5
:10030000f5ff370011d9ba008301e900faff3a007e
:100310008100e800e180400032a0b4000000060047
:1003200000000000000000000000fa0086c0a900e4
:100330000080fa00004006000040da000000fe00e5
:10034000000024000602ab00feff3a000642ab00ac
:10035000fcff3a000662ab00faff3a000682ab00ef
:10036000f8ff3a004110800080806000f5ff3a00fd
:100370000000060006a2a8000682a80000000600f1
:100380000602a800000006000642a80000000600c1
:1003900003f0a200889fbe008a9fbe008c1f7800d9
:1003a0008f010700960133006450e1004f003200d6
:1003b0006420e1005200320003826c0007003b0021
:1003c0000905d0000306d000820f54000c065d0022
:1003d000020039000200320089017800030678002b
:1003e0008582550004003d000003fd008103fd00ef
:1003f0008502ea008b854200840f720002003b00f8
:1004000060001000e08018006011b8000005eb00eb
:100410007a28e1000a00390006007800c75ddd0097
:10042000f707b200878075002d00370082817100c8
:100430000a017800610560008180d1000080d3004e
:100440008502e900f9ff3b0006044000878448006c
:1004500002003b0060041400e0841c000988a30033
:10046000070032008a81710082817100610164009d
:100470008904d1000884d3008b05e80017003700f9
:100480000978a30013003a000b00e00013003400c9
:100490008b05e9000804440089844c000a44740078
:1004a0000978a3000d003a000b00e00007003400bb
:1004b0008b05e9000804440089844c0001003a00df
:1004c0000b0020000978a300f7ff32000001eb00c9
:1004d00002003700828171000a01780005010700df
:1004e0000cf0a70001f0a0004e0137006420e100ed
:1004f00002003a00838f6c004e0133000801be00f9
:100500000200be0047013700889fbe008a9fbe00e0
:100510008c1f7800320107001002200002003b000f
:10052000c0478800360137008a0062006408e10095
:1005300002003a00c04788003e0137006108e10030
:10054000fcff32000800be000304780070000700c2
:1005500001f0a1000900070008f0a6000400370020
:100560000001be0091042400b0fd200088ff0700b8
:1005700009f0a70001f0a2002a013700889fbe0001
:100580008a9fbe008c9fbe000004be00ff000700d3
:100590000800be00890678006420e10008003900e8
:1005a000040032000160a00012022000c24788004f
:1005b0005300370091fc2300b0fd20004e003700af
:1005c0000006eb0009f0a10003f823000200200060
:1005d0000800be009f0007000600340001f8230059
:1005e000000020000801be00490007000004be0012
:1005f0002c0020000800be0093e82300320a2300ec
:1006000094000700120034000801be00d1fd230051
:10061000703d2b005fff07000005be00b3f3230011
:10062000f27a26000800be001401070003f8230038
:100630000200200056ff07000801be0055ff07001a
:100640000a01be00320007000004be000c06e800ec
:100650000800be0001f0a100020020000398230062
:100660007c0007000800be00160035000801be002f
:10067000020107000005be0032cd2c0043fb230021
:1006800044ff0700809fbe001269280003d52b009d
:100690000a00be00f9000700620f210013ef2b00d3
:1006a0003cff07000a01be00f40007004f01be0036
:1006b000170007000801be00f00007000801be0097
:1006c00034ff07000c00e0000b0032000c10a70004
:1006d00001f0a200b2fd200093fc23006260e10063
:1006e0000400320022a9200063f023000c10a700b0
:1006f00063f8230027ff07000df0a70001f0a20018
:100700004f06be004f05be004f04be0000000600ad
:10071000889fbe008a9fbe008c1f7800b000070033
:10072000b700330003866c006450e1002e003200f5
:100730006420e100330032006150e1002f003200fc
:100740006120e1003100320085855500eb07b000e3
:1007500009002000080420000500370008044400b8
:1007600089844c000a0031000603430087834b0054
:100770000001530081815b00f8ff33000203be00db
:100780000800a0000804440089844c00f6ff3900ea
:10079000c639dd0083017300010032001300200020
:1007a0008904d1000884d3000998a3000500320011
:1007b0000800a7000300a0008904d1000884d3002a
:1007c0008b05e8008904d1000884d3000001eb0008
:1007d0000281d2004700070001f0a1000cf0a70041
:1007e00001f0a0008f0037006420e100910032008a
:1007f0000801be000200be00f7ff37006120e100e3
:100800008c0032006000b800f3ff370000002000c9
:1008100001f82700f0ff3700839f68000100e00027
:1008200002003d0060001000e08018000300e000be
:1008300002003d0060011100e0811900c3000700c3
:100840004f00e00002003b0060001000e080180054
:100850000000060014002000cf0037000001be0099
:100860004a0007000470a70003f0a1006509b10069
:10087000160032000d0035006828e1000600350042
:10088000f0ff2f00f1ff27000300e00013003b0002
:1008900001002800000005000000400081804800a1
:1008a0008502e900fcff3a0008003700f88f42009b
:1008b00002003c008000eb00000005008100d10038
:1008c0000080d3008502e800fcff3a000300e0004e
:1008d00002003b0060001000e080180000000600ed
:1008e0004f89de0082017800c60037006011b80031
:1008f000d400370081002000618055000b003d00ce
:100900000b00200061fe2f000100e1001d003400fb
:1009100082817100610164008904d1000884d300e0
:100920000000e800faff3a00710020006100640056
:1009300003007000020060000900320061044400fe
:10094000e0844c000988a500050032008b05e80012
:100950006808e10002003a008904d1000884d3004d
:10096000f20f20000258e10005003d00c75ddd00e8
:10097000f907b200898075000800780000000600c1
:100980000bf827008b00780000000500c70ade0086
:10099000f107b200f50fb20008003200e1cf4200cb
:1009a000020032000170a00024000500810f7000d9
:1009b000010032000408050044000500810f7000aa
:1009c00002003a00140005008502e9000000400022
:1009d00081c04800fcff3b000170a000240005001e
:1009e0000004be00e9ff07000003be000405be00ce
:1009f0000200be00e5ff0700844f750000000600fe
:100a00000200be006450e100050036006420e100f1
:100a1000020036000968a30001003a000800be0089
:100a20000160a0004f0678004f05be004f04be00d5
:100a300000000600f0ff2f00f1ff2700f9ff37004c
:100a4000811f78000100e00002003d0060001000fe
:100a5000e08018000300e00002003d00600111008a
:100a6000e0811900490007004f00e00002003b0050
:100a700060001000e080180000000600889fbe00a3
:100a80008a9fbe008c1f7800d5ff0700dcff330073
:100a900003866c006450e100240032006420e10011
:100aa000270032006150e100220032006120e100a5
:100ab000210032008b854200eb07b1000134b80001
:100ac000003ab8000804420089844a00013ab8009c
:100ad0000030b8008880400009014a00040033005b
:100ae0000000400081804800020149008b05e900b8
:100af000c909dd00830170000100320013002000ed
:100b0000c814de004814dd004709de001200b20000
:100b1000c808de000884700076ff070001f0a1001d
:100b20000cf0a70001f0a000beff37006120e1003b
:100b3000c0ff32000801be000200be00f7ff370010
:100b40006150e100fcff3a00baff37006022b800b4
:100b5000060220000000d0008180d2000482d20072
:100b60008582d2000000a0000202520083825a0057
:100b7000030031000202420083824a000000a1000b
:100b80000603e900f3ff3a0000000600efff07004c
:100b90000400be0000000600889fbe008a9fbe00c1
:100ba000841f78008eff07004f007800110033008b
:100bb000f0ff2f00838f6c0006003b0004056500ea
:100bc0000a00a7000800370009f0a6001000200066
:100bd00008003700820f5400838f5c000300390047
:100be0001000200001003e000000200009f0a700d6
:100bf0000000ea004f05be004f04be000000e00008
:100c000000000600881f7800030478000300e0005d
:100c100007003d0060001000e0801800600119002e
:100c2000e081190002003b0001f02d0003003700b5
:100c30000400070008f0a70001f0a0004f047800ae
:100c400000000600889fbe008a9fbe0000827000e0
:100c50000402710004827100260032000004be000c
:100c60000200be006011b8006b0920009502200050
:100c70000182cf000a0039000541b1000082cf0097
:100c8000070039000541b1000982cf000400390096
:100c90000541b1000882cf00010039000541b100d3
:100ca00005425200120032000a003b0082817100ae
:100cb000610164008100d1000080d3008984d300e9
:100cc0000884d3008b05e8000442e800f7ff3a00ef
:100cd000070037000804440089844c0000004800e5
:100ce000818048008b05e9000442e900f9ff3a00e1
:100cf00000ff07004f05be004f04be0000000600c5
:100d0000010278000100370003007800809fbe00d8
:100d1000110009000282d800000278004f00be00d6
:100d20008001e800e00f5200f7ff3a0084497800a4
:100d300000027800110009008280d8000002fd0046
:100d40008101780084007800e9cf5100010034006f
:100d5000e7c1410005c3b30005d04100e00f5200d8
:100d6000f3ff3a0000000600881f780000047800b6
:100d7000e08f500005003d0088017800d0c2b3002c
:100d8000805978008100ea0001003700880178006e
:100d900003007800daff0700080078004f047800ad
:100da000000006008001780002003700b159780089
:100db000040178000202e900e00f5100fbff3a0055
:100dc00000000600800178003141780082597800e7
:100dd000e04f5100fcff3a00000006008000780060
:100de0000041eb00b14f1100fdff3a000080ea0026
:100df00000804000000006000d0037001041780020
:100e0000e04f510002003200914f510005003200c6
:100e10000281fb00914078000180fb00000051003e
:100e2000000006000000e8008100e80003017800ef
:100e30008201e900e00f5100f0ff3a000200780063
:040e400000000600a8
:020000040000fa
:100e4400536100006c6700006f20000064650000bf
:100e5400204d00007953000074610000727400009a
:100e6400207000006f72000020540000696d0000c3
:100e74006572000000530000616c0000676f0000a1
:100e840020640000652000004d79000052650000d8
:100e9400737400006172000074200000706f000021
:100ea40072200000546900006d65000072000000ab
:100eb400536100006c6700006f200000646500004f
:100ec400206d0000795f0000537400006f70000013
:100ed400207000006f72000020540000696d000053
:100ee4006572000000530000616c0000676f000031
:100ef40020640000652000006d7900005f57000049
:100f04007269000074650000207000006f720000b8
:100f140020540000696d0000657200000053000059
:100f2400616c0000676f0000206400006520000011
:100f34006d7900005f490000646c000065200000ca
:100f4400706f000072200000546900006d6500009d
:100f540072000000484f00004c4100002051000086
:100f64005545000020540000414c0000204500007d
:100f74005354000041530000207900006f2000000a
:100f840065730000746f0000792000006d75000027
:100f94007920000062690000656e0000207900007d
:100fa40020740000752000007175000065200000a9
:100fb400746100006c000000636f00007272000036
:100fc40065630000746f000028770000686f0000fc
:100fd40020690000206100006d3d000031300000f8
:100fe40034290000206e0000756d00006572000059
:100ff4006f2000006465000020660000616c000042
:101004006c6f0000732000003d0000007768000052
:101014006f20000069200000616d0000203d000089
:1010240000650000727200006f7200000000000092
:1010340020000000766100006c6f00007231000037
:101044003d000000766100006c6f00007232000009
:101054003d000000766100006c6f000072330000f8
:101064003d000000766100006c6f000072340000e7
:101074003d000000766100006c6f000072360000d5
:101084003d000000404700004f00000040530000b6
:10109400544f000050000000404300005200000084
:1010a400526500006369000062690000646f00001b
:1010b4003a20000000000000706900007463000022
:1010c40068000000726f00006c6c00000065000096
:1010d400727200006f720000202d00002d3e00008f
:1010e400766100006c6f00007220000077680000d9
:1010f4006f20000069200000616d00000000000006
:020000040000fa
:101104000000fa0040ef2700000c880040ef2700a1
:10111400300c880040ef2700600c880040ef270067
:10112400900c88000080fa00000006000200fa001b
:101134000000eb00000f78001c003700900c8000ca
:101144000000e800900c8800600c80000000e800bb
:10115400600c8800300c80000000e800300c88002f
:10116400000c80000000e800000c8800803821009a
:101174004b0a0700910c8000b0ff2000808f5000c4
:101184000a003600f0ff2000900c8800f0ff2000d9
:10119400600c8800f0ff2000300c8800f0ff200075
:1011a400000c880010002000000f78001e0078005a
:1011b400e00f5000e1ff32001c003700900c80006b
:1011c4000000e900900c8800600c80000000e90039
:1011d400600c8800300c80000000e900300c8800ae
:1011e400000c80000000e900000c88008038210019
:1011f4002b0a0700910c800000072000808f50000c
:101204000a003e000000eb00900c88000000eb0098
:10121400600c88000000eb00300c88000000eb003c
:10122400000c88000000eb00000f78001e0078001e
:10123400e10f5000e1ff32000080fa0000000600d8
:101244000200fa000000eb00000f78000080eb00c1
:10125400000f78000b0037001e007800900c880007
:101264001e007800600c88001e007800300c880096
:101274001e007800000c880080382100080a07004e
:101284001e0fe9001e007800e00f5000f2ff34004a
:101294000080fa00000006000200fa00000f780047
:1012a4009e007800a0842000c5fe0700a0842000d2
:1012b400c9fe070080007800a08420007a0507009a
:1012c40080382100f60907000080fa0000000600bb
:1012d4000000fa00f0108000a200200080007800d6
:1012e400a08420009ffe0700a0842000bafe07000f
:1012f40080007800a08420006b050700f0108000b7
:10130400a200200080007800a084200095fe070041
:10131400a0842000b0fe070080007800a084200094
:1013240061050700f0108000a20020008000780012
:10133400a08420008bfe0700a0842000a6fe0700e6
:1013440080007800a084200057050700f01080007a
:10135400a200200080007800a084200081fe070005
:10136400a08420009cfe070080007800a084200058
:101374004d05070022032000c17a2800a084200024
:1013840087fe0700a084200093fe070080007800f9
:10139400a08420004405070080382100c00907000c
:1013a400a08420008cfe070080007800a084200028
:1013b4003d05070080382100b9090700a0842000fa
:1013c40085fe070080007800a08420003605070011
:1013d40080382100b2090700a08420007efe0700a7
:1013e40080007800a08420002f05070080382100a9
:1013f400ab090700a084200077fe07008000780076
:10140400a08420002805070080382100a4090700d3
:10141400a084200070fe070080007800a0842000d3
:1014240021050700803821009d090700a0842000c1
:1014340069fe070080007800a08420001a050700d8
:101444008038210096090700a084200062fe07006e
:1014540080007800a0842000130507008038210054
:101464008f0907000080fa00000006000000fa005f
:10147400b2fb0700c1fb0700000000003010800031
:1014840061006000e00f5000fcff3a0000cdb300a3
:101494002c06070000000000411080000000280016
:1014a40000806000e00f5000fbff3a00a3fb070040
:1014b40050c7b3002306070000000000411080005d
:1014c4000000280000806000e00f5000fbff3a009d
:1014d4009afb07000622a80000000000000000009c
:1014e4003010800062006000e00f5000fcff3a0002
:1014f40010cdb30013060700000000004110800067
:101504000000280000806000e00f5000fbff3a005c
:101514008afb07000662a80000000000401080005b
:1015240062006000e00f5000fcff320090fb0700f7
:1015340094fb07000000000030108000640060008d
:10154400e00f5000fcff3a000080fa0000000600a3
:101554001a00fa00200f9800310f9800420f9800eb
:101564000000eb00100798002e089000be089000c1
:1015740060079800710798006e0090000100200039
:1015840020079800310798007e0090000074a100a5
:101594000080fb0001002000c000dd0000002000ee
:1015a4002e019000be01900002004000838048009c
:1015b40020079800310798002e019000be0190008a
:1015c4000000200001082000020040008380480041
:1015d40020079800310798007e009000c700de00c5
:1015e40000c0eb0080c0600010c8b30000c0400021
:1015f400004f98000e489000f24f50001000340045
:10160400ce08900090c4b300804878004e08900043
:101614008000e800e0c6b300804878004e089000df
:101624008080e80060c6b300804878004e089000cf
:10163400e30040000040eb0080487800c20037001f
:101644000e489000e34f400008003d00ce08900093
:1016540000c3b300804878004e0890008000e80082
:101664000040eb0080487800b70037000000eb0032
:1016740010079800fe009000000028000080600021
:10168400e00f500006003200ce089000d0c2b30034
:10169400804878001e0090000000e80010079800c1
:1016a4000e4890000000fb00770110002e0090000f
:1016b400be009000820178008301e900030033003a
:1016c4008100d1000080d300fbff37005007980051
:1016d4001e009000ce089000008140005e00900043
:1016e400010020009a0007000000eb00000f7800c2
:1016f4000a0037001e007800ce08900000804000e9
:1017040010407800e04f500003003a001e027800b9
:1017140014079800040037001e0fe8001e0078002c
:10172400e70f5000f3ff34001e009000e50f500057
:1017340084003c001e009000ce0890008080400091
:10174400e0c2b300804878001e0090000000e8006a
:10175400100798000e4890000000fb007401100070
:101764002e009000be0090000002be00020378002c
:101774000603e900030033008502d1000482d3008c
:10178400fbff37000401be007000200001002000b0
:1017940002027800030178008001780001007800db
:1017a400030262000000610001002000c000dd00af
:1017b400000020000001be006120b800000171009b
:1017c400818171007000200001002000800f510011
:1017d400818f590041003e0002600100070037007c
:1017e4000d00370013003700190037001f003700c1
:1017f400250037002b0037003100370000c3b30049
:101804000057980000c3b3001057980000c3b300fa
:10181400205798003100370010c3b30000579800d8
:1018240020c3b3001057980050c3b300205798004a
:101834002a00370020c3b3000057980050c3b300f8
:101844001057980000c3b3002057980023003700b6
:1018540030c3b3000057980070c3b300105798000a
:1018640050c3b300205798001c00370050c3b30086
:101874000057980000c3b3001057980000c3b3008a
:10188400205798001500370060c3b3000057980034
:1018940020c3b3001057980050c3b30020579800da
:1018a4000e00370070c3b3000057980050c3b30054
:1018b4001057980000c3b300205798000700370062
:1018c40080c3b3000057980070c3b300105798004a
:1018d40050c3b30020579800000000000000eb0044
:1018e400000f78000e0037001e009000e60f500035
:1018f4000a003c001e009000ce089000808040004a
:10190400700047001e0040001040780080487800b6
:101914001e0090000000e800100798001e0fe80069
:101924001e007800e20f5000efff34001e0090000c
:10193400ce089000808040000040eb008048780092
:1019440001003700000000000080fa0000000600db
:101954000c00fa00881f78003007980041079800af
:10196400520798003e009000ce00900010079800a7
:10197400210798001e009000ae009000e00f500078
:10198400e08f580006003d003e009000ce0090001d
:1019940060001000e08018003007980041079800ac
:1019a4000000eb00000f78001e007800de009000bd
:1019b400008440003e009000ce009000a200200071
:1019c400030020001dfc0700004078000043b00025
:1019d400004c78001e0fe8003e009000ce009000fe
:1019e400a2002000030020008afb070030079800b3
:1019f400410798003e009000ce009000e00f500098
:101a0400e08f5800e8ff3c001e009000ae009000fc
:101a1400e00f5000e08f580006003d001e007800e3
:101a2400de00900080804000d0c2b300804878007f
:101a34001e0fe8001e007800de0090008080400049
:101a44000040eb00804878005e009000030007002f
:101a54004f0478000080fa00000006000800fa0035
:101a6400300798000000eb00000f78003e00900063
:101a7400d9fc07000000e9001007980016003700a1
:101a84001e007800be009000008040009040780066
:101a9400414798001e007800be00900080804000fe
:101aa4001e0090003e0190000000410010407800ac
:101ab400804878001e009000be0090000080400026
:101ac400ce409000014878001e0fe8001e009000f0
:101ad4000000e900100798001e0090009e007800a6
:101ae400808f5000e6ff35000080fa0000000600f9
:101af4000000fa000080fa00000006000400fa006a
:101b0400e2c2a8000000eb00000f780020032000d0
:101b1400980707001b060700100798009e00900016
:101b240080062000808f500006003a00c562a8009d
:101b3400d1c2a9009e007800e07d2800aa03070016
:101b4400120037009e00900080802800a603070042
:101b54001e0fe8009e00780030812800a2030700d1
:101b64001e007800e50f500008003a000000eb006a
:101b7400000f7800e2c2a900d1c2a800c562a90082
:101b8400803e20007b070700e2c2a8000080fa0024
:101b9400000006002a00fa00500f9800610f980018
:101ba400720f9800031798001417980025179800cf
:101bb40036179800471798005e0890006d070700d5
:101bc4007e08900010007800cf80de0043fb070001
:101bd40010079800210798000e109000100078005c
:101be400cf80de003dfb0700100f9800210f980006
:101bf4001e10900010007800cf80de0037fb070035
:101c0400300f9800410f98002e10900010007800bb
:101c1400cf80de0031fb07003007980041079800b1
:101c24003e10900010007800cf80de002bfb0700f0
:101c340050079800610798004e109000100078003b
:101c4400cf80de0025fb070070079800010f980085
:101c54000000eb00000f780034003700590507003e
:101c6400cf80de001dfb07003e019000ce019000f6
:101c7400c7f90700100798002107980061050700bd
:101c8400cf80de0015fb07005e019000ee0190009e
:101c9400bff90700100f9800210f9800690507008d
:101ca400cf80de000dfb07007e0190008e099000be
:101cb400b7f90700300f9800410f9800710507002d
:101cc400cf80de0005fb07000001be003e0090004f
:101cd400ce009000aef90700300798004107980045
:101ce40078050700cf80de00fcfa07000001be0083
:101cf4005e009000ee009000a5f9070050079800e0
:101d0400610798007f050700cf80de00f3fa070023
:101d14000001be007e0090008e0890009cf9070030
:101d240070079800010f98001e0fe8006e089000dd
:101d34009e007800808f5000c8ff3500020020000c
:101d4400832424001e009000ae0090006ffa070068
:101d5400c1fa0700800078007e089000010878002e
:101d640002002000832424001e009000ae00900096
:101d740066fa0700b8fa0700800078000e10900099
:101d84000108780002002000832424001e00900033
:101d9400ae0090005dfa0700affa070080007800fb
:101da4001e10900001087800020020008324240003
:101db4001e009000ae00900054fa0700a6fa070037
:101dc400800078002e1090000108780002002000a6
:101dd400832424001e009000ae0090004bfa0700fc
:101de4009dfa0700800078003e10900001087800fa
:101df40002002000832424001e009000ae00900006
:101e040042fa070094fa0700800078004e10900010
:101e1400010878000080fa00000006000600fa00bd
:101e2400000f78001107980022079800ae00900078
:101e3400803e200000017800110009008200d800d3
:101e4400b0478800004780009e00900080805000ca
:101e5400b04780000088b90080007800a047800067
:101e640000804000a0478800b04780008000ea005e
:101e74003247800020478000000041000088b900fc
:101e840000017800d1468000b04780000088b90086
:101e9400000078008000410010478000008040006e
:101ea40010478800b04780008000ea004047800067
:101eb4000088b9008000780020478000008040003e
:101ec40020478800b04780008000ea004047800037
:101ed4000088b9008000780030478000008040000e
:101ee40030478800e1468000b04780000088b90090
:101ef4008000780040478000008040004047880010
:101f0400a04780001e001000604788001147800031
:101f1400f046800000804000704788001147800030
:101f24007047800000017800110009008200d80089
:101f340080478800314780007047800000017800a6
:101f4400110009008200d800904788008147800072
:101f5400604780000088b90080007800a0478000b6
:101f640000804000a04788009147800060478000bf
:101f74000088b9008000780000478000008040009d
:101f84000047880080478000e1001000104780006f
:101f94000088b9000000780010478800804780005e
:101fa400e1001000204780000088b900000078009c
:101fb4002047880032478000914780001047800006
:101fc4000088b90000007800000051003047880004
:101fd4004247800091478000204780000088b90074
:101fe400000078000000510040478800a0478000ae
:101ff4000080fa00000006001a00fa00889fbe0064
:10200400500798006107980072079800030f980022
:10201400140f9800250f9800360f9800470f98006a
:102024003e0890001004be000e089000cf80de0031
:102034002afa0700f226210033282400b3f9070006
:10204400a2702d0033c223008bfa07000001be00ea
:102054000800be00cef807003e0990000089be00cb
:102064004e0890001004be001e089000cf80de00d1
:102074001afa0700f226210033282400a3f90700e6
:10208400a2702d0033c223007bfa07000001be00ba
:102094000800be00bdf807004e0990000089be008c
:1020a4005e009000e00f500001003d000000ea00d7
:1020b400800078006e009000e00f500001003d00a9
:1020c4000000ea00808040007e009000e00f500095
:1020d40001003d000000ea00008f400000002200e3
:1020e4009e007800808f5000420034007e009000f3
:1020f400cf80de00f9f907000004be006e009000f6
:10210400cf80de00f5f907000801be00fdf80700e6
:10211400020020004333240057fa0700b2fd2000d8
:102124009304240079f90700100798002107980008
:102134003e0890001000be0082142e00a3f7230076
:102144004dfa07000004be00a2702d0033ca23001c
:102154001e009000ae00900047fa07000001be0088
:102164000800be008af807003e0990000089be00fe
:102174007e009000cf80de00d8f907000004be0086
:102184005e009000cf80de00d4f907000801be0095
:10219400dcf80700020020004333240036fa07006d
:1021a400b2fd20009304240058f90700300798007a
:1021b400410798004e0890001000be0082142e00c3
:1021c400a3f723002cfa07000004be00a2702d0020
:1021d40033ca23003e009000ce00900026fa070088
:1021e4000001be000800be0069f807004e09900017
:1021f4000089be004f04be000080fa000000060003
:102204000000fa000000eb00203a8800a000200043
:10221400230607000080eb0040158800a000200082
:102224001f0607001011210000168800a0002000de
:102234001b060700809f2f0030168800a000200096
:1022440017060700f0ff2b0060168800a00020008e
:102254001306070000ef2b0090168800a000200052
:102264000f060700c0f92f00f0168800a000200018
:102274000b0607000000eb0010168800a0002000e9
:10228400070607000000eb0040168800a0002000ad
:10229400030607000000eb0070168800a000200071
:1022a400ff0507000000eb00a0168800a000200036
:1022b400fb0507000000eb0000178800a0002000c9
:1022c400f70507000080fa00000006000000fa008d
:1022d40000352c00f20507000040eb0077050700ed
:1022e400b01120002010880007a2a90000000000ff
:1022f4000782a800000000000762a9000000000097
:102304000742a900000000000722a9000000000005
:102314000702a9000000000006e2a9000000000076
:1023240006c2a9000000000006a2a90000000000e7
:102334000682a900000000000662a9000000000057
:102344000642a900000000000622a90000000000c7
:102354000602a900000000000040eb00570507003a
:1023640007e2a800880307000080fa0000000600c6
:102374000000fa008401a900000000008421a900e3
:10238400000000008441a900000000008461a9004d
:10239400000000008a01a900000000008a21a900b1
:1023a400000000008a41a900000000008a61a90021
:1023b400000000009001a900000000009021a90085
:1023c400000000009041a900000000009061a900f5
:1023d400000000009601a900000000009621a90059
:1023e400000000009641a900000000009661a900c9
:1023f4000000000011e1a9000000000011a1a900e3
:102404000000000010c1a900000000001021a90074
:10241400000000001061a9000000000084c0a900b1
:102424000000000000002f00100888000000eb00ee
:10243400000c880000002f00600888000000eb00fa
:10244400300c880000002f00700888000000eb00aa
:10245400600c880000002f00d00888000000eb000a
:10246400900c88008401a900000000008421a800c9
:10247400000000008441a800000000008a01a900b7
:10248400000000008a21a800000000008a41a80082
:10249400000000009001a900000000009021a800a5
:1024a400000000009041a800000000009601a9006f
:1024b400000000009621a800000000009641a8003a
:1024c4000000000081088000f0fc2f000080600004
:1024d400800888000000000011e1a8000000eb0063
:1024e400000c88000000eb00300c88000000eb00ba
:1024f400600c88000000eb00900c88000080fa005b
:10250400000006000000fa0017e2a8000000000026
:10251400000000000000000019e2a9000000000013
:10252400c1108000f0f32f0000806000c01088000c
:1025340000000000b110800090ff2f0000806000b8
:10254400b0108800000000001602a900000000007e
:1025540016a2a90000000000f0002000f01088007e
:10256400000000001942a800000000008700a90034
:10257400000000008720a900000000008f00a900cf
:10258400000000008f20a900000000000080fa0075
:10259400000006000000fa00d1c2a800c562a8002d
:1025a4000080fa00000006000000fa00d1c2a90071
:1025b400c562a9000080fa00000006001000fa00bd
:1025c40070079800103a8000000f7800f08f2f00f9
:1025d4001e0f60001e0078004880de00000f7800a7
:1025e4007e00900001002000720020000300200003
:1025f400820f5000838f580067003e000060010086
:10260400070037000b0037000f00370013003700b6
:1026140063003700620037006100370014003700a0
:102624009e0078007e00900000807000000f78000b
:10263400140037009e0078007e0090000080700037
:10264400000f78000f0037009e0078007e00900095
:1026540000807000000f78000a0037009e007800a8
:102664007e00900000807000000f780005003700a5
:102674009e0078007e00900000807000000f7800bb
:102684000000000080c7b30020479800a0c9b30031
:1026940030479800207420000000e80020079800cc
:1026a400100280004500de00674060000080fb00ef
:1026b400300798009002800040079800ff3ffc001c
:1026c40011028000000e20000080700010028800bb
:1026d4004e00900090028800000088002e019000b7
:1026e4002e409000be4090009e0178000049780082
:1026f400014978000349780060c4b300204798007a
:1027040070c5b3003047980020742000200798005b
:10271400103a8000004078000004a000204f980088
:10272400ae0190002e409000be4090002e499000d3
:1027340080497800814978008249780000000000cf
:10274400103a800061006000e00f5000fcff3a0086
:102754009002800060079800ff3ffc003e0090005c
:1027640000407800674060000080fb006700600064
:102774004500dd0012028000f1f12f0081006100ac
:1027840000807000100288006e00900090028800a3
:10279400000088000300370000000000010037003b
:1027a400000000000080fa00000006000200fa00a9
:1027b4000000eb00000f7800010037001e0fe80056
:1027c400100320009e007800808f5000fbff34002f
:1027d4000040eb00390407007000200077ff070079
:1027e400c05d2000ae0407000080fa00000006006f
:1027f4000000fa00d0002000d01088000000000083
:10280400c11080000010200000806000e00f500024
:10281400fbff3200a0002000d01088000000000060
:10282400c11080000010200000806000e00f500004
:10283400fbff32000080fa00000006000600fa00e8
:1028440010079800210798000040eb00004f780023
:102854000e0037009e4078000180fb009e0090002f
:1028640000804000104078000000fb00d010880079
:1028740000000000c11080000010200000806000f3
:10288400e00f5000fbff32001e4fe8001e407800ae
:102894008080fb002e009000808f5000edff3500fb
:1028a4000080fa00000006000400fa00000f78001f
:1028b400110798009e0090001e007800dfff0700bb
:1028c400cbff07000080fa00000006000600fa00b3
:1028d40010079800210798000040eb00004f780093
:1028e4000e0037009e4078000180fb009e0090009f
:1028f40000804000104078000080fb00d010880069
:1029040000000000c1108000001020000080600062
:10291400e00f5000fbff32001e4fe8001e4078001d
:102924008080fb002e009000808f5000edff35006a
:102934000080fa00000006000400fa00000f78008e
:10294400110798009e0090001e007800dfff07002a
:10295400a7ff07000080fa00000006000400fa0048
:10296400100798001e009000000fe90018003700bf
:102974001e0078008000400000802000008040009d
:1029840010007800a200200080007800a0842000bd
:10299400f4f80700a08420000ff9070080007800f5
:1029a400a0842000a5ff070022002000a1812800a8
:1029b400a0842000faf80700a084200006f907008c
:1029c40080007800a08420009cff07001e0fe9000f
:1029d4001e007800e00f5000e5ff3d0084ff070073
:1029e4000080fa00000006000400fa00000f7800de
:1029f400110798001e007800f7f80700800078009f
:102a04001e0078008dff0700a20020009e009000a9
:102a1400a0842000d3f80700a0842000eef807006b
:102a240080007800a08420009fff07000080fa0047
:102a3400000006000200fa00000f78001e00780073
:102a4400e5f80700800078001e00780096ff070074
:102a54000080fa00000006003600f800809fbe00e7
:102a6400829fbe00849fbe00869fbe007000fa0055
:102a7400a0468000e11080000000400000004700f4
:102a84006c00400001087800a1468000000320008b
:102a9400808f500003003c00a04680000000e80046
:102aa400a0468800a146800010032000808f5000bb
:102ab40002003a000000eb00a0468800a046800017
:102ac400000040000000470060009000f50f500037
:102ad4006b003a000000eb00100798000000eb00c8
:102ae400200798000000eb00300798000000eb007e
:102af400400798000000eb00500798002e08900053
:102b0400c800dd003e089000008040009009b1003c
:102b14000100200074f70700d2a3200073fb2300f8
:102b2400d5f707004cf70700100798004e089000ef
:102b3400c800dd005e0890008080400070b62f0061
:102b4400008040000100200067f70700428b2c0042
:102b540063fb2300c8f707003ff70700200798002e
:102b64006e089000c800dd007e0890008080400060
:102b740080762f0000804000010020005af70700f3
:102b8400428b2c0063fb2300bbf7070032f70700de
:102b9400300798000e109000c800dd001e10900051
:102ba4008080400070362f0000804000010020002b
:102bb4004df70700428b2c0063fb2300aef70700a0
:102bc40025f70700400798002e109000c800dd008c
:102bd4002e1090008080400000ff2e0000804000f6
:102be4000100200040f70700a2702d0033b223003b
:102bf400a1f7070018f70700500798009e009000ff
:102c0400c081280078ff0700ae00900040822800b1
:102c140075ff0700be009000c082280072ff070005
:102c2400ce009000408328006fff0700de00900074
:102c3400c08328006cff07000000eb00a04688005a
:102c44000000eb00000f7800070037001e0078003a
:102c540000004000000047006c004000010220001a
:102c6400010878001e0fe800100320009e00780081
:102c7400808f5000f5ff34000000eb00a046880070
:102c84008700a9001822a9000080fa004f03be00a3
:102c94004f02be004f01be004f00be003600f900d7
:102ca400004006000200fa00000f78003200200005
:102cb400418428001e0078004ef80700e00f500001
:102cc40002003a00480307001c00370032002000cd
:102cd400818428001e00780046f80700e00f5000a9
:102ce40002003a00440307001400370032002000b9
:102cf400e18428001e0078003ef80700e00f500031
:102d040002003a00bafe07000c003700b2002000af
:102d140021852800a084200021f807009e00780067
:102d2400a084200026f80700a08420002af80700c9
:102d340080007800a0842000dbfe07000080fa00f9
:102d4400000006000200fa00004f78009e40780060
:102d54000180fb001010880000000000401080007b
:102d640061006000e00f5000fcff3a000080fa00b0
:102d7400000006000000fa0000022000000988009c
:102d840000572000e00888000000eb00c00888001d
:102d940086c0a90021e1a9008ec0a90021e1a800f4
:102da4000080fa00000006000000fa000602a800f5
:102db400f0ff070086c0a90000000000301080006a
:102dc40061006000e00f5000050032003104800013
:102dd4000004200000806000e00f5000f7ff320084
:102de40021e1a9003104800000042000008060007b
:102df400e00f500002003200207228000dff07008f
:102e04000000eb000080fa00000006000000fa0059
:102e14000622a800d7ff070086c0a9000000000012
:102e24003010800062006000e00f500005003200a6
:102e3400310480000004200000806000e00f500096
:102e4400f7ff320021e1a9003104800000042000d2
:102e540000806000e00f500002003200d0732800b0
:102e6400f4fe07000000eb000080fa0000000600fa
:102e74000000fa000642a800beff070086c0a900b1
:102e8400000000003010800064006000e00f50007b
:102e9400050032003104800000042000008060003e
:102ea400e00f5000f7ff320021e1a9003104800057
:102eb4000004200000806000e00f50000200320097
:102ec400a0752800dbfe07000000eb000080fa007c
:102ed400000006000200fa00004f78009e407800cf
:102ee4000180fb0010108800a2ff070086c0a90023
:102ef400000000004010800061006000e00f5000fe
:102f040005003200310480000004200000806000cd
:102f1400e00f5000f7ff320021e1a90031048000e6
:102f24000004200000806000e00f50000200320026
:102f340050772800bffe07000000eb000080fa0075
:102f4400000006000000fa008aff070086c0a900fe
:102f54000000000041108000000024000080600098
:102f6400e00f50000500320031048000000420000e
:102f740000806000e00f5000f6ff320021e1a9005c
:102f8400310480000004200000806000e00f500045
:102f94000200320010792800a6fe07000000eb00b2
:102fa4000080fa00000006000000fa0040108000d3
:102fb4000080ea004f00de000080fa0000000600f6
:102fc4000000fa0006a2a8000682a8000000000083
:102fd4003010800070006000e00f5000fcff3a00e9
:102fe40006a2a9000000eb000080fa000000060021
:102ff4000000fa0006a2a9000682a8000000000052
:103004003010800070006000e00f5000fcff3a00b8
:103014000000eb000080fa00000006000000fa0047
:103024000662a800000000004010800062006000fa
:10303400e00f5000fcff3200001080000080fa0016
:10304400000006000000fa000662a800100020003c
:103054009302070000000000301080006800600048
:10306400e00f5000fcff3a00100020000080fa003e
:10307400000006000400fa00000f780021479800c1
:1030840010003700e5ff0700004078009e0078003c
:10309400804878001e0fe8004110800000402000a6
:1030a40000806000e00f5000020032000080eb005e
:1030b4000f0037002e409000e04f50000100320016
:1030c400cbff07002e4090000080fb000000ea00c8
:1030d4004f00de0000407800ae4090008140e900df
:1030e40021479800e04f5000e6ff3a000000eb0053
:1030f4000080fa00000006000200fa00004f780089
:1031040090ff070028ff070000cdb30071ff070000
:103114008cff07001e4078006eff070089ff070040
:103124003aff070010cdb3006aff070085ff0700d0
:10313400c4ff0700a2ff07004dff07000010800036
:103144000080fa00000006000200fa00004f780038
:103154001147980014ff070000cdb3005dff07007e
:1031640078ff07001e4078005aff070075ff07002c
:103174001e40900057ff070072ff07003cff070046
:103184000080fa00000006000000fa0011c0b3003d
:10319400b0c6b300ecff070021c0b300b0c1b30058
:1031a400e9ff070031c0b300c0c1b300e6ff070068
:1031b40061c0b300a0c1b300e3ff07000080fa00c0
:1031c400000006000400fa000000eb00000f780085
:1031d4000000eb0010079800b0c3b300c6ff07005f
:1031e40010079800c0c3b300c3ff0700000f7800a6
:1031f4001e0090004800dd001e0040000080fa0020
:10320400000006000400fa000000eb00000f780044
:103214000000eb0010079800d0c3b300b6ff07000e
:1032240010079800e0c3b300b3ff0700000f780055
:103234001e0090004800dd001e0040000080fa00df
:10324400000006000400fa000000eb00000f780004
:103254000000eb0010079800f0c3b300a6ff0700be
:103264001007980000c4b300a3ff0700000f780004
:103274001e0090004800dd001e0040000080fa009f
:10328400000006000400fa000000eb00000f7800c4
:103294000000eb001007980030c4b30096ff07004d
:1032a4001007980040c4b30093ff0700000f780094
:1032b4001e0090004800dd001e0040000080fa005f
:1032c400000006000400fa000000eb00000f780084
:1032d4000000eb001007980050c4b30086ff0700fd
:1032e4001007980060c4b30083ff0700000f780044
:1032f4001e0090004800dd001e0040000080fa001f
:10330400000006000400fa000000eb00000f780043
:103314000000eb001007980070c4b30076ff0700ac
:103324001007980080c4b30073ff0700000f7800f3
:103334001e0090004800dd001e0040000080fa00de
:10334400000006000400fa000000eb00000f780003
:103354000000eb001007980010c4b30066ff0700dc
:103364001007980020c4b30063ff0700000f780023
:103374001e0090004800dd001e0040000080fa009e
:10338400000006000000fa0050c7b3005aff07000f
:103394000080fa00000006000a00fa0040079800c6
:1033a400b0da2c0010079800400020002007980095
:1033b4004e0090003007980060002000000f780055
:1033c4000e80e8009e0078001cfd07000080fa00d3
:1033d400000006000e00fa005007980061079800ec
:1033e400b0da2c0010079800400020002007980055
:1033f4005e009000300798006e009000400798002f
:1034040080002000000f78000e80e8009e00780005
:103414000afd07000080fa00000006001200fa000e
:103424006007980071079800020f9800b0da2c002a
:103434001007980060002000200798006e0090009c
:10344400300798007e009000400798000e08900016
:1034540050079800a0002000000f78000e80e800bc
:103464009e007800f5fc07000080fa0000000600ca
:103474001600fa0070079800010f9800120f9800c8
:10348400230f9800b0da2c00100798008000200069
:10349400200798007e009000300798000e089000e6
:1034a400400798001e089000500798002e089000ce
:1034b40060079800c0002000000f78000e80e8002c
:1034c4009e007800ddfc07000080fa000000060082
:1034d4000c00fa00000f78001107980022079800ea
:1034e40033079800440798005507980035ff0700f4
:1034f4009e0078008008780042ff07009e0090003c
:10350400800878004fff0700ae0090008008780024
:103514005cff0700be0090008008780069ff070088
:10352400ce0090008008780076ff0700de0090004f
:10353400800878000080fa00000006001800fa00f5
:10354400881f78000000eb00300f98003e089000c0
:10355400200f98002e089000100f98001e0890006d
:10356400000f98000e089000700798007e009000ed
:10357400600798006e009000000f78001e0078002d
:10358400100798001e009000200798002e0090005d
:10359400300798003e009000400798004e009000cd
:1035a4005007980016fb070080fc0700fefb07008d
:1035b400d4fb07000040eb00c00007000040eb0014
:1035c400be00070041fb07000040eb00bb00070002
:1035d4000040eb00b900070065fb0700e2c2a80049
:1035e400e9fe070067ff070081062000810f5000f5
:1035f4002c003a00f602470074024700f20147002b
:1036040070014700ee0047006c004700b0ff070060
:10361400a6b62100be0a90002e0a90009e099000d2
:103624000e099000fe0090006e009000060001005c
:10363400f04480000145800087f40700000478000e
:10364400d0448000e144800083f407000001780046
:10365400fe0090006e0090008801780084ff07004f
:10366400d0448000e14480007bf40700000078002f
:1036740080007800e0852800dbfc0700f04480002f
:103684000145800074f40700000078008000780091
:1036940040862800d4fc0700a0002000b5000700e5
:1036a400d0ff370037ff070080007800908628009d
:1036b400cdfc0700e2c2a900d1c2a800c562a900de
:1036c400803e2000ab000700e2c2a800c5ff37001f
:1036d4001600fa00889fbe00500798006107980002
:1036e40072079800030f9800140f9800250f980094
:1036f4000e089000cf80de0078f40700926e22005e
:10370400130d240001f407000002be00d044800021
:10371400e14480000001be000400be001cf3070069
:10372400d0448800e1448800f844800009458000c2
:103734001e089000cf80de0068f40700926e22001d
:10374400130d2400f1f307000001be000800be00c1
:103754000ef30700f0448800014588005e009000e5
:10376400e00f500001003d000000ea0080007800f6
:103774006e009000e00f500001003d000000ea00e0
:10378400808040007e009000e00f500001003d006a
:103794000000ea00008f4000000022009e00780034
:1037a400808f5000420034007e009000cf80de0005
:1037b4004af407000004be006e009000cf80de00d3
:1037c40046f407000801be004ef307000200200083
:1037d40043332400a8f40700b2fd2000930424001e
:1037e400caf307001007980021079800d04480000e
:1037f400e144800082142e00a3f723009ef4070006
:103804000004be00a2702d0033ca23001e009000e5
:10381400ae00900098f407000001be000800be004e
:10382400dbf20700d0448800e14488007e00900069
:10383400cf80de0029f407000004be005e00900083
:10384400cf80de0025f407000801be002df3070039
:10385400020020004333240087f40700b2fd200057
:1038640093042400a9f30700300798004107980047
:10387400f04480000145800082142e00a3f7230049
:103884007df407000004be00a2702d0033ca23009b
:103894003e009000ce00900077f407000001be00c7
:1038a4000800be00baf20700f04488000145880011
:1038b4004f04be000080fa00000006000200fa0077
:1038c400004f7800000120002008880000e6200056
:1038d400100888000000eb00000888008460a9003c
:1038e40005e1a8009e40780061c060000080fb00f4
:1038f400610060004300dd006204800071ff2f005e
:103904008100610000807000600488001e4078001f
:10391400e04f500006003a00000000002004800040
:1039240068006000e00f5000fcff320005e1a900d0
:103934000080fa00000006003600f800809fbe00f8
:10394400829fbe00849fbe00869fbe000000fa00d6
:1039540010c0b300d9ff07000080fa004f03be0077
:103964004f02be004f01be004f00be003600f900fa
:10397400004006000200fa00000f78000040eb004f
:10398400ceff07001e0fe9001e007800e00f500074
:10399400faff3d000080fa00000006000200fa0071
:1039a400000f780000022000900888001e007800b4
:1039b400e30f500003003a00003a2000700888002a
:1039c4000200370000572000700888000000eb0058
:1039d4005008880084e0a90013e1a9008ce0a80045
:1039e4000080fa00000006000000fa0013e1a800bd
:1039f4000080fa00000006000000fa0013e1a900ac
:103a04000080fa00000006003600f800809fbe0027
:103a1400829fbe00849fbe00869fbe000000fa0005
:103a240084e0a90032f807000080fa004f03be00ca
:103a34004f02be004f01be004f00be003600f90029
:043a44000040060038
:020000040000fa
:103a4800a208000034000000000000000008000088
:103a5800a200000000000000d608000014000000ca
:103a6800020000000000000000000000000000004c
:103a7800000000000000000000000000000000003e
:103a8800ea0800000e00000000000000f80800002e
:0c3a980002000000000000000000000020
:020000040000fa
:103aa4000200fa00000f7800020037000000000056
:103ab4001e0fe9001e007800e00f5000fbff3a00e3
:083ac4000080fa00000006007a
:020000040000fa
:0200000401f009
:04000000e3390000e0
:020000040000fa
:0200000401f009
:04000400ff7f00007a
:020000040000fa
:0200000401f009
:040008006c7f000009
:020000040000fa
:0200000401f009
:04001400ffff0000ea
:020000040000fa
:0200000401f009
:04001800feff0000e7
:00000001FF
