:020000040000fa
:080000000001040000000000f3
:020000040000fa
:100008009801000098010000980100009801000084
:100018009801000098010000980100009801000074
:10002800980100009801000098010000d81a00000b
:10003800980100009801000098010000a61b00002c
:100048009801000098010000980100009801000044
:100058009801000098010000980100009801000034
:100068009801000098010000980100009801000024
:10007800980100009801000090010000980100001c
:10008800f814000098010000980100009801000091
:1000980098010000980100009801000098010000f4
:1000a80098010000980100009801000098010000e4
:1000b80098010000980100009801000098010000d4
:1000c80098010000980100009801000098010000c4
:1000d80098010000980100009801000098010000b4
:1000e80098010000980100009801000098010000a4
:0800f8009801000098010000ce
:020000040000fa
:100108009801000098010000980100009801000083
:100118009801000098010000980100009801000073
:10012800980100009801000098010000d81a00000a
:10013800980100009801000098010000a61b00002b
:100148009801000098010000980100009801000043
:100158009801000098010000980100009801000033
:100168009801000098010000980100009801000023
:10017800980100009801000090010000980100001b
:10018800f814000098010000980100009801000090
:1001980098010000980100009801000098010000f3
:1001a80098010000980100009801000098010000e3
:1001b80098010000980100009801000098010000d3
:1001c80098010000980100009801000098010000c3
:1001d80098010000980100009801000098010000b3
:1001e80098010000980100009801000098010000a3
:0801f8009801000098010000cd
:020000040000fa
:100200002f8f20000eff20000e018800000000004c
:100210000c00070040bc2100010020001100070075
:10022000000020000000e000020032000000020098
:10023000000000000a1b0200000000000040da007d
:100240000000fe004440a900a01120000000e000d2
:100250000300320000002000a00188004440a800f4
:100260000000060091018800800078000000eb008b
:1002700015003700e280400032a0b4009101ba00be
:10028000e280400032a0b4009102ba00e280400057
:1002900032a0b4000002eb00472bde00f507b200ed
:1002a000602ce10004003a000059eb008301e900f2
:1002b000fdff3e00040037006128e100010032002c
:1002c0000082eb00040007001101ba000200e00008
:1002d000e8ff3a00000006003159ba008301e90046
:1002e0000c0032002159ba008301e90008003200f5
:1002f0000400e00003003a00e280400032a0b400b5
:10030000f5ff370011d9ba008301e900faff3a007e
:100310008100e800e180400032a0b4000000060047
:100320000000fa0086c0a9000080fa000040060024
:100330000040da000000fe000200240031108000be
:10034000e1806000fdff3a00301080006400600032
:10035000810f5000f9ff3a0031108000e880600002
:10036000808f5000f5ff3a00301080007000600070
:10037000810f5000f1ff3a00411080008280600040
:10038000808f5000edff3a000000060006a2a80092
:100390000682a800000006000602a8000000060071
:1003a0000642a8000000060003f0a200889fbe00dd
:1003b0008a9fbe008c1f7800b8010700bf01330080
:1003c0006450e1004f0032006420e100520032002e
:1003d00003826c0007003b000905d0000306d00033
:1003e000820f54000c065d0002003900020032004a
:1003f00089017800030678008582550004003d00dd
:100400000003fd008103fd008502ea008b854200a8
:10041000840f720002003b0060001000e0801800b2
:100420006011b8000005eb007a28e1000a003900ed
:1004300006007800c75ddd00f707b2008780750011
:100440002d003700828171000a017800610560008b
:100450008180d1000080d3008502e900f9ff3b00d4
:10046000060440008784480002003b00600414003a
:10047000e0841c000988a300070032008a81710013
:1004800082817100610164008904d1000884d30075
:100490008b05e800170037000978a30013003a0025
:1004a0000b00e000130034008b05e9000804440051
:1004b00089844c000a4474000978a3000d003a00b6
:1004c0000b00e000070034008b05e900080444003d
:1004d00089844c0001003a000b0020000978a30039
:1004e000f7ff32000001eb0002003700828171004b
:1004f0000a0178002e0107000cf0a70001f0a0000f
:10050000770137006420e10002003a00838f6c001d
:10051000770133000801be000200be007001370001
:10052000889fbe008a9fbe008c1f78005b01070079
:100530001002200002003b00804788005f01370066
:100540008a0062006408e10002003a0080478800e7
:10055000670137006108e100fcff32000800be00bf
:10056000030478007000070001f0a10009000700f3
:1005700008f0a600040037000001be00910424002a
:10058000b0fd200088ff070009f0a70001f0a200dd
:1005900053013700889fbe008a9fbe008c9fbe001b
:1005a0000004be00280107000800be00890678008c
:1005b0006420e10008003900040032000160a0005e
:1005c00012022000824788005300370091fc23006c
:1005d000b0fd20004e0037000006eb0009f0a1003e
:1005e00003f82300020020000800be009f0007005f
:1005f0000600340001f82300000020000801be00be
:10060000490007000004be002c0020000800be00c6
:1006100093e82300320a23009400070012003400fc
:100620000801be00d1fd2300703d2b005fff0700d5
:100630000005be00b3f32300f27a26000800be00d6
:100640003d01070003f823000200200056ff0700c9
:100650000801be0055ff07000a01be003200070076
:100660000004be000c06e8000800be0001f0a10076
:1006700002002000039823007c0007000800be0051
:10068000160035000801be002b0107000005be0062
:1006900032cd2c0043fb230044ff0700809fbe00a7
:1006a0001269280003d52b000a00be0022010700b2
:1006b000620f210013ef2b003cff07000a01be0070
:1006c0001d0107004f01be00170007000801be0012
:1006d000190107000801be0034ff07000c00e0000c
:1006e0000b0032000c10a70001f0a200b2fd2000a8
:1006f00093fc23006260e1000400320022a9200084
:1007000063f023000c10a70063f8230027ff070005
:100710000df0a70001f0a2004f06be004f05be007d
:100720004f04be0000000600889fbe008a9fbe00e6
:100730008c1f7800d9000700e000330003866c00ae
:100740006450e1002e0032006420e10033003200ea
:100750006150e1002f0032006120e10031003200e1
:1007600085855500eb07b000090020000804200033
:10077000050037000804440089844c000a00310059
:100780000603430087834b000001530081815b0017
:10079000f8ff33000203be000800a0000804440074
:1007a00089844c00f6ff3900c639dd0083017300ef
:1007b00001003200130020008904d1000884d30016
:1007c0000998a300050032000800a7000300a0005c
:1007d0008904d1000884d3008b05e8008904d10086
:1007e0000884d3000001eb000281d20070000700f2
:1007f00001f0a1000cf0a70001f0a000b800370044
:100800006420e100ba0032000801be000200be0010
:10081000f7ff37006120e100b50032006000b8004a
:10082000f3ff37000000200001f82700f0ff370039
:10083000839f68000100e00002003d00600010009e
:10084000e08018000300e00002003d00600111009c
:10085000e0811900ec0007004f00e00002003b00bf
:1008600060001000e0801800000006001400200066
:10087000f80037000001be00730007000470a700f5
:1008800003f0a1006509b100160032000d0035002b
:100890006828e10006003500f0ff2f00f1ff270077
:1008a0000300e00013003b000100280000000500e9
:1008b00000004000818048008502e900fcff3a000a
:1008c00008003700f88f420002003c008000eb0077
:1008d000000005008100d1000080d3008502e800ff
:1008e000fcff3a000300e00002003b006000100043
:1008f000e080180000000600881f780001047800de
:100900000100e00005003d0060001000e0801800dc
:1009100002003b0001f02c00030037000400070038
:1009200008f0a70001f0a0004f04780000000600c6
:10093000889fbe008a9fbe00010578000000e0008d
:10094000180032000004be006011b8006b092000de
:100950000982cf00020039000882cf000441b000b4
:10096000694252000e00320008003b008281710093
:10097000610164008904d1000884d3008b05e8007c
:100980000442e800f9ff3a0005003700080444007b
:1009900089844c008b05e9000442e900fbff3a0022
:1009a000030007004f05be004f04be000000060014
:1009b00081002000618055000b003d000b002000ed
:1009c00061fe2f000100e1001d00340082817100f2
:1009d000610164008904d1000884d3000000e800ac
:1009e000faff3a007100200061006400030070000b
:1009f000020060000900320061044400e0844c0001
:100a00000988a500050032008b05e8006808e100b0
:100a100002003a008904d1000884d300f20f2000bc
:100a20000258e10005003d00c75ddd00f907b20096
:100a30008980750008007800000006000bf8270088
:100a40008b00780000000500c70ade00f107b20045
:100a5000f50fb20008003200e1cf42000200320080
:100a60000170a00024000500810f70000100320019
:100a70000408050044000500810f700002003a00e0
:100a8000140005008502e9000000400081c0480014
:100a9000fcff3b000170a000240005000004be0024
:100aa000e9ff07000003be000405be000200be000f
:100ab000e5ff0700844f7500000006000200be003d
:100ac0006450e100050036006420e10002003600b9
:100ad0000968a30001003a000800be000160a00000
:100ae0004f0678004f05be004f04be000000060010
:100af000f0ff2f00f1ff2700f9ff3700811f78007a
:100b00000100e00002003d0060001000e0801800dd
:100b10000300e00002003d0060011100e0811900c7
:100b2000490007004f00e00002003b006000100099
:100b3000e080180000000600889fbe008a9fbe006b
:100b40008c1f7800d5ff0700dcff330003866c00a4
:100b50006450e100240032006420e10027003200ec
:100b60006150e100220032006120e10021003200ea
:100b70008b854200eb07b1000134b800003ab800a1
:100b80000804420089844a00013ab8000030b800e5
:100b90008880400009014a00040033000000400042
:100ba00081804800020149008b05e900c909dd0088
:100bb000830170000100320013002000c814de0021
:100bc0004814dd004709de001200b200c808de004c
:100bd0000884700076ff070001f0a1000cf0a70068
:100be00001f0a000beff37006120e100c0ff32002d
:100bf0000801be000200be00f7ff37006150e100af
:100c0000fcff3a00baff37006022b800060220005d
:100c10000000d0008180d2000482d2008582d20000
:100c20000000a0000202520083825a00030031003b
:100c30000202420083824a000000a1000603e9008c
:100c4000f3ff3a0000000600efff07000400be00bb
:100c500000000600889fbe008a9fbe00841f7800a7
:100c60008eff07004f00780011003300f0ff2f00c7
:100c7000838f6c0006003b00040565000a00a70096
:100c80000800370009f0a600100020000800370017
:100c9000820f5400838f5c00030039001000200095
:100ca00001003e000000200009f0a7000000ea005b
:100cb0004f05be004f04be000000e000000006002b
:100cc000010278000100370003007800809fbe0019
:100cd000110009000282d800000278004f00be0017
:100ce0008001e800e00f5200f7ff3a0084497800e5
:100cf00000027800110009008280d8000002fd0087
:100d00008101780084007800e9cf510001003400af
:100d1000e7c1410005c3b30005d04100e00f520018
:100d2000f3ff3a0000000600881f780000047800f6
:100d3000e08f500005003d0088017800d0c2b3006c
:100d4000805978008100ea000100370088017800ae
:100d500003007800daff0700080078004f047800ed
:100d6000000006008001780002003700b1597800c9
:100d7000040178000202e900e00f5100fbff3a0095
:100d80000000060080017800314178008259780027
:100d9000e04f5100fcff3a000000060080007800a0
:100da0000041eb00b14f1100fdff3a000080ea0066
:100db00000804000000006000d0037001041780060
:100dc000e04f510002003200914f51000500320007
:100dd0000281fb00914078000180fb00000051007f
:100de000000006000000e8008100e8000301780030
:100df0008201e900e00f5100f0ff3a0002007800a4
:040e000000000600e8
:020000040000fa
:100e0400536100006c6700006f20000064650000ff
:100e1400204d0000795300007461000072740000da
:100e2400207000006f72000020540000696d000003
:100e34006572000000530000616c0000676f0000e1
:100e440020640000652000004d7900005265000018
:100e5400737400006172000074200000706f000061
:100e640072200000546900006d65000072000000eb
:100e7400536100006c6700006f200000646500008f
:100e8400206d0000795f0000537400006f70000053
:100e9400207000006f72000020540000696d000093
:100ea4006572000000530000616c0000676f000071
:100eb40020640000652000006d7900005f57000089
:100ec4007269000074650000207000006f720000f9
:100ed40020540000696d000065720000005300009a
:100ee400616c0000676f0000206400006520000052
:100ef4006d7900005f490000646c0000652000000b
:100f0400706f000072200000546900006d650000dd
:100f140072000000484f00004c41000020510000c6
:100f24005545000020540000414c000020450000bd
:100f34005354000041530000207900006f2000004a
:100f440065730000746f0000792000006d75000067
:100f54007920000062690000656e000020790000bd
:100f640020740000752000007175000065200000e9
:100f7400746100006c000000636f00007272000076
:100f840065630000746f000000770000686f000064
:100f940020690000206100006d2000003d00000079
:100fa40065720000726f00007200000020000000f3
:100fb400766100006c6f0000723100003d0000009b
:100fc400766100006c6f0000723200003d0000008a
:100fd400766100006c6f0000723300003d00000079
:100fe400766100006c6f0000723400003d00000068
:100ff400766100006c6f0000723600003d00000056
:10100400404700004f00000040530000544f0000d0
:1010140050000000404300005200000052650000f0
:101024006369000062690000646f00003a200000f8
:0410340000000000b8
:020000040000fa
:101038000000fa0040ef2700000c880040ef27006e
:10104800300c880040ef2700600c880040ef270034
:10105800900c88000080fa00000006000200fa00e8
:101068000000eb00000f78001c003700900c800097
:101078000000e800900c8800600c80000000e80088
:10108800600c8800300c80000000e800300c8800fc
:10109800000c80000000e800000c88008038210067
:1010a800ce090700910c8000b0ff2000808f50000f
:1010b8000a003600f0ff2000900c8800f0ff2000a6
:1010c800600c8800f0ff2000300c8800f0ff200042
:1010d800000c880010002000000f78001e00780027
:1010e800e00f5000e1ff32001c003700900c800038
:1010f8000000e900900c8800600c80000000e90006
:10110800600c8800300c80000000e900300c88007a
:10111800000c80000000e900000c880080382100e5
:10112800ae090700910c800000072000808f500056
:101138000a003e000000eb00900c88000000eb0065
:10114800600c88000000eb00300c88000000eb0009
:10115800000c88000000eb00000f78001e007800eb
:10116800e10f5000e1ff32000080fa0000000600a5
:101178000200fa000000eb00000f78000080eb008e
:10118800000f78000b0037001e007800900c8800d4
:101198001e007800600c88001e007800300c880063
:1011a8001e007800000c8800803821008b09070099
:1011b8001e0fe9001e007800e00f5000f2ff340017
:1011c8000080fa00000006000200fa00000f780014
:1011d8009e007800a0842000e8fe0700a08420007c
:1011e800ecfe070080007800a0842000920507002c
:1011f80080382100790907000080fa000000060005
:101208000000fa00f0108000a200200080007800a2
:10121800a0842000c2fe0700a0842000ddfe070095
:1012280080007800a084200083050700f01080006b
:10123800a200200080007800a0842000b8fe0700eb
:10124800a0842000d3fe070080007800a08420003e
:1012580079050700f0108000a200200080007800c7
:10126800a0842000aefe0700a0842000c9fe07006d
:1012780080007800a08420006f050700f01080002f
:10128800a200200080007800a0842000a4fe0700af
:10129800a0842000bffe070080007800a084200002
:1012a8006505070022032000c1782800a0842000db
:1012b800aafe0700a0842000b6fe07008000780080
:1012c800a08420005c05070080382100430907003e
:1012d800a0842000affe070080007800a0842000d2
:1012e80055050700803821003c090700a08420002c
:1012f800a8fe070080007800a08420004e050700a3
:101308008038210035090700a0842000a1fe0700cd
:1013180080007800a084200047050700803821005d
:101328002e090700a08420009afe0700800078009c
:10133800a084200040050700803821002709070005
:10134800a084200093fe070080007800a08420007d
:10135800390507008038210020090700a0842000f3
:101368008cfe070080007800a0842000320507006a
:101378008038210019090700a084200085fe070095
:1013880080007800a08420002b0507008038210009
:10139800120907000080fa00000006000000fa00a9
:1013a800e3fb0700fafb0700000000003010800094
:1013b80061006000e00f5000fcff3a0000cdb30070
:1013c8004e060700000000004110800000002800c1
:1013d80000806000e00f5000fbff3a00d4fb0700dc
:1013e80050c7b30045060700000000004110800008
:1013f8000000280000806000e00f5000fbff3a006a
:10140800cbfb07000622a800000000000000000037
:101418003010800062006000e00f5000fcff3a00ce
:1014280010cdb30035060700000000004110800011
:101438000000280000806000e00f5000fbff3a0029
:10144800bbfb07000662a8000000000040108000f7
:1014580062006000e00f5000fcff3200c9fb07008b
:10146800cdfb070000000000301080006400600021
:10147800e00f5000fcff3a000080fa000000060070
:101488001a00fa00200f9800310f9800420f9800b8
:101498000000eb00100798002e089000be0890008e
:1014a80060079800710798006e0090000100200006
:1014b80020079800310798007e0090000074a10072
:1014c8000080fb0001002000c000dd0000002000bb
:1014d8002e019000be019000020040008380480069
:1014e80020079800310798002e019000be01900057
:1014f800000020000108200002004000838048000e
:1015080020079800310798007e009000c700de0091
:1015180000c0eb0080c0600010c8b30000c04000ed
:10152800004f98000e489000f24f50001000340011
:10153800ce08900090c4b300804878004e08900010
:101548008000e800e0c6b300804878004e089000ac
:101558008080e80060c6b300804878004e0890009c
:10156800e30040000040eb0080487800da003700d4
:101578000e489000e34f400008003d00ce08900060
:1015880000c3b300804878004e0890008000e8004f
:101598000040eb0080487800cf0037000000eb00e7
:1015a80010079800fe0090000000280000806000ee
:1015b800e00f500006003200ce089000d0c2b30001
:1015c800804878001e0090000000e800100798008e
:1015d8000e4890000000fb00770110002e009000dc
:1015e800be009000820178008301e9000300330007
:1015f8008100d1000080d300fbff3700500798001e
:101608001e009000ce089000008140005e0090000f
:1016180001002000b20007000000eb00000f780076
:101628000a0037001e007800ce08900000804000b5
:1016380010407800e04f500003003a001e02780086
:1016480014079800040037001e0fe8001e007800f9
:10165800e70f5000f3ff34001e009000e50f500024
:101668009c003c001e009000ce0890008080400046
:10167800e0c2b300804878001e0090000000e80037
:10168800100798000e4890000000fb00740110003d
:101698002e009000be0090000002be0002037800f9
:1016a8000603e900030033008502d1000482d30059
:1016b800fbff37000401be0070002000010020007d
:1016c80002027800030178008001780001007800a8
:1016d800030262000000610001002000c000dd007c
:1016e800000020000001be006120b8000001710068
:1016f800818171007000200001002000800f5100de
:10170800818f590059003e00026001000700370030
:101718001000370019003700220037002b0037006f
:10172800340037003d00370046003700f00047001e
:1017380000c3b30080487800f000470000c3b3003e
:1017480090409800f000470000c3b300a040980004
:1017580046003700f000470010c3b3008048780007
:10176800f000470020c3b30090409800f000470005
:1017780050c3b300a04098003c003700f000470079
:1017880020c3b30080487800f000470050c3b3007e
:1017980090409800f000470000c3b300a0409800b4
:1017a80032003700f000470030c3b30080487800ab
:1017b800f000470070c3b30090409800f000470065
:1017c80050c3b300a040980028003700f00047003d
:1017d80050c3b30080487800f000470000c3b3004e
:1017e80090409800f000470000c3b300a040980064
:1017f8001e003700f000470060c3b300804878003f
:10180800f000470020c3b30090409800f000470064
:1018180050c3b300a040980014003700f000470000
:1018280070c3b30080487800f000470050c3b3008d
:1018380090409800f000470000c3b300a040980013
:101848000a003700f000470080c3b30080487800e2
:10185800f000470070c3b30090409800f0004700c4
:1018680050c3b300a0409800000000000000eb0047
:10187800000f78000e0037001e009000e60f5000a1
:101888000a003c001e009000ce08900080804000b6
:10189800700047001e004000104078008048780023
:1018a8001e0090000000e800100798001e0fe800d6
:1018b8001e007800e20f5000efff34001e00900079
:1018c800ce089000808040000040eb0080487800ff
:1018d80001003700000000000080fa000000060048
:1018e8000c00fa00881f780030079800410798001c
:1018f800520798003e009000ce0090001007980014
:10190800210798001e009000ae009000e00f5000e4
:10191800e08f580006003d003e009000ce00900089
:1019280060001000e0801800300798004107980018
:101938000000eb00000f78001e007800de00900029
:10194800008440003e009000ce009000a2002000dd
:101958000300200067fc0700004078000043b00047
:10196800004c78001e0fe8003e009000ce0090006a
:10197800a200200003002000abfb070030079800fe
:10198800410798003e009000ce009000e00f500004
:10199800e08f5800e8ff3c001e009000ae00900069
:1019a800e00f5000e08f580006003d001e00780050
:1019b800de00900080804000d0c2b30080487800ec
:1019c8001e0fe8001e007800de00900080804000b6
:1019d8000040eb00804878005e009000030007009c
:1019e8004f0478000080fa00000006000800fa00a2
:1019f800300798000000eb00000f78003e009000d0
:101a0800e4fc07000000e900100798001600370002
:101a18001e007800be0090000080400090407800d2
:101a2800414798001e007800be009000808040006a
:101a38001e0090003e019000000041001040780018
:101a4800804878001e009000be0090000080400092
:101a5800ce409000014878001e0fe8001e0090005c
:101a68000000e900100798001e0090009e00780012
:101a7800808f5000e6ff35000080fa000000060065
:101a88000000fa000080fa00000006000400fa00d6
:101a9800e2c2a8000000eb00000f7800200320003d
:101aa800d006070025060700100798009e00900042
:101ab80080062000808f500006003a00c562a8000a
:101ac800d1c2a9009e007800e07b2800aa03070085
:101ad800120037009e009000707c2800a6030700c3
:101ae8001e0fe8009e007800207d2800a203070052
:101af8001e007800e50f500008003a000000eb00d7
:101b0800000f7800e2c2a900d1c2a800c562a900ee
:101b1800803e2000b3060700e2c2a8000080fa0059
:101b2800000006002a00fa00500f9800610f980084
:101b3800720f98000317980014179800251798003b
:101b480036179800471798005e089000a50607000a
:101b58007e08900010007800cf80de0064fb07004c
:101b680010079800210798000e10900010007800c8
:101b7800cf80de005efb0700100f9800210f980051
:101b88001e10900010007800cf80de0058fb070080
:101b9800300f9800410f98002e1090001000780028
:101ba800cf80de0052fb07003007980041079800fd
:101bb8003e10900010007800cf80de004cfb07003c
:101bc80050079800610798004e10900010007800a8
:101bd800cf80de0046fb070070079800010f9800d1
:101be8000000eb00000f78003400370063050700a1
:101bf800cf80de003efb07003e019000ce01900042
:101c0800e8f9070010079800210798006b050700fe
:101c1800cf80de0036fb07005e019000ee019000e9
:101c2800e0f90700100f9800210f980073050700ce
:101c3800cf80de002efb07007e0190008e09900009
:101c4800d8f90700300f9800410f98007b0507006e
:101c5800cf80de0026fb07000001be003e0090009a
:101c6800ce009000cff90700300798004107980090
:101c780082050700cf80de001dfb07000001be00c3
:101c88005e009000ee009000c6f90700500798002b
:101c98006107980089050700cf80de0014fb070064
:101ca8000001be007e0090008e089000bdf907007c
:101cb80070079800010f98001e0fe8006e0890004a
:101cc8009e007800808f5000c8ff35000200200079
:101cd800832424001e009000ae00900090fa0700b4
:101ce800e2fa0700800078007e089000010878007a
:101cf80002002000832424001e009000ae00900003
:101d080087fa0700d9fa0700800078000e109000c3
:101d18000108780002002000832424001e0090009f
:101d2800ae0090007efa0700d0fa07008000780025
:101d38001e1090000108780002002000832424006f
:101d48001e009000ae00900075fa0700c7fa070061
:101d5800800078002e109000010878000200200012
:101d6800832424001e009000ae0090006cfa070047
:101d7800befa0700800078003e1090000108780045
:101d880002002000832424001e009000ae00900072
:101d980063fa0700b5fa0700800078004e1090003b
:101da800010878000080fa00000006000600fa002a
:101db800000f78001107980022079800ae009000e5
:101dc800803e200000017800110009008200d80040
:101dd80070478800c04680009e00900080805000b8
:101de800704780000088b900800078006047800054
:101df8000080400060478800704780008000ea004b
:101e0800f2468000e0468000000041000088b900ea
:101e18000001780091468000704780000088b90072
:101e28000000780080004100d0468000008040001b
:101e3800d0468800704780008000ea000047800094
:101e48000088b90080007800e046800000804000eb
:101e5800e0468800704780008000ea000047800064
:101e68000088b90080007800f046800000804000bb
:101e7800f0468800a1468000704780000088b900bd
:101e880080007800004780000080400000478800fc
:101e9800604780001e00100020478800d14680005f
:101ea800b04680000080400030478800d14680005e
:101eb8003047800000017800110009008200d80036
:101ec80040478800f14680003047800000017800d4
:101ed800110009008200d80050478800414780005f
:101ee800204780000088b9008000780060478000a3
:101ef80000804000604788005147800020478000ec
:101f08000088b90080007800c0468000008040004a
:101f1800c046880040478000e1001000d04680009d
:101f28000088b90000007800d0468800404780004b
:101f3800e1001000e04680000088b9000000780049
:101f4800e0468800f246800051478000d046800075
:101f58000088b9000000780000005100f0468800b1
:101f68000247800051478000e04680000088b900a1
:101f7800000078000000510000478800604780009a
:101f88000080fa00000006001a00fa00889fbe00d0
:101f9800500798006107980072079800030f98008f
:101fa800140f9800250f9800360f9800470f9800d7
:101fb8003e0890001004be000e089000cf80de009e
:101fc8004bfa0700f226210033282400d4f9070031
:101fd800a2702d0033c22300d5fa07000001be000d
:101fe8000800be00eff807003e0990000089be0017
:101ff8004e0890001004be001e089000cf80de003e
:102008003bfa0700f226210033282400c4f9070010
:10201800a2702d0033c22300c5fa07000001be00dc
:102028000800be00def807004e0990000089be00d7
:102038005e009000e00f500001003d000000ea0043
:10204800800078006e009000e00f500001003d0015
:102058000000ea00808040007e009000e00f500001
:1020680001003d000000ea00008f4000000022004f
:102078009e007800808f5000420034007e0090005f
:10208800cf80de001afa07000004be006e00900040
:10209800cf80de0016fa07000801be001ef907000f
:1020a8000200200043332400a1fa0700b2fd2000fb
:1020b800930424009af90700100798002107980054
:1020c8003e0890001000be0082142e00a3f72300e3
:1020d80097fa07000004be00a2702d0033ca23003f
:1020e8001e009000ae00900091fa07000001be00ab
:1020f8000800be00abf807003e0990000089be004a
:102108007e009000cf80de00f9f907000004be00d1
:102118005e009000cf80de00f5f907000801be00e0
:10212800fdf80700020020004333240080fa07006e
:10213800b2fd20009304240079f9070030079800c5
:10214800410798004e0890001000be0082142e002f
:10215800a3f7230076fa07000004be00a2702d0042
:1021680033ca23003e009000ce00900070fa0700aa
:102178000001be000800be008af807004e09900062
:102188000089be004f04be000080fa00000006006f
:102198000000fa000000eb00203a8800a0002000b0
:1021a8008e0507000080eb0040158800a000200085
:1021b8008a0507001011210000168800a0002000e1
:1021c80086050700809f2f0030168800a000200099
:1021d80082050700f0ff2b0060168800a000200091
:1021e8007e05070000ef2b0090168800a000200055
:1021f8007a050700c0f92f00f0168800a00020001b
:10220800760507000000eb0010168800a0002000eb
:10221800720507000000eb0040168800a0002000af
:102228006e0507000000eb0070168800a000200073
:102238006a0507000000eb00a0168800a000200037
:10224800660507000000eb0000178800a0002000ca
:10225800620507000080fa00000006000000fa008e
:1022680000352c005d0507000040eb00af040700b7
:10227800c00320002010880007a2a9000000000069
:102288000782a800000000000762a9000000000003
:102298000742a900000000000722a9000000000072
:1022a8000702a9000000000006e2a90000000000e3
:1022b80006c2a9000000000006a2a9000000000054
:1022c8000682a900000000000662a90000000000c4
:1022d8000642a900000000000622a9000000000034
:1022e8000602a900000000000040eb008f04070070
:1022f80007e2a800920307000080fa000000060029
:102308000000fa008401a900000000008421a9004f
:10231800000000008441a900000000008461a900b9
:10232800000000008a01a900000000008a21a9001d
:10233800000000008a41a900000000008a61a9008d
:10234800000000009001a900000000009021a900f1
:10235800000000009041a900000000009061a90061
:10236800000000009601a900000000009621a900c5
:10237800000000009641a900000000009661a90035
:102388000000000011e1a9000000000011a1a9004f
:102398000000000010c1a900000000001021a900e1
:1023a800000000001061a9000000000084c0a9001e
:1023b8000000000000002f00100888000000eb005b
:1023c800000c880000002f00600888000000eb0067
:1023d800300c880000002f00700888000000eb0017
:1023e800600c880000002f00d00888000000eb0077
:1023f800900c88008401a900000000008421a80036
:10240800000000008441a800000000008a01a90023
:10241800000000008a21a800000000008a41a800ee
:10242800000000009001a900000000009021a80011
:10243800000000009041a800000000009601a900db
:10244800000000009621a800000000009641a800a6
:102458000000000081088000f0fc2f000080600070
:10246800800888000000000011e1a8000000eb00cf
:10247800000c88000000eb00300c88000000eb0026
:10248800600c88000000eb00900c88000080fa00c7
:10249800000006000000fa0017e2a8000000000093
:1024a800000000000000000019e2a9000000000080
:1024b800c1108000f0f32f0000806000c010880079
:1024c80000000000b110800090ff2f000080600025
:1024d800b0108800000000001602a90000000000eb
:1024e80016a2a90000000000f0002000f0108800eb
:1024f800000000001942a800000000008700a900a1
:10250800000000008720a900000000008f00a8003c
:10251800000000008f20a900000000000080fa00e1
:10252800000006000000fa00d1c2a800c562a80099
:102538000080fa00000006000000fa00d1c2a900dd
:10254800c562a9000080fa00000006001000fa0029
:1025580070079800103a8000000f7800f08f2f0065
:102568001e0f60001e0078004880de00000f780013
:102578007e0090000100200072002000030020006f
:10258800820f5000838f580067003e0000600100f2
:10259800070037000b0037000f0037001300370023
:1025a800630037006200370061003700140037000d
:1025b8009e0078007e00900000807000000f780078
:1025c800140037009e0078007e00900000807000a4
:1025d800000f78000f0037009e0078007e00900002
:1025e80000807000000f78000a0037009e00780015
:1025f8007e00900000807000000f78000500370012
:102608009e0078007e00900000807000000f780027
:102618000000000080c7b30020479800a0c9b3009d
:1026280030479800207420000000e8002007980038
:10263800100280004500de00674060000080fb005b
:10264800300798009002800040079800ff3ffc0088
:1026580011028000000e2000008070001002880027
:102668004e00900090028800000088002e01900023
:102678002e409000be4090009e01780000497800ee
:10268800014978000349780060c4b30020479800e6
:1026980070c5b300304798002074200020079800c8
:1026a800103a8000004078000004a000204f9800f5
:1026b800ae0190002e409000be4090002e49900040
:1026c800804978008149780082497800000000003c
:1026d800103a800061006000e00f5000fcff3a00f3
:1026e8009002800060079800ff3ffc003e009000c9
:1026f80000407800674060000080fb0067006000d1
:102708004500dd0012028000f1f12f008100610018
:1027180000807000100288006e009000900288000f
:1027280000008800030037000000000001003700a7
:10273800000000000080fa00000006000200fa0015
:102748000000eb00000f7800010037001e0fe800c2
:10275800100320009e007800808f5000fbff34009b
:102768000040eb00710307007000200077ff0700ae
:10277800c05d2000190407000080fa000000060070
:102788000000fa00d0002000d010880000000000ef
:10279800c11080000010200000806000e00f500091
:1027a800fbff3200a0002000d010880000000000cd
:1027b800c11080000010200000806000e00f500071
:1027c800fbff32000080fa00000006000600fa0055
:1027d80010079800210798000040eb00004f780090
:1027e8000e0037009e4078000180fb009e0090009c
:1027f80000804000104078000000fb00d0108800e6
:1028080000000000c110800000102000008060005f
:10281800e00f5000fbff32001e4fe8001e4078001a
:102828008080fb002e009000808f5000edff350067
:102838000080fa00000006000400fa00000f78008b
:10284800110798009e0090001e007800dfff070027
:10285800cbff07000080fa00000006000600fa001f
:1028680010079800210798000040eb00004f7800ff
:102878000e0037009e4078000180fb009e0090000b
:1028880000804000104078000080fb00d0108800d5
:1028980000000000c11080000010200000806000cf
:1028a800e00f5000fbff32001e4fe8001e4078008a
:1028b8008080fb002e009000808f5000edff3500d7
:1028c8000080fa00000006000400fa00000f7800fb
:1028d800110798009e0090001e007800dfff070097
:1028e800a7ff07000080fa00000006000400fa00b5
:1028f800100798001e009000000fe900180037002c
:102908001e00780080004000008020000080400009
:1029180010007800a200200080007800a084200029
:10292800fff80700a08420001af90700800078004b
:10293800a0842000a5ff070022002000817d280038
:10294800a084200005f90700a084200011f90700e1
:1029580080007800a08420009cff07001e0fe9007b
:102968001e007800e00f5000e5ff3d0084ff0700df
:102978000080fa00000006000400fa00000f78004a
:10298800110798001e00780002f9070080007800ff
:102998001e0078008dff0700a20020009e00900016
:1029a800a0842000def80700a0842000f9f80700c2
:1029b80080007800a08420009fff07000080fa00b4
:1029c800000006000200fa00000f78001e007800e0
:1029d800f0f80700800078001e00780096ff0700d6
:1029e8000080fa00000006003600f800809fbe0054
:1029f800829fbe00849fbe00869fbe007000fa00c2
:102a080060468000e11080006c0147000000400033
:102a180000004100010878006146800000032000a2
:102a2800808f500003003c00604680000000e800f2
:102a3800604688006146800010032000808f5000a7
:102a480002003a000000eb00604688006046800003
:102a5800ec0047000000400061007800f50f5000ce
:102a680075003a000000eb00100798000000eb002a
:102a7800200798000000eb00300798000000eb00ea
:102a8800400798000000eb00500798006c004700d2
:102a980040009000c800dd006c0047005000900026
:102aa800008040009009b100010020009ef7070057
:102ab800d2a3200073fb23001df807006bf7070063
:102ac800100798006c00470060009000c800dd0007
:102ad8006c004700700090008080400070b62f00a6
:102ae80000804000010020008ff70700428b2c0077
:102af80063fb23000ef807005cf707002007980027
:102b08006c00470000089000c800dd006c0047001a
:102b1800100890008080400080762f0000804000e0
:102b28000100200080f70700428b2c0063fb230084
:102b3800fff707004df70700300798006c004700c3
:102b480020089000c800dd006c00470030089000a5
:102b58008080400070362f00008040000100200077
:102b680071f70700428b2c0063fb2300f0f7070086
:102b78003ef70700400798006c00470040089000a7
:102b8800c800dd006c0047004008900080804000cd
:102b980000ff2e00008040000100200062f70700bf
:102ba800a2702d0033b22300e1f707002ff70700ca
:102bb800500798009e009000a07d28006eff070037
:102bc800ae009000207e28006bff0700be0090003a
:102bd800a07e280068ff0700ce009000207f280014
:102be80065ff0700de009000a07f280062ff070055
:102bf8000000eb00604688000000eb00000f780042
:102c080007003700ec0047001e0078000000400075
:102c18000080400001022000010878001e0fe80033
:102c2800100320009e007800808f5000f5ff3400cc
:102c38000000eb00604688008700a9001822a90060
:102c48000080fa004f03be004f02be004f01be00d5
:102c58004f00be003600f900004006000200fa00ee
:102c6800000f780032002000218028001e00780024
:102c78004ff80700e00f500002003a00a9020700d1
:102c88001c00370032002000618028001e007800f8
:102c980047f80700e00f500002003a00a5020700bd
:102ca8001400370032002000c18028001e00780080
:102cb8003ff80700e00f500002003a00b0fe07009e
:102cc8000c003700b200200001812800a0842000f9
:102cd80022f807009e007800a084200027f807004b
:102ce800a08420002bf8070080007800a084200032
:102cf800d1fe07000080fa00000006000200fa007a
:102d0800004f78009e4078000180fb00101088007a
:102d1800000000004010800061006000e00f5000db
:102d2800fcff3a000080fa00000006000000fa00ec
:102d3800000220000009880000572000e0088800f1
:102d48000000eb00c008880086c0a90021e1a900a6
:102d58008ec0a90021e1a8000080fa00000006004a
:102d68000000fa000602a800f0ff070086c0a900cc
:102d7800000000003010800061006000e00f50008b
:102d8800050032003104800000042000008060004b
:102d9800e00f5000f7ff320021e1a9003104800064
:102da8000004200000806000e00f500002003200a4
:102db8002070280003ff07000000eb000080fa00e5
:102dc800000006000000fa000622a800d7ff07004e
:102dd80086c0a9000000000030108000620060007a
:102de800e00f50000500320031048000000420008c
:102df80000806000e00f5000f7ff320021e1a900d9
:102e0800310480000004200000806000e00f5000c2
:102e180002003200d0712800eafe07000000eb0033
:102e28000080fa00000006000000fa000642a80030
:102e3800beff070086c0a900000000003010800017
:102e480064006000e00f500005003200310480008b
:102e58000004200000806000e00f5000f7ff3200ff
:102e680021e1a900310480000004200000806000f6
:102e7800e00f500002003200a0732800d1fe0700c6
:102e88000000eb000080fa00000006000200fa00d3
:102e9800004f78009e4078000180fb0010108800e9
:102ea800a2ff070086c0a9000000000040108000b3
:102eb80061006000e00f500005003200310480001e
:102ec8000004200000806000e00f5000f7ff32008f
:102ed80021e1a90031048000000420000080600086
:102ee800e00f50000200320050752800b5fe0700c0
:102ef8000000eb000080fa00000006000000fa0065
:102f08008aff070086c0a900000000004110800069
:102f18000000240000806000e00f5000050032002f
:102f2800310480000004200000806000e00f5000a1
:102f3800f6ff320021e1a9003104800000042000de
:102f480000806000e00f5000020032001077280077
:102f58009cfe07000000eb000080fa00000006005d
:102f68000000fa00401080000080ea004f00de00f8
:102f78000080fa00000006000000fa0006a2a8007f
:102f88000682a80000000000301080007000600079
:102f9800e00f5000fcff3a0006a2a9000000eb0079
:102fa8000080fa00000006000000fa0006a2a9004e
:102fb8000682a80000000000301080007000600049
:102fc800e00f5000fcff3a000000eb000080fa0020
:102fd800000006000000fa000662a80000000000d9
:102fe8004010800062006000e00f5000fcff3200db
:102ff800001080000080fa00000006000000fa00bf
:103008000662a80010002000f4010700000000007c
:103018003010800068006000e00f5000fcff3a00ac
:10302800100020000080fa00000006000400fa00ea
:10303800000f78002147980010003700e5ff0700cf
:10304800004078009e007800804878001e0fe80055
:10305800411080000040200000806000e00f500018
:10306800020032000080eb000f0037002e40900075
:10307800e04f500001003200cbff07002e409000c7
:103088000080fb000000ea004f00de0000407800ee
:10309800ae4090008140e90021479800e04f500081
:1030a800e6ff3a000000eb000080fa00000006008e
:1030b8000200fa00004f780090ff070028ff070081
:1030c80000cdb30071ff07008cff07001e40780099
:1030d8006eff070089ff07003aff070010cdb30015
:1030e8006aff070085ff0700c4ff0700a2ff07006b
:1030f8004dff0700001080000080fa000000060065
:103108000200fa00004f78001147980014ff0700ea
:1031180000cdb3005dff070078ff07001e40780070
:103128005aff070075ff07001e40900057ff070071
:1031380072ff07003cff07000080fa00000006004d
:103148000000fa0011c0b300b0c6b300ecff0700de
:1031580021c0b300b0c1b300e9ff070031c0b3001c
:10316800c0c1b300e6ff070061c0b300a0c1b3004f
:10317800e3ff07000080fa00000006000400fa00e0
:103188000000eb00000f78000000eb00100798002b
:10319800b0c3b300c6ff070010079800c0c3b30050
:1031a800c3ff0700000f78001e0090004800dd00f4
:1031b8001e0040000080fa00000006000400fa002b
:1031c8000000eb00000f78000000eb0010079800eb
:1031d800d0c3b300b6ff070010079800e0c3b300e0
:1031e800b3ff0700000f78001e0090004800dd00c4
:1031f8001e0040000080fa00000006000400fa00eb
:103208000000eb00000f78000000eb0010079800aa
:10321800f0c3b300a6ff07001007980000c4b3006e
:10322800a3ff0700000f78001e0090004800dd0093
:103238001e0040000080fa00000006000400fa00aa
:103248000000eb00000f78000000eb00100798006a
:1032580030c4b30096ff07001007980040c4b300bd
:1032680093ff0700000f78001e0090004800dd0063
:103278001e0040000080fa00000006000400fa006a
:103288000000eb00000f78000000eb00100798002a
:1032980050c4b30086ff07001007980060c4b3004d
:1032a80083ff0700000f78001e0090004800dd0033
:1032b8001e0040000080fa00000006000400fa002a
:1032c8000000eb00000f78000000eb0010079800ea
:1032d80070c4b30076ff07001007980080c4b300dd
:1032e80073ff0700000f78001e0090004800dd0003
:1032f8001e0040000080fa00000006000400fa00ea
:103308000000eb00000f78000000eb0010079800a9
:1033180010c4b30066ff07001007980020c4b3006c
:1033280063ff0700000f78001e0090004800dd00d2
:103338001e0040000080fa00000006000000fa00ad
:1033480050c7b3005aff07000080fa0000000600cb
:103358000a00fa00400798000e80e800b1da2c0055
:10336800010878000e80e800410020001100980054
:103378000e80e800ce009000210098006000200038
:10338800000f78000e80e8009e0078000ffd07000f
:103398000080fa00000006000e00fa0050079800ae
:1033a80061079800b0da2c00100798004000200050
:1033b800200798005e009000300798006e0090008b
:1033c8004007980080002000000f78000e80e80079
:1033d8009e007800fdfc07000080fa00000006004f
:1033e8001200fa006007980071079800020f980011
:1033f8000e80e800b1da2c00010878000e80e800a1
:1034080061002000110098000e80e800ee00900096
:10341800210098000e80e800fe009000310098001e
:103428000e80e8008e08900041009800a00020005f
:10343800000f78000e80e8009e007800e3fc07008b
:103448000080fa00000006001600fa0070079800d5
:10345800010f9800120f9800230f98000e80e800c3
:10346800b1da2c00010878000e80e8008100200005
:10347800110098000e80e800fe00900021009800de
:103488000e80e8008e089000310098000e80e80059
:103498009e089000410098000e80e800ae08900059
:1034a80051009800c0002000000f78000e80e8004e
:1034b8009e007800c5fc07000080fa0000000600a6
:1034c8000c00fa00000f78001107980022079800f6
:1034d80033079800440798005507980027ff07000e
:1034e8009e0078008008780034ff07009e00900056
:1034f8008008780041ff0700ae009000800878003f
:103508004eff0700be009000800878005bff0700b0
:10351800ce0090008008780068ff0700de00900069
:10352800800878000080fa00000006000200fa0017
:10353800004f7800000120002008880000e62000e5
:10354800100888000000eb00000888008460a900cb
:1035580005e1a8009e40780061c060000080fb0083
:10356800610060004300dd006204800071ff2f00ed
:103578008100610000807000600488001e407800af
:10358800e04f500006003a000000000020048000d0
:1035980068006000e00f5000fcff320005e1a90060
:1035a8000080fa00000006003600f800809fbe0088
:1035b800829fbe00849fbe00869fbe000000fa0066
:1035c80010c0b300d9ff07000080fa004f03be0007
:1035d8004f02be004f01be004f00be003600f9008a
:1035e800004006000200fa00000f78000040eb00df
:1035f800ceff07001e0fe9001e007800e00f500004
:10360800faff3d000080fa00000006002200fa00e0
:103618000000eb00400f98000000eb00500f9800ee
:103628000000eb00600f98000000eb00700f98009e
:103638000000eb00001798000000eb00000f780076
:103648001e007800100798001e00900020079800c0
:103658002e009000300798003e0090004007980028
:103668004e009000500798005e0090006007980098
:103678006e009000700798007e009000000f980080
:103688000e089000100f98001e089000200f980058
:103698002e089000300f9800bdfa070027fc07009d
:1036a800a5fb07007bfb07000040eb009fff07001e
:1036b8000040eb009dff0700e8fa07000040eb0020
:1036c8009aff07000040eb0098ff07000cfb07007b
:1036d800e2c2a800ffff37000200fa00000f7800de
:1036e80000022000900888001e007800e30f5000b8
:1036f80003003a00003a20007008880002003700f2
:1037080000572000700888000000eb00500888006f
:1037180084e0a90013e1a9008ce0a8000080fa0069
:10372800000006000000fa0013e1a8000080fa007b
:10373800000006000000fa0013e1a9000080fa006a
:10374800000006003600f800809fbe00829fbe0081
:10375800849fbe00869fbe000000fa0084e0a90096
:10376800c7f807000080fa004f03be004f02be00f2
:103778004f01be004f00be003600f90000400600b1
:020000040000fa
:103788009a08000034000000000000000008000053
:103798009a00000000000000ce080000140000009d
:1037a800020000000000000000000000000000000f
:1037b8000000000000000000000000000000000001
:1037c800e20800000e00000000000000f008000001
:0c37d800020000000000000000000000e3
:020000040000fa
:1037e4000200fa00000f7800020037000000000019
:1037f4001e0fe9001e007800e00f5000fbff3a00a6
:083804000080fa00000006003c
:020000040000fa
:0200000401f009
:04000000e3390000e0
:020000040000fa
:0200000401f009
:04000400ff7f00007a
:020000040000fa
:0200000401f009
:040008006c7f000009
:020000040000fa
:0200000401f009
:04001400ffff0000ea
:020000040000fa
:0200000401f009
:04001800feff0000e7
:00000001FF
