:020000040000fa
:080000000001040000000000f3
:020000040000fa
:100008009c0100009c0100009c0100009c01000074
:100018009c0100009c0100009c0100009c01000064
:100028009c0100009c0100009c010000c81f00000a
:100038009c0100009c0100009c0100008a20000037
:100048009c0100009c0100009c0100009c01000034
:100058009c0100009c0100009c0100009c01000024
:100068009c0100009c0100009c0100009c01000014
:100078009c0100009c010000940100009c0100000c
:10008800441100009c0100009c0100009c0100003c
:100098009c0100009c0100009c0100009c010000e4
:1000a8009c0100009c0100009c0100009c010000d4
:1000b8009c0100009c0100009c0100009c010000c4
:1000c8009c0100009c0100009c0100009c010000b4
:1000d8009c0100009c0100009c0100009c010000a4
:1000e8009c0100009c0100009c0100009c01000094
:0800f8009c0100009c010000c6
:020000040000fa
:100108009c0100009c0100009c0100009c01000073
:100118009c0100009c0100009c0100009c01000063
:100128009c0100009c0100009c010000c81f000009
:100138009c0100009c0100009c0100008a20000036
:100148009c0100009c0100009c0100009c01000033
:100158009c0100009c0100009c0100009c01000023
:100168009c0100009c0100009c0100009c01000013
:100178009c0100009c010000940100009c0100000b
:10018800441100009c0100009c0100009c0100003b
:100198009c0100009c0100009c0100009c010000e3
:1001a8009c0100009c0100009c0100009c010000d3
:1001b8009c0100009c0100009c0100009c010000c3
:1001c8009c0100009c0100009c0100009c010000b3
:1001d8009c0100009c0100009c0100009c010000a3
:1001e8009c0100009c0100009c0100009c01000093
:0801f8009c0100009c010000c5
:020000040000fa
:100200000f9020000eff20000e018800000000006b
:1002100000012000200288000c00070020092200b5
:100220000100200011000700000020000000e00095
:10023000020032000000020000000000fa1f02006d
:10024000000000000040da000000fe004440a90069
:10025000001d20000000e00003003200000020002c
:10026000a00188004440a800000006009101880019
:10027000800078000000eb0015003700e2804000ad
:1002800032a0b4009101ba00e280400032a0b40074
:100290009102ba00e280400032a0b4000002eb00fc
:1002a000472bde00f507b200602ce10004003a00a5
:1002b0000059eb008301e900fdff3e000400370018
:1002c0006128e100010032000082eb000400070019
:1002d0001101ba000200e000e8ff3a000000060049
:1002e0003159ba008301e9000c0032002159ba00eb
:1002f0008301e900080032000400e00003003a0036
:10030000e280400032a0b400f5ff370011d9ba00f6
:100310008301e900faff3a008100e800e180400033
:1003200032a0b400000006000000fa0086c0a90058
:100330000080fa00004006000040da000000fe00e5
:10034000040024000602ab00feff3a000642ab00a8
:10035000fcff3a000662ab00faff3a000682ab00ef
:10036000f8ff3a004610800086026200e08f5200db
:10037000f4ff3a000000060006a2a8000682a800ca
:10038000000006000602a800000006000642a800c1
:100390000000060003f0a200889fbe008a9fbe00f6
:1003a0008c1f7800aa010700b10133006450e100fe
:1003b0004f0032006420e1005200320003826c00e2
:1003c00007003b000905d0000306d000820f54004f
:1003d0000c065d000200390002003200890178003d
:1003e000030678008582550004003d000003fd00ef
:1003f0008103fd008502ea008b854200840f7200b4
:1004000002003b0060001000e08018006011b8009e
:100410000005eb007a28e1000a00390006007800a8
:10042000c75ddd00f707b200878075002d0037003b
:10043000828171000a017800610560008180d1002d
:100440000080d3008502e900f9ff3b00060440006c
:100450008784480002003b0060041400e0841c0014
:100460000988a300070032008a817100828171002f
:10047000610164008904d1000884d3008b05e80081
:10048000170037000978a30013003a000b00e000c2
:10049000130034008b05e9000804440089844c00f3
:1004a0000a4474000978a3000d003a000b00e00034
:1004b000070034008b05e9000804440089844c00df
:1004c00001003a000b0020000978a300f7ff32007a
:1004d0000001eb0002003700828171000a01780000
:1004e000200107000cf0a70001f0a000690137000f
:1004f0006420e10002003a00838f6c006901330040
:100500000801be000200be0062013700889fbe00e5
:100510008a9fbe008c1f78004d010700100220004a
:1005200002003b00f0478800510137008a0062005a
:100530006408e10002003a00f047880059013700e2
:100540006108e100fcff32000800be0003047800ef
:100550007000070001f0a1000900070008f0a600e4
:10056000040037000001be0091042400b0fd20000b
:1005700088ff070009f0a70001f0a200450137003d
:10058000889fbe008a9fbe008c9fbe000004be00f4
:100590001a0107000800be00890678006420e10007
:1005a00008003900040032000160a000120220009f
:1005b000f24788005300370091fc2300b0fd200073
:1005c0004e0037000006eb0009f0a10003f82300fd
:1005d000020020000800be009f0007000600340053
:1005e00001f82300000020000801be0049000700b8
:1005f0000004be002c0020000800be0093e8230089
:10060000320a230094000700120034000801be00e3
:10061000d1fd2300703d2b005fff07000005be00e9
:10062000b3f32300f27a26000800be002f01070072
:1006300003f823000200200056ff07000801be0057
:1006400055ff07000a01be00320007000004be008b
:100650000c06e8000800be0001f0a1000200200026
:10066000039823007c0007000800be001600350038
:100670000801be001d0107000005be0032cd2c00a0
:1006800043fb230044ff0700809fbe00126928003f
:1006900003d52b000a00be0014010700620f2100e1
:1006a00013ef2b003cff07000a01be000f010700fb
:1006b0004f01be00170007000801be000b01070034
:1006c0000801be0034ff07000c00e0000b00320000
:1006d0000c10a70001f0a200b2fd200093fc230043
:1006e0006260e1000400320022a9200063f02300d0
:1006f0000c10a70063f8230027ff07000df0a700e8
:1007000001f0a2004f06be004f05be004f04be0020
:1007100000000600889fbe008a9fbe008c1f7800e4
:10072000cb000700d200330003866c006450e10068
:100730002e0032006420e100330032006150e100fd
:100740002f0032006120e100310032008585550024
:10075000eb07b00009002000080420000500370066
:100760000804440089844c000a0031000603430059
:1007700087834b000001530081815b00f8ff330049
:100780000203be000800a0000804440089844c0055
:10079000f6ff3900c639dd00830173000100320025
:1007a000130020008904d1000884d3000998a30015
:1007b000050032000800a7000300a0008904d10052
:1007c0000884d3008b05e8008904d1000884d30095
:1007d0000001eb000281d2006200070001f0a100dd
:1007e0000cf0a70001f0a000aa0037006420e1008f
:1007f000ac0032000801be000200be00f7ff370067
:100800006120e100a70032006000b800f3ff37006c
:100810000000200001f82700f0ff3700839f6800e8
:100820000100e00002003d0060001000e0801800c0
:100830000300e00002003d0060011100e0811900aa
:10084000de0007004f00e00002003b0060001000e7
:10085000e08018000000060014002000ea003700c5
:10086000f4ff2f00e80037000001be00630007001e
:100870000470a70003f0a1006509b1001600320062
:100880000d0035006828e10006003500f0ff2f005c
:10089000f1ff27000300e00013003b0001002800e7
:1008a0000000050000004000818048008502e9004a
:1008b000fcff3a0008003700f88f420002003c00bd
:1008c0008000eb00000005008100d1000080d30013
:1008d0008502e800fcff3a000300e00002003b0054
:1008e00060001000e0801800000006000001be005b
:1008f000420007000470a70003f0a10003f8a30062
:1009000013003a006509b1001000320009003500fb
:100910006928e10002003500010028000000050000
:1009200000004000818048008502e900fcff3a0099
:1009300000000600f88f4200050035008100d1005c
:100940000080d3008502e800fcff3a0000000600aa
:100950008000eb00000005004f89de008201780076
:10096000c400370081002000618055000b003d006d
:100970000b00200061fe2f000100e1001d0034008b
:1009800082817100610164008904d1000884d30070
:100990000000e800faff3a007100200061006400e6
:1009a000030070000200600009003200610444008e
:1009b000e0844c000988a500050032008b05e800a2
:1009c0006808e10002003a008904d1000884d300dd
:1009d000f20f20000258e10005003d00c75ddd0078
:1009e000f907b20089807500080078000000060051
:1009f0000bf827008b00780000000500c70ade0016
:100a0000f107b200f50fb20008003200e1cf42005a
:100a1000020032000170a00024000500810f700068
:100a2000010032000408050044000500810f700039
:100a300002003a00140005008502e90000004000b1
:100a400081c04800fcff3b000170a00024000500ad
:100a50000004be00e9ff07000003be000405be005d
:100a60000200be00e5ff0700844f7500000006008d
:100a70000200be006450e100050036006420e10081
:100a8000020036000968a30001003a000800be0019
:100a90000160a0004f0678004f05be004f04be0065
:100aa00000000600f0ff2f00f1ff2700f9ff3700dc
:100ab000811f78000100e00002003d00600010008e
:100ac000e08018000300e00002003d00600111001a
:100ad000e0811900490007004f00e00002003b00e0
:100ae00060001000e080180000000600889fbe0033
:100af0008a9fbe008c1f7800d5ff0700dcff330003
:100b000003866c006450e100240032006420e100a0
:100b1000270032006150e100220032006120e10034
:100b2000210032008b854200eb07b1000134b80090
:100b3000003ab8000804420089844a00013ab8002b
:100b40000030b8008880400009014a0004003300ea
:100b50000000400081804800020149008b05e90047
:100b6000c909dd008301700001003200130020007c
:100b7000c814de004814dd004709de001200b20090
:100b8000c808de000884700076ff070001f0a100ad
:100b90000cf0a70001f0a000beff37006120e100cb
:100ba000c0ff32000801be000200be00f7ff3700a0
:100bb0006150e100fcff3a00baff37006022b80044
:100bc000060220000000d0008180d2000482d20002
:100bd0008582d2000000a0000202520083825a00e7
:100be000030031000202420083824a000000a1009b
:100bf0000603e900f3ff3a0000000600efff0700dc
:100c00000400be0000000600889fbe008a9fbe0050
:100c1000841f78008eff07004f007800110033001a
:100c2000f0ff2f00838f6c0006003b000405650079
:100c30000a00a7000800370009f0a60010002000f5
:100c400008003700820f5400838f5c0003003900d6
:100c50001000200001003e000000200009f0a70065
:100c60000000ea004f05be004f04be000000e00097
:100c700000000600881f7800030478000300e000ed
:100c800007003d0060001000e080180060011900be
:100c9000e081190002003b0001f02d000300370045
:100ca0000400070008f0a70001f0a0004f0478003e
:100cb00000000600889fbe008a9fbe000082700070
:100cc0000402710004827100260032000004be009c
:100cd0000200be006011b8006b09200095022000e0
:100ce0000182cf000a0039000541b1000082cf0027
:100cf000070039000541b1000982cf000400390026
:100d00000541b1000882cf00010039000541b10062
:100d100005425200120032000a003b00828171003d
:100d2000610164008100d1000080d3008984d30078
:100d30000884d3008b05e8000442e800f7ff3a007e
:100d4000070037000804440089844c000000480074
:100d5000818048008b05e9000442e900f9ff3a0070
:100d600000ff07004f05be004f04be000000060054
:100d700006c2b3000002780004007800b042780098
:100d800086cf5200fbff3200e9cf5200f9ff32005c
:100d9000d6c2b30086cf520003003a0000027800aa
:100da00016c0b300050037000043eb00b7c2b30024
:100db00087cf520001003a00000278000000eb00eb
:100dc000020037006a00b90000804200b402fb0054
:100dd0000503b100e98f5200faff3600e04f5300df
:100de000010032000000ea000000060080017800e7
:100df0008103780007027800010037008501780040
:100e0000110009000282d800000278008302e80085
:100e1000e00f5200f9ff3a00844a780011000900ff
:100e20008283d80080027800014278008503780030
:100e3000e94f5200010034006742420001c3b30091
:100e400081514200e08f5200f4ff3a000300780025
:100e500000000600881f780000047800e08f500032
:100e600005003d0008007800d4c2b30004587800a3
:100e70008100ea000100370008007800dbff07006e
:100e8000080078004f047800000006000002780097
:100e900002003700315a78000201e900e00f5100ea
:100ea000fcff3a000000060000027800b142780022
:100eb000055a7800e0cf5200fcff3a00000006001f
:100ec000000278008042eb00b4cf1200fdff3a0030
:0c0ed0000080ea00000042000000060064
:020000040000fa
:100edc00484f00004c4100002051000055450000d7
:100eec0020540000414c00002045000053540000e9
:100efc0041530000207900006f2000006573000052
:100f0c00746f0000792000006d75000079200000de
:100f1c0062690000656e00002079000020740000fa
:100f2c0075200000717500006520000074610000e0
:100f3c006c000000636f00007272000065630000bb
:100f4c00746f000028770000686f000020690000b3
:100f5c00206100006d3d000031300000342900009c
:100f6c00206e0000756d0000657200006f2000009f
:100f7c006465000020660000616c00006c6f00006e
:100f8c00732000003d000000617900003d0000006e
:100f9c00776800006f20000069200000616d000080
:100fac00203d000000650000727200006f720000ae
:100fbc0000410000783d000000410000793d000038
:100fcc00004100007a3d000000470000783d000021
:100fdc0000470000793d0000004700007a3d00000a
:100fec0000650000727200006f720000202d00007e
:100ffc002d3e0000766100006c6f00007220000036
:10100c00776800006f20000069200000616d00000f
:10101c003d00000045730000746f00002065000067
:10102c0073200000756e00006120000070720000db
:10103c007565000062610000203d0000200000008a
:10104c00536100006c6700006f20000064650000b5
:10105c00204d000079530000746100007274000090
:10106c00207000006f72000020540000696d0000b9
:10107c006572000000530000616c0000676f000097
:10108c0020640000652000004d79000052650000ce
:10109c00737400006172000074200000706f000017
:1010ac0072200000546900006d65000072000000a1
:1010bc00536100006c6700006f2000006465000045
:1010cc00206d0000795f0000537400006f70000009
:1010dc00207000006f72000020540000696d000049
:1010ec006572000000530000616c0000676f000027
:1010fc0020640000652000006d7900005f5700003f
:10110c007269000074650000207000006f720000ae
:10111c0020540000696d000065720000005300004f
:10112c00616c0000676f0000206400006520000007
:10113c006d7900005f490000646c000065200000c0
:10114c00706f000072200000546900006d65000093
:10115c0072000000766100006c6f000072410000ac
:10116c0075780000203d0000200000002076000073
:10117c00616c00006f720000417500007841000046
:10118c006e74000065720000696f00007220000030
:10119c003d2000000070000069640000203d00004c
:1011ac002000000020450000702000003d200000c1
:1011bc000020000045640000203d000020000000dd
:1011cc0020450000692000003d20000000000000c8
:1011dc0020000000636100006d6200006961000086
:1011ec006e6400006f2000007061000072610000ee
:1011fc006d650000747200006f7300003a0000000f
:10120c00703d0000002c0000693d0000002c000027
:10121c00643d0000002c000061750000785f000048
:10122c004249000041530000313d0000002c0000f9
:10123c0061750000785f00004249000041530000d6
:10124c00323d000000000000736900006e200000b9
:10125c00656e0000747200006172000000000000f6
:10126c00726f00006c6c0000203d0000200000003c
:020000040000fa
:10127c000000fa0044ef2700040c880044ef27001c
:10128c00340c880044ef2700640c880044ef2700de
:10129c00940c88000080fa00000006000200fa009e
:1012ac000002eb00040f78001c003700940c800047
:1012bc000402e800940c8800640c80000402e8002e
:1012cc00640c8800340c80000402e800340c8800a4
:1012dc00040c80000402e800040c88008038210013
:1012ec00a90b0700950c8000b4ff2000848f5200de
:1012fc000a003600f4ff2000940c8800f4ff200054
:10130c00640c8800f4ff2000340c8800f4ff2000eb
:10131c00040c880014002000040f78001e027800d2
:10132c00e00f5200e1ff32001c003700940c8000eb
:10133c000402e900940c8800640c80000402e900ab
:10134c00640c8800340c80000402e900340c880022
:10135c00040c80000402e900040c88008038210091
:10136c00890b0700950c800004072000848f520025
:10137c000a003e000002eb00940c88000002eb0017
:10138c00640c88000002eb00340c88000002eb00b7
:10139c00040c88000002eb00040f78001e02780099
:1013ac00e10f5200e1ff32000080fa00000006005d
:1013bc000200fa000002eb00040f78000082eb0040
:1013cc00040f78000b0037001e027800940c880084
:1013dc001e027800640c88001e027800340c880011
:1013ec001e027800040c880080382100660b070070
:1013fc001e0fe9001e027800e00f5200f2ff3400cd
:10140c000080fa00000006000200fa00000f7800cd
:10141c009e007800a0842000a0fe0700a08420007d
:10142c00a4fe07000002780084007800a08420004d
:10143c000203070080382100530b07000080fa00dc
:10144c00000006000000fa00f4108000a20020004a
:10145c0084007800a08420007bfe0700a08420007c
:10146c0094fe07000002780084007800a08420001d
:10147c00f2020700f4108000a20020008400780023
:10148c00a084200070fe0700a084200089fe0700c5
:10149c000002780084007800a0842000e702070096
:1014ac00f4108000a200200084007800a0842000aa
:1014bc0065fe0700a08420007efe07000002780075
:1014cc0084007800a0842000dc020700f410800067
:1014dc00a200200084007800a08420005afe07009f
:1014ec00a084200073fe07000002780084007800be
:1014fc00a0842000d102070022032000e1762800fe
:10150c00a08420005efe0700a084200069fe070076
:10151c000002780084007800a0842000c702070035
:10152c0080382100180b0700a084200061fe070002
:10153c000002780084007800a0842000bf0207001d
:10154c0080382100100b0700a084200059fe0700f2
:10155c000002780084007800a0842000b702070005
:10156c0080382100080b0700a084200051fe0700e2
:10157c000002780084007800a0842000af020700ed
:10158c0080382100000b0700a084200049fe0700d2
:10159c000002780084007800a0842000a7020700d5
:1015ac0080382100f80a0700a084200041fe0700c3
:1015bc000002780084007800a08420009f020700bd
:1015cc0080382100f00a0700a084200039fe0700b3
:1015dc000002780084007800a084200097020700a5
:1015ec0080382100e80a0700a084200031fe0700a3
:1015fc000002780084007800a08420008f0207008d
:10160c0080382100e00a07000080fa000000060084
:10161c000000fa0047fb070057fb07000000000022
:10162c003410800061026200e00f5200fcff3a00af
:10163c0000cdb3002107070000000000451080001a
:10164c000400280004826200e00f5200fbff3a0005
:10165c0038fb070050c7b300180707000000000054
:10166c00451080000400280004826200e00f520044
:10167c00fbff3a002ffb07000622a8000000000029
:10168c00000000003410800062026200e00f520083
:10169c00fcff3a0010cdb300080707000000000063
:1016ac00451080000400280004826200e00f520004
:1016bc00fbff3a001ffb07000662a80000000000b9
:1016cc004410800062026200e00f5200fcff320006
:1016dc0026fb07002afb07000000000034108000e6
:1016ec0064026200e00f5200fcff3a000080fa0036
:1016fc00000006001a00fa00200f9800310f980025
:10170c00420f98000002eb00140798002e0990007d
:10171c00be09900062079800730798006e02900053
:10172c000500200024079800350798007e029000e1
:10173c000474a1000482fb0005002000c022dd001f
:10174c00040020002e039000be039000060242000d
:10175c0087824a0024079800350798002e039000d2
:10176c00be03900004002000050820000602420081
:10177c0087824a0024079800350798007e02900063
:10178c00c722de0000c2eb0084c2620014c8b300a2
:10179c0004c24200044f98000e4a9000f24f5200cf
:1017ac0010003400ce0a900094c4b300844a780030
:1017bc004e0a90008402e800e4c6b300844a780024
:1017cc004e0a90008482e80064c6b300844a780014
:1017dc004e0a9000e30242000042eb00844a78007b
:1017ec00c40037000e4a9000e34f420008003d0051
:1017fc00ce0a900004c3b300844a78004e0a9000cd
:10180c008402e8000042eb00844a7800b9003700fb
:10181c000002eb0014079800fe0290000400280060
:10182c0004826200e00f520006003200ce0a9000e3
:10183c00d4c2b300844a78001e0290000402e8006f
:10184c00140798000e4a90000402fb007703120064
:10185c002e029000be029000860178008301e90000
:10186c00030033008502d1000482d300fbff370054
:10187c00540798001e029000ce0a90000483420088
:10188c005e02900005002000060178000400be00f6
:10189c009a0007000002eb00040f78000a003700e2
:1018ac001e027800ce0a9000048242001442780096
:1018bc00e04f520003003a001e0278001407980013
:1018cc00040037001e0fe8001e027800e70f5200dc
:1018dc00f3ff34001e029000e50f520084003c0020
:1018ec001e029000ce0a900084824200e4c2b30033
:1018fc00844a78001e0290000402e8001407980045
:10190c000e4a90000402fb00740312002e02900099
:10191c00be0290000401be00860078008100e90040
:10192c00030033008301d1000281d300fbff370099
:10193c000203be00740020000500200006007800a1
:10194c000703780084037800050278000700600024
:10195c000402630005002000c022dd00040020000a
:10196c000403be006102b800040373008583730096
:10197c007400200005002000840f5300858f5b004d
:10198c0041003e0006600100070037000d003700e3
:10199c0013003700190037001f00370025003700ef
:1019ac002b0037003100370004c3b30004579800f4
:1019bc0004c3b3001457980004c3b3002457980011
:1019cc003100370014c3b3000457980024c3b3008c
:1019dc001457980054c3b300245798002a003700ba
:1019ec0024c3b3000457980054c3b3001457980091
:1019fc0004c3b300245798002300370034c3b3004a
:101a0c000457980074c3b3001457980054c3b30020
:101a1c00245798001c00370054c3b3000457980097
:101a2c0004c3b3001457980004c3b30024579800a0
:101a3c001500370064c3b3000457980024c3b300e7
:101a4c001457980054c3b300245798000e00370065
:101a5c0074c3b3000457980054c3b30014579800d0
:101a6c0004c3b300245798000700370084c3b300a5
:101a7c000457980074c3b3001457980054c3b300b0
:101a8c0024579800000000000002eb00040f7800bf
:101a9c000e0037001e029000e60f52000a003c00b8
:101aac001e029000ce0a9000848242007002470011
:101abc001e02420014427800844a78001e029000f4
:101acc000402e800140798001e0fe8001e027800bc
:101adc00e20f5200efff34001e029000ce0a90007d
:101aec00848242000042eb00844a780001003700f7
:101afc00000000000080fa00000006000c00fa0054
:101b0c00881f78003007980041079800520798000a
:101b1c003e029000ce029000140798002507980012
:101b2c001e029000ae029000e00f5200e08f5a00af
:101b3c0006003d003e029000ce02900060021200b2
:101b4c00e0821a0034079800450798000002eb0069
:101b5c00040f78001e027800de029000048442001c
:101b6c003e029000ce029000a20020000300200054
:101b7c000400be00cbfb07000002be00044278004c
:101b8c000443b000044c78001e0fe8003e029000a5
:101b9c00ce029000a2002000030020000400be0032
:101bac001bfb07000002be00340798004507980095
:101bbc003e029000ce029000e00f5200e08f5a00df
:101bcc00e4ff3c001e029000ae029000e00f5200b9
:101bdc00e08f5a0006003d001e027800de029000e5
:101bec0084824200d4c2b300844a78001e0fe800fd
:101bfc001e027800de029000848242000042eb005c
:101c0c00844a78005e009000030007004f047800bf
:101c1c000080fa00000006000800fa003007980067
:101c2c000002eb00040f78003e009000a1fc0700be
:101c3c00000278000402e90014079800160037002f
:101c4c001e027800be02900004824200944278008a
:101c5c00454798001e027800be0290008482420024
:101c6c001e0290003e0390000402430014427800d0
:101c7c00844a78001e029000be029000048242004a
:101c8c00ce429000054a78001e0fe8001e0290001c
:101c9c000402e900140798001e0290009e027800ce
:101cac00848f5200e6ff35000080fa000000060029
:101cbc000400fa00e2c2a8000002eb00040f780056
:101ccc0020032000be0807000002eb001407980058
:101cdc002c07070000027800140798009e02900061
:101cec0084062000848f52000b003a00c562a800c5
:101cfc00d1c2a9009e007800007a280021010700bb
:101d0c00ae0607000002780084007800a07c280052
:101d1c001c01070018003700860607009e00900083
:101d2c00e07c280017010700a406070000027800d9
:101d3c0084007800a07c2800120107001e0fe80028
:101d4c009e007800907d28000e0107001e0278008e
:101d5c00e50f520008003a000002eb00040f780077
:101d6c00e2c2a900d1c2a800c562a900803e200031
:101d7c0093080700e2c2a8000080fa0000000600e9
:101d8c000c00fa00ff060700000278008506200010
:101d9c00850f520025003a00ea024700680247000e
:101dac0066004700e40347000e83e80080017800da
:101dbc0007017800860078000e0078004a070700bb
:101dcc001e02780084007800f07d2800ed000700ea
:101ddc001e02900084007800307e2800e900070085
:101dec002e02900084007800707e2800e500070029
:101dfc003e02900084007800b07e2800e1000700cd
:101e0c004e02900084007800f07e2800dd00070070
:101e1c005e02900084007800307f2800d900070013
:101e2c00d1c2a900c562a8000a003700d506070078
:101e3c000002780084007800707f2800d100070031
:101e4c00e2c2a900c562a900803e20005c08070020
:101e5c00e2c2a8000080fa00000006000c00fa00a4
:101e6c00c80607000002780085062000850f520086
:101e7c0016003a00ea024700680247006600470075
:101e8c00e40347000e83e800800178000701780026
:101e9c00860078000e00780013070700ce03900030
:101eac003e0390009e0290001e027800870178008d
:101ebc00060178008500780004007800f106070020
:101ecc00d1c2a900c562a8000b003700ad060700ff
:101edc000002780084007800707f2800a9000700b9
:101eec00e2c2a900c562a900803e200034080700a8
:101efc00e2c2a8000f0607000080fa0000000600ee
:101f0c000200fa000002eb00040f78000400370016
:101f1c009e007800008128009a0007001e0fe80040
:101f2c00f47022009e027800848f5200f8ff340077
:101f3c000080fa00000006000200fa000002eb002c
:101f4c00040f7800090037001e027800940c8800fa
:101f5c00940c8000640c8800640c8000340c8800a5
:101f6c00340c8000040c88001e0fe800f4e12400ff
:101f7c009e027800848f5200f3ff34000080fa0038
:101f8c00000006000000fa00d4002000d4108800e5
:101f9c0000000000c51080000410200004826200c4
:101fac00e00f5200fbff3200a4002000d410880088
:101fbc0000000000c51080000410200004826200a4
:101fcc00e00f5200fbff32000080fa000000060018
:101fdc000600fa0010079800210798000042eb0059
:101fec00044f78000e0037009e4278000582fb00fb
:101ffc009e02900004824200144278000402fb000e
:10200c00d410880000000000c510800004102000cf
:10201c0004826200e00f5200fbff32001e4fe8000a
:10202c001e4278008482fb002e029000848f5200a6
:10203c00edff35000080fa00000006000400fa00f5
:10204c00000f7800110798009e0090001e00780089
:10205c00dfff0700cbff07000080fa00000006003e
:10206c000600fa0010079800210798000042eb00c8
:10207c00044f78000e0037009e4278000582fb006a
:10208c009e02900004824200144278000482fb00fd
:10209c00d410880000000000c5108000041020003f
:1020ac0004826200e00f5200fbff32001e4fe8007a
:1020bc001e4278008482fb002e029000848f520016
:1020cc00edff35000080fa00000006000400fa0065
:1020dc00000f7800110798009e0090001e007800f9
:1020ec00dfff0700a7ff07000080fa0000000600d2
:1020fc000400fa00100798001e029000040fe9007b
:10210c001a0037001e02780084024200048020006e
:10211c000482420014027800a2002000840078009f
:10212c00a084200048fb0700a084200061fb07006e
:10213c000002780084007800a0842000a4ff07002f
:10214c0022002000e18e2800a08420004cfb070018
:10215c00a084200057fb0700000278008400780060
:10216c00a08420009aff07001e0fe9001e027800d1
:10217c00e00f5200e3ff3d0082ff07000080fa00f1
:10218c00000006000400fa00000f78001107980008
:10219c001e00780047fb07000002780084007800de
:1021ac001e0078008aff0700a20020009e0090000d
:1021bc00a084200024fb0700a08420003dfb070026
:1021cc000002780084007800a08420009bff0700a8
:1021dc000080fa00000006000400fa00000f7800ee
:1021ec00110798001e00780032fb070000027800ef
:1021fc00840078001e00780075ff0700a200200004
:10220c009e009000a08420000ffb0700a0842000fb
:10221c0028fb07000002780084007800a0842000ce
:10222c006bff07000080fa00000006000200fa00b5
:10223c00000f78001e0078001efb070000027800db
:10224c00840078001e0078007cff07000080fa00f4
:10225c00000006000200fa00000f78001e00780053
:10226c0014fb070000027800840078001e00780040
:10227c0057ff07000080fa00000006003600f80047
:10228c00809fbe00829fbe00849fbe00869fbe00c2
:10229c000200fa0066468000e410800004427800d8
:1022ac00a589200085024300844a78006546800099
:1022bc0004032000848f520003003c00644680001d
:1022cc000402e80064468800644680008402e90049
:1022dc00a4892000048242009442780034c2b300e6
:1022ec0084cf520013003a00644680000402e900d7
:1022fc0064468800a0892000170007000002eb004c
:10230c00040f780005003700a48920009e024200cb
:10231c0004c2b300844a78001e0fe80014032000a6
:10232c009e027800848f5200f7ff34000002eb000d
:10233c00644688008700a9001822a9000080fa00d2
:10234c004f03be004f02be004f01be004f00be0047
:10235c003600f900004006002800fa0030179800fb
:10236c000002eb00040f78000002eb001407980049
:10237c000002eb00240798000002eb0034079800e1
:10238c001e027800e30f5200480034001e02780051
:10239c00be129000048242009442780064c2b300e2
:1023ac0084cf52003c0032002e029000e00f52000d
:1023bc0008003a001e027800be129000048242000f
:1023cc0014427800680347009e0290008502430087
:1023dc00844a78002e029000e10f520008003a0067
:1023ec001e027800be129000048242001442780053
:1023fc006e0347009e02900085024300844a7800d9
:10240c002e029000e20f520008003a001e027800e3
:10241c00be129000048242001442780074034700fc
:10242c009e02900085024300844a78002e029000a0
:10243c00e30f520008003a001e027800be12900012
:10244c0004824200144278007a0347009e029000f6
:10245c0085024300844a78002e029000e40f52005b
:10246c0009003a001e027800be129000048242005d
:10247c0014427800060220000e0343009e029000d6
:10248c0085024300844a78001e0290000402e80092
:10249c0014079800050037002e0290000402e80093
:1024ac00240798000002eb00140798001e0fe800a8
:1024bc001e027800be129000048242009442780002
:1024cc0034c2b30084cf5200adff3a00008f280015
:1024dc0060ff0700680247000400780021fa07003b
:1024ec000002780084007800609028003aff070012
:1024fc006e024700040078001afa07000002780008
:10250c00840078009090280033ff07007402470085
:10251c000400780013fa07000002780084007800a9
:10252c00d09028002cff07007a02470004007800a6
:10253c000cfa070000027800840078001091280043
:10254c0025ff0700040220000e0242000400780060
:10255c0004fa07000002780084007800d09128006b
:10256c0008ff07000080fa00000006000600fa00d1
:10257c0010079800210798000042eb00044f7800e8
:10258c00240037009e4278000582fb0004024200c2
:10259c009e029000048242001402780004427800eb
:1025ac00144798001e4290000402fb00d4108800cf
:1025bc0000000000c510800004102000048262009e
:1025cc00e00f5200fbff32009e4278000582fb00b8
:1025dc00040242009e029000048242001402780021
:1025ec0048a2de0004427800144798001e42900076
:1025fc000402fb00d410880000000000c51080000d
:10260c000410200004826200e00f5200fbff320035
:10261c001e4fe8001e4278008482fb002e029000c0
:10262c000482d100848f5200d6ff35000080fa005e
:10263c00000006002a00fa00500f9800610f980065
:10264c00720f98000317980014179800251798001c
:10265c0036179800471798005e0890005806070038
:10266c007e0a900014027800cfa2de000400be00a7
:10267c00b6f807000002be00140798002507980062
:10268c000e12900014027800cfa2de000400be00ef
:10269c00aef807000002be00140f9800250f98003a
:1026ac001e12900014027800cfa2de000400be00bf
:1026bc00a6f807000002be00340f9800450f9800e2
:1026cc002e12900014027800cfa2de000400be008f
:1026dc009ef807000002be003407980045079800da
:1026ec003e12900014027800cfa2de000400be005f
:1026fc0096f807000002be00540798006507980082
:10270c004e12900014027800cfa2de000400be002e
:10271c008ef807000002be0074079800050f9800a1
:10272c000002eb00040f78004f0037001004070084
:10273c0000027800cfa2de000400be0083f8070080
:10274c000002be003e019000ce0190000400be00cd
:10275c000ef707000002be0014079800250798002a
:10276c001604070000027800cfa2de000400be00b1
:10277c0076f807000002be005e019000ee019000aa
:10278c000400be0001f707000002be00140f980001
:10279c00250f98001c04070000027800cfa2de0071
:1027ac000400be0069f807000002be007e01900024
:1027bc008e0990000400be00f4f607000002be0073
:1027cc00340f9800450f980022040700000278008f
:1027dc00cfa2de000400be005cf807000002be00c1
:1027ec000401be003e009000ce009000e7f607000a
:1027fc000002be0034079800450798002804070023
:10280c0000027800cfa2de000400be004ff80700e3
:10281c000002be000401be005e009000ee009000bd
:10282c00daf607000002be0054079800650798000e
:10283c002e04070000027800cfa2de000400be00c8
:10284c0042f807000002be000401be007e009000aa
:10285c008e089000cdf607000002be0074079800a9
:10286c00050f98001e0fe8006e0a90009e0278007b
:10287c00848f5200adff35006e0a9000cfa2de00af
:10288c000400be0031f807000002be000401be00c7
:10289c001e009000ae0090009bf707000002be00e7
:1028ac000400be00edf707000002be0084027800b1
:1028bc007e0a9000050a78006e0a9000cfa2de0016
:1028cc000400be0021f807000002be000401be0097
:1028dc001e009000ae0090008bf707000002be00b7
:1028ec000400be00ddf707000002be008402780081
:1028fc000e129000050a78006e0a9000cfa2de003e
:10290c000400be0011f807000002be000401be0066
:10291c001e009000ae0090007bf707000002be0086
:10292c000400be00cdf707000002be008402780050
:10293c001e129000050a78006e0a9000cfa2de00ed
:10294c000400be0001f807000002be000401be0036
:10295c001e009000ae0090006bf707000002be0056
:10296c000400be00bdf707000002be008402780020
:10297c002e129000050a78006e0a9000cfa2de009d
:10298c000400be00f1f707000002be000401be0007
:10299c001e009000ae0090005bf707000002be0026
:1029ac000400be00adf707000002be0084027800f0
:1029bc003e129000050a78006e0a9000cfa2de004d
:1029cc000400be00e1f707000002be000401be00d7
:1029dc001e009000ae0090004bf707000002be00f6
:1029ec000400be009df707000002be0084027800c0
:1029fc004e129000050a78000080fa0000000600d4
:102a0c001e00fa00889fbe00100f9800210f98003e
:102a1c00320f9800430f9800540f9800650f9800e0
:102a2c004e0a9000cfa2de000400be00c7f70700dc
:102a3c000002be00f2262100332824000400be0050
:102a4c0031f707000002be008295230043c3230028
:102a5c000400be0022f807000002be000401be0004
:102a6c001e00be0049f607000002be00048fbe0027
:102a7c005e0a9000cfa2de000400be00b3f7070090
:102a8c000002be00f2262100332824000400be0000
:102a9c001df707000002be008295230043c32300ec
:102aac000400be000ef807000002be000401be00c8
:102abc002e009000be00900033f607000002be000e
:102acc0024079800350798001e0a900084027800ad
:102adc0005f0a7008502ea002e0a900004f0a7007a
:102aec000402ea00848242003e0a900004f0a7002f
:102afc000402ea000482420044079800ce029000cf
:102b0c0004002200848f5200680034003e0a9000ba
:102b1c00cfa2de000400be008cf707000004be004c
:102b2c002e0a9000cfa2de000400be0087f707003b
:102b3c000002be000801be000400be0070f60700d3
:102b4c000002be0002002000433324000400be003b
:102b5c00e3f707000002be00b2fd2000930424003e
:102b6c000400be00e8f607000002be0054079800ff
:102b7c006507980082142e00a3f723001e00be00e8
:102b8c00d7f707000002be000404be00a2702d009f
:102b9c0033ca23005e009000ee009000d0f70700cf
:102bac000002be000401be000800be00f7f50700dd
:102bbc000002be00048fbe003e0a9000cfa2de00d1
:102bcc000400be0061f707000004be001e0a90005e
:102bdc00cfa2de000400be005cf707000002be00be
:102bec000801be000400be0045f607000002be004e
:102bfc0002002000433324000400be00b8f7070095
:102c0c000002be00b2fd2000930424000400be00ac
:102c1c00bdf607000002be0074079800050f98006f
:102c2c0082142e00a3f723002e009000be0090000b
:102c3c00abf707000002be000404be00a2702d001a
:102c4c0033ca23007e0090008e089000a4f7070082
:102c5c000002be000401be000800be00cbf5070058
:102c6c000002be0024079800350798002e00900043
:102c7c00be009000f9f607000002be0004027800c6
:102c8c00840078004e089000550307002e00900039
:102c9c00be009000f1f607000002be0004027800ae
:102cac00840078006093280036fd07004f04be00b6
:102cbc000080fa00000006000000fa000002eb00a1
:102ccc00243a8800a00020002f0507000082eb00aa
:102cdc0044158800a00020002b050700f47f2f006e
:102cec0004168800a000200027050700849f2f00f1
:102cfc0034168800a000200023050700f4ff2b00e9
:102d0c0064168800a00020001f05070004ef2b00ac
:102d1c0094168800a00020001b050700c4f92f00a2
:102d2c00f4168800a0002000170507000002eb0035
:102d3c0014168800a0002000130507000002eb0009
:102d4c0044168800a00020000f0507000002eb00cd
:102d5c0074168800a00020000b0507000002eb0091
:102d6c00a4168800a0002000070507000002eb0055
:102d7c0004178800a0002000030507000080fa005b
:102d8c00000006000000fa0000352c00fe040700cd
:102d9c000040eb005c040700c403200024108800f2
:102dac0007a2a900000000000782a8000000000094
:102dbc000762a900000000000742a9000000000003
:102dcc000722a900000000000702a9000000000073
:102ddc0006e2a9000000000006c2a90000000000e5
:102dec0006a2a900000000000682a9000000000055
:102dfc000662a900000000000642a90000000000c5
:102e0c000622a900000000000602a9000000000034
:102e1c000040eb003c04070007e2a8004502070055
:102e2c000080fa00000006000400fa008401a900ea
:102e3c00000000008421a900000000008441a900ca
:102e4c00000000008461a900000000008a01a900b4
:102e5c00000000008a21a900000000008a41a9009e
:102e6c00000000008a61a900000000009001a90088
:102e7c00000000009021a900000000009041a90072
:102e8c00000000009061a900000000009601a9005c
:102e9c00000000009621a900000000009641a90046
:102eac00000000009661a9000000000011e1a900db
:102ebc000000000011a1a9000000000010c1a90031
:102ecc00000000001021a900000000001061a90002
:102edc000000000084c0a90000000000f4ff2b00db
:102eec00040f78000002eb00140798001e02780013
:102efc00140888001e029000040c88001e02780042
:102f0c00640888001e029000340c88001e027800b1
:102f1c00740888001e029000640c88001e02780061
:102f2c00d40888001e029000940c88008401a9002b
:102f3c00000000008421a800000000008441a800cb
:102f4c00000000008a01a900000000008a21a800ee
:102f5c00000000008a41a800000000009001a900b8
:102f6c00000000009021a800000000009041a80083
:102f7c00000000009601a900000000009621a800a6
:102f8c00000000009641a8000000000084088000aa
:102f9c000440a1000450a100840888000000000037
:102fac000002eb00040c88000002eb00340c8800db
:102fbc000002eb00640c88000002eb00940c88000b
:102fcc0011e1a8000080fa00000006000000fa00e1
:102fdc0017e2a80000000000000000000000000044
:102fec0019e2a90000000000c41080000460a100d8
:102ffc000470a100c410880000000000b410800010
:10300c000410a1000420a100b410880000000000ee
:10301c001602a9000000000016a2a9000000000082
:10302c00f4002000f4108800000000001942a800f1
:10303c00000000008700a900000000008720a90004
:10304c00000000008f00a800000000008f20a900e5
:10305c00000000000080fa00000006000000fa00ea
:10306c00d1c2a800c562a8000080fa0000000600ca
:10307c000000fa00d1c2a900c562a9000080fa00c4
:10308c00000006001000fa0070079800143a800047
:10309c00040f7800f48f2f001e0f62001e027800c0
:1030ac0048a2de00040f78007e029000050020008c
:1030bc007600200007002000860f5200878f5a00f0
:1030cc0068003e0004600100070037000b00370069
:1030dc000f0037001300370064003700630037001f
:1030ec0062003700140037009e0278007e029000c8
:1030fc0004827200040f7800140037009e027800de
:10310c007e02900004827200040f78000f003700da
:10311c009e0278007e02900004827200040f7800f8
:10312c000a0037009e0278007e0290000482720032
:10313c00040f7800050037009e0278007e02900094
:10314c0004827200040f78000000000084c7b300f2
:10315c0024479800a4c9b300344798002474200075
:10316c000402e80024079800140280004522de00c7
:10317c00674262000482fb003407980094028000ce
:10318c0044079800ff3ffc00140280000450a0008c
:10319c000460a0000470a000140288004e0290008d
:1031ac0094028800000088002e0390002e429000ac
:1031bc00be4290009e037800044b7800054b7800cb
:1031cc00074b780064c4b3002447980074c5b3005f
:1031dc00344798002474200024079800143a800087
:1031ec00044278000404a000244f9800ae03900021
:1031fc002e429000be4290002e4b9000844b7800e3
:10320c00854b7800864b780000000000143a800053
:10321c0061026200e00f5200fcff3a009402800051
:10322c0064079800ff3ffc003e02900004427800c7
:10323c00674262000482fb00670262004522dd00e7
:10324c0016028000f5f12f008502630004827200e3
:10325c00140288006e02900094028800000088001e
:10326c0003003700000000000100370000000000e0
:10327c000080fa00000006000200fa000002eb00d9
:10328c00040f7800010037001e0fe8001403200023
:10329c009e027800848f5200fbff34000040eb004c
:1032ac00190307007000200076ff0700c05d2000a6
:1032bc00b50307000080fa00000006000200fa00c7
:1032cc00004f78009e4278000582fb0014108800a5
:1032dc00000000004410800061026200e00f520008
:1032ec00fcff3a000080fa00000006000000fa0023
:1032fc00040220000409880004572000e408880018
:10330c000002eb00c408880086c0a90021e1a900d6
:10331c008ec0a90021e1a8000080fa000000060080
:10332c000000fa000602a800f0ff070086c0a90002
:10333c00000000003410800061026200e00f5200b7
:10334c000500320035048000040420000482620071
:10335c00e00f5200f7ff320021e1a9003504800094
:10336c000404200004826200e00f520002003200cc
:10337c0060822800adfb07000002eb00040078001f
:10338c000080fa00000006000000fa000622a800e7
:10339c00d6ff070086c0a900000000003410800092
:1033ac0062026200e00f520005003200350480001a
:1033bc000404200004826200e00f5200f7ff320088
:1033cc0021e1a9003504800004042000048262007d
:1033dc00e00f5200020032001084280093fb07001b
:1033ec000002eb00040078000080fa0000000600e8
:1033fc000000fa000642a800bcff070086c0a90026
:10340c00000000003410800064026200e00f5200e3
:10341c0005003200350480000404200004826200a0
:10342c00e00f5200f7ff320021e1a90035048000c3
:10343c000404200004826200e00f520002003200fb
:10344c00e085280079fb07000002eb0004007800ff
:10345c000080fa00000006000200fa00004f78001d
:10346c009e4278000582fb00141088009fff070025
:10347c0086c0a900000000004410800061026200b8
:10348c00e00f5200050032003504800004042000d7
:10349c0004826200e00f5200f7ff320021e1a90024
:1034ac00350480000404200004826200e00f520006
:1034bc0002003200908728005cfb07000002eb0042
:1034cc00040078000080fa00000006000000fa00fa
:1034dc0086ff070086c0a900000000004510800090
:1034ec000400240004826200e00f52000500320048
:1034fc00350480000404200004826200e00f5200b6
:10350c00f6ff320021e1a9003504800004042000fc
:10351c0004826200e00f5200020032005089280041
:10352c0042fb07000002eb00040078000080fa0068
:10353c00000006000000fa00441080000482ea003b
:10354c004f22de00040078000080fa000000060024
:10355c000000fa0006a2a8000682a80000000000e5
:10356c003410800070026200e00f5200fcff3a0041
:10357c0006a2a9000002eb00040078000080fa000b
:10358c00000006000000fa0006a2a9000682a800ae
:10359c00000000003410800070026200e00f520046
:1035ac00fcff3a000002eb00040078000080fa00f7
:1035bc00000006000000fa000662a80000000000ef
:1035cc004410800062026200e00f5200fcff3200e7
:1035dc0004108000040078000080fa00000006004f
:1035ec000000fa000662a80010002000e6020700a6
:1035fc00000000003410800068026200e00f5200ee
:10360c00fcff3a0014002000040078000080fa004f
:10361c00000006000400fa00000f78002147980013
:10362c0011003700e3ff0700000278000442780025
:10363c009e027800844a78001e0fe8004510800036
:10364c000440200004826200e00f520002003200ad
:10365c000082eb000f0037002e429000e04f52002a
:10366c0001003200c7ff07002e4290000482fb00cd
:10367c000402ea004f22de0004427800ae429000c1
:10368c008542e90025479800e04f5200e5ff3a00db
:10369c000002eb00040078000080fa000000060035
:1036ac000200fa00004f780088ff07001cff07009b
:1036bc0000cdb30068ff070084ff07001e407800b0
:1036cc0065ff070081ff07002fff070010cdb30037
:1036dc0061ff07007dff0700c1ff07009cff07008b
:1036ec0043ff070004108000040078000080fa00fb
:1036fc00000006000200fa00004f78001147980005
:10370c0007ff070000cdb30053ff07006fff070052
:10371c001e40780050ff07006cff07001e40900011
:10372c004dff070069ff070031ff07000080fa001a
:10373c00000006000000fa0011c0b300b0c6b300d0
:10374c00ecff070031c0b300b0c1b300e9ff0700c4
:10375c0031c0b300c0c1b300e6ff070061c0b300c5
:10376c00a0c1b300e3ff07000080fa0000000600d0
:10377c000400fa000002eb00040f78000002eb00da
:10378c0014079800b0c3b300c5ff0700000278000f
:10379c0014079800c0c3b300c1ff070000027800f3
:1037ac00040f78001e0290004822dd001e02420029
:1037bc00040078000080fa00000006000400fa0003
:1037cc000002eb00040f78000002eb0014079800d5
:1037dc00d0c3b300b2ff07000002780014079800b2
:1037ec00e0c3b300aeff070000027800040f7800be
:1037fc001e0290004822dd001e02420004007800e8
:10380c000080fa00000006000400fa000002eb0041
:10381c00040f78000002eb0014079800f0c3b3000b
:10382c009fff0700000278001407980000c4b30043
:10383c009bff070000027800040f78001e02900026
:10384c004822dd001e024200040078000080fa00cd
:10385c00000006000400fa000002eb00040f7800e0
:10386c000002eb001407980030c4b3008cff070073
:10387c00000278001407980040c4b30088ff0700ca
:10388c0000027800040f78001e0290004822dd0030
:10389c001e024200040078000080fa0000000600be
:1038ac000400fa000002eb00040f78000002eb00a9
:1038bc001407980050c4b30079ff07000002780089
:1038cc001407980060c4b30075ff0700000278006d
:1038dc00040f78001e0290004822dd001e024200f8
:1038ec00040078000080fa00000006000400fa00d2
:1038fc000002eb00040f78000002eb0014079800a4
:10390c0070c4b30066ff070000027800140798002b
:10391c0080c4b30062ff070000027800040f780037
:10392c001e0290004822dd001e02420004007800b6
:10393c000080fa00000006000400fa000002eb0010
:10394c00040f78000002eb001407980010c4b300b9
:10395c0053ff0700000278001407980020c4b3003e
:10396c004fff070000027800040f78001e02900041
:10397c004822dd001e024200040078000080fa009c
:10398c00000006000000fa0050c7b30044ff070017
:10399c0000027800040078000080fa0000000600a5
:1039ac000a00fa0040079800b4da2c0014079800bb
:1039bc0044002000240798004e0290003407980021
:1039cc0064002000040f78000e82e8009e0078004e
:1039dc00040078007ef907000080fa000000060061
:1039ec000e00fa005007980061079800b4da2c001a
:1039fc001407980044002000240798005e029000f1
:103a0c00340798006e029000440798008400200050
:103a1c00040f78000e82e8009e0078000400780005
:103a2c006bf907000080fa00000006001200fa0093
:103a3c006007980071079800020f9800b4da2c0008
:103a4c001407980064002000240798006e02900070
:103a5c00340798007e029000440798000e0a9000ec
:103a6c0054079800a4002000040f78000e82e80090
:103a7c009e0078000400780055f907000080fa00d9
:103a8c00000006001600fa0070079800010f98005d
:103a9c00120f9800230f9800b4da2c00140798002a
:103aac0084002000240798007e02900034079800c0
:103abc000e0a9000440798001e0a900054079800c4
:103acc002e0a900064079800c4002000040f7800b0
:103adc000e82e8009e007800040078003cf9070094
:103aec000080fa00000006000c00fa00000f7800bd
:103afc001107980022079800330798004407980094
:103b0c00550798001aff0700000278009e02780003
:103b1c00840a780029ff0700000278009e029000ba
:103b2c00840a780038ff070000027800ae0290008b
:103b3c00840a780047ff070000027800be0290005c
:103b4c00840a780056ff070000027800ce0290002d
:103b5c00840a780065ff070000027800de029000fe
:103b6c00840a78000080fa00000006000800fa00c1
:103b7c002007980031079800ae0290003e0290009a
:103b8c00048f5200854780001e02780004aab900f9
:103b9c0004037800e44780009e02120094478000e2
:103bac0004aab90004027800040243001407980028
:103bbc001e027800e44788001e0290000400780082
:103bcc000080fa00000006001400fa00881f78003c
:103bdc002007980031079800420798005307980077
:103bec006407980075079800060f9800170f980047
:103bfc00ae0290003e029000048f5200ee02900044
:103c0c001e02780004aab90004027800cfa2de00dc
:103c1c000400be004df307000003be00f446800014
:103c2c00054780000401be000600be00d7f1070066
:103c3c000002be00f446880005478800f446800068
:103c4c000547800018c0b30002002000a34f2400d9
:103c5c000400be00fff2070000027800e00f5200e3
:103c6c0001003c000044eb00e04f54000400320023
:103c7c0004002000a54f2400f44688000547880066
:103c8c00f44680000547800018c0b30002002000f5
:103c9c00a34f2c000400be00ecf2070000027800d9
:103cac00e00f5200010035000044eb00e04f5400df
:103cbc000400320004002000a54f2c00f4468800bc
:103ccc00054788000e0a900014027800be0290008e
:103cdc000482520014079800de0290001e02780045
:103cec0004aab90004037800fe0290001e029000a2
:103cfc0004aab9000402780004025300cfa2de002b
:103d0c000400be0011f307000003be00f44680005f
:103d1c00054780000401be000600be009bf10700b1
:103d2c000002be00b4468800c54688001e0a9000fa
:103d3c00cfa2de000400be0004f307000003be00a7
:103d4c00b4468000c546800018c0b3000401be0014
:103d5c000600be00bdf2070000027800e00f520022
:103d6c00010034000044eb00e04f54000700320027
:103d7c001e0a9000cfa2de000400be00f3f2070082
:103d8c000002be00b4468800c54688004eba9700b3
:103d9c00cfa2de000400be00ecf207000003be0060
:103dac00b4468000c546800018c0b3000401be00b4
:103dbc000600be00a7f2070000027800e00f5200d8
:103dcc0001003d000044eb00e04f540007003200be
:103ddc004eba9700cfa2de000400be00dbf2070053
:103dec000002be00b4468800c54688000e0a90004a
:103dfc00be029000050a7800b4478000cfa2de0016
:103e0c000400be00d1f207000003be00b4468000df
:103e1c00c54680000401be000600be005bf1070031
:103e2c000002be000400be00adf207000002be009e
:103e3c0004027800040c8800c4478000cfa2de0086
:103e4c000400be00c1f207000003be00b4468000af
:103e5c00c54680000401be000600be004af1070002
:103e6c000002be000400be009df207000002be006e
:103e7c0004027800940c8800ae009000008b28009f
:103e8c00d5f80700be009000c08b2800d2f80700c0
:103e9c000e0a90001402780084007800108d28001f
:103eac00cdf807009e007800808d2800caf8070026
:103ebc009e009000f08d2800c7f80700f4468000a3
:103ecc00054780000400be0064f207000002be003b
:103edc000402780084007800608e2800a9f807009e
:103eec00b4468000c54680000400be005bf20700ab
:103efc000002be0004027800040078004f04780031
:103f0c000080fa00000006000200fa00004f780062
:103f1c00040120002408880004e62000140888000e
:103f2c000002eb00040888008460a90005e1a800e9
:103f3c009e42780061c262000482fb006102620052
:103f4c004322dd006604800075ff2f0085026300ac
:103f5c0004827200640488001e427800e04f520014
:103f6c0006003a0000000000240480006802620091
:103f7c00e00f5200fcff320005e1a9000080fa00be
:103f8c00000006003600f800809fbe00829fbe0035
:103f9c00849fbe00869fbe000000fa0010c0b300d4
:103fac00d9ff07000080fa004f03be004f02be008d
:103fbc004f01be004f00be003600f9000040060065
:103fcc000200fa00000f78000040eb00ceff070063
:103fdc001e0fe9001e027800e00f5200faff3d00b0
:103fec000080fa00000006001a00fa000002eb0044
:103ffc00040f78001e027800140798001e0290002f
:10400c00240798002e029000340798003e0290007e
:10401c00440798004e029000540798005e029000ee
:10402c00640798006e029000740798007e0290005e
:10403c00040f98000e0a9000140f98001e0a9000ae
:10404c00240f98002e0a9000340f98001afb0700da
:10405c0089fc07000040eb00abff070072fb070078
:10406c0003fc0700d9fb07000040eb00a6ff07008c
:10407c000040eb00a4ff070042fb0700a00020005b
:10408c00cfff0700e2c2a8000040eb009eff070034
:10409c00a092280065f80700ffff37000200fa0025
:1040ac00000f780004022000940888001e0278009b
:1040bc00e30f520003003a00043a20007408880011
:1040cc000200370004572000740888000002eb003f
:1040dc005408880084e0a90013e1a9008ce0a80032
:1040ec000080fa00000006000000fa0013e1a800ae
:1040fc000080fa00000006000000fa0013e1a9009d
:10410c000080fa00000006000000fa0084e0a9001c
:08411c000080fa0000400600db
:020000040000fa
:104124009a0800003400000000000000e6080000c7
:104134001600000002000000000000000000000063
:104144000000000000010000010001000001000067
:104154000100010000000000000800009a000000b7
:1041640000000000fc080000020000000200000043
:1041740000000000ce08000018000000000000004d
:10418400fe08000002000000000000000000000023
:020000040000fa
:104194000200fa00000f780002003700000000005f
:1041a4001e0fe9001e027800e00f5200fbff3a00e8
:0841b4000080fa000000060083
:020000040000fa
:0200000401f009
:04000000e3390000e0
:020000040000fa
:0200000401f009
:04000400ff7f00007a
:020000040000fa
:0200000401f009
:040008006c7f000009
:020000040000fa
:0200000401f009
:04001400ffff0000ea
:020000040000fa
:0200000401f009
:04001800feff0000e7
:00000001FF
