:020000040000fa
:080000000001040000000000f3
:020000040000fa
:1000080090010000900100009001000090010000a4
:100018009001000090010000900100009001000094
:10002800900100009001000090010000ee14000013
:100038009001000090010000900100003a150000b6
:1000480090010000b006000090010000900100003f
:100058009001000090010000900100009001000054
:100068009001000090010000900100009001000044
:100078009001000090010000900100009001000034
:100088009001000090010000900100009001000024
:100098009001000090010000900100009001000014
:1000a8009001000090010000900100009001000004
:1000b80090010000900100009001000090010000f4
:1000c80090010000900100009001000090010000e4
:1000d80090010000900100009001000090010000d4
:1000e80090010000900100009001000090010000c4
:0800f8009001000090010000de
:020000040000fa
:1001080090010000900100009001000090010000a3
:100118009001000090010000900100009001000093
:10012800900100009001000090010000ee14000012
:100138009001000090010000900100003a150000b5
:1001480090010000b006000090010000900100003e
:100158009001000090010000900100009001000053
:100168009001000090010000900100009001000043
:100178009001000090010000900100009001000033
:100188009001000090010000900100009001000023
:100198009001000090010000900100009001000013
:1001a8009001000090010000900100009001000003
:1001b80090010000900100009001000090010000f3
:1001c80090010000900100009001000090010000e3
:1001d80090010000900100009001000090010000d3
:1001e80090010000900100009001000090010000c3
:0801f8009001000090010000dd
:020000040000fa
:10020000ef8f20000eff20000e018800000000008c
:100210000c0007008055210001002000110007009c
:10022000000020000000e000020032000000020098
:10023000000000004c140200000000000040da0042
:100240000000fe004440a900a01820000000e000cb
:100250000300320000002000a00188004440a800f4
:100260000000060091018800800078000000eb008b
:1002700015003700e280400032a0b4009101ba00be
:10028000e280400032a0b4009102ba00e280400057
:1002900032a0b4000002eb00472bde00f507b200ed
:1002a000602ce10004003a000059eb008301e900f2
:1002b000fdff3e00040037006128e100010032002c
:1002c0000082eb00040007001101ba000200e00008
:1002d000e8ff3a00000006003159ba008301e90046
:1002e0000c0032002159ba008301e90008003200f5
:1002f0000400e00003003a00e280400032a0b400b5
:10030000f5ff370011d9ba008301e900faff3a007e
:100310008100e800e180400032a0b4000000060047
:100320000040da000000fe00000024000602ab00de
:10033000feff3a000642ab00fcff3a000662ab004b
:10034000faff3a000682ab00f8ff3a004110800045
:1003500080806000f5ff3a000000060006a2a800b9
:100360000682a800000006000602a80000000600a1
:100370000642a800000006000102780001003700d4
:1003800003007800809fbe00110009000282d8009f
:10039000000278004f00be008001e800e00f52002c
:1003a000f7ff3a0084497800000278001100090044
:1003b0008280d8000002fd0081017800840078006e
:1003c000e9cf510001003400e7c1410005c3b3008b
:1003d00005d04100e00f5200f3ff3a000000060094
:1003e000881f780000047800e08f500005003d0071
:1003f00088017800d0c2b300805978008100ea00fb
:10040000010037008801780003007800daff070058
:10041000080078004f047800000006008001780092
:1004200002003700b1597800040178000202e900a7
:10043000e00f5100fbff3a00000006008001780049
:100440003141780082597800e04f5100fcff3a00ba
:1004500000000600800078000041eb00b14f110061
:10046000fdff3a000080ea00008040000000060026
:100470000d00370010417800e04f510002003200bb
:10048000914f5100050032000281fb00914078003d
:100490000180fb0000005100000006000000e800a1
:1004a0008100e800030178008201e900e00f5100bb
:0c04b000f0ff3a00020078000000060097
:020000040000fa
:1004bc00536100006c6700006f2000006465000051
:1004cc00204d00007953000074610000727400002c
:1004dc00207000006f72000020540000696d000055
:1004ec006572000000530000616c0000676f000033
:1004fc0020640000652000004d790000526500006a
:10050c00737400006172000074200000706f0000b2
:10051c0072200000546900006d650000720000003c
:10052c00536100006c6700006f20000064650000e0
:10053c00206d0000795f0000537400006f700000a4
:10054c00207000006f72000020540000696d0000e4
:10055c006572000000530000616c0000676f0000c2
:10056c0020640000652000006d7900005f570000da
:10057c007269000074650000207000006f7200004a
:10058c0020540000696d00006572000000530000eb
:10059c00616c0000676f00002064000065200000a3
:1005ac006d7900005f490000646c0000652000005c
:1005bc00706f000072200000546900006d6500002f
:1005cc0072000000696e0000696300006961000040
:1005dc006c6900007a610000646f00002e2e000030
:1005ec002e630000616c0000696200007261000003
:1005fc00646f0000006500006d700000657a0000fb
:10060c00616e0000646f000020630000616c0000ec
:10061c006962000072610000636900006f6e000087
:10062c0000760000616c00006f7200002073000007
:10063c00616c000069640000612000003d20000036
:10064c0000740000657200006d6900006e610000ae
:10065c00646f000020630000616c000069620000a0
:10066c0072610000636900006f6e000000200000e2
:10067c00656e0000747200006520000032300000ce
:10068c00203d00002000000020000000416300001d
:10069c00635800003a200000004100006363000032
:1006ac00593a00002000000041630000635a00002a
:1006bc003a20000000470000797200006f580000db
:1006cc003a20000000470000797200006f590000ca
:1006dc003a20000000470000797200006f5a0000b9
:1006ec003a20000000540000656d0000703a0000d4
:1006fc0020000000404700004f0000004053000065
:10070c00544f000050000000404300005200000015
:10071c00526500006369000062690000646f0000ac
:10072c003a20000000000000484f00004c4100003f
:10073c00205100005545000020540000414c0000a1
:10074c002045000053540000415300002079000064
:10075c006f20000065730000746f000079200000aa
:10076c006d7500007920000062690000656e000064
:10077c0020790000207400007520000071750000c5
:10078c0065200000746100006c00000065730000bf
:10079c0070650000726100006e6400006f20000044
:1007ac00776800006f20000069200000616d000078
:1007bc00206300006f72000072650000637400001b
:0407cc006f000000ba
:020000040000fa
:1007d0000000fa00d0002000d010880000000000c7
:1007e000c11080000010200000806000e00f500069
:1007f000fbff3200a0002000d010880000000000a5
:10080000c11080000010200000806000e00f500048
:10081000fbff32000080fa00000006000600fa002c
:1008200010079800210798000040eb00004f780067
:100830000e0037009e4078000180fb009e00900073
:1008400000804000104078000000fb00d0108800bd
:1008500000000000c1108000001020000080600037
:10086000e00f5000fbff32001e4fe8001e407800f2
:100870008080fb002e009000808f5000edff35003f
:100880000080fa00000006000400fa00000f780063
:10089000110798009e0090001e007800dfff0700ff
:1008a000cbff07000080fa00000006000600fa00f7
:1008b00010079800210798000040eb00004f7800d7
:1008c0000e0037009e4078000180fb009e009000e3
:1008d00000804000104078000080fb00d0108800ad
:1008e00000000000c11080000010200000806000a7
:1008f000e00f5000fbff32001e4fe8001e40780062
:100900008080fb002e009000808f5000edff3500ae
:100910000080fa00000006000400fa00000f7800d2
:10092000110798009e0090001e007800dfff07006e
:10093000a7ff07000080fa00000006000400fa008c
:10094000100798001e009000000fe9001800370003
:100950001e007800800040000080200000804000e1
:1009600010007800a200200080007800a084200001
:100970009bfe0700a0842000b6fe070080007800e0
:10098000a0842000a5ff070022002000a134280039
:10099000a0842000a1fe0700a0842000adfe070077
:1009a00080007800a08420009cff07001e0fe90053
:1009b0001e007800e00f5000e5ff3d0084ff0700b7
:1009c0000080fa00000006000200fa00000f780024
:1009d0001e0078006100600000407800e04f500089
:1009e0001c00320072002000c1342800a0842000c6
:1009f0008afe0700a084200096fe07008000780091
:100a0000a084200085ff0700c0408000a2002000d5
:100a100080007800a084200057fe0700a0842000fa
:100a20008cfe070080007800a08420007bff070078
:100a300022002000a1342800a084200077fe0700b7
:100a4000a084200083fe070080007800a08420009e
:100a500072ff07009e00780062806000e00f500087
:100a60001c0032007200200031352800a0842000d4
:100a70006afe0700a084200076fe07008000780050
:100a8000a084200065ff0700d0408000a200200065
:100a900080007800a084200037fe0700a08420009a
:100aa0006cfe070080007800a08420005bff070038
:100ab00022002000a1342800a084200057fe070057
:100ac000a084200063fe070080007800a08420003e
:100ad00052ff07009e00780064806000e00f500025
:100ae0001c00320072002000a1352800a0842000e4
:100af0004afe0700a084200056fe07008000780010
:100b0000a084200045ff0700e0408000a2002000f4
:100b100080007800a084200017fe0700a084200039
:100b20004cfe070080007800a08420003bff0700f7
:100b300022002000a1342800a084200037fe0700f6
:100b4000a084200043fe070080007800a0842000dd
:100b500032ff07009e00780068806000e00f5000c0
:100b60001c0032008200200011362800a0842000e2
:100b70002afe0700a084200036fe070080007800cf
:100b8000a084200025ff0700f0408000a200200084
:100b900080007800a0842000f7fd0700a0842000da
:100ba0002cfe070080007800a08420001bff0700b7
:100bb00022002000a1342800a084200017fe070096
:100bc000a084200023fe070080007800a08420007d
:100bd00012ff07009e00780070806000e00f500058
:100be0001c0032008200200091362800a0842000e2
:100bf0000afe0700a084200016fe0700800078008f
:100c0000a084200005ff070000418000a200200012
:100c100080007800a0842000d7fd0700a084200079
:100c20000cfe070080007800a0842000fbfe070077
:100c300022002000a1342800a0842000f7fd070036
:100c4000a084200003fe070080007800a08420001c
:100c5000f2fe0700000220001e006000e00f5000be
:100c60001c0032008200200011372800a0842000e0
:100c7000eafd0700a0842000f6fd07008000780050
:100c8000a0842000e5fe070010418000a2002000a3
:100c900080007800a0842000b7fd0700a084200019
:100ca000ecfd070080007800a0842000dbfe070038
:100cb00022002000a1342800a0842000d7fd0700d6
:100cc000a0842000e3fd070080007800a0842000bd
:100cd000d2fe0700000420001e006000e00f50005c
:100ce0001c0032007200200091372800a0842000f0
:100cf000cafd0700a0842000d6fd07008000780010
:100d0000a0842000c5fe070020418000a200200032
:100d100080007800a084200097fd0700a0842000b8
:100d2000ccfd070080007800a0842000bbfe0700f7
:100d300022002000a1342800a0842000b7fd070075
:100d4000a0842000c3fd070080007800a08420005c
:100d5000b2fe07009efe07000080fa0000000600b9
:100d60003600f800809fbe00829fbe00849fbe00b8
:100d7000869fbe000200fa0062468000e0108000fc
:100d800000407800a189200081004100804878005f
:100d90006146800000032000808f500003003c006b
:100da000604680000000e8006046880060468000e1
:100db0008000e900a08920000080400010407800f9
:100dc000ed4f500013003a00604680000000e9003b
:100dd00060468800a0892000170007000000eb0093
:100de000000f780005003700a08920009e00400019
:100df00000c2b300804878001e0fe80010032000f6
:100e00009e007800808f5000f7ff34000000eb0058
:100e1000604688008520a9000e22a9000080fa0003
:100e20004f03be004f02be004f01be004f00be0088
:100e30003600f900004006000200fa00000f7800ba
:100e400032002000013828001e00780088fd0700cd
:100e5000e00f50002000320032002000413828000e
:100e60001e00780082fd0700e00f50001c003200d9
:100e700032002000a13828001e0078007cfd070009
:100e8000e00f500002003a0051fe07001500370045
:100e9000b2002000e1382800a08420005ffd070098
:100ea000a08420006bfd070080007800a084200053
:100eb0005afe07009e007800a08420005ffd070016
:100ec000a084200063fd070080007800a08420003b
:100ed0006dfe07000300370000000000010037002e
:100ee000000000000080fa00000006000000fa0088
:100ef00040ef2700000c880040ef2700300c8800ee
:100f000040ef2700600c880040ef2700900c88001d
:100f10000080fa00000006000200fa000000eb006a
:100f2000000f78001c003700900c80000000e800e3
:100f3000900c8800600c80000000e800600c8800c5
:100f4000300c80000000e800300c8800000c8000ad
:100f50000000e800000c880080382100e906070046
:100f6000910c8000b0ff2000808f50000a003600f6
:100f7000f0ff2000900c8800f0ff2000600c88003b
:100f8000f0ff2000300c8800f0ff2000000c8800eb
:100f900010002000000f78001e007800e00f5000c5
:100fa000e1ff32001c003700900c80000000e900d7
:100fb000900c8800600c80000000e900600c880044
:100fc000300c80000000e900300c8800000c80002c
:100fd0000000e900000c880080382100c9060700e5
:100fe000910c800000072000808f50000a003e0016
:100ff0000000eb00900c88000000eb00600c880003
:101000000000eb00300c88000000eb00000c8800b2
:101010000000eb00000f78001e007800e10f500088
:10102000e1ff32000080fa00000006000200fa0032
:101030000000eb00000f78000080eb00000f78004c
:101040000c003700ca22a8001e007800900c88000f
:101050001e007800600c88001e007800300c8800ac
:101060001e007800000c880080382100a5060700cb
:101070001e0fe9001e007800e00f5000f1ff340061
:101080000080fa00000006000200fa00000f78005d
:101090009e007800a0842000e8fc0700a0842000c7
:1010a000ecfc070080007800a0842000f6fd07001b
:1010b00080382100930607000080fa000000060037
:1010c0000000fa00f0108000a200200080007800ec
:1010d000a0842000c2fc0700a0842000ddfc0700e3
:1010e00080007800a0842000e7fd0700f010800059
:1010f000a200200080007800a0842000b8fc070037
:10110000a0842000d3fc070080007800a084200089
:10111000ddfd0700f0108000a200200080007800b4
:10112000a0842000aefc0700a0842000c9fc0700ba
:1011300080007800a0842000d3fd0700f01080001c
:10114000a200200080007800a0842000a4fc0700fa
:10115000a0842000bffc070080007800a08420004d
:10116000c9fd070022032000a1392800a084200027
:10117000aafc0700a0842000b6fc070080007800cd
:10118000a0842000c0fd0700803821005d06070014
:10119000a0842000affc070080007800a08420001d
:1011a000b9fd07008038210056060700a084200002
:1011b000a8fc070080007800a0842000b2fd070092
:1011c000803821004f060700a0842000a1fc070002
:1011d00080007800a0842000abfd0700803821004b
:1011e00048060700a08420009afc070080007800d1
:1011f000a0842000a4fd07008038210041060700dc
:10120000a084200093fc070080007800a0842000c8
:101210009dfd0700803821003a060700a0842000c9
:101220008cfc070080007800a084200096fd070059
:101230008038210033060700a084200085fc0700c9
:1012400080007800a08420008ffd070080382100f6
:101250002c0607000080fa00000006000000fa00db
:1012600031fc070040fc0700000000003010800047
:1012700061006000e00f5000fcff3a0000cdb300b9
:101280009d030700000000004110800000002800be
:1012900000806000e00f5000fbff3a0022fc0700d6
:1012a00050c7b30094030700000000004110800005
:1012b0000000280000806000e00f5000fbff3a00b3
:1012c00019fc07000622a800000000000000000032
:1012d0003010800062006000e00f5000fcff3a0018
:1012e00010cdb3008403070000000000411080000f
:1012f0000000280000806000e00f5000fbff3a0073
:1013000009fc07000662a8000000000040108000f1
:1013100062006000e00f5000fcff32000ffc07008d
:1013200013fc070000000000301080006400600023
:10133000e00f5000fcff3a000080fa0000000600b9
:101340000200fa0071168000000022000080600098
:10135000e00f5000430032008d0107000000eb0059
:10136000000f7800030037000040eb007c05070009
:101370001e0fe800b01220009e007800808f500001
:10138000f9ff3400cb42a8000000eb00000f78000a
:10139000030037000040eb00710507001e0fe80056
:1013a000b01220009e007800808f5000f9ff3400ba
:1013b000cb22a8000000eb00000f780003003700ec
:1013c0000040eb00660507001e0fe800b012200089
:1013d0009e007800808f5000f9ff3400ca02a800f8
:1013e0000000eb00000f7800030037000040eb0026
:1013f0005b0507001e0fe800b01220009e00780079
:10140000808f5000f9ff3400ca22a8000000eb00d2
:10141000000f7800030037000040eb005005070084
:101420001e0fe800b01220009e007800808f500050
:10143000f9ff3400ca42a8000000eb00000f78005a
:10144000030037000040eb00450507001e0fe800d1
:10145000b01220009e007800808f5000f9ff340009
:101460005e003700711680000000280000806000d8
:10147000e00f500043003200450107000000eb0080
:10148000000f7800030037000040eb003405070030
:101490001e0fe800b01220009e007800808f5000e0
:1014a000f9ff3400ca42a8000000eb00000f7800ea
:1014b000030037000040eb00290507001e0fe8007d
:1014c000b01220009e007800808f5000f9ff340099
:1014d000ca22a8000000eb00000f780003003700cc
:1014e0000040eb001e0507001e0fe800b0122000b0
:1014f0009e007800808f5000f9ff3400ca02a800d7
:101500000000eb00000f7800030037000040eb0004
:10151000130507001e0fe800b01220009e0078009f
:10152000808f5000f9ff3400cb22a8000000eb00b0
:10153000000f7800030037000040eb0008050700ab
:101540001e0fe800b01220009e007800808f50002f
:10155000f9ff3400cb42a8000000eb00000f780038
:10156000030037000040eb00fd0407001e0fe800f9
:10157000b01220009e007800808f5000f9ff3400e8
:1015800016003700020107000000eb00000f780092
:10159000030037000040eb00f10407001e0fe800d5
:1015a000b01220009e007800808f5000f9ff3400b8
:1015b000ef0007000000eb00000f78000300370089
:1015c0000040eb00e60407001e0fe800b012200008
:1015d0009e007800808f5000f9ff34000080fa00f0
:1015e000000006000000fa000080fa00000006007b
:1015f0000000fa000000eb00203a8800a000200064
:10160000400507000080eb0040158800a000200086
:101610003c0507000080eb0000168800a0002000b9
:1016200038050700809f2f0030168800a00020009a
:1016300034050700f0ff2b0060168800a000200092
:101640003005070000ef2f0090168800a000200052
:101650002c050700c0f92f00f0168800a00020001c
:10166000280507000000eb0010168800a0002000ed
:10167000240507000000eb0040168800a0002000b1
:10168000200507000000eb0070168800a000200075
:101690001c0507000000eb00a0168800a000200039
:1016a000180507000000eb0000178800a0002000cc
:1016b000140507000080fa00000006000000fa0090
:1016c00000352c000f0507000040eb00a4040700c4
:1016d000b01120002010880007a2a900000000001f
:1016e0000782a800000000000762a90000000000b7
:1016f0000742a900000000000722a9000000000026
:101700000702a9000000000006e2a9000000000096
:1017100006c2a9000000000006a2a9000000000007
:101720000682a900000000000662a9000000000077
:101730000642a900000000000622a90000000000e7
:101740000602a900000000000040eb00840407002e
:1017500007e2a8007e0307000080fa0000000600f0
:101760000000fa008401a900000000008421a90003
:10177000000000008441a900000000008461a9006d
:10178000000000008a01a900000000008a21a900d1
:10179000000000008a41a900000000008a61a90041
:1017a000000000009001a900000000009021a900a5
:1017b000000000009041a900000000009061a90015
:1017c000000000009601a900000000009621a90079
:1017d000000000009641a900000000009661a900e9
:1017e0000000000011e1a9000000000011a1a90003
:1017f0000000000010c1a900000000001021a90095
:10180000000000001061a9000000000084c0a900d1
:1018100000000000f0ff2000100888000000eb002e
:10182000000c8800f0ff2000600888000000eb003a
:10183000300c8800f0ff2000700888000000eb00ea
:10184000600c8800f0ff2000d00888000000eb004a
:10185000900c88008401a900000000008421a800e9
:10186000000000008441a800000000008a01a900d7
:10187000000000008a21a800000000008a41a800a2
:10188000000000009001a900000000009021a800c5
:10189000000000009041a800000000009601a9008f
:1018a000000000009621a800000000009641a8005a
:1018b0000000000081088000f0fc2f000080600024
:1018c000800888000000000011e1a8000000eb0083
:1018d000000c88000000eb00300c88000000eb00da
:1018e000600c88000000eb00900c88000080fa007b
:1018f000000006000000fa0017e2a8000000000047
:10190000000000000000000019e2a9000000000033
:10191000b110800090ff2f0000806000b0108800a0
:10192000000000001602a9000000000016a2a90095
:1019300000000000f0002000f0108800000000000f
:101940001942a800000000008700a9000000000064
:101950008720a900000000008f00a90000000000ff
:101960008f20a900000000000080fa00000006009f
:101970000000fa00ca42a800ca22a800cb22a80090
:10198000ca02a800cb42a8000080fa0000000600ae
:101990000000fa00ca42a900ca22a900cb22a9006d
:1019a000ca02a900cb42a9000080fa00000006008c
:1019b0001000fa0070079800103a8000000f7800bd
:1019c000f08f2f001e0f60001e0078004880de00a0
:1019d000000f78007e0090000100200072002000bf
:1019e00003002000820f5000838f580067003e00e4
:1019f00000600100070037000b0037000f003700c0
:101a000013003700630037006200370061003700c1
:101a1000140037009e0078007e0090000080700067
:101a2000000f7800140037009e0078007e009000c0
:101a300000807000000f78000f0037009e007800d3
:101a40007e00900000807000000f78000a003700d0
:101a50009e0078007e00900000807000000f7800eb
:101a6000050037009e0078007e0090000080700026
:101a7000000f78000000000080c7b30020479800e6
:101a8000a0c9b30030479800207420000000e8008f
:101a900020079800100280004500de0067406000cb
:101aa0000080fb00300798009002800040079800fb
:101ab000ff3ffc0011028000000e2000008070003b
:101ac000100288004e0090009002880000008800fc
:101ad0002e0190002e409000be4090009e017800a4
:101ae00000497800014978000349780060c4b300d8
:101af0002047980070c5b30030479800207420003c
:101b000020079800103a8000004078000004a000f0
:101b1000204f9800ae0190002e409000be409000f3
:101b20002e499000804978008149780082497800e8
:101b300000000000103a800061006000e00f5000db
:101b4000fcff3a009002800060079800ff3ffc0015
:101b50003e00900000407800674060000080fb007d
:101b6000670060004500dd0012028000f1f12f00e7
:101b70008100610000807000100288006e009000fb
:101b80009002880000008800030037000000000079
:101b900001003700000000000080fa00000006008d
:101ba0000200fa000000eb00000f7800010037008f
:101bb0001e0fe800100320009e007800808f500068
:101bc000fbff34000040eb006503070070002000bd
:101bd00077ff0700c05d2000ca0307000080fa00fd
:101be000000006004600fa00501f9800611f980090
:101bf000721f980003279800142798002527980043
:101c000041012000802e28001ffb07000000eb0090
:101c1000000f78000000eb00200798002e009000d5
:101c2000300798003e019000420798004e00900057
:101c3000500798005e019000620798006e009000c7
:101c4000700798007e019000020f98000000eb00e2
:101c50001007980072004700620120001130280030
:101c6000eef9070072004700faf9070080007800db
:101c700072004700e9fa07000000eb001007980027
:101c80000e00370072004700a20020009e0078007e
:101c9000d3f9070072004700eef9070080007800d2
:101ca00072004700f8fa0700380207001e0f4000d4
:101cb0001e0090000000e800100798001e00900031
:101cc000f30f5000efff34007200470002012000c4
:101cd00071312800d1f9070072004700ddf90700d3
:101ce0008000780072004700ccfa070072004700bd
:101cf000a20020009e007800b9f90700720047009a
:101d0000d4f907008000780072004700defa07006f
:101d10000000eb00200798009e00780040012000a2
:101d200000017800110009008200d8002007980007
:101d3000720047006201200071322800b7f90700e5
:101d400072004700c3f90700800078007200470066
:101d5000b2fa070072004700a20020009e0078003f
:101d60009ff9070072004700baf907008000780069
:101d700072004700a9fa070072004700d200200055
:101d8000d1332800a5f9070072004700b1f9070018
:101d90008000780072004700a0fa07007200470038
:101da000a2002000ae0090008df9070072004700ed
:101db000a8f907008000780072004700b2fa070017
:101dc0000080fa00000006000600fa00000f78000c
:101dd0001107980022079800ae009000803e200076
:101de00000017800110009008200d80080468800b8
:101df000414780004247800080468000000041004b
:101e000000017800110009008200d80050478800c6
:101e1000814680001e0090000088b9008000780094
:101e20007046800080804000504780000088b900e4
:101e30000001780050478000e10010001e0078008b
:101e40000088b9000000780000004100704688005a
:101e5000704680000080fa00000006000600fa00cc
:101e6000000f78001107980022079800ae0090003c
:101e7000803e200000017800110009008200d80097
:101e800090468800a04680009e00100060478000b9
:101e90000088b90080007800604780000088b900a1
:101ea00000007800b046880091468000b04680006f
:101eb0000088b90080007800d04680000080400093
:101ec000d0468800a04680001e00100000004000a0
:101ed00080007800604780000088b90080007800aa
:101ee000d0468000808040001e00900000804000ae
:101ef000c046880091468000c04680000088b90036
:101f000080007800a046800000804000a046880045
:101f1000a04680000080fa00000006000600fa00db
:101f2000000f78001107980022079800ae0090007b
:101f3000803e200000017800110009008200d800d6
:101f400030478800a04780009e00900080805000ad
:101f5000304780000088b90080007800204780006a
:101f60000080400020478800304780008000ea0061
:101f7000d2478000c0478000000041000088b900bf
:101f80000001780071478000304780000088b90068
:101f90000000780080004100b047800000804000d1
:101fa000b0478800304780008000ea00e0478000aa
:101fb0000088b90080007800c047800000804000a1
:101fc000c0478800304780008000ea00e04780007a
:101fd0000088b90080007800d04780000080400071
:101fe000d047880081478000304780000088b900d2
:101ff00080007800e047800000804000e0478800d3
:10200000204780001e001000e0468800b147800095
:102010009047800000804000f0468800b147800073
:10202000f046800000017800110009008200d8000d
:1020300000478800d1478000f0468000000178000a
:10204000110009008200d800104788000147800075
:10205000e04680000088b9008000780020478000ba
:10206000008040002047880011478000e046800043
:102070000088b90080007800a04780000080400000
:10208000a047880000478000e1001000b0478000b2
:102090000088b90000007800b04788000047800041
:1020a000e1001000c04780000088b90000007800ff
:1020b000c0478800d247800011478000b0478000a9
:1020c0000088b9000000780000005100d047880067
:1020d000e247800011478000c04780000088b900b7
:1020e0000000780000005100e04788002047800091
:1020f0000080fa00000006000200fa00004f78009d
:102100009e4078000180fb00101088000000000055
:102110004010800061006000e00f5000fcff3a00ba
:102120000080fa00000006000000fa000002200013
:102130009008880000572000700888000000eb001d
:102140005008880084e0a90013e1a9008ce0a900f0
:1021500013e1a8000080fa00000006000000fa0069
:102160000602a800f0ff070084e0a90000000000bc
:102170003010800061006000e00f50000500320068
:10218000210480000008200000806000e00f500063
:10219000f7ff320013e1a9002104800000082000ad
:1021a00000806000e00f500003003200b101200009
:1021b000e0252800b4f907000000eb000080fa00d9
:1021c000000006000000fa000622a800d6ff070063
:1021d00084e0a90000000000301080006200600070
:1021e000e00f5000050032002104800000082000ac
:1021f00000806000e00f5000f7ff320013e1a900fb
:10220000210480000008200000806000e00f5000e2
:1022100003003200b1012000902728009af907003e
:102220000000eb000080fa00000006000000fa0049
:102230000642a800bcff070084e0a90000000000df
:102240003010800064006000e00f50000500320094
:10225000210480000008200000806000e00f500092
:10226000f7ff320013e1a9002104800000082000dc
:1022700000806000e00f500003003200b101200038
:102280006029280080f907000000eb000080fa00b8
:10229000000006000200fa00004f78009e4078001f
:1022a0000180fb00101088009fff070084e0a90058
:1022b000000000004010800061006000e00f50004e
:1022c000050032002104800000082000008060002a
:1022d000e00f5000f7ff320013e1a9002104800055
:1022e0000008200000806000e00f50000300320072
:1022f000b1012000102b280063f907000000eb005b
:102300000080fa00000006000000fa0086ff0700c7
:1023100084e0a900000000004110800000002400bb
:1023200000806000e00f50000500320021048000b2
:102330000008200000806000e00f5000f6ff32002f
:1023400013e1a90021048000000820000080600043
:10235000e00f500003003200b1012000d02c280013
:1023600049f907000000eb000080fa0000000600b9
:102370000000fa00401080000080ea004f00de00fc
:102380000080fa00000006000000fa0006a2a80083
:102390000682a8000000000030108000700060007d
:1023a000e00f5000fcff3a0006a2a9000000eb007d
:1023b0000080fa00000006000000fa0006a2a90052
:1023c0000682a8000000000030108000700060004d
:1023d000e00f5000fcff3a000000eb000080fa0024
:1023e000000006000000fa000662a80000000000dd
:1023f0004010800062006000e00f5000fcff3200df
:10240000001080000080fa00000006000000fa00c2
:102410000662a80010002000ba01070000000000ba
:102420003010800068006000e00f5000fcff3a00b0
:10243000100020000080fa00000006000400fa00ee
:10244000000f78002147980010003700e5ff0700d3
:10245000004078009e007800804878001e0fe80059
:10246000411080000040200000806000e00f50001c
:10247000020032000080eb000f0037002e40900079
:10248000e04f500001003200cbff07002e409000cb
:102490000080fb000000ea004f00de0000407800f2
:1024a000ae4090008140e90021479800e04f500085
:1024b000e6ff3a000000eb000080fa000000060092
:1024c0000200fa00004f78008fff070023ff07008b
:1024d00000cdb3006fff07008bff07001e407800a0
:1024e0006cff070088ff070036ff070010cdb30020
:1024f00068ff070084ff0700c4ff0700a2ff070072
:102500004aff0700001080000080fa00000006006b
:102510000200fa00004f7800114798000fff0700f3
:1025200000cdb3005bff070077ff07001e40780077
:1025300058ff070074ff07001e40900055ff07007a
:1025400071ff070039ff07000080fa000000060055
:102550000000fa0011c0b300b0c6b300ecff0700e2
:1025600021c0b300b0c1b300e9ff070031c0b30020
:10257000c0c1b300e6ff070061c0b300a0c1b30053
:10258000e3ff07000080fa00000006000400fa00e4
:102590000000eb00000f78000000eb00100798002f
:1025a000b0c3b300c6ff070010079800c0c3b30054
:1025b000c3ff0700000f78001e0090004800dd00f8
:1025c0001e0040000080fa00000006000400fa002f
:1025d0000000eb00000f78000000eb0010079800ef
:1025e000d0c3b300b6ff070010079800e0c3b300e4
:1025f000b3ff0700000f78001e0090004800dd00c8
:102600001e0040000080fa00000006000400fa00ee
:102610000000eb00000f78000000eb0010079800ae
:10262000f0c3b300a6ff07001007980000c4b30072
:10263000a3ff0700000f78001e0090004800dd0097
:102640001e0040000080fa00000006000400fa00ae
:102650000000eb00000f78000000eb00100798006e
:1026600030c4b30096ff07001007980040c4b300c1
:1026700093ff0700000f78001e0090004800dd0067
:102680001e0040000080fa00000006000400fa006e
:102690000000eb00000f78000000eb00100798002e
:1026a00050c4b30086ff07001007980060c4b30051
:1026b00083ff0700000f78001e0090004800dd0037
:1026c0001e0040000080fa00000006000400fa002e
:1026d0000000eb00000f78000000eb0010079800ee
:1026e00070c4b30076ff07001007980080c4b300e1
:1026f00073ff0700000f78001e0090004800dd0007
:102700001e0040000080fa00000006000400fa00ed
:102710000000eb00000f78000000eb0010079800ad
:1027200010c4b30066ff07001007980020c4b30070
:1027300063ff0700000f78001e0090004800dd00d6
:102740001e0040000080fa00000006000000fa00b1
:1027500050c7b3005aff07000080fa0000000600cf
:102760000a00fa0040079800b0da2c001007980021
:1027700040002000200798004e009000300798008d
:1027800060002000000f78000e80e8009e007800b6
:1027900022f807000080fa00000006000e00fa0090
:1027a0005007980061079800b0da2c0010079800d5
:1027b00040002000200798005e009000300798003d
:1027c0006e0090004007980080002000000f780005
:1027d0000e80e8009e00780010f807000080fa00e4
:1027e000000006001200fa006007980071079800c8
:1027f000020f9800b0da2c0010079800600020004b
:10280000200798006e009000300798007e0090002e
:10281000400798000e08900050079800a000200084
:10282000000f78000e80e8009e007800fbf707009c
:102830000080fa00000006001600fa0070079800f9
:10284000010f9800120f9800230f9800b0da2c00a7
:102850001007980080002000200798007e0090005c
:10286000300798000e089000400798001e0890005e
:10287000500798002e08900060079800c0002000c4
:10288000000f78000e80e8009e007800e3f7070054
:102890000080fa00000006000200fa0054fb070066
:1028a000bffc07003afc07000000eb00000f7800b7
:1028b00010fc07000040eb00290007000040eb007f
:1028c000270007007dfb07000040eb002400070005
:1028d0000040eb0022000700a1fb07000040eb00d6
:1028e0001f00070022fc07000040eb001c0007004f
:1028f0000040eb001a0007000040eb001800070042
:102900000040eb00160007000040eb001400070039
:102910000040eb00120007000040eb001000070031
:102920000040eb000e0007000040eb000c00070029
:102930000040eb000a000700c2012000c13c280053
:10294000a0842000b5f60700a0842000c1f607008f
:1029500080007800a0842000cbf70700f6ff370046
:102960000200fa00004f78000001200020088800d3
:1029700000e62000100888000000eb000008880036
:102980008460a90005e1a8009e40780061c0600055
:102990000080fb00610060004300dd0062048000f5
:1029a00071ff2f00810061000080700060048800ca
:1029b0001e407800e04f500006003a000000000082
:1029c0002004800068006000e00f5000fcff32002f
:1029d00005e1a9000080fa00000006003600f800ba
:1029e000809fbe00829fbe00849fbe00869fbe0067
:1029f0000000fa0010c0b300d9ff07000080fa0001
:102a00004f03be004f02be004f01be004f00be008c
:102a10003600f900004006000200fa00000f7800be
:102a200000022000900888001e007800e30f50008c
:102a300003003a00003a20007008880002003700c6
:102a400000572000700888000000eb005008880044
:102a500084e0a90013e1a9008ce0a8000080fa003e
:102a6000000006000000fa0013e1a8000080fa0050
:102a7000000006003600f800809fbe00829fbe0066
:102a8000849fbe00869fbe000000fa0084e0a9007b
:102a9000d4fa07000080fa004f03be004f02be00c8
:102aa0004f01be004f00be003600f9000040060096
:020000040000fa
:102ab0009a08000034000000000000000008000038
:102ac0009a00000000000000e80800001600000066
:102ad0000200000000000000000a000000000000ea
:102ae00000000000000000000000000000000000e6
:102af00000000000ce0800001a00000000000000e6
:042b000000000000d1
:020000040000fa
:102b04000200fa00000f7800020037000000000005
:102b14001e0fe9001e007800e00f5000fbff3a0092
:082b24000080fa000000060029
:020000040000fa
:0200000401f009
:04000000e3390000e0
:020000040000fa
:0200000401f009
:04000400ff7f00007a
:020000040000fa
:0200000401f009
:040008006c7f000009
:020000040000fa
:0200000401f009
:04001400ffff0000ea
:020000040000fa
:0200000401f009
:04001800feff0000e7
:00000001FF
