:020000040000fa
:080000000001040000000000f3
:020000040000fa
:1000080090010000900100009001000090010000a4
:100018009001000090010000900100009001000094
:10002800900100009001000090010000cc11000038
:1000380090010000900100009001000018120000db
:100048009001000090010000900100009001000064
:100058009001000090010000900100009001000054
:100068009001000090010000900100009001000044
:100078009001000090010000900100009001000034
:100088009001000090010000900100009001000024
:100098009001000090010000900100009001000014
:1000a8009001000090010000900100009001000004
:1000b80090010000900100009001000090010000f4
:1000c80090010000900100009001000090010000e4
:1000d80090010000900100009001000090010000d4
:1000e80090010000900100009001000090010000c4
:0800f8009001000090010000de
:020000040000fa
:1001080090010000900100009001000090010000a3
:100118009001000090010000900100009001000093
:10012800900100009001000090010000cc11000037
:1001380090010000900100009001000018120000da
:100148009001000090010000900100009001000063
:100158009001000090010000900100009001000053
:100168009001000090010000900100009001000043
:100178009001000090010000900100009001000033
:100188009001000090010000900100009001000023
:100198009001000090010000900100009001000013
:1001a8009001000090010000900100009001000003
:1001b80090010000900100009001000090010000f3
:1001c80090010000900100009001000090010000e3
:1001d80090010000900100009001000090010000d3
:1001e80090010000900100009001000090010000c3
:0801f8009001000090010000dd
:020000040000fa
:100200004f8d20000eff20000e018800000000002e
:100210000c0007008054210001002000110007009d
:10022000000020000000e000020032000000020098
:1002300000000000b0140200000000000040da00de
:100240000000fe004440a900c00820000000e000bb
:100250000300320000002000a00188004440a800f4
:100260000000060091018800800078000000eb008b
:1002700015003700e280400032a0b4009101ba00be
:10028000e280400032a0b4009102ba00e280400057
:1002900032a0b4000002eb00472bde00f507b200ed
:1002a000602ce10004003a000059eb008301e900f2
:1002b000fdff3e00040037006128e100010032002c
:1002c0000082eb00040007001101ba000200e00008
:1002d000e8ff3a00000006003159ba008301e90046
:1002e0000c0032002159ba008301e90008003200f5
:1002f0000400e00003003a00e280400032a0b400b5
:10030000f5ff370011d9ba008301e900faff3a007e
:100310008100e800e180400032a0b4000000060047
:100320000040da000000fe000200240031108000ce
:10033000e1806000fdff3a00301080006400600042
:10034000810f5000f9ff3a0031108000e880600012
:10035000808f5000f5ff3a00301080007000600080
:10036000810f5000f1ff3a00411080008280600050
:10037000808f5000edff3a000000060006a2a800a2
:100380000682a800000006002110880030108800b6
:10039000000006000622a800000006000602a800d1
:1003a000000006000642a8000000060003f0a200bc
:1003b000889fbe008a9fbe008c1f7800a90107009d
:1003c000b00133006450e1004f0032006420e100ce
:1003d0005200320003826c0007003b000905d00088
:1003e0000306d000820f54000c065d0002003900a5
:1003f00002003200890178000306780085825500ea
:1004000004003d000003fd008103fd008502ea00b9
:100410008b854200840f720002003b0060001000d8
:10042000e08018006011b8000005eb007a28e100b8
:100430000a00390006007800c75ddd00f707b2004a
:10044000878075002d003700828171000a017800d5
:10045000610560008180d1000080d3008502e90041
:10046000f9ff3b00060440008784480002003b007f
:1004700060041400e0841c000988a3000700320017
:100480008a81710082817100610164008904d10058
:100490000884d3008b05e800170037000978a30013
:1004a00013003a000b00e000130034008b05e90054
:1004b0000804440089844c000a4474000978a300ad
:1004c0000d003a000b00e000070034008b05e90046
:1004d0000804440089844c0001003a000b0020000d
:1004e0000978a300f7ff32000001eb00020037009b
:1004f000828171000a0178001f0107000cf0a7003b
:1005000001f0a000680137006420e10002003a0019
:10051000838f6c00680133000801be000200be003a
:1005200061013700889fbe008a9fbe008c1f780043
:100530004c0107001002200002003b00904688009a
:10054000500137008a0062006408e10002003a00ae
:1005500090468800580137006108e100fcff320036
:100560000800be00030478007000070001f0a1003d
:100570000900070008f0a600040037000001be00d3
:1005800091042400b0fd200088ff070009f0a700b7
:1005900001f0a20044013700889fbe008a9fbe0080
:1005a0008c9fbe000004be00190107000800be00b9
:1005b000890678006420e100080039000400320058
:1005c0000160a0001202200092468800530037000c
:1005d00091fc2300b0fd20004e0037000006eb0028
:1005e00009f0a10003f82300020020000800be006b
:1005f000900007000600340001f8230000002000ee
:100600000801be00490007000004be002c002000c5
:100610000800be0093e82300320a2300850007008b
:10062000120034000801be00d1fd2300703d2b00f4
:100630005fff07000005be00b3f32300f27a260037
:100640000800be001f01070003f82300020020007d
:1006500056ff07000801be0055ff07000a01be0053
:10066000320007000004be000c06e8000800be00cf
:1006700001f0a10002002000039823006d00070094
:100680000800be00160035000801be000d0107007d
:100690000005be0032cd2c0043fb230044ff0700c1
:1006a000809fbe001269280003d52b000a00be00ff
:1006b00004010700620f210013ef2b003cff07002d
:1006c0000a01be00ff0007004f01be00170007002f
:1006d0000801be00fb0007000801be0034ff070050
:1006e0000c00e0000b0032000c10a70001f0a2008b
:1006f000b2fd200093fc23006260e10004003200a0
:1007000022a9200063f023000c10a70063f8230047
:1007100027ff07000df0a70001f0a2004f06be0062
:100720004f05be004f04be0000000600889fbe00bb
:100730008a9fbe008c1f7800ca000700d1003300da
:1007400003866c006450e1002e0032006420e1005a
:10075000330032006150e1002f0032006120e100df
:100760003100320085855500eb07b00009002000fc
:1007700008042000050037000804440089844c0068
:100780000a0031000603430087834b000001530039
:1007900081815b00f8ff33000203be000800a00067
:1007a0000804440089844c00f6ff3900c639dd0096
:1007b0008301730001003200130020008904d1007e
:1007c0000884d3000998a300050032000800a700a0
:1007d0000300a0008904d1000884d3008b05e80041
:1007e0008904d1000884d3000001eb000281d2000b
:1007f0006100070001f0a1000cf0a70001f0a000cb
:10080000a90037006420e100ab0032000801be00ff
:100810000200be00f7ff37006120e100a6003200b1
:100820006000b800f3ff37000000200001f8270047
:10083000f0ff370014002000d60037000001be0092
:10084000730007000470a70003f0a1006509b10060
:10085000160032000d0035006828e1000600350062
:10086000f0ff2f00f1ff27000300e00013003b0022
:1008700001002800000005000000400081804800c1
:100880008502e900fcff3a0008003700f88f4200bb
:1008900002003c008000eb00000005008100d10058
:1008a0000080d3008502e800fcff3a000300e0006e
:1008b00002003b0060001000e0801800000006000d
:1008c000881f7800010478000100e00005003d0069
:1008d00060001000e080180002003b0001f02c00d6
:1008e000030037000400070008f0a70001f0a00093
:1008f0004f04780000000600889fbe008a9fbe005b
:10090000010578000000e000180032000004be007d
:100910006011b8006b0920000982cf000200390085
:100920000882cf000441b000694252000e0032003c
:1009300008003b0082817100610164008904d100dc
:100940000884d3008b05e8000442e800f9ff3a0070
:10095000050037000804440089844c008b05e90039
:100960000442e900fbff3a00030007004f05be0008
:100970004f04be0000000600810020006180550089
:100980000b003d000b00200061fe2f000100e10084
:100990001d00340082817100610164008904d1006e
:1009a0000884d3000000e800faff3a00710020003c
:1009b0006100640003007000020060000900320062
:1009c00061044400e0844c000988a5000500320061
:1009d0008b05e8006808e10002003a008904d100b4
:1009e0000884d300f20f20000258e10005003d000a
:1009f000c75ddd00f907b200898075000800780046
:100a0000000006000bf827008b00780000000500ae
:100a1000c70ade00f107b200f50fb200080032008d
:100a2000e1cf4200020032000170a0002400050066
:100a3000810f700001003200040805004400050029
:100a4000810f700002003a00140005008502e900e1
:100a50000000400081c04800fcff3b000170a00086
:100a6000240005000004be00e9ff07000003be00eb
:100a70000405be000200be00e5ff0700844f7500bc
:100a8000000006000200be006450e10005003600d0
:100a90006420e100020036000968a30001003a006a
:100aa0000800be000160a0004f0678004f05be00a0
:100ab0004f04be0000000600f0ff2f00f1ff2700ea
:100ac000f9ff3700889fbe008a9fbe008c1f780008
:100ad000e4ff0700ebff330003866c006450e10085
:100ae000240032006420e100270032006150e10060
:100af000220032006120e100210032008b8542009b
:100b0000eb07b1000134b800003ab8000804420015
:100b100089844a00013ab8000030b800888040005b
:100b200009014a00040033000000400081804800b1
:100b3000020149008b05e900c909dd00830170004d
:100b40000100320013002000c814de004814dd004c
:100b50004709de001200b200c808de0008847000f9
:100b600085ff070001f0a1000cf0a70001f0a00034
:100b7000cdff37006120e100cfff32000801be0049
:100b80000200be00f7ff37006150e100fcff3a00b1
:100b9000c9ff3700889fbe008a9fbe00841f78006f
:100ba000b0ff07004f00780011003300f0ff2f0066
:100bb000838f6c0006003b00040565000a00a70057
:100bc0000800370009f0a6001000200008003700d8
:100bd000820f5400838f5c00030039001000200056
:100be00001003e000000200009f0a7000000ea001c
:100bf0004f05be004f04be000000e00000000600ec
:100c0000010278000100370003007800809fbe00d9
:100c1000110009000282d800000278004f00be00d7
:100c20008001e800e00f5200f7ff3a0084497800a5
:100c300000027800110009008280d8000002fd0047
:100c40008101780084007800e9cf51000100340070
:100c5000e7c1410005c3b30005d04100e00f5200d9
:100c6000f3ff3a0000000600881f780000047800b7
:100c7000e08f500005003d0088017800d0c2b3002d
:100c8000805978008100ea0001003700880178006f
:100c900003007800daff0700080078004f047800ae
:100ca000000006008001780002003700b15978008a
:100cb000040178000202e900e00f5100fbff3a0056
:100cc00000000600800078000041eb00b14f1100e9
:100cd000fdff3a000080ea000080400000000600ae
:020000040000fa
:100ce0002000000041630000635800003a2000002b
:100cf0000041000063630000593a0000200000003a
:100d000041630000635a00003a20000000470000e1
:100d1000797200006f5800003a2000000047000080
:100d2000797200006f5900003a200000004700006f
:100d3000797200006f5a00003a2000000054000051
:100d4000656d0000703a000020000000484f000070
:100d50004c41000020510000554500002054000087
:100d6000414c000020450000535400004153000056
:100d7000207900006f20000065730000746f000090
:100d8000792000006d750000792000006269000084
:100d9000656e0000207900002074000075200000be
:100da0007175000065200000746100006c00000097
:100db000574800004f5f0000414d00005f490000b0
:100dc0003a20000000200000202000002020000029
:100dd000200000002020000020200000004900002a
:100de0006e69000063690000616e0000646f0000be
:080df000002e000000000000cd
:020000040000fa
:100df8000000fa00ca02a800ca22a800ca42a80035
:100e0800cb22a800cb42a8000080fa000000060010
:100e18000000fa00ca02a900ca22a900ca42a90011
:100e2800cb22a900cb42a9000080fa0000000600ee
:100e38000200fa00000f78000200370000000000ee
:100e48001e0fe9001e007800e00f5000fbff3a007b
:100e58000080fa00000006000000fa00d000200020
:100e6800d010880000000000c11080000010200091
:100e780000806000e00f5000fbff3200a00020005f
:100e8800d010880000000000c11080000010200071
:100e980000806000e00f5000fbff32000080fa0085
:100ea800000006000600fa001007980021079800c5
:100eb8000040eb00004f78000e0037009e4078009d
:100ec8000180fb009e0090000080400010407800e8
:100ed8000000fb00d010880000000000c110800056
:100ee8000010200000806000e00f5000fbff32007f
:100ef8001e4fe8001e4078008080fb002e00900006
:100f0800808f5000edff35000080fa0000000600d9
:100f18000400fa00000f7800110798009e00900066
:100f28001e007800dfff0700cbff07000080fa00f3
:100f3800000006000600fa00100798002107980034
:100f48000040eb00004f78000e0037009e4078000c
:100f58000180fb009e009000008040001040780057
:100f68000080fb00d010880000000000c110800045
:100f78000010200000806000e00f5000fbff3200ee
:100f88001e4fe8001e4078008080fb002e00900075
:100f9800808f5000edff35000080fa000000060049
:100fa8000400fa00000f7800110798009e009000d6
:100fb8001e007800dfff0700a7ff07000080fa0087
:100fc800000006000400fa00100798001e009000b8
:100fd800000fe900180037001e007800800040006c
:100fe800008020000080400010007800a20020004f
:100ff80080007800a084200019ff0700a08420004a
:101008002eff070080007800a0842000a5ff0700bd
:101018002200200001672800a08420001fff07008d
:10102800a084200025ff070080007800a08420000d
:101038009cff07001e0fe9001e007800e00f50001b
:10104800e5ff3d0084ff07000080fa00000006006d
:101058000200fa00000f78001e00780061006000ae
:1010680000407800e04f50001c0032007200200061
:1010780021672800a084200008ff0700a084200022
:101088000eff070080007800a084200085ff07007d
:10109800c0408000a200200080007800a0842000ca
:1010a800d5fe0700a084200004ff07008000780018
:1010b800a08420007bff0700220020000167280091
:1010c800a0842000f5fe0700a0842000fbfe070096
:1010d80080007800a084200072ff07009e0078003e
:1010e80062806000e00f50001c0032007200200097
:1010f80091672800a0842000e8fe0700a084200053
:10110800eefe070080007800a084200065ff07003d
:10111800d0408000a200200080007800a084200039
:10112800b5fe0700a0842000e4fe070080007800d8
:10113800a08420005bff0700220020000167280030
:10114800a0842000d5fe0700a0842000dbfe070055
:1011580080007800a084200052ff07009e007800dd
:1011680064806000e00f50001c0032007200200014
:1011780001682800a0842000c8fe0700a084200081
:10118800cefe070080007800a084200045ff0700fd
:10119800e0408000a200200080007800a0842000a9
:1011a80095fe0700a0842000c4fe07008000780098
:1011b800a08420003bff07002200200001672800d0
:1011c800a0842000b5fe0700a0842000bbfe070015
:1011d80080007800a084200032ff07009e0078007d
:1011e80068806000e00f50001c0032008200200080
:1011f80071682800a0842000a8fe0700a0842000b1
:10120800aefe070080007800a084200025ff0700bc
:10121800f0408000a200200080007800a084200018
:1012280075fe0700a0842000a4fe07008000780057
:10123800a08420001bff070022002000016728006f
:10124800a084200095fe0700a08420009bfe0700d4
:1012580080007800a084200012ff07009e0078001c
:1012680070806000e00f50001c00320082002000f7
:10127800f1682800a084200088fe0700a0842000d0
:101288008efe070080007800a084200005ff07007c
:1012980000418000a200200080007800a084200087
:1012a80055fe0700a084200084fe07008000780017
:1012b800a0842000fbfe0700220020000167280010
:1012c800a084200075fe0700a08420007bfe070094
:1012d80080007800a0842000f2fe070000022000b1
:1012e8001e006000e00f50001c0032008200200049
:1012f80071692800a084200068fe0700a0842000ef
:101308006efe070080007800a0842000e5fe07003c
:1013180010418000a200200080007800a0842000f6
:1013280035fe0700a084200064fe070080007800d6
:10133800a0842000dbfe07002200200001672800af
:10134800a084200055fe0700a08420005bfe070053
:1013580080007800a0842000d2fe0700000420004e
:101368001e006000e00f50001c00320072002000d8
:10137800f1692800a084200048fe0700a08420000e
:101388004efe070080007800a0842000c5fe0700fc
:1013980020418000a200200080007800a084200066
:1013a80015fe0700a084200044fe07008000780096
:1013b800a0842000bbfe070022002000016728004f
:1013c800a084200035fe0700a08420003bfe070013
:1013d80080007800a0842000b2fe07009efe07006f
:1013e8000080fa00000006000800fa00889fbe008e
:1013f800e0408000cf80de002ffd07000004be0023
:10140800c0408000cf80de002bfd07000801be0031
:1014180042fc070062e5200093042400e2fb070079
:1014280012ee220053262400a4fd07005041880034
:1014380061418800e0408000cf80de001efd07008b
:101448000004be00d0408000cf80de001afd0700f7
:101458000801be0031fc070062e520009304240067
:10146800d1fb070012ee22005326240093fd07004b
:101478003041880041418800f0408000cf80de0084
:101488000dfd07000200200033302400a5fc0700f2
:10149800008fbe0000418000cf80de0006fd0700ff
:1014a80002002000333024009efc070001f0a20057
:1014b80020079800310798001e00be000001be00fa
:1014c800b9fb07000002be0090418000a1418000e6
:1014d8000001be000400be00b3fb07009041880075
:1014e800a14188002e009000be0090000001be00bf
:1014f800adfb07000002be00b0418000c141800082
:101508000001be000400be00a7fb0700b041880030
:10151800c14188001e00be000001be00a2fb0700fa
:101528000002be00d0418000e14180000001be0001
:101538000400be009cfb0700b2472100e3f623002d
:101548005efd07000004be0030418000414180007c
:1015580092c22500f3d8230058fd07000001be0001
:101568000800be0090fb0700d0418800e1418800d8
:101578002e009000be0090000001be008afb07000c
:101588000002be00f0418000014280000001be0060
:101598000400be0084fb0700b2472100e3f62300e5
:1015a80046fd07000004be005041800061418000f4
:1015b80092c22500f3d8230040fd07000001be00b9
:1015c8000800be0078fb0700f0418800014288004f
:1015d80030418000414180000400200005002400c3
:1015e8001e01be002e00070010428800214288001c
:1015f80020418000cf80de00affc070002002f00f2
:101608001364240068fb070002002000a33a2400aa
:1016180044fc070070418800814188004f04be00e7
:101628000080fa00000006000000fa00f026210001
:1016380031a82300d0448800e144880060ba29001a
:1016480041b42300f044880001458800f0282c00ac
:1016580051cf230010458800214588006000b8005c
:1016680050458800614588006000b80090458800b2
:10167800a14588006000b800b0458800c1458800d1
:101688006000b800d0458800e14588006000b800d7
:10169800f0458800014688000080fa000000060036
:1016a8000c00fa00889fbe00008fbe002207980039
:1016b8003307980044079800550798005045800064
:1016c800614580000001be002e009000be00900021
:1016d80034fb07007045880081458800704580000c
:1016e800814580004e019000de019000f3fc070068
:1016f8000002be0030458000414580000001be0068
:101708000400be0028fb07003045880041458800da
:1017180098458000a9458000f0458000014680007a
:101728004e019000de019000e4fc07000002be00bc
:10173800b0458000c14580000001be000400be0025
:1017480018fb07000002be00d0458000e14580007c
:101758000001be000400be0012fb07000002be002c
:10176800d0448000e14480000001be000400be00b7
:101778000dfb07004e019000de019000cffc070032
:101788000001be000800be0007fb07009045880066
:10179800a1458800b8458000c9458000f045800013
:1017a800014680004e019000de019000c3fc070056
:1017b8000001be000800be00fafa0700b045880024
:1017c800c1458800d8458000e9458000f045800083
:1017d800014680004e019000de019000b7fc070032
:1017e8000001be000800be00eefa0700d0458800e0
:1017f800e1458800f845800009468000f0448000f3
:10180800014580004e019000de019000abfc07000e
:101818000001be000800be00e3fa0700f04588009a
:101828000146880094458000a54580001045800049
:10183800214580000001be000400be00dafa07005e
:10184800704688008146880094458000a545800040
:1018580070468000814680000001be000400be0082
:10186800b0fb0700228c20000089be00d445800010
:10187800e545800070468000814680000001be007a
:101888000400be00a7fb0700228c2000200198005e
:101898003101980030458000414580000001be00bc
:1018a8001e00be00bffa0700504688006146880047
:1018b800208c20001002be00504680006146800047
:1018c8000001be000400be007cfc07000002be0050
:1018d80030458000414580000001be000400be0084
:1018e800b1fa07003045880041458800208c200067
:1018f80020029000b00290005046800061468000af
:101908000001be000400be006cfc07000002be001f
:1019180050458000614580000001be000400be0003
:10192800a1fa070050458800614588009845800065
:10193800a9458000208c20001002be009045800040
:10194800a14580000001be000400be005bfc07004a
:101958000001be000800be0092fa0700904588000a
:10196800a1458800b8458000c9458000208c20002a
:101978001002be00b0458000c14580000001be00d5
:101988000400be004dfc07000001be000800be00b8
:1019980084fa0700b0458800c1458800d845800012
:1019a800e9458000208c200020029000b0029000c1
:1019b80090458000a14580000001be000400be00e3
:1019c8003efc07000001be000800be0075fa0700d3
:1019d800d0458800e1458800f84580000946800028
:1019e800208c200020029000b0029000b0458000ba
:1019f800c14580000001be000400be002ffc0700a6
:101a08000001be000800be0066fa0700f045880025
:101a18000146880030458000414580004f04be00e3
:101a28000080fa00000006000400fa00008fbe00e3
:101a38001e00be0030458800414588000080fa003d
:101a4800000006000000fa00704580008145800013
:101a58000080fa00000006000400fa00008fbe00b3
:101a68001e00be00d0448800e14488000080fa00cf
:101a7800000006000400fa00008fbe001e00be0031
:101a8800f0448800014588000080fa000000060044
:101a98000400fa00008fbe001e00be00104588003a
:101aa800214588000080fa00000006000000fa00c6
:101ab80080de2f00000c880080de2f00300c8800ac
:101ac80080de2f00600c880080de2f00900c8800dc
:101ad8000080fa00000006000200fa000000eb0097
:101ae800000f780013003700900c80004006b0000b
:101af800900c8800600c80004006b000600c8800e4
:101b080080382100cafc0700910c8000b0ff20003b
:101b1800808f500007003600f0ff2000900c8800ee
:101b2800f0ff2000600c8800ca42a80010002000c6
:101b3800000f78001e007800e00f5000eaff320026
:101b480013003700900c80004006b100900c88000c
:101b5800600c80004006b100600c880080382100cd
:101b6800b3fc0700910c800000072000808f500014
:101b780007003e000000eb00900c88000000eb001e
:101b8800600c8800ca42a9000000eb00000f780032
:101b98001e007800e10f5000eaff32000080fa00d2
:101ba800000006000000fa00f0108000a2002000eb
:101bb80080007800a084200029fc0700a084200071
:101bc8003efc070080007800a0842000d0fc0700bd
:101bd800f0108000a200200080007800a08420007f
:101be8001ffc0700a084200034fc07008000780058
:101bf800a0842000c6fc0700f0108000a20020008e
:101c080080007800a084200015fc0700a084200034
:101c18002afc070080007800a0842000bcfc070094
:101c2800f0108000a200200080007800a08420002e
:101c38000bfc0700a084200020fc0700800078002f
:101c4800a0842000b2fc070022032000616a28005b
:101c5800a084200011fc0700a084200017fc0700c6
:101c680080007800a0842000a9fc070080382100ab
:101c78006ffc0700a084200010fc0700800078009b
:101c8800a0842000a2fc07008038210068fc07001f
:101c9800a084200009fc070080007800a0842000b0
:101ca8009bfc07008038210061fc0700a08420000d
:101cb80002fc070080007800a084200094fc070044
:101cc800803821005afc0700a0842000fbfb070095
:101cd80080007800a08420008dfc07008038210057
:101ce80053fc0700a0842000f4fb07008000780064
:101cf800a084200086fc0700803821004cfc0700e7
:101d0800a0842000edfb070080007800a08420005c
:101d18007ffc07008038210045fc0700a0842000d4
:101d2800e6fb070080007800a084200078fc07000c
:101d3800803821003efc070050168000e400600057
:101d480010c0b300e08f5000010032000040eb00eb
:101d58000080fb00610060004200dd005216800038
:101d6800b1ff2f00810061000080700050168800cc
:101d78000080fa00000006003600fa00803e2000cd
:101d8800000f780050c7b300b3020700204798003f
:101d980063004700b2002000816d2800bffb0700e8
:101da80063004700c5fb0700800078006300470018
:101db8003cfc07002e4090000000fb00a200200021
:101dc80080007800a0842000a5fb0700a0842000e4
:101dd800bafb070080007800a084200031fc0700cf
:101de8001e00780012fc0700630047007200200004
:101df800316e2800a9fb070063004700affb07000e
:101e0800800078006300470026fc0700b0c3b300d9
:101e180091020700204798002e4090000000fb0028
:101e2800c0408800c0c3b3008b0207002047980059
:101e3800c04080004800dd00c04088002e4090006f
:101e48008000fb00c040800000804000c040880047
:101e5800d0c3b30080020700204798002e409000ae
:101e68000000fb00d0408800e0c3b3007a020700fe
:101e780020479800d04080004800dd00d04088000e
:101e88002e4090008000fb00d04080000080400081
:101e9800d0408800f0c3b3006f02070020479800c5
:101ea8002e4090000000fb00e040880000c4b30012
:101eb8006902070020479800e04080004800dd00e4
:101ec800e04088002e4090008000fb00e040800049
:101ed80000804000e040880030c4b3005e02070084
:101ee800204798002e4090000000fb00f04088003a
:101ef80040c4b3005802070020479800f040800013
:101f08004800dd00f04088002e4090008000fb0073
:101f1800f040800000804000f040880050c4b300ca
:101f28004d020700204798002e4090000000fb005b
:101f38000041880060c4b3004702070020479800aa
:101f4800004180004800dd00004188002e409000dc
:101f58008000fb00004180000080400000418800b4
:101f680070c4b3003c020700204798002e40900040
:101f78000000fb001041880080c4b300360207004f
:101f880020479800104180004800dd00104188007b
:101f98002e4090008000fb0010418000008040002f
:101fa8001041880010c4b3002b0207002047980096
:101fb8002e4090000000fb002041880020c4b300a0
:101fc8002502070020479800204180004800dd00d6
:101fd800204188002e4090008000fb0020418000b6
:101fe80000804000204188000080fa0000000600c0
:101ff8000000fa00701680004d00de0061406000ad
:102008000080fb00610060004200dd005216800085
:10201800b1ff2f0081006100008070005016880019
:102028000080fa00000006000e00fa00304180002f
:1020380041418000fff90700000f780050418000ff
:1020480061418000fbf9070010079800904180006b
:10205800a1418000f7f9070020079800b0418000ef
:10206800c1418000f3f9070030079800d041800093
:10207800e1418000eff9070040079800f041800037
:1020880001428000ebf907005007980010428000d9
:1020980021428000e7f9070060079800a2002000ad
:1020a8009e007800a0842000edfa0700a08420009c
:1020b80002fb070080007800a084200079fb07005d
:1020c80052002000a16e2800a0842000f3fa070027
:1020d800a0842000f9fa070080007800a08420007e
:1020e80070fb07005041800061418000d1f9070072
:1020f80000007800a200200080007800a084200062
:10210800d7fa0700a0842000ecfa070080007800c6
:10211800a084200063fb070052002000a16e280065
:10212800a0842000ddfa0700a0842000e3fa07005d
:1021380080007800a08420005afb070090418000ae
:10214800a1418000bbf9070000007800a200200030
:1021580080007800a0842000c1fa0700a084200035
:10216800d6fa070080007800a08420004dfb070005
:1021780052002000a16e2800a0842000c7fa0700a2
:10218800a0842000cdfa070080007800a0842000f9
:1021980044fb0700b0418000c1418000a5f9070059
:1021a80000007800a200200080007800a0842000b1
:1021b800abfa0700a0842000c0fa0700800078006e
:1021c800a084200037fb070052002000a16e2800e1
:1021d800a0842000b1fa0700a0842000b7fa070005
:1021e80080007800a08420002efb0700d0418000ea
:1021f800e14180008ff9070000007800a20020006c
:1022080080007800a084200095fa0700a0842000b0
:10221800aafa070080007800a084200021fb0700ac
:1022280052002000a16e2800a08420009bfa07001d
:10223800a0842000a1fa070080007800a084200074
:1022480018fb0700f04180000142800079f907007f
:1022580000007800a200200080007800a084200000
:102268007ffa0700a084200094fa07008000780015
:10227800a08420000bfb070052002000a16e28005c
:10228800a084200085fa0700a08420008bfa0700ac
:1022980080007800a084200002fb07001042800024
:1022a8002142800063f9070000007800a2002000a6
:1022b80080007800a084200069fa0700a08420002c
:1022c8007efa070080007800a0842000f5fa070055
:1022d80052002000a16e2800a08420006ffa070099
:1022e800a084200075fa070080007800a0842000f0
:1022f80007fb07000080fa00000006000000fa0053
:102308009dfe070038fc070047ff07000080fa0021
:10231800000006000200fa00004f780000012000cb
:102328002008880000e62000100888000000eb0064
:10233800000888008460a90005e1a8009e40780094
:1023480061c060000080fb00610060004300dd00a8
:102358006204800071ff2f0081006100008070001e
:10236800600488001e407800e04f500006003a00e4
:10237800000000002004800068006000e00f5000aa
:10238800fcff320005e1a9000080fa000000060009
:102398003600f800809fbe00829fbe00849fbe006a
:1023a800869fbe000000fa0010c0b300d9ff0700e6
:1023b8000080fa004f03be004f02be004f01be006e
:1023c8004f00be003600f900004006000200fa0087
:1023d800000f780000022000900888001e00780096
:1023e800e30f500003003a00003a2000700888000c
:1023f8000200370000572000700888000000eb003a
:102408005008880084e0a90013e1a9008ce0a80026
:102418000080fa00000006000000fa0013e1a8009e
:102428000080fa00000006003600f800809fbe0019
:10243800829fbe00849fbe00869fbe000000fa00f7
:1024480084e0a900adff07000080fa004f03be003a
:102458004f02be004f01be004f00be003600f9001b
:10246800004006000000fa000000eb00203a880057
:10247800a00020006efa07000080eb0040158800dd
:10248800a00020006afa07000080eb000016880010
:10249800a000200066fa0700809f2f0030168800f1
:1024a800a000200062fa0700f0ff2b0060168800e9
:1024b800a00020005efa070000ef2f0090168800a9
:1024c800a00020005afa0700c0f92f00f016880073
:1024d800a000200056fa07000000eb001016880044
:1024e800a000200052fa07000000eb004016880008
:1024f800a00020004efa07000000eb0070168800cc
:10250800a00020004afa07000000eb00a01688008f
:10251800a000200046fa07000000eb000017880022
:10252800a000200042fa07000080fa000000060020
:102538000400fa0000352c003dfa070020032000b3
:10254800000f780000022c00100798009e00780009
:102558001e0090008af707000040eb006dff07009f
:10256800d1c0b30030c0b300a00007000040eb00aa
:1025780068ff070011c0b300b0c6b3009b00070096
:102588000040eb0063ff070081c1b300b0c1b30096
:10259800960007000040eb005eff070081c1b30012
:1025a800c0c1b300910007000040eb0059ff0700cd
:1025b80080c0eb0030c2b3008c0007000040eb0085
:1025c80054ff07000080fa00000006000000fa002f
:1025d8008401a900000000008421a9000000000077
:1025e8008441a900000000008461a90000000000e7
:1025f8008a01a900000000008a21a900000000004b
:102608008a41a900000000008a61a90000000000ba
:102618009001a900000000009021a900000000001e
:102628009041a900000000009061a900000000008e
:102638009601a900000000009621a90000000000f2
:102648009641a900000000009661a9000000000062
:1026580011e1a9000000000011a1a900000000007c
:1026680010c1a900000000001021a900000000000e
:102678001061a9000000000084c0a900000000004b
:10268800f0ff20001008880000502000000c88008f
:10269800f0ff20006008880000502000300c8800ff
:1026a800f0ff20007008880000502000600c8800af
:1026b800f0ff2000d008880000502000900c88000f
:1026c8008401a900000000008421a8000000000087
:1026d8008441a800000000008a01a9000000000051
:1026e8008a21a800000000008a41a800000000001c
:1026f8009001a900000000009021a800000000003f
:102708009041a800000000009601a9000000000008
:102718009621a800000000009641a80000000000d3
:1027280081088000f0fc2f0000806000800888008d
:102738000000000011e1a8000080fa000000060077
:102748000000fa0017e2a8000000000000000000e6
:102758000000000019e2a90000000000b11080008c
:1027680090ff2f0000806000b0108800000000007b
:102778001602a9000000000016a2a900000000002f
:10278800f0002000f0108800000000001942a800a6
:10279800000000008700a900000000008720a900b1
:1027a800000000008f00a900000000008f20a90091
:1027b800000000000080fa00000006000200fa0095
:1027c800004f78009e4078000180fb0010108800c0
:1027d800000000004010800061006000e00f500021
:1027e800fcff3a000080fa00000006000600fa002c
:1027f8004047980051479800f0002000000f7800eb
:1028080000cdb30020479800c5f60700e1f60700a1
:102818001e00780086f907002e409000e7ff0700a9
:10282800bff607001e00780081f907004e409000af
:10283800e2ff0700baf607001e0078007cf90700df
:102848005e409000ddff0700b5f60700d3f60700ed
:102858000080fa00000006000400fa0020479800f3
:10286800f0002000000f7800adf60700c9f6070059
:10287800000000003010800061006000e00f500090
:10288800fcff3a0000cdb300ccff070000000000b9
:10289800411080000000280000806000e00f500018
:1028a800fbff3a009ef607002e409000c3ff07008a
:1028b8000000000041108000000028000080600037
:1028c800e00f5000fbff3a0095f60700aff607004f
:1028d8001e00780056f9070010cdb300b7ff0700b7
:1028e8000000000041108000000028000080600007
:1028f800e00f5000fbff3a00200020004cf90700d1
:1029080087f607000662a80000000000401080005b
:1029180062006000e00f5000fcff32002000200041
:1029280043f9070093f607001e00780040f90700f6
:102938009af6070000000000301080006400600074
:10294800e00f5000fcff3a000010800000407800c3
:102958000080fa00000006003600fa00c1fe0700f9
:10296800f3fe070076ff07000000eb00000f780079
:10297800030037000040eb0066fe07001e0fe8006a
:10298800703821009e007800808f5000f9ff3400d5
:1029980031f9070064004700a2002000f16e28000a
:1029a800bef8070064004700c4f8070080007800fc
:1029b800640047003bf907000000eb00100798008f
:1029c800160037006400470022002000916f28009d
:1029d800b2f8070064004700b8f8070080007800e4
:1029e800640047002ff907000000eb00000f780093
:1029f800030037000040eb0046fe07001e0fe8000a
:102a0800700c20009e007800808f5000f9ff340081
:102a18001e0090000000e800100798001e009000bb
:102a2800e40f5000e7ff34000bf90700d2fc070061
:102a380080382100fef807007000200084f90700a4
:102a480080382100faf8070080382100f8f80700dc
:102a580050168000e100600010c0b300e08f500005
:102a6800010032000040eb000080fb0061006000c4
:102a780052168000e1ff2f00810061000080700085
:082a880050168800e9ff370039
:020000040000fa
:102a900000080000d200000000000000d208000082
:0c2aa00002000000000000000000000028
:020000040000fa
:0200000401f009
:04000000e3bf00005a
:020000040000fa
:0200000401f009
:04000400ff7f00007a
:020000040000fa
:0200000401f009
:040008006c7f000009
:020000040000fa
:0200000401f009
:04001400ffff0000ea
:020000040000fa
:0200000401f009
:04001800feff0000e7
:00000001FF
