:020000040000fa
:080000000001040000000000f3
:020000040000fa
:100008009401000094010000940100009401000094
:100018009401000094010000940100009401000084
:10002800940100009401000094010000fe250000e6
:10003800940100009401000094010000742600005f
:100048009401000094010000940100009401000054
:100058009401000094010000940100009401000044
:100068009401000094010000940100009401000034
:100078009401000094010000b026000094010000e3
:100088000420000094010000940100009401000085
:100098009401000094010000940100009401000004
:1000a80094010000940100009401000094010000f4
:1000b80094010000940100009401000094010000e4
:1000c80094010000940100009401000094010000d4
:1000d80094010000940100009401000094010000c4
:1000e80094010000940100009401000094010000b4
:0800f8009401000094010000d6
:020000040000fa
:100108009401000094010000940100009401000093
:100118009401000094010000940100009401000083
:10012800940100009401000094010000fe250000e5
:10013800940100009401000094010000742600005e
:100148009401000094010000940100009401000053
:100158009401000094010000940100009401000043
:100168009401000094010000940100009401000033
:100178009401000094010000b026000094010000e2
:100188000420000094010000940100009401000084
:100198009401000094010000940100009401000003
:1001a80094010000940100009401000094010000f3
:1001b80094010000940100009401000094010000e3
:1001c80094010000940100009401000094010000d3
:1001d80094010000940100009401000094010000c3
:1001e80094010000940100009401000094010000b3
:0801f8009401000094010000d5
:020000040000fa
:100200008f9d2000aefe20000e018800000000003f
:1002100000012000200288000c000700806b2200f3
:100220000100200011000700000020000000e00095
:100230000200320000000200000000008e090200ef
:10024000000000000040da000000fe004440a90069
:10025000c01b20000000e00003003200000020006e
:10026000a00188004440a800000006009101880019
:10027000800078000000eb0015003700e2804000ad
:1002800032a0b4009101ba00e280400032a0b40074
:100290009102ba00e280400032a0b4000002eb00fc
:1002a000472bde00f507b200602ce10004003a00a5
:1002b0000059eb008301e900fdff3e000400370018
:1002c0006128e100010032000082eb000400070019
:1002d0001101ba000200e000e8ff3a000000060049
:1002e0003159ba008301e9000c0032002159ba00eb
:1002f0008301e900080032000400e00003003a0036
:10030000e280400032a0b400f5ff370011d9ba00f6
:100310008301e900faff3a008100e800e180400033
:1003200032a0b400000006000040da000000fe0029
:10033000881f78008a1f78004400f800080f20000a
:10034000280288000004900010059000a000900092
:1003500030019000c00190000300ca000280ca0072
:100360000030cb001a00cd004604c3000100ca00d3
:100370004604c0001e04c0000605c0000100cd00f8
:1003800021009800050d7800eaba9700052578004d
:100390004400f9004f0578004f0478000000060083
:1003a000801f78004000b0000008eb004f0078008c
:1003b000801f7800100090000018eb000018eb0080
:1003c0000008eb004f007800000006004400f80031
:1003d000020f200022028800910078003000ca003d
:1003e0003080ca000000cb002080ca000000cb0093
:1003f0003100cd004000ca000000cb000000cb005f
:100400000010cb003100cd001180cc004400f90079
:10041000000006004f0ade008102780001f0a10012
:1004200003f823000118e10004003c00000028004c
:100430000400a600f0ff27000000060085007800f9
:100440000200200003702400da0502000000000012
:10045000ce0402000000000000000600cf80de0095
:1004600010050200000000000200200003702400bc
:100470002804020000000000000006000400240020
:100480000602ab00feff3a000642ab00fcff3a005a
:100490000662ab00faff3a000682ab00f8ff3a00b2
:1004a0004610800086026200e08f5200f4ff3a009e
:1004b0000000060006a2a8000682a80000000600b0
:1004c0000602a800000006000642a8000000060080
:1004d00003f0a200889fbe008a9fbe008c1f780098
:1004e0008d010700940133006450e1004f00320099
:1004f0006420e1005200320003826c0007003b00e0
:100500000905d0000306d000820f54000c065d00e0
:1005100002003900020032008901780003067800e9
:100520008582550004003d000003fd008103fd00ad
:100530008502ea008b854200840f720002003b00b6
:1005400060001000e08018006011b8000005eb00aa
:100550007a28e1000a00390006007800c75ddd0056
:10056000f707b200878075002d0037008281710087
:100570000a017800610560008180d1000080d3000d
:100580008502e900f9ff3b0006044000878448002b
:1005900002003b0060041400e0841c000988a300f2
:1005a000070032008a81710082817100610164005c
:1005b0008904d1000884d3008b05e80017003700b8
:1005c0000978a30013003a000b00e0001300340088
:1005d0008b05e9000804440089844c000a44740037
:1005e0000978a3000d003a000b00e000070034007a
:1005f0008b05e9000804440089844c0001003a009e
:100600000b0020000978a300f7ff32000001eb0087
:1006100002003700828171000a017800030107009f
:100620000cf0a70001f0a0004c0137006420e100ad
:1006300002003a00838f6c004c0133000801be00b9
:100640000200be0045013700889fbe008a9fbe00a1
:100650008c1f7800300107001002200002003b00d0
:10066000b04e8800340137008a0062006408e1005f
:1006700002003a00b04e88003c0137006108e100fa
:10068000fcff32000800be00030478007000070081
:1006900001f0a1000900070008f0a60004003700df
:1006a0000001be0091042400b0fd200088ff070077
:1006b00009f0a70001f0a20028013700889fbe00c2
:1006c0008a9fbe008c9fbe000004be00fd00070094
:1006d0000800be00890678006420e10008003900a7
:1006e000040032000160a00012022000b24e880017
:1006f0005300370091fc2300b0fd20004e0037006e
:100700000006eb0009f0a10003f82300020020001e
:100710000800be009f0007000600340001f8230017
:10072000000020000801be00490007000004be00d0
:100730002c0020000800be0093e82300320a2300aa
:1007400094000700120034000801be00d1fd230010
:10075000703d2b005fff07000005be00b3f32300d0
:10076000f27a26000800be001201070003f82300f9
:100770000200200056ff07000801be0055ff0700d9
:100780000a01be00320007000004be000c06e800ab
:100790000800be0001f0a100020020000398230021
:1007a0007c0007000800be00160035000801be00ee
:1007b000000107000005be0032cd2c0043fb2300e2
:1007c00044ff0700809fbe001269280003d52b005c
:1007d0000a00be00f7000700620f210013ef2b0094
:1007e0003cff07000a01be00f20007004f01be00f7
:1007f000170007000801be00ee0007000801be0058
:1008000034ff07000c00e0000b0032000c10a700c2
:1008100001f0a200b2fd200093fc23006260e10021
:100820000400320022a9200063f023000c10a7006e
:1008300063f8230027ff07000df0a70001f0a200d6
:100840004f06be004f05be004f04be00000006006c
:10085000889fbe008a9fbe008c1f7800ae000700f4
:10086000b500330003866c006450e1002e003200b6
:100870006420e100330032006150e1002f003200bb
:100880006120e1003100320085855500eb07b000a2
:100890000900200008042000050037000804440077
:1008a00089844c000a0031000603430087834b0013
:1008b0000001530081815b00f8ff33000203be009a
:1008c0000800a0000804440089844c00f6ff3900a9
:1008d000c639dd00830173000100320013002000df
:1008e0008904d1000884d3000998a30005003200d0
:1008f0000800a7000300a0008904d1000884d300e9
:100900008b05e8008904d1000884d3000001eb00c6
:100910000281d2004500070001f0a1000cf0a70001
:1009200001f0a0008d0037006420e1008f0032004c
:100930000801be000200be00f7ff37006120e100a1
:100940008a0032006000b800f3ff3700000020008a
:1009500001f82700f0ff3700839f68000100e000e6
:1009600002003d0060001000e08018000300e0007d
:1009700002003d0060011100e0811900c100070084
:100980004f00e00002003b0060001000e080180013
:100990000000060014002000cd0037000001be005a
:1009a000480007000470a70003f0a1006509b1002a
:1009b000160032000d0035006828e1000600350001
:1009c000f0ff2f00f1ff27000300e00013003b00c1
:1009d0000100280000000500000040008180480060
:1009e0008502e900fcff3a0008003700f88f42005a
:1009f00002003c008000eb00000005008100d100f7
:100a00000080d3008502e800fcff3a000300e0000c
:100a100002003b0060001000e080180000000600ab
:100a20004f89de0082017800c40037008100200079
:100a3000618055000b003d000b00200061fe2f007f
:100a40000100e1001d003400828171006101640039
:100a50008904d1000884d3000000e800faff3a00be
:100a6000710020006100640003007000020060005b
:100a70000900320061044400e0844c000988a500ac
:100a8000050032008b05e8006808e10002003a002a
:100a90008904d1000884d300f20f20000258e1003d
:100aa00005003d00c75ddd00f907b20089807500d3
:100ab00008007800000006000bf827008b00780083
:100ac00000000500c70ade00f107b200f50fb20012
:100ad00008003200e1cf4200020032000170a000a5
:100ae00024000500810f7000010032000408050099
:100af00044000500810f700002003a001400050058
:100b00008502e9000000400081c04800fcff3b0076
:100b10000170a000240005000004be00e9ff0700ea
:100b20000003be000405be000200be00e5ff070092
:100b3000844f7500000006000200be006450e10012
:100b4000050036006420e100020036000968a300b9
:100b500001003a000800be000160a0004f067800c6
:100b60004f05be004f04be0000000600f0ff2f003e
:100b7000f1ff2700f9ff3700811f78000100e00036
:100b800002003d0060001000e08018000300e0005b
:100b900002003d0060011100e081190049000700da
:100ba0004f00e00002003b0060001000e0801800f1
:100bb00000000600889fbe008a9fbe008c1f780040
:100bc000d5ff0700dcff330003866c006450e100b2
:100bd000240032006420e100270032006150e1006f
:100be000220032006120e100210032008b854200aa
:100bf000eb07b1000134b800003ab8000804420025
:100c000089844a00013ab8000030b800888040006a
:100c100009014a00040033000000400081804800c0
:100c2000020149008b05e900c909dd00830170005c
:100c30000100320013002000c814de004814dd005b
:100c40004709de001200b200c808de000884700008
:100c500076ff070001f0a1000cf0a70001f0a00052
:100c6000beff37006120e100c0ff32000801be0076
:100c70000200be00f7ff37006150e100fcff3a00c0
:100c8000baff37006022b800060220000000d00042
:100c90008180d2000482d2008582d2000000a000b0
:100ca0000202520083825a00030031000202420015
:100cb00083824a000000a1000603e900f3ff3a0026
:100cc00000000600efff07000400be000000060061
:100cd000889fbe008a9fbe00841f78008eff070099
:100ce0004f00780011003300f0ff2f00838f6c005d
:100cf00006003b00040565000a00a7000800370055
:100d000009f0a6001000200008003700820f5400f0
:100d1000838f5c00030039001000200001003e00ba
:100d20000000200009f0a7000000ea004f05be0007
:100d30004f04be000000e00000000600881f78009d
:100d4000030478000300e00007003d00600010008d
:100d5000e080180060011900e081190002003b00ea
:100d600001f02d00030037000400070008f0a70081
:100d700001f0a0004f04780000000600889fbe002c
:100d80008a9fbe000082700004027100048271001c
:100d9000260032000004be000200be006011b80050
:100da0006b092000950220000182cf000a00390063
:100db0000541b1000082cf00070039000541b100b4
:100dc0000982cf00040039000541b1000882cf003c
:100dd000010039000541b100054252001200320005
:100de0000a003b0082817100610164008100d10032
:100df0000080d3008984d3000884d3008b05e800e9
:100e00000442e800f7ff3a000700370008044400f6
:100e100089844c0000004800818048008b05e9006f
:100e20000442e900f9ff3a0000ff07004f05be0049
:100e30004f04be000000060006c2b30000027800a6
:100e400004007800b042780086cf5200fbff3200e9
:100e5000e9cf5200f9ff3200d6c2b30086cf52006c
:100e600003003a000002780016c0b3000500370006
:100e70000043eb00b7c2b30087cf520001003a0035
:100e8000000278000000eb00020037006a00b900a1
:100e900000804200b402fb000503b100e98f52005c
:100ea000faff3600e04f5300010032000000ea0074
:100eb00000000600800178008103780007027800b6
:100ec0000100370085017800110009000282d80076
:100ed000000278008302e800e00f5200f9ff3a00b8
:100ee000844a7800110009008283d80080027800cb
:100ef0000142780085037800e94f52000100340078
:100f00006742420001c3b30081514200e08f5200aa
:100f1000f4ff3a000300780000000600881f780004
:100f200000047800e08f500005003d0008007800c4
:100f3000d4c2b300045878008100ea0001003700f1
:100f400008007800dbff0700080078004f047800f5
:100f5000000006000002780002003700315a7800d5
:100f60000201e900e00f5100fcff3a00000006001a
:100f700000027800b1427800055a7800e0cf5200b4
:100f8000fcff3a0000000600000278008042eb00ff
:100f9000b4cf1200fdff3a000080ea0000004200da
:040fa0000000060047
:020000040000fa
:100fa400484f00004c41000020510000554500000e
:100fb40020540000414c0000204500005354000020
:100fc40041530000207900006f2000006573000089
:100fd400746f0000792000006d7500007920000016
:100fe40062690000656e0000207900002074000032
:100ff4007520000071750000652000007461000018
:101004006c000000636f00007272000065630000f2
:10101400746f000028770000686f000020690000ea
:10102400206100006d3d00003130000034290000d3
:10103400206e0000756d0000657200006f200000d6
:101044006465000020660000616c00006c6f0000a5
:10105400732000003d000000617900003d000000a5
:10106400776800006f20000069200000616d0000b7
:10107400203d000000650000727200006f720000e5
:1010840000650000727200006f720000202d0000e5
:101094002d3e0000766100006c6f0000722000009d
:1010a400776800006f20000069200000616d000077
:1010b4003d00000045730000746f000020650000cf
:1010c40073200000756e0000612000007072000043
:1010d4007565000062610000203d000020000000f2
:1010e400536100006c6700006f200000646500001d
:1010f400204d0000795300007461000072740000f8
:10110400207000006f72000020540000696d000020
:101114006572000000530000616c0000676f0000fe
:1011240020640000652000004d7900005265000035
:10113400737400006172000074200000706f00007e
:1011440072200000546900006d6500007200000008
:10115400536100006c6700006f20000064650000ac
:10116400206d0000795f0000537400006f70000070
:10117400207000006f72000020540000696d0000b0
:101184006572000000530000616c0000676f00008e
:1011940020640000652000006d7900005f570000a6
:1011a4007269000074650000207000006f72000016
:1011b40020540000696d00006572000000530000b7
:1011c400616c0000676f000020640000652000006f
:1011d4006d7900005f490000646c00006520000028
:1011e400706f000072200000546900006d650000fb
:1011f400720000002d2d00002d2d00002d2d00006b
:101204002d2d00002d2d00002d2d00002d2d000072
:101214002d2d00002d2d00002d2d00002d2d000062
:101224002d2d00002d2d00002d2d00002d2d000052
:101234002d2d00002d2d00002d2d00002d2d000042
:101244002d2d00002d2d00002d2d00002d2d000032
:101254002d2d00002d2d00002d2d00002d2d000022
:1012640000730000616c000069640000613d0000cf
:10127400006100006e670000756c00006f310000b3
:101284003d000000666f00006f3d00000063000039
:101294006f6e000076650000723d000000000000e3
:1012a40020000000636100006d62000069610000bd
:1012b4006e6400006f200000706100007261000025
:1012c4006d650000747200006f7300003a00000046
:1012d400703d0000002c0000693d0000002c00005f
:1012e400643d0000002c000061750000785f000080
:1012f4004249000041530000313d0000002c000031
:1013040061750000785f000042490000415300000d
:08131400323d00000000000062
:020000040000fa
:10131c000000fa008e0c07000040eb00150e0700d1
:10132c00030e07000040eb00120e0700e40c070050
:10133c000040eb000f0e07004a0d07000040eb00c9
:10134c000c0e0700b50c07000040eb00090e07005f
:10135c00fd0807000040eb00060e07008f00070099
:10136c000040eb00030e0700f70807000040eb00fd
:10137c00000e070021032000500020000109070087
:10138c00650d0700a00020003c0e07004b0e070067
:10139c00c08f2800050b070078070700ffff3700f8
:1013ac000e00fa00889fbe000002eb00040f7800cc
:1013bc000002eb0014079800a50907000002780052
:1013cc00cfa2de000400be0092fd07000003be00a9
:1013dc00144c8000254c80000401be000600be00a9
:1013ec0038fc07000002be000404be00be09070062
:1013fc0000027800cfa2de000400be0085fd0700cd
:10140c000003be00544c8000654c80000401be00fb
:10141c000600be002bfc07000002be000801be0047
:10142c000400be0085fc07000002be0012ee220084
:10143c00532624000400be00dbfd07000002be00a2
:10144c002407980035079800ba09070000027800b5
:10145c00cfa2de000400be006efd07000003be003c
:10146c00744c8000854c80000401be000600be0058
:10147c0014fc07000002be000200200033302400e0
:10148c000400be00effc07000002be0044079800f9
:10149c0055079800876e28008691270015002000bc
:1014ac002400200013002000120020009e00900059
:1014bc000000eb001b000700000278006407980096
:1014cc0002002000432b24002e009000be00900050
:1014dc00fdfb07000002be000400be002cfd07004f
:1014ec000002be00840278001e029000a405b00029
:1014fc0005017800840078006e009000e50b070071
:10150c00ee00900030932800930a07009e00900094
:10151c00b09328007b0a07004f04be000080fa003d
:10152c00000006001600fa003007980041079800ea
:10153c00520798006307980074079800050f9800ed
:10154c00160f9800270f9800be0290004e029000d4
:10155c00048f5200d44a8000ce02900004825200c4
:10156c0014079800ee0290001e02780004aab9003d
:10157c00040378008e0a90001e02900004aab900a1
:10158c000402780004025300240798002e029000f5
:10159c00040078000080fa00000006000000fa0049
:1015ac006022b80024478800354788006022b800c4
:1015bc0044478800554788006022b800644788007b
:1015cc00754788006022b8008447880095478800da
:1015dc00f4282c0055cf23006446880075468800fb
:1015ec00f4282c0055cf23008446880095468800ab
:1015fc00f426210035b02300a4468800b5468800a7
:10160c000400200005f82300c4468800d546880055
:10161c006022b800e4468800f54688006022b800d5
:10162c0004478800154788006022b800e44788000a
:10163c00f54788000400200005f82300e4478800e3
:10164c00f547880004002000852c240004488800fd
:10165c00154888006022b80044458800554588002c
:10166c006022b80064458800754588006022b80087
:10167c0084458800954588006022b800a445880000
:10168c00b5458800f4282c0055cf230084448800ed
:10169c0095448800f4282c0055cf2300a4448800de
:1016ac00b5448800f426210035b02300c4448800da
:1016bc00d54488000400200005f82300e444880089
:1016cc00f54488006022b800044588001545880060
:1016dc006022b80024458800354588006022b80097
:1016ec0004468800154688000400200005f82300f5
:1016fc00044688001546880004002000852c240030
:10170c0024468800354688006022b80004498800c9
:10171c00154988006022b8002449880035498800a2
:10172c006022b80044498800554988006022b800fe
:10173c006449880075498800f4282c0055cf230093
:10174c004448880055488800f4282c0055cf2300c5
:10175c006448880075488800f426210035b02300c1
:10176c0084488800954888000400200005f8230070
:10177c00a4488800b54888006022b800c448880096
:10178c00d54888006022b800e4488800f5488800f5
:10179c006022b800c4498800d549880004002000a4
:1017ac0005f82300c4498800d549880004002000ae
:1017bc00852c2400e4498800f54988000080fa0053
:1017cc00000006000c00fa00889fbe00008fbe00cf
:1017dc002207980033079800440798005507980093
:1017ec00c4488000d54880000401be002e00900043
:1017fc00be00900033fb07000002be00e4488800e6
:10180c00f5488800a8488000b9488000e44880006a
:10181c00f54880004e019000de0190000400be00ef
:10182c00e1fc07000002be000401be000800be007f
:10183c0025fb07000002be00a4488800b5488800bc
:10184c00084980001949800064498000754980006e
:10185c004e019000de0190000400be00d2fc070097
:10186c000002be000403be002449800035498000fc
:10187c000401be000600be0012fb07000002be0001
:10188c000403be0044498000554980000401be0099
:10189c000600be000bfb07000002be000403be00e6
:1018ac0044488000554880000401be000600be007c
:1018bc0005fb07000002be004e019000de01900007
:1018cc000400be00b8fc07000002be000401be000c
:1018dc000800be00fcfa07000002be0004498800a4
:1018ec0015498800284980003949800064498000e6
:1018fc00754980004e019000de0190000400be008e
:10190c00a9fc07000002be000401be000800be00d6
:10191c00ecfa07000002be00244988003549880013
:10192c00484980005949800064498000754980000d
:10193c004e019000de0190000400be009afc0700ee
:10194c000002be000401be000800be00ddfa070064
:10195c000002be004449880055498800684980004f
:10196c007949800064488000754880004e019000e1
:10197c00de0190000400be008bfc07000002be00dc
:10198c000401be000800be00cffa07000002be0032
:10199c006449880075498800064980001749800011
:1019ac0084488000954880000401be000600be00fb
:1019bc00c5fa07000002be00e4498800f54988001a
:1019cc000649800017498000e4498000f5498000f1
:1019dc000401be000600be009afb07000002be0018
:1019ec008449880095498800464980005749800001
:1019fc00e4498000f54980000401be000600be00e9
:101a0c0090fb07000002be00a4498800b54988007d
:101a1c00a4488000b54880000401be001e00be0032
:101a2c00a8fa07000002be00c4498800d549880006
:101a3c00a8488000b94880008649800097498000fa
:101a4c00c4498000d54980000401be000600be00d8
:101a5c0055fc07000002be000401be000800be00d9
:101a6c0099fa07000002be00a4488800b548880017
:101a7c00c8488000d9488000a6498000b74980003a
:101a8c00c4498000d54980000401be000600be0098
:101a9c0045fc07000002be000401be000800be00a9
:101aac0089fa07000002be00c4488800d5488800a7
:101abc0008498000194980008649800097498000b8
:101acc0004498000154980000401be000600be00d8
:101adc0035fc07000002be000401be000800be0079
:101aec0078fa07000002be000449880015498800f6
:101afc002849800039498000864980009749800038
:101b0c0024498000354980000401be000600be0057
:101b1c0025fc07000002be000401be000800be0048
:101b2c0068fa07000002be00244988003549880085
:101b3c004849800059498000a6498000b749800077
:101b4c0004498000154980000401be000600be0057
:101b5c0015fc07000002be000401be000800be0018
:101b6c0058fa07000002be00444988005549880015
:101b7c006849800079498000a6498000b7498000f7
:101b8c0024498000354980000401be000600be00d7
:101b9c0005fc07000002be000401be000800be00e8
:101bac0048fa07000002be006449880075498800a5
:101bbc00a4488000b54880000400be004f04be005d
:101bcc000080fa00000006000c00fa00889fbe009e
:101bdc00008fbe0022079800330798004407980036
:101bec0055079800e4468000f54680000401be00cd
:101bfc002e009000be00900032fa07000002be00da
:101c0c000447880015478800c8468000d9468000e4
:101c1c0004478000154780004e019000de019000c3
:101c2c000400be00e0fb07000002be000401be0081
:101c3c000800be0024fa07000002be00c44688005b
:101c4c00d5468800284780003947800084478000ab
:101c5c00954780004e019000de0190000400be000c
:101c6c00d1fb07000002be000403be004447800005
:101c7c00554780000401be000600be0011fa0700a3
:101c8c000002be000403be0064478000754780005c
:101c9c000401be000600be000afa07000002be00e6
:101cac000403be0064468000754680000401be003b
:101cbc000600be0004fa07000002be004e019000b0
:101ccc00de0190000400be00b7fb07000002be005e
:101cdc000401be000800be00fbf907000002be00b4
:101cec0024478800354788004847800059478000c2
:101cfc0084478000954780004e019000de019000e3
:101d0c000400be00a8fb07000002be000401be00d8
:101d1c000800be00ebf907000002be004447880033
:101d2c0055478800684780007947800084478000c9
:101d3c00954780004e019000de0190000400be002b
:101d4c0099fb07000002be000401be000800be00a3
:101d5c00dcf907000002be00644788007547880064
:101d6c008847800099478000844680009546800013
:101d7c004e019000de0190000400be008afb0700bb
:101d8c000002be000401be000800be00cef9070030
:101d9c000002be00844788009547880026478000d3
:101dac0037478000a4468000b54680000401be0081
:101dbc000600be00c4f907000002be0004488800fb
:101dcc00154888002647800037478000044880006b
:101ddc00154880000401be000600be0099fa0700f9
:101dec000002be00a4478800b54788006647800003
:101dfc007747800004488000154880000401be002d
:101e0c000600be008ffa07000002be00c44788001f
:101e1c00d5478800c4468000d54680000401be002a
:101e2c001e00be00a7f907000002be00e4478800b0
:101e3c00f5478800c8468000d9468000a647800038
:101e4c00b7478000e4478000f54780000401be00de
:101e5c000600be0054fb07000002be000401be00d9
:101e6c000800be0098f907000002be00c4468800b6
:101e7c00d5468800e8468000f9468000c6478000b9
:101e8c00d7478000e4478000f54780000401be007e
:101e9c000600be0044fb07000002be000401be00a9
:101eac000800be0088f907000002be00e446880066
:101ebc00f54688002847800039478000a6478000f7
:101ecc00b747800024478000354780000401be00de
:101edc000600be0034fb07000002be000401be0079
:101eec000800be0077f907000002be0024478800f6
:101efc00354788004847800059478000a647800036
:101f0c00b747800044478000554780000401be005d
:101f1c000600be0024fb07000002be000401be0048
:101f2c000800be0067f907000002be0044478800a5
:101f3c00554788006847800079478000c647800075
:101f4c00d747800024478000354780000401be003d
:101f5c000600be0014fb07000002be000401be0018
:101f6c000800be0057f907000002be006447880055
:101f7c00754788008847800099478000c6478000d5
:101f8c00d747800044478000554780000401be00bd
:101f9c000600be0004fb07000002be000401be00e8
:101fac000800be0047f907000002be008447880005
:101fbc0095478800c4468000d54680000400be00ca
:101fcc004f04be000080fa00000006000c00fa006e
:101fdc00889fbe00008fbe00220798003307980030
:101fec00440798005507980004458000154580006b
:101ffc000401be002e009000be00900031f90700d5
:10200c000002be002445880035458800e844800065
:10201c00f944800024458000354580004e01900035
:10202c00de0190000400be00dffa07000002be00d3
:10203c000401be000800be0023f907000002be0028
:10204c00e4448800f54488004845800059458000e8
:10205c00a4458000b54580004e019000de01900043
:10206c000400be00d0fa07000002be000403be004c
:10207c0064458000754580000401be000600be006a
:10208c0010f907000002be000403be008445800066
:10209c00954580000401be000600be0009f907004a
:1020ac000002be000403be008444800095448000fe
:1020bc000401be000600be0003f907000002be00ca
:1020cc004e019000de0190000400be00b6fa07003d
:1020dc000002be000401be000800be00faf80700b2
:1020ec000002be00444588005545880068458000c4
:1020fc0079458000a4458000b54580004e019000d4
:10210c00de0190000400be00a7fa07000002be002a
:10211c000401be000800be00eaf807000002be0081
:10212c006445880075458800884580009945800085
:10213c00a4458000b54580004e019000de01900062
:10214c000400be0098fa07000002be000401be00a5
:10215c000800be00dbf807000002be0084458800c2
:10216c0095458800a8458000b9458000a4448000ae
:10217c00b54480004e019000de0190000400be00ca
:10218c0089fa07000002be000401be000800be0070
:10219c00cdf807000002be00a4458800b5458800b4
:1021ac004645800057458000c4448000d5448000db
:1021bc000401be000600be00c3f807000002be000a
:1021cc0024468800354688004645800057458000e7
:1021dc0024468000354680000401be000600be0087
:1021ec0098f907000002be00c4458800d545880058
:1021fc008645800097458000244680003546800047
:10220c000401be000600be008ef907000002be00ed
:10221c00e4458800f5458800e4448000f5448000de
:10222c000401be001e00be00a6f807000002be009e
:10223c000446880015468800e8448000f944800074
:10224c00c6458000d74580000446800015468000b6
:10225c000401be000600be0053fa07000002be00d7
:10226c000401be000800be0097f807000002be0083
:10227c00e4448800f5448800084580001945800036
:10228c00e6458000f7458000044680001546800036
:10229c000401be000600be0043fa07000002be00a7
:1022ac000401be000800be0087f807000002be0053
:1022bc000445880015458800484580005945800034
:1022cc00c6458000d74580004445800055458000b8
:1022dc000401be000600be0033fa07000002be0077
:1022ec000401be000800be0076f807000002be0024
:1022fc004445880055458800684580007945800034
:10230c00c6458000d7458000644580007545800037
:10231c000401be000600be0023fa07000002be0046
:10232c000401be000800be0066f807000002be00f3
:10233c006445880075458800884580009945800073
:10234c00e6458000f74580004445800055458000f7
:10235c000401be000600be0013fa07000002be0016
:10236c000401be000800be0056f807000002be00c3
:10237c008445880095458800a8458000b9458000b3
:10238c00e6458000f7458000644580007545800077
:10239c000401be000600be0003fa07000002be00e6
:1023ac000401be000800be0046f807000002be0093
:1023bc00a4458800b5458800e4448000f5448000bd
:1023cc000400be004f04be000080fa0000000600ae
:1023dc000000fa0004802000f4408800a4ff2000d4
:1023ec0004418800e0812000eaf70700f4ff270091
:1023fc00d44c88000002eb00e44c8800f4ff27006a
:10240c00f44c8800e1812000a0992000ecf7070033
:10241c000080fa00000006000200fa00881f780015
:10242c00000f78000002eb00344188001e02780097
:10243c00cfa2de000400be0076f907000002be0049
:10244c000400be00f0f7070000027800cfa2de0007
:10245c000400be006ff907000002be0018c0b300f4
:10246c006011b8000400be0047f9070000027800b4
:10247c00e00f5200010035000044eb00e04f540027
:10248c001a0032001e027800cfa2de000400be004b
:10249c0060f907000002be000400be00daf7070076
:1024ac00000278006123b9004f3add00c132de0032
:1024bc00850272004f32dd000400be0055f90700a2
:1024cc000002be000200200003f023000400be0046
:1024dc00fcf707000002be000400be002cf9070048
:1024ec000002be0004027800180037001e027800bb
:1024fc00cfa2de000400be0046f907000002be00b9
:10250c000400be00c0f7070000027800f5ff2700aa
:10251c0005a2b90004027800cfa2de000400be00c0
:10252c003cf907000002be000200200003f023006b
:10253c000400be00e4f707000002be000400be0069
:10254c0013f907000002be00040278002441880041
:10255c001e027800cfa2de000400be002df9070099
:10256c000002be0018c0b3006011b8000400be0029
:10257c0005f9070000027800e00f52000100350059
:10258c000044eb00e04f5400130032001e027800b0
:10259c006123b9004f3add00c132de0085027200c2
:1025ac004f32dd000400be001af907000002be0025
:1025bc000200200003f023000400be00c1f7070056
:1025cc000002be000400be00f1f807000002be00cd
:1025dc0004027800110037009e027800f4ff2700f7
:1025ec0004aab90004027800cfa2de000400be00e9
:1025fc0008f907000002be000200200003f02300cf
:10260c000400be00b0f707000002be000400be00cc
:10261c00dff807000002be000402780024418800a5
:10262c00e08120003ff7070014418000840078000f
:10263c00409428004806070014418000840078006c
:10264c00909428002f0607001441800004007800a5
:10265c007ff707000002be000400be00ccf80700a4
:10266c000002be0004027800040078004f047800d9
:10267c000080fa00000006000000fa0044ef27007a
:10268c00040c880044ef2700340c880044ef27002a
:10269c00640c880044ef2700940c88000080fa003a
:1026ac00000006000200fa000002eb00040f7800a4
:1026bc001c003700940c80000402e800940c880085
:1026cc00640c80000402e800640c8800340c800068
:1026dc000402e800340c8800040c80000402e800ba
:1026ec00040c8800803821005a090700950c8000e2
:1026fc00b4ff2000848f52000a003600f4ff200043
:10270c00940c8800f4ff2000640c8800f4ff200077
:10271c00340c8800f4ff2000040c88001400200006
:10272c00040f78001e027800e00f5200e1ff320027
:10273c001c003700940c80000402e900940c880003
:10274c00640c80000402e900640c8800340c8000e6
:10275c000402e900340c8800040c80000402e90037
:10276c00040c8800803821003a090700950c800081
:10277c0004072000848f52000a003e000002eb0088
:10278c00940c88000002eb00640c88000002eb0043
:10279c00340c88000002eb00040c88000002eb00f3
:1027ac00040f78001e027800e10f5200e1ff3200a6
:1027bc000080fa00000006000200fa000002eb00a4
:1027cc00040f78000082eb00040f78000b00370038
:1027dc001e027800940c88001e027800640c88009d
:1027ec001e027800340c88001e027800040c88004d
:1027fc0080382100170907001e0fe9001e0278001f
:10280c00e00f5200f2ff34000080fa0000000600d6
:10281c000200fa00000f78009e007800008420006f
:10282c00d0f9070000842000d4f9070000027800da
:10283c0084007800008420006005070080382100a7
:10284c00040907000080fa00000006000000fa00ee
:10285c00f4108000a2002000840078000084200086
:10286c00abf9070000842000c4f9070000027800cf
:10287c00840078000084200050050700f4108000cc
:10288c00a20020008400780000842000a0f907003a
:10289c0000842000b9f90700000278008400780059
:1028ac000084200045050700f4108000a2002000e1
:1028bc00840078000084200095f907000084200033
:1028cc00aef9070000027800840078000084200034
:1028dc003a050700f4108000a20020008400780064
:1028ec00008420008af9070000842000a3f9070067
:1028fc000002780084007800008420002f05070077
:10290c0022032000217d2800008420008ef907007e
:10291c000084200099f907000002780084007800f8
:10292c00008420002505070080382100c908070015
:10293c000084200091f907000002780084007800e0
:10294c00008420001d05070080382100c108070005
:10295c000084200089f907000002780084007800c8
:10296c00008420001505070080382100b9080700f5
:10297c000084200081f907000002780084007800b0
:10298c00008420000d05070080382100b1080700e5
:10299c000084200079f90700000278008400780098
:1029ac00008420000505070080382100a9080700d5
:1029bc000084200071f90700000278008400780080
:1029cc0000842000fd04070080382100a1080700c6
:1029dc000084200069f90700000278008400780068
:1029ec0000842000f50407008038210099080700b6
:1029fc000084200061f90700000278008400780050
:102a0c0000842000ed0407008038210091080700a5
:102a1c000080fa00000006000000fa0094f607009f
:102a2c00a4f6070000000000341080006102620070
:102a3c00e00f5200fcff3a0000cdb3002402070067
:102a4c000000000045108000040028000482620091
:102a5c00e00f5200fbff3a0085f6070050c7b300a9
:102a6c001b02070000000000451080000400280035
:102a7c0004826200e00f5200fbff3a007cf6070074
:102a8c000622a800000000000000000034108000a6
:102a9c0062026200e00f5200fcff3a0010cdb3005e
:102aac000b02070000000000451080000400280005
:102abc0004826200e00f5200fbff3a006cf6070044
:102acc000662a80000000000441080006202620050
:102adc00e00f5200fcff320073f6070077f6070098
:102aec00000000003410800064026200e00f52000d
:102afc00fcff3a000080fa00000006001a00fa0001
:102b0c00200f9800310f9800420f98000002eb0044
:102b1c00140798002e099000be09900062079800d7
:102b2c00730798006e02900005002000240798009f
:102b3c00350798007e0290000474a1000482fb000b
:102b4c0005002000c022dd00040020002e039000b0
:102b5c00be0390000602420087824a0024079800b8
:102b6c00350798002e039000be039000040020004f
:102b7c00050820000602420087824a0024079800bc
:102b8c00350798007e029000c722de0000c2eb00e1
:102b9c0084c2620014c8b30004c24200044f9800ff
:102bac000e4a9000f24f520010003400ce0a9000f2
:102bbc0094c4b300844a78004e0a90008402e80062
:102bcc00e4c6b300844a78004e0a90008482e80080
:102bdc0064c6b300844a78004e0a9000e3024200b7
:102bec000042eb00844a7800c40037000e4a900083
:102bfc00e34f420008003d00ce0a900004c3b3002e
:102c0c00844a78004e0a90008402e8000042eb00ef
:102c1c00844a7800b90037000002eb0014079800d2
:102c2c00fe0290000400280004826200e00f5200b3
:102c3c0006003200ce0a9000d4c2b300844a780059
:102c4c001e0290000402e800140798000e4a90003f
:102c5c000402fb00770312002e029000be029000cb
:102c6c00860178008301e900030033008502d1005e
:102c7c000482d300fbff3700540798001e0290001b
:102c8c00ce0a9000048342005e02900005002000f2
:102c9c00060178000400be009a0007000002eb0059
:102cac00040f78000a0037001e027800ce0a90004c
:102cbc000482420014427800e04f520003003a00b4
:102ccc001e02780014079800040037001e0fe8005d
:102cdc001e027800e70f5200f3ff34001e02900032
:102cec00e50f520084003c001e029000ce0a9000ba
:102cfc0084824200e4c2b300844a78001e02900031
:102d0c000402e800140798000e4a90000402fb002d
:102d1c00740312002e029000be0290000401be004b
:102d2c00860078008100e900030033008301d100a4
:102d3c000281d300fbff37000203be0074002000a9
:102d4c000500200006007800070378008403780053
:102d5c0005027800070060000402630005002000f3
:102d6c00c022dd00040020000403be006102b80094
:102d7c000403730085837300740020000500200099
:102d8c00840f5300858f5b0041003e0006600100fc
:102d9c00070037000d00370013003700190037000b
:102dac001f003700250037002b003700310037009b
:102dbc0004c3b3000457980004c3b300145798001d
:102dcc0004c3b300245798003100370014c3b30078
:102ddc000457980024c3b3001457980054c3b3008d
:102dec00245798002a00370024c3b30004579800d6
:102dfc0054c3b3001457980004c3b300245798006d
:102e0c002300370034c3b3000457980074c3b300d5
:102e1c001457980054c3b300245798001c00370073
:102e2c0054c3b3000457980004c3b300145798005c
:102e3c0004c3b300245798001500370064c3b300d3
:102e4c000457980024c3b3001457980054c3b3001c
:102e5c00245798000e00370074c3b3000457980031
:102e6c0054c3b3001457980004c3b30024579800fc
:102e7c000700370084c3b3000457980074c3b30031
:102e8c001457980054c3b300245798000000000056
:102e9c000002eb00040f78000e0037001e029000b9
:102eac00e60f52000a003c001e029000ce0a900071
:102ebc0084824200700247001e02420014427800d5
:102ecc00844a78001e0290000402e800140798005f
:102edc001e0fe8001e027800e20f5200efff3400d4
:102eec001e029000ce0a9000848242000042eb0049
:102efc00844a780001003700000000000080fa00ce
:102f0c00000006000c00fa00881f780030079800bb
:102f1c0041079800520798003e029000ce029000a4
:102f2c0014079800250798001e029000ae0290002e
:102f3c00e00f5200e08f5a0006003d003e02900068
:102f4c00ce02900060021200e0821a003407980052
:102f5c00450798000002eb00040f78001e02780071
:102f6c00de029000048442003e029000ce029000eb
:102f7c00a2002000030020000400be00fbf60700a6
:102f8c000002be00044278000443b000044c7800f8
:102f9c001e0fe8003e029000ce029000a20020001e
:102fac00030020000400be0068f607000002be000b
:102fbc0034079800450798003e029000ce0290001e
:102fcc00e00f5200e08f5a00e4ff3c001e0290001c
:102fdc00ae029000e00f5200e08f5a0006003d0058
:102fec001e027800de02900084824200d4c2b3003c
:102ffc00844a78001e0fe8001e027800de02900062
:10300c00848242000042eb00844a78005e0090000b
:10301c00030007004f0478000080fa00000006004f
:10302c000800fa00300798000002eb00040f78004b
:10303c003e009000d1f70700000278000402e9007e
:10304c0014079800160037001e027800be0290008c
:10305c000482420094427800454798001e02780092
:10306c00be029000848242001e0290003e0390003b
:10307c000402430014427800844a78001e02900037
:10308c00be02900004824200ce429000054a7800b5
:10309c001e0fe8001e0290000402e90014079800bd
:1030ac001e0290009e027800848f5200e6ff3500cd
:1030bc000080fa00000006000400fa000002eb0099
:1030cc00040f780020032000d80607000002eb0054
:1030dc0014079800e3020700000278001407980018
:1030ec009e02900084062000848f52000b003a0050
:1030fc00cb22a800cb42a9009e007800408028007b
:10310c008003070065020700000278008400780045
:10311c00e08228007b030700160037008a010700b5
:10312c009e00900020832800760307005b020700b6
:10313c000002780084007800e08228007103070008
:10314c001e0fe8009e007800d08328006d03070056
:10315c001e027800e50f520006003a000002eb0058
:10316c00040f7800ca62a800cb22a900803e200080
:10317c00ae0607000080fa00000006000000fa000e
:10318c00b80207000002780085062000850f520067
:10319c0003003a00cb22a800ca62a9000200370043
:1031ac00cb22a900ca62a8000080fa000000060029
:1031bc000c00fa00ab020700000278008506200024
:1031cc00850f520016003a00ea02470068024700d9
:1031dc0066004700e40347000e83e8008001780096
:1031ec0007017800860078000e007800a402070022
:1031fc00ce0390003e0390009e0290001e027800c9
:10320c0087017800060178008500780004007800ba
:10321c00b6040700cb42a900ca62a8000900370017
:10322c0090020700000278008400780030842800a7
:10323c0034030700ca42a900803e20007b06070029
:10324c00410107000080fa00000006000200fa00ad
:10325c000002eb00040f7800040037009e00780099
:10326c00c0852800270307001e0fe800f470220019
:10327c009e027800848f5200f8ff34000080fa0020
:10328c00000006000200fa000002eb00040f7800b8
:10329c00090037001e027800940c8800940c800002
:1032ac00640c8800640c8000340c8800340c8000a2
:1032bc00040c88001e0fe800f4e124009e02780044
:1032cc00848f5200f3ff34000080fa0000000600e7
:1032dc000200fa00004f78009e4278000582fb0045
:1032ec00141088000000000044108000610262008d
:1032fc00e00f5200fcff3a000080fa0000000600cc
:10330c000000fa0004022000040988000457200081
:10331c00e40888000002eb00c408880086c0a900fd
:10332c0021e1a9008ec0a90021e1a8000080fa00cb
:10333c00000006000000fa000602a800f0ff0700db
:10334c0086c0a900000000003410800061026200f9
:10335c00e00f520005003200350480000404200008
:10336c0004826200e00f5200f7ff320021e1a90055
:10337c00350480000404200004826200e00f520037
:10338c000200320020872800080307000002eb002f
:10339c00040078000080fa00000006000000fa002b
:1033ac000622a800d6ff070086c0a9000000000076
:1033bc003410800062026200e00f520005003200ff
:1033cc00350480000404200004826200e00f5200e7
:1033dc00f7ff320021e1a90035048000040420002d
:1033ec0004826200e00f520002003200d0882800f4
:1033fc00ee0207000002eb00040078000080fa00e7
:10340c00000006000000fa000642a800bcff0700fe
:10341c0086c0a90000000000341080006402620025
:10342c00e00f520005003200350480000404200037
:10343c0004826200e00f5200f7ff320021e1a90084
:10344c00350480000404200004826200e00f520066
:10345c0002003200a08a2800d40207000002eb0010
:10346c00040078000080fa00000006000200fa0058
:10347c00004f78009e4278000582fb0014108800f3
:10348c009fff070086c0a9000000000044108000c8
:10349c0061026200e00f520005003200350480002a
:1034ac000404200004826200e00f5200f7ff320097
:1034bc0021e1a9003504800004042000048262008c
:1034cc00e00f520002003200508c2800b7020700b7
:1034dc000002eb00040078000080fa0000000600f7
:1034ec000000fa0086ff070086c0a900000000005b
:1034fc00451080000400240004826200e00f52009a
:10350c0005003200350480000404200004826200af
:10351c00e00f5200f6ff320021e1a90035048000d3
:10352c000404200004826200e00f5200020032000a
:10353c00108e28009d0207000002eb0004007800aa
:10354c000080fa00000006000000fa004410800021
:10355c000482ea004f22de00040078000080fa00aa
:10356c00000006000000fa0006a2a8000682a800cf
:10357c00000000003410800070026200e00f520066
:10358c00fcff3a0006a2a9000002eb000400780040
:10359c000080fa00000006000000fa0006a2a90054
:1035ac000682a80000000000341080007002620047
:1035bc00e00f5200fcff3a000002eb000400780020
:1035cc000080fa00000006000000fa000662a80065
:1035dc00000000004410800062026200e00f520004
:1035ec00fcff320004108000040078000080fa0018
:1035fc00000006000000fa000662a800100020007f
:10360c00940507000000000034108000680262007e
:10361c00e00f5200fcff3a00140020000400780078
:10362c000080fa00000006000400fa00000f780089
:10363c002147980011003700e3ff070000027800d3
:10364c00044278009e027800844a78001e0fe8003d
:10365c00451080000440200004826200e00f5200fc
:10366c00020032000082eb000f0037002e42900067
:10367c00e04f520001003200c7ff07002e429000bd
:10368c000482fb000402ea004f22de0004427800b0
:10369c00ae4290008542e90025479800e04f520069
:1036ac00e5ff3a000002eb00040078000080fa000d
:1036bc00000006000200fa00004f780088ff0700a7
:1036cc001cff070000cdb30068ff070084ff070054
:1036dc001e40780065ff070081ff07002fff0700e1
:1036ec0010cdb30061ff07007dff0700c1ff07008d
:1036fc009cff070043ff07000410800004007800c3
:10370c000080fa00000006000200fa00004f78006a
:10371c001147980007ff070000cdb30053ff0700c7
:10372c006fff07001e40780050ff07006cff07007a
:10373c001e4090004dff070069ff070031ff070096
:10374c000080fa00000006000000fa00f1c0b3008f
:10375c0090c1b300ecff070011c0b300b0c6b300ba
:10376c00e9ff070011c0b300b0c1b300e6ff0700ca
:10377c0011c0b300c0c1b300e3ff07000080fa0022
:10378c00000006000600fa00889fbe001007980093
:10379c00210798001e009000240507000002eb0092
:1037ac00040f780055003700a900070000027800cc
:1037bc00cfa2de000400be0096f407000003be009a
:1037cc00744c8000854c80000401be000600be00d5
:1037dc003df307000002be00144c8800254c880005
:1037ec00ae00070000027800cfa2de000400be008d
:1037fc0088f407000003be00944c8000a54c8000a8
:10380c000401be000600be002ff307000002be003c
:10381c00344c8800454c8800b30007000002780047
:10382c00cfa2de000400be007af407000003be0045
:10383c00b44c8000c54c80000401be000600be00e4
:10384c0021f307000002be00544c8800654c880030
:10385c00b800070000027800cfa2de000400be0012
:10386c006cf407000003be00744c8000854c800093
:10387c000401be000600be0013f307000002be00e8
:10388c00744c8800854c8800bd000700000278004d
:10389c00cfa2de000400be005ef407000003be00f1
:1038ac00944c8000a54c80000401be000600be00b4
:1038bc0005f307000002be00944c8800a54c88005c
:1038cc00c200070000027800cfa2de000400be0098
:1038dc0050f407000003be00b44c8000c54c8000bf
:1038ec000401be000600be00f7f207000002be0095
:1038fc00b44c8800c54c88001e0fe8002e029000c6
:10390c009e027800848f5200a7ff3500184c80006f
:10391c00294c80002e029000cfa2de000400be00d5
:10392c003cf407000002be000401be000800be000b
:10393c00c4f307000002be00144c8800254c88001c
:10394c00384c8000494c80002e029000cfa2de0043
:10395c000400be002ff407000002be000401be00ec
:10396c000800be00b7f307000002be00344c88000c
:10397c00454c8800584c8000694c80002e02900009
:10398c00cfa2de000400be0022f407000002be003d
:10399c000401be000800be00aaf307000002be002e
:1039ac00544c8800654c8800784c8000894c800011
:1039bc002e029000cfa2de000400be0015f407001a
:1039cc000002be000401be000800be009df307000b
:1039dc000002be00744c8800854c8800984c800016
:1039ec00a94c80002e029000cfa2de000400be0085
:1039fc0008f407000002be000401be000800be006f
:103a0c0090f307000002be00944c8800a54c88007f
:103a1c00b84c8000c94c80002e029000cfa2de0072
:103a2c000400be00fbf307000002be000401be0050
:103a3c000800be0083f307000002be00b44c8800ef
:103a4c00c54c88004f04be000080fa000000060040
:103a5c000400fa000002eb00040f78000002eb00f7
:103a6c0014079800b0c3b30012ff070000027800df
:103a7c0014079800c0c3b3000eff070000027800c3
:103a8c00040f78001e0290004822dd001e02420046
:103a9c00040078000080fa00000006000400fa0020
:103aac000002eb00040f78000002eb0014079800f2
:103abc00d0c3b300fffe0700000278001407980083
:103acc00e0c3b300fbfe070000027800040f78008f
:103adc001e0290004822dd001e0242000400780005
:103aec000080fa00000006000400fa000002eb005f
:103afc00040f78000002eb0014079800f0c3b30029
:103b0c00ecfe0700000278001407980000c4b30014
:103b1c00e8fe070000027800040f78001e029000f7
:103b2c004822dd001e024200040078000080fa00ea
:103b3c00000006000400fa000002eb00040f7800fd
:103b4c000002eb001407980030c4b300d9fe070044
:103b5c00000278001407980040c4b300d5fe07009b
:103b6c0000027800040f78001e0290004822dd004d
:103b7c001e024200040078000080fa0000000600db
:103b8c000400fa000002eb00040f78000002eb00c6
:103b9c001407980050c4b300c6fe0700000278005a
:103bac001407980060c4b300c2fe0700000278003e
:103bbc00040f78001e0290004822dd001e02420015
:103bcc00040078000080fa00000006000400fa00ef
:103bdc000002eb00040f78000002eb0014079800c1
:103bec0070c4b300b3fe07000002780014079800fd
:103bfc0080c4b300affe070000027800040f780009
:103c0c001e0290004822dd001e02420004007800d3
:103c1c000080fa00000006000400fa000002eb002d
:103c2c00040f78000002eb001407980010c4b300d6
:103c3c00a0fe0700000278001407980020c4b3000f
:103c4c009cfe070000027800040f78001e02900012
:103c5c004822dd001e024200040078000080fa00b9
:103c6c00000006000000fa0050c7b30091fe0700e8
:103c7c0000027800040078000080fa0000000600c2
:103c8c000c00fa00000f780011079800220798002a
:103c9c003307980044079800550798006cff0700fd
:103cac00000278009e027800840a78007bff0700ef
:103cbc00000278009e029000840a78008aff0700b8
:103ccc0000027800ae029000840a780099ff070089
:103cdc0000027800be029000840a7800a8ff07005a
:103cec0000027800ce029000840a7800b7ff07002b
:103cfc0000027800de029000840a78000080fa004e
:103d0c00000006000000fa00d4002000d410880047
:103d1c0000000000c5108000041020000482620026
:103d2c00e00f5200fbff3200a4002000d4108800ea
:103d3c0000000000c5108000041020000482620006
:103d4c00e00f5200fbff32000080fa00000006007a
:103d5c000600fa0010079800210798000042eb00bb
:103d6c00044f78000e0037009e4278000582fb005d
:103d7c009e02900004824200144278000402fb0070
:103d8c00d410880000000000c51080000410200032
:103d9c0004826200e00f5200fbff32001e4fe8006d
:103dac001e4278008482fb002e029000848f520009
:103dbc00edff35000080fa00000006000400fa0058
:103dcc00000f7800110798009e0090001e007800ec
:103ddc00dfff0700cbff07000080fa0000000600a1
:103dec000600fa0010079800210798000042eb002b
:103dfc00044f78000e0037009e4278000582fb00cd
:103e0c009e02900004824200144278000482fb005f
:103e1c00d410880000000000c510800004102000a1
:103e2c0004826200e00f5200fbff32001e4fe800dc
:103e3c001e4278008482fb002e029000848f520078
:103e4c00edff35000080fa00000006000400fa00c7
:103e5c00000f7800110798009e0090001e0078005b
:103e6c00dfff0700a7ff07000080fa000000060034
:103e7c000400fa00100798001e029000040fe900dd
:103e8c001a0037001e02780084024200848220004f
:103e9c000482420014027800a20020008400780002
:103eac00008420001af407000084200033f407007b
:103ebc00000278008400780000842000a4ff070032
:103ecc002200200021952800008420001ef4070009
:103edc000084200029f40700000278008400780098
:103eec00008420009aff07001e0fe9001e027800d4
:103efc00e00f5200e3ff3d0082ff07000080fa0054
:103f0c00000006000400fa00000f7800110798006a
:103f1c001e00780019f40700000278008400780075
:103f2c001e0078008aff0700a20020009e0090006f
:103f3c0000842000f6f30700008420000ff4070033
:103f4c000002780084007800008420009bff0700aa
:103f5c000080fa00000006000400fa00000f780050
:103f6c00110798001e00780004f407000002780086
:103f7c00840078001e00780075ff0700a200200066
:103f8c009e00900000842000e1f3070000842000d4
:103f9c00faf3070000027800840078000084200007
:103fac006bff07000080fa00000006000200fa0018
:103fbc00000f78001e007800f0f307000002780074
:103fcc00840078001e0078007cff07000080fa0057
:103fdc00000006000200fa00000f78001e007800b6
:103fec00e6f3070000027800840078001e007800d9
:103ffc0057ff07000080fa00000006003600f800aa
:10400c00809fbe00829fbe00849fbe00869fbe0024
:10401c000200fa00a64e8000e410800004427800f2
:10402c00259a200085024300844a7800a54e800022
:10403c0004032000848f520003003c00a44e800037
:10404c000402e800a44e8800a44e80008402e9001b
:10405c00249a2000048242009442780034c2b300b7
:10406c0084cf520013003a00a44e80000402e900f1
:10407c00a44e8800209a2000170007000002eb00d5
:10408c00040f780005003700249a20009e0242009d
:10409c0004c2b300844a78001e0fe8001403200009
:1040ac009e027800848f5200f7ff34000002eb0070
:1040bc00a44e88008700a9001822a9000080fa00ed
:1040cc004f03be004f02be004f01be004f00be00aa
:1040dc003600f900004006002600fa002017980070
:1040ec000002eb00040f78000002eb0014079800ac
:1040fc000002eb00240798001e027800e30f520028
:10410c00470034001e027800ae1290000482420078
:10411c009442780064c2b30084cf52003b0032005a
:10412c002e029000e00f520008003a001e027800a8
:10413c00ae129000048242001442780066034700dd
:10414c009e02900085024300844a78002e02900063
:10415c00e10f520008003a001e027800ae129000e7
:10416c0004824200144278006c0347009e029000c7
:10417c0085024300844a78002e029000e20f520020
:10418c0008003a001e027800ae1290000482420031
:10419c0014427800720347009e029000850243008f
:1041ac00844a78002e029000e30f520008003a0077
:1041bc001e027800ae129000048242001442780075
:1041cc00780347009e02900085024300844a7800e1
:1041dc002e029000e40f520008003a001e027800f4
:1041ec00ae12900004824200144278007e03470015
:1041fc009e02900085024300844a78001e029000c3
:10420c000402e80014079800050037002e02900005
:10421c000402e800240798000002eb001407980041
:10422c001e0fe8001e027800ae12900004824200bd
:10423c009442780034c2b30084cf5200aeff3a00ef
:10424c006602470004007800f8f2070000027800cc
:10425c00744a88006c02470004007800f3f20700ef
:10426c0000027800944a880072024700040078002b
:10427c00eef2070000027800844a880078024700ba
:10428c0004007800e9f2070000027800a44a8800d4
:10429c007e02470004007800e4f207000002780078
:1042ac00b44a8800409528004aff07006602470080
:1042bc0004007800ddf2070000027800840078002a
:1042cc00a096280024ff07006c0247000400780029
:1042dc00d6f207000002780084007800d0962800ff
:1042ec001dff07007202470004007800cff20700a0
:1042fc0000027800840078001097280016ff070051
:10430c007802470004007800c8f207000002780029
:10431c0084007800509728000fff07007e024700aa
:10432c0004007800c1f207000002780084007800d5
:10433c0010982800f3fe07000080fa000000060029
:10434c000600fa0010079800210798000042eb00c5
:10435c00044f7800240037009e4278000582fb0051
:10436c00040242009e029000048242001402780073
:10437c0004427800144798001e4290000402fb008f
:10438c00d410880000000000c5108000041020002c
:10439c0004826200e00f5200fbff32009e42780064
:1043ac000582fb00040242009e029000048242003f
:1043bc001402780048a2de000442780014479800ea
:1043cc001e4290000402fb00d41088000000000084
:1043dc00c51080000410200004826200e00f52001f
:1043ec00fbff32001e4fe8001e4278008482fb0067
:1043fc002e0290000482d100848f5200d6ff35002b
:10440c000080fa00000006000a00fa00400798003d
:10441c00b4da2c00140798004400200024079800fc
:10442c004e0290003407980064002000040f7800be
:10443c000e82e8009e0078000400780044fe07001d
:10444c000080fa00000006000e00fa0050079800e9
:10445c0061079800b4da2c0014079800440020007f
:10446c00240798005e029000340798006e029000ba
:10447c004407980084002000040f78000e82e800a6
:10448c009e0078000400780031fe07000080fa00de
:10449c00000006001200fa006007980071079800ef
:1044ac00020f9800b4da2c00140798006400200066
:1044bc00240798006e029000340798007e0290004a
:1044cc00440798000e0a900054079800a40020009e
:1044dc00040f78000e82e8009e007800040078003b
:1044ec001bfe07000080fa00000006001600fa0010
:1044fc0070079800010f9800120f9800230f980076
:10450c00b4da2c00140798008400200024079800cb
:10451c007e029000340798000e0a90004407980021
:10452c001e0a9000540798002e0a90006407980009
:10453c00c4002000040f78000e82e8009e00780072
:10454c000400780002fe07000080fa00000006005c
:10455c000000fa000002eb00243a8800a0002000c2
:10456c00bc0107000082eb0044158800a00020006d
:10457c00b80107000082eb0004168800a0002000a0
:10458c00b4010700049f2f0034168800a0002000ff
:10459c00b00107000082eb0064168800a000200028
:1045ac00ac01070004ff2b0094168800a00020002b
:1045bc00a8010700c4fd2f00f4168800a0002000fd
:1045cc00a40107000002eb0014168800a0002000d4
:1045dc00a00107000002eb0044168800a000200098
:1045ec009c0107000002eb0074168800a00020005c
:1045fc00980107000002eb00a4168800a000200020
:10460c00940107000002eb0004178800a0002000b2
:10461c00900107000080fa00000006000000fa007c
:10462c0000352c008b0107000040eb005101070006
:10463c00c40320002410880007a2a9000000000079
:10464c000782a800000000000762a900000000001b
:10465c000742a900000000000722a900000000008a
:10466c000702a9000000000006e2a90000000000fb
:10467c0006c2a9000000000006a2a900000000006c
:10468c000682a900000000000662a90000000000dc
:10469c000642a900000000000622a900000000004c
:1046ac000602a900000000000040eb0031010700e9
:1046bc0007e2a80024fc07000080fa0000000600b6
:1046cc000400fa008401a900000000008421a90064
:1046dc00000000008441a900000000008461a900d2
:1046ec00000000008a01a900000000008a21a90036
:1046fc00000000008a41a900000000008a61a900a6
:10470c00000000009001a900000000009021a90009
:10471c00000000009041a900000000009061a90079
:10472c00000000009601a900000000009621a900dd
:10473c00000000009641a900000000009661a9004d
:10474c000000000011e1a9000000000011a1a90067
:10475c000000000010c1a900000000001021a900f9
:10476c00000000001061a9000000000084c0a90036
:10477c0000000000f4ff2b00040f78000002eb0097
:10478c00140798001e027800140888001e0290007e
:10479c00040c88001e027800640888001e02900039
:1047ac00340c88001e027800740888001e029000e9
:1047bc00640c88001e027800d40888001e02900049
:1047cc00940c88008401a900000000008421a8003a
:1047dc00000000008441a800000000008a01a9002c
:1047ec00000000008a21a800000000008a41a800f7
:1047fc00000000009001a900000000009021a8001a
:10480c00000000009041a800000000009601a900e3
:10481c00000000009621a800000000009641a800ae
:10482c0000000000840880000440a1000450a10096
:10483c0084088800000000000002eb00040c8800d3
:10484c000002eb00340c88000002eb00640c8800c2
:10485c000002eb00940c880011e1a8000080fa0023
:10486c00000006000000fa0017e2a800000000009b
:10487c00000000000000000019e2a9000000000088
:10488c00c41080000460a1000470a100c410880052
:10489c0000000000b41080000410a1000420a1004e
:1048ac00b4108800000000001602a90000000000ef
:1048bc0016a2a90000000000f4002000f4108800eb
:1048cc00000000001942a800000000008700a900a9
:1048dc00000000008720a900000000008f00a80045
:1048ec00000000008f20a900000000000080fa00ea
:1048fc00000006000000fa00ca02a800ca22a800a4
:10490c00cb42a800ca62a800ca42a800cb22a800c9
:10491c000080fa00000006000000fa00ca02a9009c
:10492c00ca22a900cb42a900ca62a900ca42a900a6
:10493c00cb22a9000080fa00000006001000fa004b
:10494c0070079800143a8000040f7800f48f2f0041
:10495c001e0f62001e02780048a2de00040f7800d1
:10496c007e02900005002000760020000700200049
:10497c00860f5200878f5a0068003e0004600100c9
:10498c00070037000b0037000f003700130037000b
:10499c0064003700630037006200370014003700f2
:1049ac009e0278007e02900004827200040f780050
:1049bc00140037009e0278007e0290000482720080
:1049cc00040f78000f0037009e0278007e029000e2
:1049dc0004827200040f78000a0037009e027800ef
:1049ec007e02900004827200040f780005003700ec
:1049fc009e0278007e02900004827200040f780000
:104a0c000000000084c7b30024479800a4c9b30079
:104a1c0034479800247420000402e800240798000e
:104a2c00140280004522de00674262000482fb0013
:104a3c00340798009402800044079800ff3ffc0064
:104a4c00140280000450a0000460a0000470a000b8
:104a5c00140288004e029000940288000000880026
:104a6c002e0390002e429000be4290009e037800d0
:104a7c00044b7800054b7800074b780064c4b300f6
:104a8c002447980074c5b300344798002474200060
:104a9c0024079800143a8000044278000404a00013
:104aac00244f9800ae0390002e429000be4290001e
:104abc002e4b9000844b7800854b7800864b780009
:104acc0000000000143a800061026200e00f520006
:104adc00fcff3a009402800064079800ff3ffc0042
:104aec003e02900004427800674262000482fb00a0
:104afc00670262004522dd0016028000f5f12f00ee
:104b0c008502630004827200140288006e02900019
:104b1c0094028800000088000300370000000000a9
:104b2c0001003700000000000080fa0000000600c1
:104b3c000200fa000002eb00040f780001003700bd
:104b4c001e0fe800140320009e027800848f520090
:104b5c00fbff34000040eb00060007007000200053
:104b6c0076ff0700c05d20003a0007000080fa00c5
:104b7c00000006000200fa00004f7800040120003b
:104b8c002408880004e62000140888000002eb00ca
:104b9c00040888008460a90005e1a8009e42780002
:104bac0061c262000482fb00610262004322dd00ec
:104bbc006604800075ff2f0085026300048272007a
:104bcc00640488001e427800e04f520006003a0050
:104bdc00000000002404800068026200e00f520014
:104bec00fcff320005e1a9000080fa00000006007d
:104bfc003600f800809fbe00829fbe00849fbe00de
:104c0c00869fbe000000fa0010c0b300d9ff070059
:104c1c000080fa004f03be004f02be004f01be00e1
:104c2c004f00be003600f900004006000200fa00fa
:104c3c00000f78000040eb00ceff07001e0fe900cc
:104c4c001e027800e00f5200faff3d000080fa00cf
:104c5c00000006000200fa00000f78000200370086
:104c6c00000000001e0fe9001e027800e00f520049
:104c7c00fbff3a000080fa00000006000200fa0078
:104c8c00000f780004022000940888009e0278002f
:104c9c00041d200004aab9000402780074088800de
:104cac000002eb005408880084e0a90013e1a9007d
:104cbc008ce0a8000080fa00000006000000fa005a
:104ccc0013e1a8000080fa00000006000000fa00c2
:104cdc0013e1a9000080fa00000006003600f8007d
:104cec00809fbe00829fbe00849fbe00869fbe0038
:104cfc000000fa0084e0a9005416800064026200ef
:104d0c0004f0a7000402ea000402e9004f22de00ce
:104d1c00044278000482fb00610262004222dd0042
:104d2c0056168000b5ff2f008502630004827200c6
:104d3c00541688009af107000080fa004f03be0059
:104d4c004f02be004f01be004f00be003600f900fe
:104d5c00004006000000fa0086c0a9000080fa009e
:044d6c0000400600fd
:020000040000fa
:104d7000440900005e000000020000000000000086
:104d80000000000000000000000100000100010020
:104d900000d85900d8590100000000008fc2f5006a
:104da0003c8fc200f53c6f0012033b000000800006
:104db0003f00000000000000000000000000800034
:104dc0003f000000c842000000000000000000009a
:104dd00000000000000000000000000000000000d3
:104de00000000000000000000000000000000000c3
:104df00000000000000000000000000006080000a5
:104e00003e01000000000000000800000600000055
:104e100000000000fa0f0000060000000000000083
:104e2000a20900003400000000000000d6090000c4
:0c4e300002000000000000000000000074
:020000040000fa
:0200000401f009
:04000000e3390000e0
:020000040000fa
:0200000401f009
:04000400ff7f00007a
:020000040000fa
:0200000401f009
:040008006c7f000009
:020000040000fa
:0200000401f009
:04001400ffff0000ea
:020000040000fa
:0200000401f009
:04001800feff0000e7
:00000001FF
