:020000040000fa
:080000000001040000000000f3
:020000040000fa
:100008009c0100009c0100009c0100009c01000074
:100018009c0100009c0100009c0100009c01000064
:100028009c0100009c0100009c010000d2220000fd
:100038009c0100009c0100009c0100004822000077
:100048009c0100009c0100009c0100009c01000034
:100058009c0100009c0100009c0100009c01000024
:100068009c0100009c0100009c0100009c01000014
:100078009c0100009c010000940100009c0100000c
:10008800c61700009c0100009c0100009c010000b4
:100098009c0100009c0100009c0100009c010000e4
:1000a8009c0100009c0100009c0100009c010000d4
:1000b8009c0100009c0100009c0100009c010000c4
:1000c8009c0100009c0100009c0100009c010000b4
:1000d8009c0100009c0100009c0100009c010000a4
:1000e8009c0100009c0100009c0100009c01000094
:0800f8009c0100009c010000c6
:020000040000fa
:100108009c0100009c0100009c0100009c01000073
:100118009c0100009c0100009c0100009c01000063
:100128009c0100009c0100009c010000d2220000fc
:100138009c0100009c0100009c0100004822000076
:100148009c0100009c0100009c0100009c01000033
:100158009c0100009c0100009c0100009c01000023
:100168009c0100009c0100009c0100009c01000013
:100178009c0100009c010000940100009c0100000b
:10018800c61700009c0100009c0100009c010000b3
:100198009c0100009c0100009c0100009c010000e3
:1001a8009c0100009c0100009c0100009c010000d3
:1001b8009c0100009c0100009c0100009c010000c3
:1001c8009c0100009c0100009c0100009c010000b3
:1001d8009c0100009c0100009c0100009c010000a3
:1001e8009c0100009c0100009c0100009c01000093
:0801f8009c0100009c010000c5
:020000040000fa
:100200004f9220000eff20000e0188000000000029
:1002100000012000200288000c000700403022006e
:100220000100200011000700000020000000e00095
:100230000200320000000200000000003421020031
:10024000000000000040da000000fe004440a90069
:10025000601e20000000e0000300320000002000cb
:10026000a00188004440a800000006009101880019
:10027000800078000000eb0015003700e2804000ad
:1002800032a0b4009101ba00e280400032a0b40074
:100290009102ba00e280400032a0b4000002eb00fc
:1002a000472bde00f507b200602ce10004003a00a5
:1002b0000059eb008301e900fdff3e000400370018
:1002c0006128e100010032000082eb000400070019
:1002d0001101ba000200e000e8ff3a000000060049
:1002e0003159ba008301e9000c0032002159ba00eb
:1002f0008301e900080032000400e00003003a0036
:10030000e280400032a0b400f5ff370011d9ba00f6
:100310008301e900faff3a008100e800e180400033
:1003200032a0b400000006000000fa0086c0a90058
:100330000080fa00004006000040da000000fe00e5
:10034000040024000602ab00feff3a000642ab00a8
:10035000fcff3a000662ab00faff3a000682ab00ef
:10036000f8ff3a004610800086026200e08f5200db
:10037000f4ff3a000000060006a2a8000682a800ca
:10038000000006000602a800000006000642a800c1
:100390000000060003f0a200889fbe008a9fbe00f6
:1003a0008c1f7800aa010700b10133006450e100fe
:1003b0004f0032006420e1005200320003826c00e2
:1003c00007003b000905d0000306d000820f54004f
:1003d0000c065d000200390002003200890178003d
:1003e000030678008582550004003d000003fd00ef
:1003f0008103fd008502ea008b854200840f7200b4
:1004000002003b0060001000e08018006011b8009e
:100410000005eb007a28e1000a00390006007800a8
:10042000c75ddd00f707b200878075002d0037003b
:10043000828171000a017800610560008180d1002d
:100440000080d3008502e900f9ff3b00060440006c
:100450008784480002003b0060041400e0841c0014
:100460000988a300070032008a817100828171002f
:10047000610164008904d1000884d3008b05e80081
:10048000170037000978a30013003a000b00e000c2
:10049000130034008b05e9000804440089844c00f3
:1004a0000a4474000978a3000d003a000b00e00034
:1004b000070034008b05e9000804440089844c00df
:1004c00001003a000b0020000978a300f7ff32007a
:1004d0000001eb0002003700828171000a01780000
:1004e000200107000cf0a70001f0a000690137000f
:1004f0006420e10002003a00838f6c006901330040
:100500000801be000200be0062013700889fbe00e5
:100510008a9fbe008c1f78004d010700100220004a
:1005200002003b0010498800510137008a00620038
:100530006408e10002003a001049880059013700c0
:100540006108e100fcff32000800be0003047800ef
:100550007000070001f0a1000900070008f0a600e4
:10056000040037000001be0091042400b0fd20000b
:1005700088ff070009f0a70001f0a200450137003d
:10058000889fbe008a9fbe008c9fbe000004be00f4
:100590001a0107000800be00890678006420e10007
:1005a00008003900040032000160a000120220009f
:1005b000124988005300370091fc2300b0fd200051
:1005c0004e0037000006eb0009f0a10003f82300fd
:1005d000020020000800be009f0007000600340053
:1005e00001f82300000020000801be0049000700b8
:1005f0000004be002c0020000800be0093e8230089
:10060000320a230094000700120034000801be00e3
:10061000d1fd2300703d2b005fff07000005be00e9
:10062000b3f32300f27a26000800be002f01070072
:1006300003f823000200200056ff07000801be0057
:1006400055ff07000a01be00320007000004be008b
:100650000c06e8000800be0001f0a1000200200026
:10066000039823007c0007000800be001600350038
:100670000801be001d0107000005be0032cd2c00a0
:1006800043fb230044ff0700809fbe00126928003f
:1006900003d52b000a00be0014010700620f2100e1
:1006a00013ef2b003cff07000a01be000f010700fb
:1006b0004f01be00170007000801be000b01070034
:1006c0000801be0034ff07000c00e0000b00320000
:1006d0000c10a70001f0a200b2fd200093fc230043
:1006e0006260e1000400320022a9200063f02300d0
:1006f0000c10a70063f8230027ff07000df0a700e8
:1007000001f0a2004f06be004f05be004f04be0020
:1007100000000600889fbe008a9fbe008c1f7800e4
:10072000cb000700d200330003866c006450e10068
:100730002e0032006420e100330032006150e100fd
:100740002f0032006120e100310032008585550024
:10075000eb07b00009002000080420000500370066
:100760000804440089844c000a0031000603430059
:1007700087834b000001530081815b00f8ff330049
:100780000203be000800a0000804440089844c0055
:10079000f6ff3900c639dd00830173000100320025
:1007a000130020008904d1000884d3000998a30015
:1007b000050032000800a7000300a0008904d10052
:1007c0000884d3008b05e8008904d1000884d30095
:1007d0000001eb000281d2006200070001f0a100dd
:1007e0000cf0a70001f0a000aa0037006420e1008f
:1007f000ac0032000801be000200be00f7ff370067
:100800006120e100a70032006000b800f3ff37006c
:100810000000200001f82700f0ff3700839f6800e8
:100820000100e00002003d0060001000e0801800c0
:100830000300e00002003d0060011100e0811900aa
:10084000de0007004f00e00002003b0060001000e7
:10085000e08018000000060014002000ea003700c5
:10086000f4ff2f00e80037000001be00630007001e
:100870000470a70003f0a1006509b1001600320062
:100880000d0035006828e10006003500f0ff2f005c
:10089000f1ff27000300e00013003b0001002800e7
:1008a0000000050000004000818048008502e9004a
:1008b000fcff3a0008003700f88f420002003c00bd
:1008c0008000eb00000005008100d1000080d30013
:1008d0008502e800fcff3a000300e00002003b0054
:1008e00060001000e0801800000006000001be005b
:1008f000420007000470a70003f0a10003f8a30062
:1009000013003a006509b1001000320009003500fb
:100910006928e10002003500010028000000050000
:1009200000004000818048008502e900fcff3a0099
:1009300000000600f88f4200050035008100d1005c
:100940000080d3008502e800fcff3a0000000600aa
:100950008000eb00000005004f89de008201780076
:10096000c400370081002000618055000b003d006d
:100970000b00200061fe2f000100e1001d0034008b
:1009800082817100610164008904d1000884d30070
:100990000000e800faff3a007100200061006400e6
:1009a000030070000200600009003200610444008e
:1009b000e0844c000988a500050032008b05e800a2
:1009c0006808e10002003a008904d1000884d300dd
:1009d000f20f20000258e10005003d00c75ddd0078
:1009e000f907b20089807500080078000000060051
:1009f0000bf827008b00780000000500c70ade0016
:100a0000f107b200f50fb20008003200e1cf42005a
:100a1000020032000170a00024000500810f700068
:100a2000010032000408050044000500810f700039
:100a300002003a00140005008502e90000004000b1
:100a400081c04800fcff3b000170a00024000500ad
:100a50000004be00e9ff07000003be000405be005d
:100a60000200be00e5ff0700844f7500000006008d
:100a70000200be006450e100050036006420e10081
:100a8000020036000968a30001003a000800be0019
:100a90000160a0004f0678004f05be004f04be0065
:100aa00000000600f0ff2f00f1ff2700f9ff3700dc
:100ab000811f78000100e00002003d00600010008e
:100ac000e08018000300e00002003d00600111001a
:100ad000e0811900490007004f00e00002003b00e0
:100ae00060001000e080180000000600889fbe0033
:100af0008a9fbe008c1f7800d5ff0700dcff330003
:100b000003866c006450e100240032006420e100a0
:100b1000270032006150e100220032006120e10034
:100b2000210032008b854200eb07b1000134b80090
:100b3000003ab8000804420089844a00013ab8002b
:100b40000030b8008880400009014a0004003300ea
:100b50000000400081804800020149008b05e90047
:100b6000c909dd008301700001003200130020007c
:100b7000c814de004814dd004709de001200b20090
:100b8000c808de000884700076ff070001f0a100ad
:100b90000cf0a70001f0a000beff37006120e100cb
:100ba000c0ff32000801be000200be00f7ff3700a0
:100bb0006150e100fcff3a00baff37006022b80044
:100bc000060220000000d0008180d2000482d20002
:100bd0008582d2000000a0000202520083825a00e7
:100be000030031000202420083824a000000a1009b
:100bf0000603e900f3ff3a0000000600efff0700dc
:100c00000400be0000000600889fbe008a9fbe0050
:100c1000841f78008eff07004f007800110033001a
:100c2000f0ff2f00838f6c0006003b000405650079
:100c30000a00a7000800370009f0a60010002000f5
:100c400008003700820f5400838f5c0003003900d6
:100c50001000200001003e000000200009f0a70065
:100c60000000ea004f05be004f04be000000e00097
:100c700000000600881f7800030478000300e000ed
:100c800007003d0060001000e080180060011900be
:100c9000e081190002003b0001f02d000300370045
:100ca0000400070008f0a70001f0a0004f0478003e
:100cb00000000600889fbe008a9fbe000082700070
:100cc0000402710004827100260032000004be009c
:100cd0000200be006011b8006b09200095022000e0
:100ce0000182cf000a0039000541b1000082cf0027
:100cf000070039000541b1000982cf000400390026
:100d00000541b1000882cf00010039000541b10062
:100d100005425200120032000a003b00828171003d
:100d2000610164008100d1000080d3008984d30078
:100d30000884d3008b05e8000442e800f7ff3a007e
:100d4000070037000804440089844c000000480074
:100d5000818048008b05e9000442e900f9ff3a0070
:100d600000ff07004f05be004f04be000000060054
:100d700006c2b3000002780004007800b042780098
:100d800086cf5200fbff3200e9cf5200f9ff32005c
:100d9000d6c2b30086cf520003003a0000027800aa
:100da00016c0b300050037000043eb00b7c2b30024
:100db00087cf520001003a00000278000000eb00eb
:100dc000020037006a00b90000804200b402fb0054
:100dd0000503b100e98f5200faff3600e04f5300df
:100de000010032000000ea000000060080017800e7
:100df0008103780007027800010037008501780040
:100e0000110009000282d800000278008302e80085
:100e1000e00f5200f9ff3a00844a780011000900ff
:100e20008283d80080027800014278008503780030
:100e3000e94f5200010034006742420001c3b30091
:100e400081514200e08f5200f4ff3a000300780025
:100e500000000600881f780000047800e08f500032
:100e600005003d0008007800d4c2b30004587800a3
:100e70008100ea000100370008007800dbff07006e
:100e8000080078004f047800000006000002780097
:100e900002003700315a78000201e900e00f5100ea
:100ea000fcff3a000000060000027800b142780022
:100eb000055a7800e0cf5200fcff3a00000006001f
:100ec000000278008042eb00b4cf1200fdff3a0030
:0c0ed0000080ea00000042000000060064
:020000040000fa
:100edc00484f00004c4100002051000055450000d7
:100eec0020540000414c00002045000053540000e9
:100efc0041530000207900006f2000006573000052
:100f0c00746f0000792000006d75000079200000de
:100f1c0062690000656e00002079000020740000fa
:100f2c0075200000717500006520000074610000e0
:100f3c006c000000636f00007272000065630000bb
:100f4c00746f000028770000686f000020690000b3
:100f5c00206100006d3d000031300000342900009c
:100f6c00206e0000756d0000657200006f2000009f
:100f7c006465000020660000616c00006c6f00006e
:100f8c00732000003d000000617900003d0000006e
:100f9c00776800006f20000069200000616d000080
:100fac00203d000000650000727200006f720000ae
:100fbc0000410000783d000000410000793d000038
:100fcc00004100007a3d000000470000783d000021
:100fdc0000470000793d0000004700007a3d00000a
:100fec0000650000727200006f720000202d00007e
:100ffc002d3e0000766100006c6f00007220000036
:10100c00776800006f20000069200000616d00000f
:10101c003d00000045730000746f00002065000067
:10102c0073200000756e00006120000070720000db
:10103c007565000062610000203d0000200000008a
:10104c00536100006c6700006f20000064650000b5
:10105c00204d000079530000746100007274000090
:10106c00207000006f72000020540000696d0000b9
:10107c006572000000530000616c0000676f000097
:10108c0020640000652000004d79000052650000ce
:10109c00737400006172000074200000706f000017
:1010ac0072200000546900006d65000072000000a1
:1010bc00536100006c6700006f2000006465000045
:1010cc00206d0000795f0000537400006f70000009
:1010dc00207000006f72000020540000696d000049
:1010ec006572000000530000616c0000676f000027
:1010fc0020640000652000006d7900005f5700003f
:10110c007269000074650000207000006f720000ae
:10111c0020540000696d000065720000005300004f
:10112c00616c0000676f0000206400006520000007
:10113c006d7900005f490000646c000065200000c0
:10114c00706f000072200000546900006d65000093
:10115c007200000020000000636100006d6200005e
:10116c00696100006e6400006f2000007061000077
:10117c00726100006d650000747200006f730000f6
:10118c003a000000703d0000002c0000693d00009a
:10119c00002c0000643d0000002c00006175000074
:1011ac00785f00004249000041530000313d0000cf
:1011bc00002c000061750000785f000042490000bf
:1011cc0041530000323d0000000000002d2d0000b6
:1011dc002d2d00002d2d00002d2d00002d2d00009b
:1011ec002d2d00002d2d00002d2d00002d2d00008b
:1011fc002d2d00002d2d00002d2d00002d2d00007b
:10120c002d2d00002d2d00002d2d00002d2d00006a
:10121c002d2d00002d2d00002d2d00002d2d00005a
:10122c002d2d00002d2d00002d2d00002d2d00004a
:10123c002d2d00002d2d000000000000206e000060
:10124c0065770000416e0000676c0000653d000092
:10125c00002000006e6500007752000061740000f1
:10126c00653d000000200000783100003d000000ca
:10127c0020790000313d0000002000007832000091
:10128c003d000000207800005f6100006e670000e8
:0c129c006c650000324300003d000000c3
:020000040000fa
:1012a8000000fa0044ef2700040c880044ef2700f0
:1012b800340c880044ef2700640c880044ef2700b2
:1012c800940c88000080fa00000006000200fa0072
:1012d8000002eb00040f78001c003700940c80001b
:1012e8000402e800940c8800640c80000402e80002
:1012f800640c8800340c80000402e800340c880078
:10130800040c80000402e800040c880080382100e6
:10131800eb0c0700950c8000b4ff2000848f52006e
:101328000a003600f4ff2000940c8800f4ff200027
:10133800640c8800f4ff2000340c8800f4ff2000bf
:10134800040c880014002000040f78001e027800a6
:10135800e00f5200e1ff32001c003700940c8000bf
:101368000402e900940c8800640c80000402e9007f
:10137800640c8800340c80000402e900340c8800f6
:10138800040c80000402e900040c88008038210065
:10139800cb0c0700950c800004072000848f5200b6
:1013a8000a003e000002eb00940c88000002eb00eb
:1013b800640c88000002eb00340c88000002eb008b
:1013c800040c88000002eb00040f78001e0278006d
:1013d800e10f5200e1ff32000080fa000000060031
:1013e8000200fa000002eb00040f78000082eb0014
:1013f800040f78000b0037001e027800940c880058
:101408001e027800640c88001e027800340c8800e4
:101418001e027800040c880080382100a80c070000
:101428001e0fe9001e027800e00f5200f2ff3400a0
:101438000080fa00000006000200fa00000f7800a1
:101448009e0078000083200095fe0700008320009e
:1014580099fe0700000278008400780000832000cd
:101468003806070080382100950c07000080fa0034
:10147800000006000000fa00f4108000a20020001e
:10148800840078000083200070fe0700008320009d
:1014980089fe07000002780084007800008320009d
:1014a80028060700f4108000a200200084007800bd
:1014b8000083200065fe0700008320007efe0700f1
:1014c8000002780084007800008320001d060700d1
:1014d800f4108000a200200084007800008320001f
:1014e8005afe07000083200073fe07000002780000
:1014f800840078000083200012060700f4108000a2
:10150800a200200084007800008320004ffe07001e
:101518000083200068fe070000027800840078003d
:10152800008320000706070022032000e176280038
:101538000083200053fe0700008320005efe0700a2
:10154800000278008400780000832000fd05070071
:10155800803821005a0c07000083200056fe07003f
:10156800000278008400780000832000f505070059
:1015780080382100520c0700008320004efe07002f
:10158800000278008400780000832000ed05070041
:10159800803821004a0c07000083200046fe07001f
:1015a800000278008400780000832000e505070029
:1015b80080382100420c0700008320003efe07000f
:1015c800000278008400780000832000dd05070011
:1015d800803821003a0c07000083200036fe0700ff
:1015e800000278008400780000832000d5050700f9
:1015f80080382100320c0700008320002efe0700ef
:10160800000278008400780000832000cd050700e0
:10161800803821002a0c07000083200026fe0700de
:10162800000278008400780000832000c5050700c8
:1016380080382100220c07000080fa000000060014
:101648000000fa003cfb07004cfb0700000000000c
:101658003410800061026200e00f5200fcff3a0083
:1016680000cdb300cf08070000000000451080003f
:101678000400280004826200e00f5200fbff3a00d9
:101688002dfb070050c7b300c60807000000000084
:10169800451080000400280004826200e00f520018
:1016a800fbff3a0024fb07000622a8000000000008
:1016b800000000003410800062026200e00f520057
:1016c800fcff3a0010cdb300b60807000000000088
:1016d800451080000400280004826200e00f5200d8
:1016e800fbff3a0014fb07000662a8000000000098
:1016f8004410800062026200e00f5200fcff3200da
:101708001bfb07001ffb07000000000034108000cf
:1017180064026200e00f5200fcff3a000080fa0009
:10172800000006001a00fa00200f9800310f9800f8
:10173800420f98000002eb00140798002e09900051
:10174800be09900062079800730798006e02900027
:101758000500200024079800350798007e029000b5
:101768000474a1000482fb0005002000c022dd00f3
:10177800040020002e039000be03900006024200e1
:1017880087824a0024079800350798002e039000a6
:10179800be03900004002000050820000602420055
:1017a80087824a0024079800350798007e02900037
:1017b800c722de0000c2eb0084c2620014c8b30076
:1017c80004c24200044f98000e4a9000f24f5200a3
:1017d80010003400ce0a900094c4b300844a780004
:1017e8004e0a90008402e800e4c6b300844a7800f8
:1017f8004e0a90008482e80064c6b300844a7800e8
:101808004e0a9000e30242000042eb00844a78004e
:10181800c40037000e4a9000e34f420008003d0024
:10182800ce0a900004c3b300844a78004e0a9000a0
:101838008402e8000042eb00844a7800b9003700cf
:101848000002eb0014079800fe0290000400280034
:1018580004826200e00f520006003200ce0a9000b7
:10186800d4c2b300844a78001e0290000402e80043
:10187800140798000e4a90000402fb007703120038
:101888002e029000be029000860178008301e900d4
:10189800030033008502d1000482d300fbff370028
:1018a800540798001e029000ce0a9000048342005c
:1018b8005e02900005002000060178000400be00ca
:1018c8009a0007000002eb00040f78000a003700b6
:1018d8001e027800ce0a900004824200144278006a
:1018e800e04f520003003a001e02780014079800e7
:1018f800040037001e0fe8001e027800e70f5200b0
:10190800f3ff34001e029000e50f520084003c00f3
:101918001e029000ce0a900084824200e4c2b30006
:10192800844a78001e0290000402e8001407980018
:101938000e4a90000402fb00740312002e0290006d
:10194800be0290000401be00860078008100e90014
:10195800030033008301d1000281d300fbff37006d
:101968000203be0074002000050020000600780075
:1019780007037800840378000502780007006000f8
:101988000402630005002000c022dd0004002000de
:101998000403be006102b80004037300858373006a
:1019a8007400200005002000840f5300858f5b0021
:1019b80041003e0006600100070037000d003700b7
:1019c80013003700190037001f00370025003700c3
:1019d8002b0037003100370004c3b30004579800c8
:1019e80004c3b3001457980004c3b30024579800e5
:1019f8003100370014c3b3000457980024c3b30060
:101a08001457980054c3b300245798002a0037008d
:101a180024c3b3000457980054c3b3001457980064
:101a280004c3b300245798002300370034c3b3001d
:101a38000457980074c3b3001457980054c3b300f4
:101a4800245798001c00370054c3b300045798006b
:101a580004c3b3001457980004c3b3002457980074
:101a68001500370064c3b3000457980024c3b300bb
:101a78001457980054c3b300245798000e00370039
:101a880074c3b3000457980054c3b30014579800a4
:101a980004c3b300245798000700370084c3b30079
:101aa8000457980074c3b3001457980054c3b30084
:101ab80024579800000000000002eb00040f780093
:101ac8000e0037001e029000e60f52000a003c008c
:101ad8001e029000ce0a90008482420070024700e5
:101ae8001e02420014427800844a78001e029000c8
:101af8000402e800140798001e0fe8001e02780090
:101b0800e20f5200efff34001e029000ce0a900050
:101b1800848242000042eb00844a780001003700ca
:101b2800000000000080fa00000006000c00fa0027
:101b3800881f7800300798004107980052079800de
:101b48003e029000ce0290001407980025079800e6
:101b58001e029000ae029000e00f5200e08f5a0083
:101b680006003d003e029000ce0290006002120086
:101b7800e0821a0034079800450798000002eb003d
:101b8800040f78001e027800de02900004844200f0
:101b98003e029000ce029000a20020000300200028
:101ba8000400be00c0fb07000002be00044278002b
:101bb8000443b000044c78001e0fe8003e02900079
:101bc800ce029000a2002000030020000400be0006
:101bd80010fb07000002be00340798004507980074
:101be8003e029000ce029000e00f5200e08f5a00b3
:101bf800e4ff3c001e029000ae029000e00f52008d
:101c0800e08f5a0006003d001e027800de029000b8
:101c180084824200d4c2b300844a78001e0fe800d0
:101c28001e027800de029000848242000042eb002f
:101c3800844a78005e009000030007004f04780093
:101c48000080fa00000006000800fa00300798003b
:101c58000002eb00040f78003e00900096fc07009d
:101c6800000278000402e900140798001600370003
:101c78001e027800be02900004824200944278005e
:101c8800454798001e027800be02900084824200f8
:101c98001e0290003e0390000402430014427800a4
:101ca800844a78001e029000be029000048242001e
:101cb800ce429000054a78001e0fe8001e029000f0
:101cc8000402e900140798001e0290009e027800a2
:101cd800848f5200e6ff35000080fa0000000600fd
:101ce8000400fa00e2c2a8000002eb00040f78002a
:101cf80020032000380a07000002eb0014079800b0
:101d0800dd08070000027800140798009e02900082
:101d180084062000848f52000b003a00c562a80098
:101d2800d1c2a9009e007800007a28005704070055
:101d38005f0807000002780084007800a07c280073
:101d48005204070018003700340807009e0090006e
:101d5800e07c28004d0407005508070000027800c1
:101d680084007800a07c2800480407001e0fe800c3
:101d78009e007800907d2800440407001e02780029
:101d8800e50f520008003a000002eb00040f78004b
:101d9800e2c2a900d1c2a800c562a900803e200005
:101da8000d0a0700e2c2a8000080fa000000060041
:101db8000c00fa00b0080700000278008506200031
:101dc800850f520025003a00ea02470068024700e2
:101dd80066004700e40347000e83e80080017800ae
:101de80007017800860078000e007800fb080700dd
:101df8001e02780084007800f07d28002304070084
:101e08001e02900084007800307e28001f0407001e
:101e18002e02900084007800707e28001b040700c2
:101e28003e02900084007800b07e28001704070066
:101e38004e02900084007800f07e2800130407000a
:101e48005e02900084007800307f28000f040700ad
:101e5800d1c2a900c562a8000a0037008608070099
:101e68000002780084007800707f280007040700cb
:101e7800e2c2a900c562a900803e2000d609070079
:101e8800e2c2a8000080fa00000006000c00fa0078
:101e9800790807000002780085062000850f5200a7
:101ea80016003a00ea024700680247006600470049
:101eb800e40347000e83e8008001780007017800fa
:101ec800860078000e007800c4080700ce03900052
:101ed8003e0390009e0290001e0278008701780061
:101ee800060178008500780004007800a208070041
:101ef800d1c2a900c562a8000b0037005e08070020
:101f08000002780084007800707f2800df03070053
:101f1800e2c2a900c562a900803e2000ae09070000
:101f2800e2c2a800bd0707000080fa000000060012
:101f38000200fa000002eb00040f780004003700ea
:101f48009e00780000812800d00307001e0fe800db
:101f5800f47022009e027800848f5200f8ff34004b
:101f68000080fa00000006000200fa000002eb0000
:101f7800040f7800090037001e027800940c8800ce
:101f8800940c8000640c8800640c8000340c880079
:101f9800340c8000040c88001e0fe800f4e12400d3
:101fa8009e027800848f5200f3ff34000080fa000c
:101fb800000006000800fa00200798003107980082
:101fc800ae0290003e029000048f520055448000fb
:101fd8001e02780004aab9000403780004498000ae
:101fe8009e0212006444800004aab900040278002a
:101ff80004024300140798001e0278000449880070
:102008001e029000040078000080fa00000006001c
:102018001400fa00881f78002007980031079800fc
:1020280042079800530798006407980075079800be
:10203800060f9800170f9800ae0290003e0290001d
:10204800048f5200ee0290001e02780004aab90024
:1020580004027800cfa2de000400be003cfa0700ac
:102068000003be00c4488000d54880000401be00bb
:102078000600be00c6f807000002be00c44888007b
:10208800d5488800c4488000d548800018c0b300ef
:1020980002002000a34f24000400be00eef9070050
:1020a80000027800e00f520001003c000044eb0001
:1020b800e04f54000400320004002000a54f240023
:1020c800c4488800d5488800c4488000d5488000a6
:1020d80018c0b30002002000a34f2c000400be006b
:1020e800dbf9070000027800e00f5200010035001c
:1020f8000044eb00e04f54000400320004002000cc
:10210800a54f2c00c4488800d54888000e0a9000c6
:1021180014027800be02900004825200140798004e
:10212800de0290001e02780004aab90004037800b9
:10213800fe0290001e02900004aab9000402780072
:1021480004025300cfa2de000400be0000fa07001c
:102158000003be00c4488000d54880000401be00ca
:102168000600be008af807000002be008448880006
:10217800954888001e0a9000cfa2de000400be0029
:10218800f3f907000003be008448800095488000ea
:1021980018c0b3000401be000600be00acf9070079
:1021a80000027800e00f5200010034000044eb0008
:1021b800e04f5400070032001e0a9000cfa2de0054
:1021c8000400be00e2f907000002be00844888004f
:1021d800954888004eba9700cfa2de000400be00e2
:1021e800dbf907000003be008448800095488000a2
:1021f80018c0b3000401be000600be0096f907002f
:1022080000027800e00f520001003d000044eb009e
:10221800e04f5400070032004eba9700cfa2de000c
:102228000400be00caf907000002be008448880006
:10223800954888000e0a9000be029000050a7800b2
:1022480084448000cfa2de000400be00c0f907006d
:102258000003be0084488000954880000401be0049
:102268000600be004af807000002be000400be00d7
:102278009cf907000002be0004027800040c8800e4
:1022880094448000cfa2de000400be00b0f907002d
:102298000003be0084488000954880000401be0009
:1022a8000600be0039f807000002be000400be00a8
:1022b8008cf907000002be0004027800940c880024
:1022c80084488000954880000400be0064f9070037
:1022d8000002be0004027800040078004f04780071
:1022e8000080fa00000006000000fa006022b80032
:1022f80004408800154088006022b8002440880007
:10230800354088006022b800444088005540880065
:102318006022b80064408800754088000080fa0098
:10232800000006000c00fa00889fbe00008fbe0067
:10233800220798003307980044079800550798002b
:1023480034458000454580000401be002e00900001
:10235800be0090000df807000002be00544588003a
:102368006545880054458000654580004e01900011
:10237800de0190000400be00daf907000002be008a
:102388000403be0014458000254580000401be00fa
:102398000600be00fef707000002be0014458800d4
:1023a800254588000840800019408000644080006e
:1023b800754080004e019000de0190000400be00d0
:1023c800c8f907000002be000403be0024408000d4
:1023d800354080000401be000600be00ebf7070090
:1023e8000002be000403be00444080005540800047
:1023f8000401be000600be00e4f707000002be00ac
:102408000403be00b4448000c54480000401be003b
:102418000600be00def707000002be004e01900075
:10242800de0190000400be00aef907000002be0005
:102438000401be000800be00d5f707000002be0078
:1024480004408800154088002840800039408000fa
:1024580064408000754080004e019000de019000cd
:102468000400be009ff907000002be000401be0080
:102478000800be00c5f707000002be00244088001f
:102488003540880048408000594080006440800002
:10249800754080004e019000de0190000400be00ef
:1024a80090f907000002be000401be000800be004b
:1024b800b6f707000002be00444088005540880077
:1024c8006840800079408000d4448000e544800062
:1024d8004e019000de0190000400be0081f9070063
:1024e8000002be000401be000800be00a8f70700f5
:1024f8000002be00644088007540880006408000e5
:1025080017408000f4448000054580000401be00a7
:102518000600be009ef707000002be009445880032
:10252800a54588000640800017408000944580003b
:10253800a54580000401be000600be0073f8070030
:102548000002be0006812000048bbe0046408000c9
:102558005740800094458000a54580000401be00d6
:102568000600be0069f807000002be0006812000d0
:102578002403980035039800144580002545800001
:102588000401be001e00be0080f707000002be0066
:102598007445880085458800048120001403be0026
:1025a80074458000854580000401be000600be0019
:1025b8004cf907000002be000403be001445800069
:1025c800254580000401be000600be0070f7070024
:1025d8000002be00144588002545880004812000bb
:1025e80024039000b4039000744580008545800062
:1025f8000401be000600be003af907000002be0052
:102608000403be0034458000454580000401be0037
:102618000600be005ef707000002be0034458800d1
:10262800454588000840800019408000048120004a
:102638001403be0004408000154080000401be0061
:102648000600be0027f907000002be000401be0014
:102658000800be004df707000002be0004408800d5
:1026680015408800284080003940800004812000ff
:102678001403be0024408000354080000401be00e1
:102688000600be0017f907000002be000401be00e4
:102698000800be003df707000002be002440880085
:1026a800354088004840800059408000048120005f
:1026b80024039000b403900004408000154080007b
:1026c8000401be000600be0006f907000002be00b5
:1026d8000401be000800be002cf707000002be007f
:1026e8004440880055408800684080007940800058
:1026f8000481200024039000b4039000244080004b
:10270800354080000401be000600be00f5f8070051
:102718000002be000401be000800be001bf707004f
:102728000002be006440880075408800144580009f
:10273800254580000400be004f04be000080fa005a
:10274800000006001e00fa00200f9800310f9800c4
:10275800420f9800530f9800640f9800040020005f
:1027680005122400048fbe006022b80024079800d8
:10277800350798006022b80044079800550798006c
:102788006022b80064079800750798006022b800b6
:10279800040f9800150f98006e0a9000cfa2de0073
:1027a8000400be006af807000002be000200200014
:1027b800a34724000400be00d4f707000002be00af
:1027c80024079800350798002e089000be0890004e
:1027d80023f807000002be00040278008400780095
:1027e80040922800be0107004e089000de089000c5
:1027f8001bf807000002be0004027800840078007d
:10280800f0922800b6010700b4458000c545800055
:102818000401be002e089000be089000dbf60700f9
:102828000002be001e01be000400be00adf8070095
:102838000002be001e01be000400be00a9f8070089
:102848000002be0044079800550798004e0190000a
:10285800de0190002e009000be009000a1f8070055
:102868000002be000401be006e009000fe00900051
:10287800c7f607000002be006407980075079800b5
:10288800b4458000c54580000401be002e089000b4
:10289800be089000bdf607000002be000401be009d
:1028a8000400be00baf607000002be001e01be000a
:1028b8000400be008bf807000002be006e01900005
:1028c800fe0190000400be00b1f607000002be0041
:1028d8004e099000de0990000400be00acf6070027
:1028e8000002be00040f9800150f98000e09900012
:1028f8009e0990002e009000be00900079f8070015
:102908000002be000403be00b4458000c545800037
:102918000401be000600be009df607000002be00ce
:10292800b4458800c54588004e009000de00900040
:10293800cbf707000002be0004027800840078008c
:1029480090932800660107006e009000fe0090003a
:10295800c3f707000002be00040278008400780074
:10296800e09328005e0107000e0890009e08900082
:10297800bbf707000002be0004027800840078005c
:102988003094280056010700b4458000c5458000f2
:102998000400be00b2f707000002be00040278007f
:1029a800840078008094280038010700b44580002e
:1029b800c54580000400be000080fa000000060043
:1029c8000600fa00889fbe001007980021079800ab
:1029d8001e009000000707000002eb00040f7800bb
:1029e800550037001f05070000027800cfa2de005f
:1029f8000400be00d6f707000003be00444680006e
:102a0800554680000401be000600be0060f60700bf
:102a18000002be00e4458800f5458800240507004b
:102a280000027800cfa2de000400be00c8f707004d
:102a38000003be0064468000754680000401be00a5
:102a48000600be0052f607000002be0004468800d9
:102a5800154688002905070000027800cfa2de008d
:102a68000400be00baf707000003be0084468000d9
:102a7800954680000401be000600be0044f607002b
:102a88000002be0024468800354688002e0507004f
:102a980000027800cfa2de000400be00acf70700f9
:102aa8000003be0044468000554680000401be0075
:102ab8000600be0036f607000002be004446880045
:102ac800554688003305070000027800cfa2de00d3
:102ad8000400be009ef707000003be0064468000a5
:102ae800754680000401be000600be0028f60700f7
:102af8000002be0064468800754688003805070055
:102b080000027800cfa2de000400be0090f70700a4
:102b18000003be0084468000954680000401be0084
:102b28000600be001af607000002be0084468800b0
:102b3800954688001e0fe8002e0290009e0278003d
:102b4800848f5200a7ff3500e8458000f9458000d2
:102b58002e029000cfa2de000400be007cf7070022
:102b68000002be000401be000800be00e7f6070030
:102b78000002be00e4458800f5458800084680004c
:102b8800194680002e029000cfa2de000400be008d
:102b98006ff707000002be000401be000800be0077
:102ba800daf607000002be000446880015468800d1
:102bb80028468000394680002e029000cfa2de0011
:102bc8000400be0062f707000002be000401be0058
:102bd8000800be00cdf607000002be0024468800ab
:102be8003546880048468000594680002e029000ed
:102bf800cfa2de000400be0055f707000002be00a9
:102c08000401be000800be00c0f607000002be00b6
:102c1800444688005546880068468000794680000a
:102c28002e029000cfa2de000400be0048f7070085
:102c38000002be000401be000800be00b3f6070093
:102c48000002be00644688007546880088468000f9
:102c5800994680002e029000cfa2de000400be003c
:102c68003bf707000002be000401be000800be00da
:102c7800a6f607000002be00844688009546880034
:102c88004f04be000080fa00000006000000fa00b1
:102c9800d4002000d410880000000000c510800077
:102ca8000410200004826200e00f5200fbff320093
:102cb800a4002000d410880000000000c510800087
:102cc8000410200004826200e00f5200fbff320073
:102cd8000080fa00000006000600fa0010079800bd
:102ce800210798000042eb00044f78000e003700df
:102cf8009e4278000582fb009e02900004824200fa
:102d0800144278000402fb00d41088000000000080
:102d1800c51080000410200004826200e00f5200f9
:102d2800fbff32001e4fe8001e4278008482fb0041
:102d38002e029000848f5200edff35000080fa00cb
:102d4800000006000400fa00000f78001107980040
:102d58009e0090001e007800dfff0700cbff0700f1
:102d68000080fa00000006000600fa00100798002c
:102d7800210798000042eb00044f78000e0037004e
:102d88009e4278000582fb009e0290000482420069
:102d9800144278000482fb00d41088000000000070
:102da800c51080000410200004826200e00f520069
:102db800fbff32001e4fe8001e4278008482fb00b1
:102dc8002e029000848f5200edff35000080fa003b
:102dd800000006000400fa00000f780011079800b0
:102de8009e0090001e007800dfff0700a7ff070085
:102df8000080fa00000006000400fa00100798009e
:102e08001e029000040fe9001a0037001e02780025
:102e18008402420084812000048242001402780067
:102e2800a2002000840078000083200007f8070033
:102e38000083200020f80700000278008400780052
:102e480000832000a4ff070022002000018b280037
:102e5800008320000bf807000083200016f8070005
:102e68000002780084007800008320009aff0700a1
:102e78001e0fe9001e027800e00f5200e3ff3d003c
:102e880082ff07000080fa00000006000400fa0034
:102e9800000f7800110798001e00780006f8070058
:102ea80000027800840078001e0078008aff07007e
:102eb800a20020009e00900000832000e3f7070096
:102ec80000832000fcf707000002780084007800e7
:102ed800008320009bff07000080fa000000060026
:102ee8000400fa00000f7800110798001e0078000f
:102ef800f1f7070000027800840078001e007800cf
:102f080075ff0700a20020009e00900000832000ab
:102f1800cef7070000832000e7f7070000027800db
:102f280084007800008320006bff07000080fa000f
:102f3800000006000200fa00000f78001e0078006a
:102f4800ddf7070000027800840078001e00780092
:102f58007cff07000080fa00000006000200fa006b
:102f6800000f78001e007800d3f7070000027800f1
:102f7800840078001e00780057ff07000080fa00e0
:102f8800000006003600f800809fbe00829fbe0049
:102f9800849fbe00869fbe000200fa00364880006b
:102fa800e410800004427800458d2000850243002b
:102fb800844a78003548800004032000848f52003a
:102fc80003003c00344880000402e80034488800cc
:102fd800344880008402e900448d200004824200c5
:102fe8009442780034c2b30084cf520013003a00f0
:102ff800344880000402e90034488800408d2000ed
:10300800170007000002eb00040f780005003700e6
:10301800448d20009e02420004c2b300844a780016
:103028001e0fe800140320009e027800848f5200cf
:10303800f7ff34000002eb00344888008700a9003d
:103048001822a9000080fa004f03be004f02be00fc
:103058004f01be004f00be003600f90000400600d8
:103068002600fa00201798000002eb00040f7800f1
:103078000002eb00140798000002eb0024079800f8
:103088001e027800e30f5200470034001e02780049
:10309800ae129000048242009442780064c2b300e9
:1030a80084cf52003b0032002e029000e00f520005
:1030b80008003a001e027800ae1290000482420016
:1030c80014427800660347009e0290008502430080
:1030d800844a78002e029000e10f520008003a005e
:1030e8001e027800ae12900004824200144278005a
:1030f8006c0347009e02900085024300844a7800d2
:103108002e029000e20f520008003a001e027800da
:10311800ae12900004824200144278007203470005
:103128009e02900085024300844a78002e02900097
:10313800e30f520008003a001e027800ae12900019
:103148000482420014427800780347009e029000ef
:1031580085024300844a78002e029000e40f520052
:1031680008003a001e027800ae1290000482420065
:10317800144278007e0347009e02900085024300b7
:10318800844a78001e0290000402e80014079800a0
:10319800050037002e0290000402e800240798007a
:1031a8000002eb00140798001e0fe8001e027800ca
:1031b800ae129000048242009442780034c2b300f8
:1031c80084cf5200aeff3a00660247000400780040
:1031d800e5f6070000027800544488006c024700b6
:1031e80004007800e0f607000002780074448800c4
:1031f8007202470004007800dbf60700000278003e
:10320800644488007802470004007800d6f6070076
:1032180000027800844488007e0247000400780099
:10322800d1f607000002780094448800208b28001b
:103238004aff07006602470004007800caf6070044
:103248000002780084007800808c280024ff0700a2
:103258006c02470004007800c3f6070000027800fb
:1032680084007800b08c28001dff07007202470018
:1032780004007800bcf6070000027800840078009b
:10328800f08c280016ff0700780247000400780039
:10329800b5f607000002780084007800308d280019
:1032a8000fff07007e02470004007800aef6070013
:1032b8000002780084007800f08d2800f3fe0700f3
:1032c8000080fa00000006000600fa0010079800c7
:1032d800210798000042eb00044f780024003700d3
:1032e8009e4278000582fb00040242009e02900084
:1032f80004824200140278000442780014479800bf
:103308001e4290000402fb00d41088000000000058
:10331800c51080000410200004826200e00f5200f3
:10332800fbff32009e4278000582fb000402420047
:103338009e029000048242001402780048a2de0037
:1033480004427800144798001e4290000402fb00d3
:10335800d410880000000000c51080000410200070
:1033680004826200e00f5200fbff32001e4fe800ab
:103378001e4278008482fb002e0290000482d10055
:10338800848f5200d6ff35000080fa000000060046
:103398000000fa000002eb00243a8800a000200098
:1033a800c70407000082eb0044158800a000200035
:1033b800c3040700f47f2f0004168800a000200033
:1033c800bf040700849f2f0034168800a000200047
:1033d800bb040700849f2f0034168800a00020003b
:1033e800b7040700f4ff2b0064168800a000200033
:1033f800b304070004ef2b0094168800a0002000f7
:10340800af040700c4f92f00f4168800a0002000bc
:10341800ab0407000002eb0014168800a00020008f
:10342800a70407000002eb0044168800a000200053
:10343800a30407000002eb0074168800a000200017
:103448009f0407000002eb00a4168800a0002000db
:103458009b0407000002eb0004178800a00020006e
:10346800970407000080fa00000006000000fa0038
:1034780000352c00920407000040eb0028040700e8
:10348800c40320002410880007a2a900000000003f
:103498000782a800000000000762a90000000000e1
:1034a8000742a900000000000722a9000000000050
:1034b8000702a9000000000006e2a90000000000c1
:1034c80006c2a9000000000006a2a9000000000032
:1034d8000682a900000000000662a90000000000a2
:1034e8000642a900000000000622a9000000000012
:1034f8000602a900000000000040eb0008040700d5
:1035080007e2a800450207000080fa000000060054
:103518000400fa008401a900000000008421a90029
:10352800000000008441a900000000008461a90097
:10353800000000008a01a900000000008a21a900fb
:10354800000000008a41a900000000008a61a9006b
:10355800000000009001a900000000009021a900cf
:10356800000000009041a900000000009061a9003f
:10357800000000009601a900000000009621a900a3
:10358800000000009641a900000000009661a90013
:103598000000000011e1a9000000000011a1a9002d
:1035a8000000000010c1a900000000001021a900bf
:1035b800000000001061a9000000000084c0a900fc
:1035c80000000000f4ff2b00040f78000002eb005d
:1035d800140798001e027800140888001e02900044
:1035e800040c88001e027800640888001e029000ff
:1035f800340c88001e027800740888001e029000af
:10360800640c88001e027800d40888001e0290000e
:10361800940c88008401a900000000008421a800ff
:10362800000000008441a800000000008a01a900f1
:10363800000000008a21a800000000008a41a800bc
:10364800000000009001a900000000009021a800df
:10365800000000009041a800000000009601a900a9
:10366800000000009621a800000000009641a80074
:1036780000000000840880000440a1000450a1005c
:1036880084088800000000000002eb00040c880099
:103698000002eb00340c88000002eb00640c880088
:1036a8000002eb00940c880011e1a8000080fa00e9
:1036b800000006000000fa0017e2a8000000000061
:1036c800000000000000000019e2a900000000004e
:1036d800c41080000460a1000470a100c410880018
:1036e80000000000b41080000410a1000420a10014
:1036f800b4108800000000001602a90000000000b5
:1037080016a2a90000000000f4002000f4108800b0
:10371800000000001942a800000000008700a9006e
:10372800000000008720a900000000008f00a8000a
:10373800000000008f20a900000000000080fa00af
:10374800000006000000fa00d1c2a800c562a80067
:103758000080fa00000006000000fa00d1c2a900ab
:10376800c562a9000080fa00000006001000fa00f7
:1037780070079800143a8000040f7800f48f2f0027
:103788001e0f62001e02780048a2de00040f7800b7
:103798007e0290000500200076002000070020002f
:1037a800860f5200878f5a0068003e0004600100af
:1037b800070037000b0037000f00370013003700f1
:1037c80064003700630037006200370014003700d8
:1037d8009e0278007e02900004827200040f780036
:1037e800140037009e0278007e0290000482720066
:1037f800040f78000f0037009e0278007e029000c8
:1038080004827200040f78000a0037009e027800d4
:103818007e02900004827200040f780005003700d1
:103828009e0278007e02900004827200040f7800e5
:103838000000000084c7b30024479800a4c9b3005f
:1038480034479800247420000402e80024079800f4
:10385800140280004522de00674262000482fb00f9
:10386800340798009402800044079800ff3ffc004a
:10387800140280000450a0000460a0000470a0009e
:10388800140288004e02900094028800000088000c
:103898002e0390002e429000be4290009e037800b6
:1038a800044b7800054b7800074b780064c4b300dc
:1038b8002447980074c5b300344798002474200046
:1038c80024079800143a8000044278000404a000f9
:1038d800244f9800ae0390002e429000be42900004
:1038e8002e4b9000844b7800854b7800864b7800ef
:1038f80000000000143a800061026200e00f5200ec
:10390800fcff3a009402800064079800ff3ffc0027
:103918003e02900004427800674262000482fb0085
:10392800670262004522dd0016028000f5f12f00d3
:103938008502630004827200140288006e029000ff
:10394800940288000000880003003700000000008f
:1039580001003700000000000080fa0000000600a7
:103968000200fa000002eb00040f780001003700a3
:103978001e0fe800140320009e027800848f520076
:10398800fbff34000040eb00e50207007000200058
:1039980076ff0700c05d2000490307000080fa0099
:1039a800000006000200fa00004f78009e427800ee
:1039b8000582fb00141088000000000044108000fd
:1039c80061026200e00f5200fcff3a000080fa003a
:1039d800000006000000fa00040220000409880024
:1039e80004572000e40888000002eb00c40888009f
:1039f80086c0a90021e1a9008ec0a90021e1a80084
:103a08000080fa00000006000000fa000602a80084
:103a1800f0ff070086c0a9000000000034108000f5
:103a280061026200e00f5200050032003504800098
:103a38000404200004826200e00f5200f7ff320005
:103a480021e1a900350480000404200004826200fa
:103a5800e00f5200020032006082280035fd0700a6
:103a68000002eb00040078000080fa000000060065
:103a78000000fa000622a800d6ff070086c0a900a9
:103a8800000000003410800062026200e00f520063
:103a9800050032003504800004042000048262001e
:103aa800e00f5200f7ff320021e1a9003504800041
:103ab8000404200004826200e00f52000200320079
:103ac800108428001bfd07000002eb0004007800aa
:103ad8000080fa00000006000000fa000642a80074
:103ae800bcff070086c0a900000000003410800059
:103af80064026200e00f52000500320035048000c5
:103b08000404200004826200e00f5200f7ff320034
:103b180021e1a90035048000040420000482620029
:103b2800e00f520002003200e085280001fd070086
:103b38000002eb00040078000080fa000000060094
:103b48000200fa00004f78009e4278000582fb00d0
:103b5800141088009fff070086c0a900000000001d
:103b68004410800061026200e00f5200050032003c
:103b7800350480000404200004826200e00f520033
:103b8800f7ff320021e1a900350480000404200079
:103b980004826200e00f5200020032009087280081
:103ba800e4fc07000002eb00040078000080fa0043
:103bb800000006000000fa0086ff070086c0a90082
:103bc8000000000045108000040024000482620008
:103bd800e00f520005003200350480000404200084
:103be80004826200e00f5200f6ff320021e1a900d2
:103bf800350480000404200004826200e00f5200b3
:103c08000200320050892800cafc07000002eb00bd
:103c1800040078000080fa00000006000000fa00a6
:103c2800441080000482ea004f22de00040078007d
:103c38000080fa00000006000000fa0006a2a800b2
:103c48000682a800000000003410800070026200a4
:103c5800e00f5200fcff3a0006a2a9000002eb00a8
:103c6800040078000080fa00000006000000fa0056
:103c780006a2a9000682a8000000000034108000f7
:103c880070026200e00f5200fcff3a000002eb00f5
:103c9800040078000080fa00000006000000fa0026
:103ca8000662a80000000000441080006202620062
:103cb800e00f5200fcff320004108000040078007e
:103cc8000080fa00000006000000fa000662a80062
:103cd800100020007a020700000000003410800065
:103ce80068026200e00f5200fcff3a001400200056
:103cf800040078000080fa00000006000400fa00c2
:103d0800000f78002147980011003700e3ff0700f3
:103d180000027800044278009e027800844a780005
:103d28001e0fe80045108000044020000482620055
:103d3800e00f5200020032000082eb000f00370053
:103d48002e429000e04f520001003200c7ff0700ea
:103d58002e4290000482fb000402ea004f22de009b
:103d680004427800ae4290008542e9002547980059
:103d7800e04f5200e5ff3a000002eb000400780033
:103d88000080fa00000006000200fa00004f7800e8
:103d980088ff07001cff070000cdb30068ff07007d
:103da80084ff07001e40780065ff070081ff0700b9
:103db8002fff070010cdb30061ff07007dff07004c
:103dc800c1ff07009cff070043ff070004108000a5
:103dd800040078000080fa00000006000200fa00e3
:103de800004f78001147980007ff070000cdb30087
:103df80053ff07006fff07001e40780050ff0700c1
:103e08006cff07001e4090004dff070069ff070088
:103e180031ff07000080fa00000006000000fa00e9
:103e2800f1c0b30090c1b300ecff070011c0b300ac
:103e3800b0c6b300e9ff07008040eb00b0c1b30093
:103e4800e6ff07008040eb00c0c1b300e3ff0700b6
:103e58008040eb00a0c1b300e0ff07000080fa003b
:103e6800000006000400fa000002eb00040f7800ce
:103e78000002eb0014079800b0c3b300c2ff0700ac
:103e88000002780014079800c0c3b300beff070003
:103e980000027800040f78001e0290004822dd001e
:103ea8001e024200040078000080fa0000000600ac
:103eb8000400fa000002eb00040f78000002eb0097
:103ec80014079800d0c3b300afff070000027800c2
:103ed80014079800e0c3b300abff070000027800a6
:103ee800040f78001e0290004822dd001e024200e6
:103ef800040078000080fa00000006000400fa00c0
:103f08000002eb00040f78000002eb001407980091
:103f1800f0c3b3009cff0700000278001407980064
:103f280000c4b30098ff070000027800040f78006f
:103f38001e0290004822dd001e02420004007800a4
:103f48000080fa00000006000400fa000002eb00fe
:103f5800040f78000002eb001407980030c4b30087
:103f680089ff0700000278001407980040c4b300d6
:103f780085ff070000027800040f78001e029000f9
:103f88004822dd001e024200040078000080fa008a
:103f9800000006000400fa000002eb00040f78009d
:103fa8000002eb001407980050c4b30076ff070026
:103fb800000278001407980060c4b30072ff07007d
:103fc80000027800040f78001e0290004822dd00ed
:103fd8001e024200040078000080fa00000006007b
:103fe8000400fa000002eb00040f78000002eb0066
:103ff8001407980070c4b30063ff0700000278003c
:104008001407980080c4b3005fff0700000278001f
:10401800040f78001e0290004822dd001e024200b4
:10402800040078000080fa00000006000400fa008e
:104038000002eb00040f78000002eb001407980060
:1040480010c4b30050ff070000027800140798005e
:1040580020c4b3004cff070000027800040f78006a
:104068001e0290004822dd001e0242000400780073
:104078000080fa00000006000000fa0050c7b300f4
:1040880041ff070000027800040078000080fa0071
:10409800000006000a00fa0040079800b4da2c0075
:1040a8001407980044002000240798004e0290004e
:1040b8003407980064002000040f78000e82e8009e
:1040c8009e0078000400780003fb07000080fa00d7
:1040d800000006000e00fa005007980061079800db
:1040e800b4da2c0014079800440020002407980034
:1040f8005e029000340798006e0290004407980012
:1041080084002000040f78000e82e8009e007800ea
:1041180004007800f0fa07000080fa0000000600aa
:104128001200fa006007980071079800020f9800c3
:10413800b4da2c00140798006400200024079800c3
:104148006e029000340798007e02900044079800a1
:104158000e0a900054079800a4002000040f78006d
:104168000e82e8009e00780004007800dafa070062
:104178000080fa00000006001600fa007007980098
:10418800010f9800120f9800230f9800b4da2c0042
:104198001407980084002000240798007e029000ed
:1041a800340798000e0a9000440798001e0a9000f1
:1041b800540798002e0a900064079800c400200055
:1041c800040f78000e82e8009e0078000400780052
:1041d800c1fa07000080fa00000006000c00fa008f
:1041e800000f7800110798002207980033079800fd
:1041f80044079800550798001aff07000002780046
:104208009e027800840a780029ff070000027800df
:104218009e029000840a780038ff070000027800a8
:10422800ae029000840a780047ff07000002780079
:10423800be029000840a780056ff0700000278004a
:10424800ce029000840a780065ff0700000278001b
:10425800de029000840a78000080fa000000060060
:104268000000fa004afc07000040eb00ac00070021
:10427800bbfd07000040eb00a9000700a4fc0700f5
:104288000040eb00a60007000afd07000040eb0015
:10429800a300070075fc07000040eb00a000070022
:1042a800defe07000040eb009d0007000ef8070047
:1042b8000040eb009a000700e2c2a800d7fe070002
:1042c8002103200050002000bdf9070022fd07004f
:1042d800b00020005400070063000700c08e2800cb
:1042e80014fb0700ffff37000a00fa00889fbe0092
:1042f800d1c2a8000002eb00040f7800fffe0700ff
:1043080000027800cfa2de000400be0090f1070092
:104318000003be0024468000354680000401be002c
:104328000600be0019f007000002be000404be002b
:10433800dffe070000027800cfa2de000400be0006
:1043480083f107000003be00044680001546800084
:104358000401be000600be000cf007000002be000b
:104368000801be000400be0066f007000002be009f
:1043780062e52000930424000400be0004f0070056
:104388000002be0012ee2200532624000400be00e4
:10439800d4f107000002be00140798002507980012
:1043a800e9fe070000027800cfa2de000400be008c
:1043b80067f107000003be004446800055468000b0
:1043c8000401be000600be00f0ef07000002be00b8
:1043d80002002000333024000400be00cbf00700a8
:1043e8000002be003407980045079800b40020007a
:1043f8003e019000ce0190001e009000ae0090009b
:10440800d0f807000002be000400be0014f1070047
:104418000002be00040f7800d1c2a9004f04be00fc
:104428000080fa00000006000200fa00000f780081
:1044380004022000940888009e027800041d2000d1
:1044480004aab90004027800740888000002eb008e
:104458005408880084e0a90013e1a9008ce0a800b2
:104468000080fa00000006000000fa0013e1a8002e
:104478000080fa00000006000000fa0013e1a9001d
:104488000080fa00000006003600f800809fbe0099
:10449800829fbe00849fbe00869fbe000000fa0077
:1044a800d44580000402e800d4458800d445800043
:1044b800fe0f520001003a00efff070084e0a90058
:1044c80025168000048020000482620004f0a70002
:1044d8000402ea000402e9004f22de0004427800e8
:1044e8000482fb00610262004b22dd002616800078
:1044f800f57f2f008502630004827200241688006d
:1045080079ff07000080fa004f03be004f02be008b
:104518004f01be004f00be003600f9000040060003
:104528000200fa00004f78000401200024088800e7
:1045380004e62000140888000002eb000408880044
:104548008460a90005e1a8009e42780061c262006b
:104558000482fb00610262004322dd0066048000e1
:1045680075ff2f00850263000482720064048800ce
:104578001e427800e04f520006003a00000000009a
:104588002404800068026200e00f5200fcff320041
:1045980005e1a9000080fa00000006003600f800d6
:1045a800809fbe00829fbe00849fbe00869fbe0083
:1045b8000000fa0010c0b300d9ff07000080fa001d
:1045c8004f03be004f02be004f01be004f00be00a9
:1045d8003600f900004006000200fa00000f7800db
:1045e8000040eb00ceff07001e0fe9001e02780016
:1045f800e00f5200faff3d000080fa0000000600bc
:020000040000fa
:1046080080080000540000000200000000000000c4
:10461800000000000000000000010000010001008f
:1046280000f82a00f82a0100006f1200833aa60059
:104638009b443b008fc2f5003c000000803f000017
:10464800000000000000000000000000803f0000a3
:1046580000c8420000000000000000000000000048
:104668000000000000000000000000000000000042
:10467800000000000000000000000000000800002a
:104688008000000000000000200900000200000077
:1046980002000000000000000809000018000000e7
:1046a80000000000d40800003400000000000000f2
:1046b80022090000020000000000000000000000c5
:020000040000fa
:1046c8000200fa00000f7800020037000000000026
:1046d8001e0fe9001e027800e00f5200fbff3a00af
:0846e8000080fa00000006004a
:020000040000fa
:0200000401f009
:04000000e3390000e0
:020000040000fa
:0200000401f009
:04000400ff7f00007a
:020000040000fa
:0200000401f009
:040008006c7f000009
:020000040000fa
:0200000401f009
:04001400ffff0000ea
:020000040000fa
:0200000401f009
:04001800feff0000e7
:00000001FF
