:020000040000fa
:080000000001040000000000f3
:020000040000fa
:100008009401000094010000940100009401000094
:100018009401000094010000940100009401000084
:100028009401000094010000940100003e290000a2
:10003800940100009401000094010000b42900001c
:100048009401000094010000940100009401000054
:100058009401000094010000940100009401000044
:100068009401000094010000940100009401000034
:100078009401000094010000d229000094010000be
:100088008222000094010000940100009401000005
:100098009401000094010000940100009401000004
:1000a80094010000940100009401000094010000f4
:1000b80094010000940100009401000094010000e4
:1000c80094010000940100009401000094010000d4
:1000d80094010000940100009401000094010000c4
:1000e80094010000940100009401000094010000b4
:0800f8009401000094010000d6
:020000040000fa
:100108009401000094010000940100009401000093
:100118009401000094010000940100009401000083
:100128009401000094010000940100003e290000a1
:10013800940100009401000094010000b42900001b
:100148009401000094010000940100009401000053
:100158009401000094010000940100009401000043
:100168009401000094010000940100009401000033
:100178009401000094010000d229000094010000bd
:100188008222000094010000940100009401000004
:100198009401000094010000940100009401000003
:1001a80094010000940100009401000094010000f3
:1001b80094010000940100009401000094010000e3
:1001c80094010000940100009401000094010000d3
:1001d80094010000940100009401000094010000c3
:1001e80094010000940100009401000094010000b3
:0801f8009401000094010000d5
:020000040000fa
:100200008fa12000aefe20000e018800000000003b
:1002100000012000200288000c00070000a9220035
:100220000100200011000700000020000000e00095
:10023000020032000000020000000000c6090200b7
:10024000000000000040da000000fe004440a90069
:10025000402220000000e0000300320000002000e7
:10026000a00188004440a800000006009101880019
:10027000800078000000eb0015003700e2804000ad
:1002800032a0b4009101ba00e280400032a0b40074
:100290009102ba00e280400032a0b4000002eb00fc
:1002a000472bde00f507b200602ce10004003a00a5
:1002b0000059eb008301e900fdff3e000400370018
:1002c0006128e100010032000082eb000400070019
:1002d0001101ba000200e000e8ff3a000000060049
:1002e0003159ba008301e9000c0032002159ba00eb
:1002f0008301e900080032000400e00003003a0036
:10030000e280400032a0b400f5ff370011d9ba00f6
:100310008301e900faff3a008100e800e180400033
:1003200032a0b400000006000040da000000fe0029
:10033000881f78008a1f78004400f800080f20000a
:10034000280288000004900010059000a000900092
:1003500030019000c00190000300ca000280ca0072
:100360000030cb001a00cd004604c3000100ca00d3
:100370004604c0001e04c0000605c0000100cd00f8
:1003800021009800050d7800eaba9700052578004d
:100390004400f9004f0578004f0478000000060083
:1003a000801f78004000b0000008eb004f0078008c
:1003b000801f7800100090000018eb000018eb0080
:1003c0000008eb004f007800000006004400f80031
:1003d000020f200022028800910078003000ca003d
:1003e0003080ca000000cb002080ca000000cb0093
:1003f0003100cd004000ca000000cb000000cb005f
:100400000010cb003100cd001180cc004400f90079
:1004100000000600040024000602ab00feff3a00c4
:100420000642ab00fcff3a000662ab00faff3a005e
:100430000682ab00f8ff3a00461080008602620098
:10044000e08f5200f4ff3a000000060006a2a80068
:100450000682a800000006000602a80000000600b0
:100460000642a8000000060003f0a200889fbe001c
:100470008a9fbe008c1f78008f0107009601330011
:100480006450e1004f0032006420e100520032006d
:1004900003826c0007003b000905d0000306d00072
:1004a000820f54000c065d00020039000200320089
:1004b00089017800030678008582550004003d001c
:1004c0000003fd008103fd008502ea008b854200e8
:1004d000840f720002003b0060001000e0801800f2
:1004e0006011b8000005eb007a28e1000a0039002d
:1004f00006007800c75ddd00f707b2008780750051
:100500002d003700828171000a01780061056000ca
:100510008180d1000080d3008502e900f9ff3b0013
:10052000060440008784480002003b006004140079
:10053000e0841c000988a300070032008a81710052
:1005400082817100610164008904d1000884d300b4
:100550008b05e800170037000978a30013003a0064
:100560000b00e000130034008b05e9000804440090
:1005700089844c000a4474000978a3000d003a00f5
:100580000b00e000070034008b05e900080444007c
:1005900089844c0001003a000b0020000978a30078
:1005a000f7ff32000001eb0002003700828171008a
:1005b0000a017800050107000cf0a70001f0a00077
:1005c0004e0137006420e10002003a00838f6c0086
:1005d0004e0133000801be000200be004701370093
:1005e000889fbe008a9fbe008c1f780032010700e2
:1005f0001002200002003b00b05088003601370096
:100600008a0062006408e10002003a00b0508800ed
:100610003e0137006108e100fcff32000800be0027
:10062000030478007000070001f0a1000900070032
:1006300008f0a600040037000001be009104240069
:10064000b0fd200088ff070009f0a70001f0a2001c
:100650002a013700889fbe008a9fbe008c9fbe0083
:100660000004be00ff0007000800be0089067800f5
:100670006420e10008003900040032000160a0009d
:1006800012022000b25088005300370091fc230072
:10069000b0fd20004e0037000006eb0009f0a1007d
:1006a00003f82300020020000800be009f0007009e
:1006b0000600340001f82300000020000801be00fd
:1006c000490007000004be002c0020000800be0006
:1006d00093e82300320a230094000700120034003c
:1006e0000801be00d1fd2300703d2b005fff070015
:1006f0000005be00b3f32300f27a26000800be0016
:100700001401070003f823000200200056ff070031
:100710000801be0055ff07000a01be0032000700b5
:100720000004be000c06e8000800be0001f0a100b5
:1007300002002000039823007c0007000800be0090
:10074000160035000801be00020107000005be00ca
:1007500032cd2c0043fb230044ff0700809fbe00e6
:100760001269280003d52b000a00be00f90007001b
:10077000620f210013ef2b003cff07000a01be00af
:10078000f40007004f01be00170007000801be007b
:10079000f00007000801be0034ff07000c00e00075
:1007a0000b0032000c10a70001f0a200b2fd2000e7
:1007b00093fc23006260e1000400320022a92000c3
:1007c00063f023000c10a70063f8230027ff070045
:1007d0000df0a70001f0a2004f06be004f05be00bd
:1007e0004f04be0000000600889fbe008a9fbe0026
:1007f0008c1f7800b0000700b700330003866c0040
:100800006450e1002e0032006420e1003300320029
:100810006150e1002f0032006120e1003100320020
:1008200085855500eb07b000090020000804200072
:10083000050037000804440089844c000a00310098
:100840000603430087834b000001530081815b0056
:10085000f8ff33000203be000800a00008044400b3
:1008600089844c00f6ff3900c639dd00830173002e
:1008700001003200130020008904d1000884d30055
:100880000998a300050032000800a7000300a0009b
:100890008904d1000884d3008b05e8008904d100c5
:1008a0000884d3000001eb000281d200470007005a
:1008b00001f0a1000cf0a70001f0a0008f003700ac
:1008c0006420e100910032000801be000200be0079
:1008d000f7ff37006120e1008c0032006000b800b3
:1008e000f3ff37000000200001f82700f0ff370079
:1008f000839f68000100e00002003d0060001000de
:10090000e08018000300e00002003d0060011100db
:10091000e0811900c30007004f00e00002003b0027
:1009200060001000e08018000000060014002000a5
:10093000cf0037000001be004a0007000470a70086
:1009400003f0a1006509b100160032000d0035006a
:100950006828e10006003500f0ff2f00f1ff2700b6
:100960000300e00013003b00010028000000050028
:1009700000004000818048008502e900fcff3a0049
:1009800008003700f88f420002003c008000eb00b6
:10099000000005008100d1000080d3008502e8003e
:1009a000fcff3a000300e00002003b006000100082
:1009b000e0801800000006004f89de008201780008
:1009c000c60037006011b800d40037008100200055
:1009d000618055000b003d000b00200061fe2f00e0
:1009e0000100e1001d00340082817100610164009a
:1009f0008904d1000884d3000000e800faff3a001f
:100a000071002000610064000300700002006000bb
:100a10000900320061044400e0844c000988a5000c
:100a2000050032008b05e8006808e10002003a008a
:100a30008904d1000884d300f20f20000258e1009d
:100a400005003d00c75ddd00f907b2008980750033
:100a500008007800000006000bf827008b007800e3
:100a600000000500c70ade00f107b200f50fb20072
:100a700008003200e1cf4200020032000170a00005
:100a800024000500810f70000100320004080500f9
:100a900044000500810f700002003a0014000500b8
:100aa0008502e9000000400081c04800fcff3b00d7
:100ab0000170a000240005000004be00e9ff07004b
:100ac0000003be000405be000200be00e5ff0700f3
:100ad000844f7500000006000200be006450e10073
:100ae000050036006420e100020036000968a3001a
:100af00001003a000800be000160a0004f06780027
:100b00004f05be004f04be0000000600f0ff2f009e
:100b1000f1ff2700f9ff3700811f78000100e00096
:100b200002003d0060001000e08018000300e000bb
:100b300002003d0060011100e0811900490007003a
:100b40004f00e00002003b0060001000e080180051
:100b500000000600889fbe008a9fbe008c1f7800a0
:100b6000d5ff0700dcff330003866c006450e10012
:100b7000240032006420e100270032006150e100cf
:100b8000220032006120e100210032008b8542000a
:100b9000eb07b1000134b800003ab8000804420085
:100ba00089844a00013ab8000030b80088804000cb
:100bb00009014a0004003300000040008180480021
:100bc000020149008b05e900c909dd0083017000bd
:100bd0000100320013002000c814de004814dd00bc
:100be0004709de001200b200c808de000884700069
:100bf00076ff070001f0a1000cf0a70001f0a000b3
:100c0000beff37006120e100c0ff32000801be00d6
:100c10000200be00f7ff37006150e100fcff3a0020
:100c2000baff37006022b800060220000000d000a2
:100c30008180d2000482d2008582d2000000a00010
:100c40000202520083825a00030031000202420075
:100c500083824a000000a1000603e900f3ff3a0086
:100c600000000600efff07000400be0000000600c1
:100c7000889fbe008a9fbe00841f78008eff0700f9
:100c80004f00780011003300f0ff2f00838f6c00bd
:100c900006003b00040565000a00a70008003700b5
:100ca00009f0a6001000200008003700820f540051
:100cb000838f5c00030039001000200001003e001b
:100cc0000000200009f0a7000000ea004f05be0068
:100cd0004f04be000000e00000000600881f7800fe
:100ce000030478000300e00007003d0060001000ee
:100cf000e080180060011900e081190002003b004b
:100d000001f02d00030037000400070008f0a700e1
:100d100001f0a0004f04780000000600889fbe008c
:100d20008a9fbe000082700004027100048271007c
:100d3000260032000004be000200be006011b800b0
:100d40006b092000950220000182cf000a003900c3
:100d50000541b1000082cf00070039000541b10014
:100d60000982cf00040039000541b1000882cf009c
:100d7000010039000541b100054252001200320065
:100d80000a003b0082817100610164008100d10092
:100d90000080d3008984d3000884d3008b05e80049
:100da0000442e800f7ff3a00070037000804440057
:100db00089844c0000004800818048008b05e900d0
:100dc0000442e900f9ff3a0000ff07004f05be00aa
:100dd0004f04be000000060006c2b3000002780007
:100de00004007800b042780086cf5200fbff32004a
:100df000e9cf5200f9ff3200d6c2b30086cf5200cd
:100e000003003a000002780016c0b3000500370066
:100e10000043eb00b7c2b30087cf520001003a0095
:100e2000000278000000eb00020037006a00b90001
:100e300000804200b402fb000503b100e98f5200bc
:100e4000faff3600e04f5300010032000000ea00d4
:100e50000000060080017800810378000702780016
:100e60000100370085017800110009000282d800d6
:100e7000000278008302e800e00f5200f9ff3a0018
:100e8000844a7800110009008283d800800278002b
:100e90000142780085037800e94f520001003400d8
:100ea0006742420001c3b30081514200e08f52000b
:100eb000f4ff3a000300780000000600881f780065
:100ec00000047800e08f500005003d000800780025
:100ed000d4c2b300045878008100ea000100370052
:100ee00008007800dbff0700080078004f04780056
:100ef000000006000002780002003700315a780036
:100f00000201e900e00f5100fcff3a00000006007a
:100f100000027800b1427800055a7800e0cf520014
:100f2000fcff3a0000000600000278008042eb005f
:100f3000b4cf1200fdff3a000080ea00000042003a
:040f400000000600a7
:020000040000fa
:100f44002d2d00002d2d00002d2d00002d2d000035
:100f54002d2d00002d2d00002d2d00002d2d000025
:100f64002d2d00002d2d00002d2d00002d2d000015
:100f74002d2d00002d2d00002d2d00002d2d000005
:100f84002d2d00002d2d00002d2d00002d2d0000f5
:100f94002d2d00002d2d00002d2d00002d2d0000e5
:100fa4002d2d00002d2d00002d2d000000640000cb
:100fb400617400006f730000206500006e63000020
:100fc4006f6e000074720000616400006f730000b3
:100fd400206500006e2000006c61000020650000a8
:100fe40065700000726f00006d0000006461000015
:100ff400746f0000732000006e6f0000202000005a
:10100400656e0000636f00006e7400007261000082
:10101400646f000073200000656e0000206c000007
:101024006120000065650000707200006f6d0000b3
:101034002c2000006361000072670000616e0000f4
:10104400646f000020640000617400006f7300008e
:101054002073000065670000757200006f73000064
:10106400004b0000505f00007a7900003d00000052
:10107400202c0000204b0000445f00007a7900001f
:101084003d000000202c0000204b0000495f0000c0
:101094007a7900003d0000004249000041530000fd
:1010a400315f00007a7900003d000000202c000030
:1010b4002042000049410000533200005f7a0000e2
:1010c400793d000000540000736100006d70000061
:1010d4006c6500003d000000202c0000207a000018
:1010e400792e0000515f0000616e0000676c000003
:1010f400653d0000002000002c2000007a790000eb
:101104002e5100005f62000069610000733d000021
:10111400002000002c2000007a7900002e520000ec
:101124005f6d00006561000073750000726500006a
:101134003d000000484f00004c41000020510000d9
:101144005545000020540000414c0000204500009b
:101154005354000041530000207900006f20000028
:1011640065730000746f0000792000006d75000045
:101174007920000062690000656e0000207900009b
:1011840020740000752000007175000065200000c7
:10119400746100006c000000636f00007272000054
:1011a40065630000746f000028770000686f00001a
:1011b40020690000206100006d3d00003130000016
:1011c40034290000206e0000756d00006572000077
:1011d4006f2000006465000020660000616c000060
:1011e4006c6f0000732000003d0000006179000076
:1011f4003d000000776800006f20000069200000b7
:10120400616d0000203d0000006500007272000066
:101214006f72000000650000727200006f720000bf
:10122400202d00002d3e0000766100006c6f000050
:1012340072200000776800006f2000006920000021
:10124400616d00003d00000045730000746f0000f4
:101254002065000073200000756e0000612000000e
:10126400707200007565000062610000203d00009e
:1012740020000000536100006c6700006f20000034
:1012840064650000204d0000795300007461000083
:1012940072740000207000006f720000205400007f
:1012a400696d00006572000000530000616c00006d
:1012b400676f000020640000652000004d79000085
:1012c4005265000073740000617200007420000015
:1012d400706f000072200000546900006d6500000a
:1012e40072000000536100006c6700006f20000072
:1012f40064650000206d0000795f000053740000f5
:101304006f700000207000006f7200002054000015
:10131400696d00006572000000530000616c0000fc
:10132400676f000020640000652000006d790000f4
:101334005f570000726900007465000020700000af
:101344006f72000020540000696d00006572000097
:1013540000530000616c0000676f0000206400000f
:10136400652000006d7900005f490000646c000096
:1013740065200000706f00007220000054690000b6
:081384006d650000720000001d
:020000040000fa
:10138c000000fa00120e07000040eb00990f070056
:10139c00870f07000040eb00960f0700680e070050
:1013ac000040eb00930f0700ce0e07000040eb004f
:1013bc00900f0700390e07000040eb008d0f07005f
:1013cc00420a07000040eb008a0f070036010700b5
:1013dc000040eb00870f07003c0a07000040eb00c1
:1013ec00840f0700e30e07000002eb00644d880039
:1013fc0005003700007d2000b60f0700644d80000b
:10140c000402e800644d8800654d8000349c200087
:10141c00848f5200f7ff3400df0e070021032000f9
:10142c00500020003b0a0700db0e0700a000200044
:10143c00b20f0700c10f0700207a28001a0c070012
:10144c00af08070043050700cb02a800ffff3700d9
:10145c001000fa00889fbe00ca02a8000002eb0030
:10146c00040f78000002eb00140798000002eb0058
:10147c0024079800ed0a070000027800cfa2de00d6
:10148c000400be0049fd07000003be00944d80001f
:10149c00a54d80000401be000600be00effb070056
:1014ac000002be000404be00f30a0700000278002c
:1014bc00cfa2de000400be003cfd07000003be000e
:1014cc00b44d8000c54d80000401be000600be0076
:1014dc00e2fb07000002be000801be000400be00d3
:1014ec003cfc07000002be0012ee22005326240032
:1014fc000400be0094fd07000002be0034079800f3
:10150c0045079800020b070000027800cfa2de000e
:10151c000400be0025fd07000003be00f44d800052
:10152c00054e80000401be000600be00cbfb070088
:10153c000002be0002002000333024000400be0074
:10154c00a6fc07000002be0054079800650798002f
:10155c0004002000051224005e019000ee019000b2
:10156c003e009000ce0090005a0207000002be0020
:10157c000400be00ecfc07000002be000402780070
:10158c00a405b00014079800454b8000544b800014
:10159c00304b8000e6fc2f00861f780026032000cd
:1015ac00861f780087c72e008638210080017800be
:1015bc00a20020009e0090000000eb001e0007001f
:1015cc00e48757000002780074079800020020009e
:1015dc00432b24003e009000ce009000a0fb07009f
:1015ec000002be000400be00cffc07000002be00db
:1015fc00040278007e019000840078001e009000a8
:10160c00440d0700654b80007e029000048242006e
:10161c00040078003d040700754b80007e029000aa
:10162c000482520004007800500407004f04be00ee
:10163c000080fa00000006001c00fa006007980009
:10164c0071079800020f9800130f9800240f980050
:10165c00350f9800460f9800570f9800ee02900037
:10166c007e0290000482520014079800044c800003
:10167c009e02900004825200240798009e02900063
:10168c000e0a900004aab900840278002e0a900079
:10169c0004aab90084027800144c80000482420031
:1016ac00144c88009e0290001e0a900004aab900f7
:1016bc000402780034079800154c80004eba97004d
:1016cc00848f5200030035004eb89700104c8800f0
:1016dc0006003700154c80003eba9700848f5200ec
:1016ec0002003c00beb89700114c8800144c8000de
:1016fc0044079800ae0290003e0a900004aab9007c
:10170c00840278000e0a9000110009008402d800af
:10171c000002780054079800be0290005e02900010
:10172c00848242004e029000048f42004e0a9000c8
:10173c009e027800848f5200020035004e0a900001
:10174c00040f78005e0a90009e027800848f52008d
:10175c0002003c005e089000000f78009e00900094
:10176c00014c88001e027800040078000080fa000a
:10177c00000006001c00fa00600798007107980032
:10178c00020f9800130f9800240f9800350f980043
:10179c00460f9800570f9800ee0290007e029000c2
:1017ac000482520014079800e44b80009e029000c3
:1017bc0004825200240798009e0290000e0a9000aa
:1017cc0004aab900840278002e0a900004aab90079
:1017dc0084027800f44b800004824200f44b8800b1
:1017ec009e0290001e0a900004aab9000402780020
:1017fc0034079800f54b80004e0a9000848f5200fd
:10180c00030035004e089000f04b880006003700ae
:10181c00f54b80005e0a9000848f520002003c0061
:10182c00de089000f14b8800f44b800044079800d0
:10183c00ae0290003e0a900004aab900840278001f
:10184c000e0a9000110009008402d80000027800f2
:10185c0054079800be0290005e029000048f420074
:10186c004e0a90009e027800848f520002003500d0
:10187c004e0a9000040f78005e0a90009e027800d9
:10188c00848f520002003c005e089000000f78002c
:10189c009e009000e14b88001e0278000400780046
:1018ac000080fa00000006000000fa006022b80078
:1018bc0024478800354788006022b80044478800d8
:1018cc00554788006022b800644788007547880037
:1018dc006022b8008447880095478800f4282c00c3
:1018ec0055cf23000446880015468800f4262100b5
:1018fc0035a823002446880035468800f4262100ac
:10190c0035b023004446880055468800040020006a
:10191c0005f82300c4468800d54688006022b8002c
:10192c00e4468800f54688006022b8000447880029
:10193c00154788006022b800e4478800f547880006
:10194c000400200005f82300e4478800f5478800d0
:10195c0004002000852c24000448880015488800c9
:10196c006022b800e4448800f54488006022b80086
:10197c0004458800154588006022b800244588007d
:10198c00354588006022b8004445880055458800dc
:10199c00a4702d0035ca2300c4438800d5438800a9
:1019ac00f4282c0055cf2300e4438800f54388002d
:1019bc00f426210035b02300044488001544880027
:1019cc000400200005f82300844488009544880016
:1019dc006022b800a4448800b54488006022b80096
:1019ec00c4448800d54488006022b800a44588000f
:1019fc00b54588000400200005f82300a4458800a4
:101a0c00b545880004002000852c2400c4458800be
:101a1c00d54588006022b800644988007549880063
:101a2c006022b80084498800954988006022b8007b
:101a3c00a4498800b54988006022b800c4498800d0
:101a4c00d5498800d4cc2c00c5dc23004448880040
:101a5c0055488800f4282c0055cf23006448880092
:101a6c0075488800f426210035b02300844888008e
:101a7c00954888000400200005f8230004498800dc
:101a8c00154988006022b80024498800354988002f
:101a9c006022b80044498800554988006022b8008b
:101aac00244a8800354a88000400200005f82300e9
:101abc00244a8800354a880004002000852c240024
:101acc00444a8800554a88000080fa00000006004d
:101adc000c00fa00889fbe00008fbe002207980001
:101aec003307980044079800550798002449800054
:101afc00354980000401be002e009000be0090000d
:101b0c0056fa07000002be00444988005549880077
:101b1c0008498000194980004449800055498000db
:101b2c004e019000de0190000400be0006fc070090
:101b3c000002be000401be000800be0048fa070007
:101b4c000002be00044988001549880068498000dd
:101b5c0079498000c4498000d54980004e0190002d
:101b6c00de0190000400be00f7fb07000002be007f
:101b7c000403be0084498000954980000401be0026
:101b8c000600be0035fa07000002be000403be00ca
:101b9c00a4498000b54980000401be000600be00c7
:101bac002efa07000002be000403be004448800069
:101bbc00554880000401be000600be0028fa07004c
:101bcc000002be004e019000de0190000400be0039
:101bdc00ddfb07000002be000401be000800be00d1
:101bec001ffa07000002be0064498800754988008e
:101bfc008849800099498000c4498000d5498000fb
:101c0c004e019000de0190000400be00cefb0700e8
:101c1c000002be000401be000800be000ffa07005f
:101c2c000002be008449880095498800a8498000bc
:101c3c00b9498000c4498000d54980004e0190000c
:101c4c00de0190000400be00bffb07000002be00d6
:101c5c000401be000800be0000fa07000002be002e
:101c6c00a4498800b5498800c8498000d94980003a
:101c7c0064488000754880004e019000de019000a1
:101c8c000400be00b0fb07000002be000401be0051
:101c9c000800be00f2f907000002be00c44988002b
:101cac00d5498800664980007749800084488000c7
:101cbc00954880000401be000600be00e8f907004c
:101ccc000002be00444a8800554a880066498000dc
:101cdc0077498000444a8000554a80000401be00c8
:101cec000600be00bdfa07000002be00e4498800f1
:101cfc00f5498800a6498000b7498000444a800015
:101d0c00554a80000401be000600be00b3fa07006d
:101d1c000002be00044a8800154a8800044980006d
:101d2c00154980000401be001e00be00cbf907005f
:101d3c000002be00244a8800354a88000849800009
:101d4c0019498000e6498000f7498000244a800048
:101d5c00354a80000401be000600be007afb070075
:101d6c000002be000401be000800be00bcf9070062
:101d7c000002be00044988001549880028498000eb
:101d8c0039498000064a8000174a8000244a8000a6
:101d9c00354a80000401be000600be006afb070045
:101dac000002be000401be000800be00acf9070032
:101dbc000002be002449880035498800684980002b
:101dcc0079498000e6498000f74980006449800029
:101ddc00754980000401be000600be005afb0700d6
:101dec000002be000401be000800be009bf9070003
:101dfc000002be006449880075498800884980004b
:101e0c0099498000e6498000f749800084498000a8
:101e1c00954980000401be000600be004afb070085
:101e2c000002be000401be000800be008bf90700d2
:101e3c000002be008449880095498800a8498000aa
:101e4c00b9498000064a8000174a80006449800026
:101e5c00754980000401be000600be003afb070075
:101e6c000002be000401be000800be007bf90700a2
:101e7c000002be00a4498800b5498800c84980000a
:101e8c00d9498000064a8000174a800084498000a6
:101e9c00954980000401be000600be002afb070025
:101eac000002be000401be000800be006bf9070072
:101ebc000002be00c4498800d5498800044980004e
:101ecc00154980000400be004f04be000080fa00db
:101edc00000006000c00fa00889fbe00008fbe00b8
:101eec00220798003307980044079800550798007c
:101efc00e4468000f54680000401be002e009000f0
:101f0c00be00900055f907000002be00044788008f
:101f1c0015478800c8468000d946800004478000d9
:101f2c00154780004e019000de0190000400be00b9
:101f3c0005fb07000002be000401be000800be0045
:101f4c0047f907000002be00c4468800d546880049
:101f5c0028478000394780008447800095478000df
:101f6c004e019000de0190000400be00f6fa07005e
:101f7c000002be000403be004447800055478000a9
:101f8c000401be000600be0034f907000002be00ca
:101f9c000403be0064478000754780000401be0046
:101fac000600be002df907000002be000403be00af
:101fbc0004468000154680000401be000600be00e9
:101fcc0027f907000002be004e019000de019000d0
:101fdc000400be00dcfa07000002be000401be00d3
:101fec000800be001ef907000002be00244788004e
:101ffc003547880048478000594780008447800057
:10200c00954780004e019000de0190000400be0058
:10201c00cdfa07000002be000401be000800be009d
:10202c000ef907000002be0044478800554788009f
:10203c00684780007947800084478000954780007e
:10204c004e019000de0190000400be00befa0700b5
:10205c000002be000401be000800be00fff807002d
:10206c000002be00644788007547880088478000de
:10207c009947800024468000354680004e01900030
:10208c00de0190000400be00affa07000002be00a3
:10209c000401be000800be00f1f807000002be00fb
:1020ac008447880095478800264780003747800082
:1020bc0044468000554680000401be000600be0068
:1020cc00e7f807000002be000448880015488800a5
:1020dc002647800037478000044880001548800060
:1020ec000401be000600be00bcf907000002be00e1
:1020fc00a4478800b5478800664780007747800072
:10210c0004488000154880000401be000600be0093
:10211c00b2f907000002be00c4478800d54788000a
:10212c00c4468000d54680000401be001e00be00df
:10213c00caf807000002be00e4478800f547880093
:10214c00c8468000d9468000a6478000b74780006b
:10215c00e4478000f54780000401be000600be0085
:10216c0079fa07000002be000401be000800be00a0
:10217c00bbf807000002be00c4468800d5468800a4
:10218c00e8468000f9468000c6478000d7478000ab
:10219c00e4478000f54780000401be000600be0045
:1021ac0069fa07000002be000401be000800be0070
:1021bc00abf807000002be00e4468800f546880034
:1021cc002847800039478000a6478000b747800029
:1021dc0024478000354780000401be000600be0085
:1021ec0059fa07000002be000401be000800be0040
:1021fc009af807000002be00244788003547880083
:10220c004847800059478000a6478000b7478000a8
:10221c0044478000554780000401be000600be0004
:10222c0049fa07000002be000401be000800be000f
:10223c008af807000002be00444788005547880012
:10224c006847800079478000c6478000d7478000e8
:10225c0024478000354780000401be000600be0004
:10226c0039fa07000002be000401be000800be00df
:10227c007af807000002be006447880075478800a2
:10228c008847800099478000c6478000d747800068
:10229c0044478000554780000401be000600be0084
:1022ac0029fa07000002be000401be000800be00af
:1022bc006af807000002be00844788009547880032
:1022cc00c4468000d54680000400be004f04be000a
:1022dc000080fa00000006000c00fa00889fbe0087
:1022ec00008fbe002207980033079800440798001f
:1022fc0055079800a4448000b54480000401be003a
:10230c002e009000be00900054f807000002be00a2
:10231c00c4448800d54488008844800099448000d7
:10232c00c4448000d54480004e019000de01900032
:10233c000400be0004fa07000002be000401be0047
:10234c000800be0046f807000002be008444880066
:10235c0095448800e8448000f9448000444580009e
:10236c00554580004e019000de0190000400be0037
:10237c00f5f907000002be000403be00044580000e
:10238c00154580000401be000600be0033f80700ae
:10239c000002be000403be002445800035458000c9
:1023ac000401be000600be002cf807000002be00af
:1023bc000403be00c4438000d54380000401be006a
:1023cc000600be0026f807000002be004e01900079
:1023dc00de0190000400be00dbf907000002be0025
:1023ec000401be000800be001df807000002be007c
:1023fc00e4448800f54488000845800019458000b5
:10240c0044458000554580004e019000de0190004f
:10241c000400be00ccf907000002be000401be009f
:10242c000800be000df807000002be00044588003d
:10243c0015458800284580003945800044458000ba
:10244c00554580004e019000de0190000400be0056
:10245c00bdf907000002be000401be000800be006a
:10246c00fef707000002be002445880035458800b1
:10247c004845800059458000e4438000f5438000c6
:10248c004e019000de0190000400be00aef9070082
:10249c000002be000401be000800be00f0f70700f9
:1024ac000002be004445880055458800e644800083
:1024bc00f744800004448000154480000401be00f1
:1024cc000600be00e6f707000002be00c445880007
:1024dc00d5458800e6448000f7448000c445800060
:1024ec00d54580000401be000600be00bbf8070005
:1024fc000002be00644588007545880026458000b2
:10250c0037458000c4458000d54580000401be00dd
:10251c000600be00b1f807000002be00844588002a
:10252c009545880084448000954480000401be00d9
:10253c001e00be00c9f707000002be00a4458800bb
:10254c00b545880088448000994480006645800029
:10255c0077458000a4458000b54580000401be008d
:10256c000600be0078f907000002be000401be00a0
:10257c000800be00baf707000002be0084448800c1
:10258c0095448800a8448000b944800086458000aa
:10259c0097458000a4458000b54580000401be002d
:1025ac000600be0068f907000002be000401be0070
:1025bc000800be00aaf707000002be00a444880071
:1025cc00b5448800e8448000f944800066458000ea
:1025dc0077458000e4448000f54480000401be008f
:1025ec000600be0058f907000002be000401be0040
:1025fc000800be0099f707000002be00e444880002
:10260c00f544880008458000194580006645800027
:10261c007745800004458000154580000401be000c
:10262c000600be0048f907000002be000401be000f
:10263c000800be0089f707000002be0004458800b0
:10264c001545880028458000394580008645800066
:10265c0097458000e4448000f54480000401be00ee
:10266c000600be0038f907000002be000401be00df
:10267c000800be0079f707000002be002445880060
:10268c0035458800484580005945800086458000c6
:10269c009745800004458000154580000401be006c
:1026ac000600be0028f907000002be000401be00af
:1026bc000800be0069f707000002be004445880010
:1026cc005545880084448000954480000400be0079
:1026dc004f04be000080fa00000006000200fa0061
:1026ec00000f78001e027800e00f520003003d003e
:1026fc000002eb00040c8800020037001e02780078
:10270c00040c88000080fa00000006000200fa00a9
:10271c00000f78001e027800e00f520003003d000d
:10272c000002eb00340c8800020037001e02780017
:10273c00340c88000080fa00000006000200fa0049
:10274c00000f78001e027800e00f520003003d00dd
:10275c000002eb00640c8800020037001e027800b7
:10276c00640c88000080fa00000006000200fa00e9
:10277c00000f78001e027800e00f520003003d00ad
:10278c000002eb00940c8800020037001e02780057
:10279c00940c88000080fa00000006001e00fa006d
:1027ac00200f9800310f9800420f9800530f98009b
:1027bc00640f980004002000051a2400048fbe004a
:1027cc006022b80024079800350798006022b800f2
:1027dc0044079800550798006022b80064079800d9
:1027ec00750798006022b800040f9800150f980028
:1027fc006e0a9000cfa2de000400be006bf807004a
:10280c000002be0002002000a34724000400be000a
:10281c00f2f707000002be00240798003507980065
:10282c00444d8000554d80000401be002e089000e0
:10283c00be08900009f707000002be001e01be0092
:10284c000400be00c0f807000002be001e01be005e
:10285c000400be00bcf807000002be00440798004c
:10286c00550798004e019000de0190002e0090005c
:10287c00be009000b4f807000002be000401be00c8
:10288c006e009000fe009000f5f607000002be00fe
:10289c006407980075079800444d8000554d8000e2
:1028ac000401be002e089000be089000ebf6070055
:1028bc000002be000401be000400be00e8f60700e2
:1028cc000002be001e01be000400be009ef8070000
:1028dc000002be006e019000fe0190000400be00dc
:1028ec00dff607000002be004e099000de099000e2
:1028fc000400be00daf607000002be00040f9800c8
:10290c00150f98000e0990009e0990002e00900063
:10291c00be0090008cf807000002be000403be004d
:10292c00444d8000554d80000401be000600be00e1
:10293c00cbf607000002be00444d8800554d8800c0
:10294c00444d8000554d80000400be000080fa000c
:10295c00000006000000fa000000eb00d90a070096
:10296c000002780095b32100850f520045003a0013
:10297c00907d2800cc06070020002000d10a07001b
:10298c0000027800344b880040002000cd0a07007c
:10299c0000027800444b880060002000c90a070040
:1029ac0000027800544b880080002000c50a070004
:1029bc0000027800644b8800a0002000c10a0700c8
:1029cc0000027800744b8800c0002000bd0a07008c
:1029dc0000027800844a8800e0002000b90a070051
:1029ec0000027800050020000400be00f2f707008a
:1029fc000002be0002002000a34724000400be0019
:102a0c0076f707000002be000446880015468800d1
:102a1c0000012000ab0a070000027800050020002e
:102a2c000400be00e4f707000002be000200200014
:102a3c00a34724000400be0068f707000002be0094
:102a4c002446880035468800200120009d0a070096
:102a5c0000027800050020000400be00d6f7070035
:102a6c000002be0002002000a34724000400be00a8
:102a7c005af707000002be004446880055468800fd
:102a8c001a003700807f280087060700c40020004a
:102a9c00344b880004192000444b88000002eb00e2
:102aac00544b880084252000644b8800842520002a
:102abc00744b8800b4002000844a880074712b0089
:102acc00158d23000446880015468800d4cc2c00b4
:102adc00c5dc23002446880035468800f4282c00e9
:102aec0055cf23004446880055468800344b80005f
:102afc00840078003083280056060700444b800081
:102b0c0084007800a083280052060700544b8000f4
:102b1c00840078004084280039060700644b80004c
:102b2c0084007800e08428004a060700744b80007b
:102b3c00840078008085280031060700844a8000d4
:102b4c008400780050862800420607000446800066
:102b5c001546800002002000a34724000400be009c
:102b6c00f9f707000002be000400be006ef7070074
:102b7c000002be000402780084007800e086280081
:102b8c0034060700244680003546800002002000f1
:102b9c00a34724000400be00ebf707000002be00b0
:102bac000400be0060f707000002be0004027800bb
:102bbc0084007800d0872800260607004446800051
:102bcc005546800002002000a34724000400be00ec
:102bdc00ddf707000002be000400be0052f707003c
:102bec000002be000402780084007800b08828003f
:102bfc00030607000080fa00000006000000fa003f
:102c0c0044ef2700040c880044ef2700340c8800a4
:102c1c0044ef2700640c880044ef2700940c8800d4
:102c2c000080fa00000006000200fa000002eb002f
:102c3c00040f78001c003700940c80000402e8009c
:102c4c00940c8800640c80000402e800640c88007a
:102c5c00340c80000402e800340c8800040c800062
:102c6c000402e800040c8800803821009909070050
:102c7c00950c8000b4ff2000848f52000a003600af
:102c8c00f4ff2000940c8800f4ff2000640c8800f2
:102c9c00f4ff2000340c8800f4ff2000040c8800a2
:102cac0014002000040f78001e027800e00f520080
:102cbc00e1ff32001c003700940c80000402e90094
:102ccc00940c8800640c80000402e900640c8800f9
:102cdc00340c80000402e900340c8800040c8000e1
:102cec000402e900040c88008038210079090700ef
:102cfc00950c800004072000848f52000a003e00cf
:102d0c000002eb00940c88000002eb00640c8800bd
:102d1c000002eb00340c88000002eb00040c88006d
:102d2c000002eb00040f78001e027800e10f520045
:102d3c00e1ff32000080fa00000006000200fa00f9
:102d4c000002eb00040f78000082eb00040f780007
:102d5c000b0037001e027800940c88001e027800cd
:102d6c00640c88001e027800340c88001e02780067
:102d7c00040c880080382100560907001e0fe9005a
:102d8c001e027800e00f5200f2ff34000080fa00bf
:102d9c00000006000200fa00000f78009e00780088
:102dac008082200057f80700808220005bf8070023
:102dbc000002780084007800808220006305070000
:102dcc0080382100430907000080fa00000006004b
:102ddc000000fa00f4108000a200200084007800ab
:102dec008082200032f80700808220004bf8070018
:102dfc0000027800840078008082200053050700d0
:102e0c00f4108000a2002000840078008082200052
:102e1c0027f807008082200040f8070000027800a5
:102e2c00840078008082200048050700f4108000a0
:102e3c00a200200084007800808220001cf807008b
:102e4c008082200035f807000002780084007800aa
:102e5c00808220003d050700f4108000a2002000b5
:102e6c00840078008082200011f807008082200006
:102e7c002af8070000027800840078008082200085
:102e8c003205070022032000c1892800808220001f
:102e9c0015f807008082200020f807000002780057
:102eac0084007800808220002805070080382100eb
:102ebc00080907008082200018f80700000278003b
:102ecc0084007800808220002005070080382100d3
:102edc00000907008082200010f80700000278002b
:102eec0084007800808220001805070080382100bb
:102efc00f80807008082200008f80700000278001c
:102f0c0084007800808220001005070080382100a2
:102f1c00f00807008082200000f80700000278000b
:102f2c00840078008082200008050700803821008a
:102f3c00e808070080822000f8f7070000027800fc
:102f4c008400780080822000000507008038210072
:102f5c00e008070080822000f0f7070000027800ec
:102f6c008400780080822000f8040700803821005b
:102f7c00d808070080822000e8f7070000027800dc
:102f8c008400780080822000f00407008038210043
:102f9c00d00807000080fa00000006000000fa00cc
:102fac0019f5070029f50700000000003410800017
:102fbc0061026200e00f5200fcff3a0000cdb3004a
:102fcc0024020700000000004510800004002800c7
:102fdc0004826200e00f5200fbff3a000af5070082
:102fec0050c7b3001b020700000000004510800012
:102ffc000400280004826200e00f5200fbff3a003c
:10300c0001f507000622a8000000000000000000e7
:10301c003410800062026200e00f5200fcff3a00a4
:10302c0010cdb3000b02070000000000451080001b
:10303c000400280004826200e00f5200fbff3a00fb
:10304c00f1f407000662a8000000000044108000a4
:10305c0062026200e00f5200fcff3200f8f407003d
:10306c00fcf40700000000003410800064026200d1
:10307c00e00f5200fcff3a000080fa00000006004e
:10308c001a00fa00200f9800310f9800420f980098
:10309c000002eb00140798002e099000be09900066
:1030ac0062079800730798006e02900005002000dc
:1030bc0024079800350798007e0290000474a10044
:1030cc000482fb0005002000c022dd00040020006b
:1030dc002e039000be0390000602420087824a0035
:1030ec0024079800350798002e039000be0390002b
:1030fc0004002000050820000602420087824a00d6
:10310c0024079800350798007e029000c722de0045
:10311c0000c2eb0084c2620014c8b30004c24200b7
:10312c00044f98000e4a9000f24f520010003400e9
:10313c00ce0a900094c4b300844a78004e0a9000e2
:10314c008402e800e4c6b300844a78004e0a90007a
:10315c008482e80064c6b300844a78004e0a90006a
:10316c00e30242000042eb00844a7800c4003700be
:10317c000e4a9000e34f420008003d00ce0a90003a
:10318c0004c3b300844a78004e0a90008402e8001d
:10319c000042eb00844a7800b90037000002eb00d3
:1031ac0014079800fe0290000400280004826200bc
:1031bc00e00f520006003200ce0a9000d4c2b300d9
:1031cc00844a78001e0290000402e800140798005c
:1031dc000e4a90000402fb00770312002e029000ae
:1031ec00be029000860178008301e90003003300e1
:1031fc008502d1000482d300fbff370054079800ee
:10320c001e029000ce0a9000048342005e029000e1
:10321c0005002000060178000400be009a0007009b
:10322c000002eb00040f78000a0037001e02780041
:10323c00ce0a90000482420014427800e04f520003
:10324c0003003a001e0278001407980004003700af
:10325c001e0fe8001e027800e70f5200f3ff340047
:10326c001e029000e50f520084003c001e029000ec
:10327c00ce0a900084824200e4c2b300844a7800f3
:10328c001e0290000402e800140798000e4a9000f9
:10329c000402fb00740312002e029000be02900088
:1032ac000401be00860078008100e90003003300b1
:1032bc008301d1000281d300fbff37000203be0063
:1032cc007400200005002000060078000703780039
:1032dc008403780005027800070060000402630094
:1032ec0005002000c022dd00040020000403be0005
:1032fc006102b8000403730085837300740020001e
:10330c0005002000840f5300858f5b0041003e00b8
:10331c0006600100070037000d003700130037006e
:10332c00190037001f003700250037002b0037002d
:10333c003100370004c3b3000457980004c3b30032
:10334c001457980004c3b300245798003100370079
:10335c0014c3b3000457980024c3b3001457980047
:10336c0054c3b300245798002a00370024c3b30079
:10337c000457980054c3b3001457980004c3b30007
:10338c00245798002300370034c3b3000457980027
:10339c0074c3b3001457980054c3b3002457980057
:1033ac001c00370054c3b3000457980004c3b30087
:1033bc001457980004c3b300245798001500370025
:1033cc0064c3b3000457980024c3b3001457980087
:1033dc0054c3b300245798000e00370074c3b300d5
:1033ec000457980054c3b3001457980004c3b30097
:1033fc00245798000700370084c3b3000457980083
:10340c0074c3b3001457980054c3b30024579800e6
:10341c00000000000002eb00040f78000e003700e3
:10342c001e029000e60f52000a003c001e029000a3
:10343c00ce0a900084824200700247001e024200b5
:10344c0014427800844a78001e0290000402e800be
:10345c00140798001e0fe8001e027800e20f5200bd
:10346c00efff34001e029000ce0a900084824200ce
:10347c000042eb00844a7800010037000000000095
:10348c000080fa00000006000c00fa00881f78008b
:10349c003007980041079800520798003e029000b0
:1034ac00ce02900014079800250798001e02900089
:1034bc00ae029000e00f5200e08f5a0006003d0073
:1034cc003e029000ce02900060021200e0821a00d0
:1034dc0034079800450798000002eb00040f7800b1
:1034ec001e027800de029000048442003e0290002e
:1034fc00ce029000a2002000030020000400be00b9
:10350c0082f507000002be00044278000443b000bc
:10351c00044c78001e0fe8003e029000ce02900092
:10352c00a2002000030020000400be00edf4070000
:10353c000002be0034079800450798003e02900038
:10354c00ce029000e00f5200e08f5a00e4ff3c00e6
:10355c001e029000ae029000e00f5200e08f5a0065
:10356c0006003d001e027800de02900084824200bc
:10357c00d4c2b300844a78001e0fe8001e02780003
:10358c00de029000848242000042eb00844a780004
:10359c005e009000030007004f0478000080fa00e2
:1035ac00000006000800fa00300798000002eb004b
:1035bc00040f78003e00900058f6070000027800d7
:1035cc000402e90014079800160037001e02780068
:1035dc00be02900004824200944278004547980055
:1035ec001e027800be029000848242001e029000ef
:1035fc003e0390000402430014427800844a780091
:10360c001e029000be02900004824200ce42900046
:10361c00054a78001e0fe8001e0290000402e90023
:10362c00140798001e0290009e027800848f5200ae
:10363c00e6ff35000080fa00000006000400fa00e6
:10364c000002eb00040f780020032000170707008e
:10365c000002eb0014079800e60207000002780055
:10366c00140798009e02900084062000848f52005c
:10367c000b003a00cb22a800cb42a9009e00780098
:10368c00e08c28005e030700680207000002780047
:10369c0084007800808f280059030700160037003b
:1036ac008a0107009e009000c08f28005403070079
:1036bc005e0207000002780084007800808f2800ea
:1036cc004f0307001e0fe8009e0078007090280042
:1036dc004b0307001e027800e50f520006003a006b
:1036ec000002eb00040f7800ca62a800cb22a900ec
:1036fc00803e2000ed0607000080fa000000060066
:10370c000000fa00bb0207000002780085062000ca
:10371c00850f520003003a00cb22a800ca62a90010
:10372c0002003700cb22a900ca62a8000080fa0070
:10373c00000006000c00fa00ae0207000002780040
:10374c0085062000850f520016003a00ea02470059
:10375c006802470066004700e40347000e83e80058
:10376c008001780007017800860078000e00780050
:10377c00a7020700ce0390003e0390009e0290002b
:10378c001e02780087017800060178008500780019
:10379c0004007800f5040700cb42a900ca62a80017
:1037ac0009003700930207000002780084007800bb
:1037bc00d090280012030700ca42a900803e2000c6
:1037cc00ba060700410107000080fa00000006005d
:1037dc000200fa000002eb00040f7800040037002e
:1037ec009e00780060922800050307001e0fe80079
:1037fc00f47022009e027800848f5200f8ff34008f
:10380c000080fa00000006000200fa000002eb0043
:10381c00040f7800090037001e027800940c880011
:10382c00940c8000640c8800640c8000340c8800bc
:10383c00340c8000040c88001e0fe800f4e1240016
:10384c009e027800848f5200f3ff34000080fa004f
:10385c00000006000200fa00004f78009e4278003b
:10386c000582fb001410880000000000441080004a
:10387c0061026200e00f5200fcff3a000080fa0087
:10388c00000006000000fa00040220000409880071
:10389c0004572000e40888000002eb00c4088800ec
:1038ac0086c0a90021e1a9008ec0a90021e1a800d1
:1038bc000080fa00000006000000fa000602a800d2
:1038cc00f0ff070086c0a900000000003410800043
:1038dc0061026200e00f52000500320035048000e6
:1038ec000404200004826200e00f5200f7ff320053
:1038fc0021e1a90035048000040420000482620048
:10390c00e00f520002003200c0932800e6020700cc
:10391c000002eb00040078000080fa0000000600b2
:10392c000000fa000622a800d6ff070086c0a900f6
:10393c00000000003410800062026200e00f5200b0
:10394c00050032003504800004042000048262006b
:10395c00e00f5200f7ff320021e1a900350480008e
:10396c000404200004826200e00f520002003200c6
:10397c0070952800cc0207000002eb0004007800d0
:10398c000080fa00000006000000fa000642a800c1
:10399c00bcff070086c0a9000000000034108000a6
:1039ac0064026200e00f5200050032003504800012
:1039bc000404200004826200e00f5200f7ff320082
:1039cc0021e1a90035048000040420000482620077
:1039dc00e00f52000200320040972800b2020700ac
:1039ec000002eb00040078000080fa0000000600e2
:1039fc000200fa00004f78009e4278000582fb001e
:103a0c00141088009fff070086c0a900000000006a
:103a1c004410800061026200e00f52000500320089
:103a2c00350480000404200004826200e00f520080
:103a3c00f7ff320021e1a9003504800004042000c6
:103a4c0004826200e00f520002003200f09828005d
:103a5c00950207000002eb00040078000080fa00d9
:103a6c00000006000000fa0086ff070086c0a900cf
:103a7c000000000045108000040024000482620055
:103a8c00e00f5200050032003504800004042000d1
:103a9c0004826200e00f5200f6ff320021e1a9001f
:103aac00350480000404200004826200e00f520000
:103abc0002003200b09a28007b0207000002eb00e3
:103acc00040078000080fa00000006000000fa00f4
:103adc00441080000482ea004f22de0004007800cb
:103aec000080fa00000006000000fa0006a2a80000
:103afc000682a800000000003410800070026200f2
:103b0c00e00f5200fcff3a0006a2a9000002eb00f5
:103b1c00040078000080fa00000006000000fa00a3
:103b2c0006a2a9000682a800000000003410800044
:103b3c0070026200e00f5200fcff3a000002eb0042
:103b4c00040078000080fa00000006000000fa0073
:103b5c000662a800000000004410800062026200af
:103b6c00e00f5200fcff32000410800004007800cb
:103b7c000080fa00000006000000fa000662a800af
:103b8c0010002000d3050700000000003410800056
:103b9c0068026200e00f5200fcff3a0014002000a3
:103bac00040078000080fa00000006000400fa000f
:103bbc00000f78002147980011003700e3ff070041
:103bcc0000027800044278009e027800844a780053
:103bdc001e0fe800451080000440200004826200a3
:103bec00e00f5200020032000082eb000f003700a1
:103bfc002e429000e04f520001003200c7ff070038
:103c0c002e4290000482fb000402ea004f22de00e8
:103c1c0004427800ae4290008542e90025479800a6
:103c2c00e04f5200e5ff3a000002eb000400780080
:103c3c000080fa00000006000200fa00004f780035
:103c4c0088ff07001cff070000cdb30068ff0700ca
:103c5c0084ff07001e40780065ff070081ff070006
:103c6c002fff070010cdb30061ff07007dff070099
:103c7c00c1ff07009cff070043ff070004108000f2
:103c8c00040078000080fa00000006000200fa0030
:103c9c00004f78001147980007ff070000cdb300d4
:103cac0053ff07006fff07001e40780050ff07000e
:103cbc006cff07001e4090004dff070069ff0700d6
:103ccc0031ff07000080fa00000006000000fa0037
:103cdc00f1c0b30090c1b300ecff070011c0b300fa
:103cec00b0c6b300e9ff070011c0b300b0c1b30008
:103cfc00e6ff070011c0b300c0c1b300e3ff07002b
:103d0c0051c0b300a0c1b300e0ff07000080fa006f
:103d1c00000006000600fa00889fbe0010079800fd
:103d2c00210798001e009000600507000002eb00c0
:103d3c00040f780055003700a90007000002780036
:103d4c00cfa2de000400be0018f307000003be0083
:103d5c00d44d8000e54d80000401be000600be007d
:103d6c00bff107000002be00744d8800854d88002d
:103d7c00ae00070000027800cfa2de000400be00f7
:103d8c000af307000003be00f44d8000054e8000ce
:103d9c000401be000600be00b1f107000002be0027
:103dac00944d8800a54d8800b300070000027800f0
:103dbc00cfa2de000400be00fcf207000003be0030
:103dcc00144e8000254e80000401be000600be008b
:103ddc00a3f107000002be00b44d8800c54d880059
:103dec00b800070000027800cfa2de000400be007d
:103dfc00eef207000003be00d44d8000e54d8000bc
:103e0c000401be000600be0095f107000002be00d2
:103e1c00d44d8800e54d8800bd00070000027800f5
:103e2c00cfa2de000400be00e0f207000003be00db
:103e3c00f44d8000054e80000401be000600be005b
:103e4c0087f107000002be00f44d8800054e880083
:103e5c00c200070000027800cfa2de000400be0002
:103e6c00d2f207000003be00144e8000254e8000e5
:103e7c000401be000600be0079f107000002be007e
:103e8c00144e8800254e88001e0fe8002e0290006c
:103e9c009e027800848f5200a7ff3500784d800079
:103eac00894d80002e029000cfa2de000400be00df
:103ebc00bef207000002be000401be000800be00f6
:103ecc0046f207000002be00744d8800854d880044
:103edc00984d8000a94d80002e029000cfa2de00ec
:103eec000400be00b1f207000002be000401be00d7
:103efc000800be0039f207000002be00944d880095
:103f0c00a54d8800b84d8000c94d80002e02900050
:103f1c00cfa2de000400be00a4f207000002be0027
:103f2c000401be000800be002cf207000002be0017
:103f3c00b44d8800c54d8800d84d8000e94d8000f7
:103f4c002e029000cfa2de000400be0097f2070004
:103f5c000002be000401be000800be001ff20700f4
:103f6c000002be00d44d8800e54d8800f84d80005d
:103f7c00094e80002e029000cfa2de000400be008d
:103f8c008af207000002be000401be000800be0059
:103f9c0012f207000002be00f44d8800054e8800a6
:103fac00184e8000294e80002e029000cfa2de0019
:103fbc000400be007df207000002be000401be003a
:103fcc000800be0005f207000002be00144e880077
:103fdc00254e88004f04be000080fa000000060049
:103fec000400fa000002eb00040f78000002eb0062
:103ffc0014079800b0c3b3000fff0700000278004d
:10400c0014079800c0c3b3000bff07000002780030
:10401c00040f78001e0290004822dd001e024200b0
:10402c00040078000080fa00000006000400fa008a
:10403c000002eb00040f78000002eb00140798005c
:10404c00d0c3b300fcfe07000002780014079800f0
:10405c00e0c3b300f8fe070000027800040f7800fc
:10406c001e0290004822dd001e024200040078006f
:10407c000080fa00000006000400fa000002eb00c9
:10408c00040f78000002eb0014079800f0c3b30093
:10409c00e9fe0700000278001407980000c4b30082
:1040ac00e5fe070000027800040f78001e02900065
:1040bc004822dd001e024200040078000080fa0055
:1040cc00000006000400fa000002eb00040f780068
:1040dc000002eb001407980030c4b300d6fe0700b2
:1040ec00000278001407980040c4b300d2fe070009
:1040fc0000027800040f78001e0290004822dd00b8
:10410c001e024200040078000080fa000000060045
:10411c000400fa000002eb00040f78000002eb0030
:10412c001407980050c4b300c3fe070000027800c7
:10413c001407980060c4b300bffe070000027800ab
:10414c00040f78001e0290004822dd001e0242007f
:10415c00040078000080fa00000006000400fa0059
:10416c000002eb00040f78000002eb00140798002b
:10417c0070c4b300b0fe070000027800140798006a
:10418c0080c4b300acfe070000027800040f780076
:10419c001e0290004822dd001e024200040078003e
:1041ac000080fa00000006000400fa000002eb0098
:1041bc00040f78000002eb001407980010c4b30041
:1041cc009dfe0700000278001407980020c4b3007d
:1041dc0099fe070000027800040f78001e02900080
:1041ec004822dd001e024200040078000080fa0024
:1041fc00000006000000fa0050c7b3008efe070056
:10420c0000027800040078000080fa00000006002c
:10421c000c00fa00000f7800110798002207980094
:10422c003307980044079800550798006cff070067
:10423c00000278009e027800840a78007bff070059
:10424c00000278009e029000840a78008aff070022
:10425c0000027800ae029000840a780099ff0700f3
:10426c0000027800be029000840a7800a8ff0700c4
:10427c0000027800ce029000840a7800b7ff070095
:10428c0000027800de029000840a78000080fa00b8
:10429c00000006000000fa00d4002000d4108800b2
:1042ac0000000000c5108000041020000482620091
:1042bc00e00f5200fbff3200a4002000d410880055
:1042cc0000000000c5108000041020000482620071
:1042dc00e00f5200fbff32000080fa0000000600e5
:1042ec000600fa0010079800210798000042eb0026
:1042fc00044f78000e0037009e4278000582fb00c8
:10430c009e02900004824200144278000402fb00da
:10431c00d410880000000000c5108000041020009c
:10432c0004826200e00f5200fbff32001e4fe800d7
:10433c001e4278008482fb002e029000848f520073
:10434c00edff35000080fa00000006000400fa00c2
:10435c00000f7800110798009e0090001e00780056
:10436c00dfff0700cbff07000080fa00000006000b
:10437c000600fa0010079800210798000042eb0095
:10438c00044f78000e0037009e4278000582fb0037
:10439c009e02900004824200144278000482fb00ca
:1043ac00d410880000000000c5108000041020000c
:1043bc0004826200e00f5200fbff32001e4fe80047
:1043cc001e4278008482fb002e029000848f5200e3
:1043dc00edff35000080fa00000006000400fa0032
:1043ec00000f7800110798009e0090001e007800c6
:1043fc00dfff0700a7ff07000080fa00000006009f
:10440c000400fa00000f7800110798001e007800d5
:10441c00c2f2070000027800840078001e007800c9
:10442c00afff0700a20020009e00900080822000b9
:10443c009ff2070080822000b8f20700000278008b
:10444c008400780080822000c0ff07000080fa0002
:10445c00000006000400fa00000f78001107980015
:10446c001e007800adf2070000027800840078008e
:10447c001e0078009aff0700a20020009e0090000a
:10448c00808220008af2070080822000a3f20700bd
:10449c0000027800840078008082200090ff0700e2
:1044ac000080fa00000006000200fa00000f7800fd
:1044bc001e00780099f20700000278008400780052
:1044cc001e007800a1ff07000080fa000000060023
:1044dc000200fa00000f78001e0078008ff207002f
:1044ec0000027800840078001e0078007cff070032
:1044fc000080fa00000006003600f800809fbe0025
:10450c00829fbe00849fbe00869fbe000200fa0000
:10451c008e030700a6508000e4108000044278004f
:10452c00e59c200085024300844a7800a550800059
:10453c0004032000848f520003003c00a450800030
:10454c000402e800a4508800a45080008402e90012
:10455c00e49c2000048242009442780034c2b300f0
:10456c0084cf520013003a00a45080000402e900ea
:10457c00a4508800e09c2000170007000002eb000c
:10458c00040f780005003700e49c20009e024200d6
:10459c0004c2b300844a78001e0fe8001403200004
:1045ac009e027800848f5200f7ff34000002eb006b
:1045bc00a45088008700a9001822a9000080fa00e6
:1045cc004f03be004f02be004f01be004f00be00a5
:1045dc003600f900004006006400fa00103798001d
:1045ec000002eb00040f78000002eb0014079800a7
:1045fc000002eb00240798000002eb00340798003f
:10460c006802470004000900001aeb007202470020
:10461c0004000900001aeb007c02470004000900aa
:10462c00001aeb000e0278006402b00004000900ce
:10463c00001aeb000e0278000403b000040009001d
:10464c00001aeb000e027800a403b000040009006d
:10465c00001aeb000e0278004404b00004000900bc
:10466c00001aeb000e027800e404b000040009000c
:10467c00001aeb000e0278008405b000040009005b
:10468c00001aeb001e027800e00f52007900340093
:10469c001e0278009e329000048242009442780000
:1046ac00c4c2b30084cf52006d0032002e029000c1
:1046bc00e00f520008003a001e0278009e32900073
:1046cc000482420014427800680347009e02900066
:1046dc0085024300844a78002e029000e10f5200bc
:1046ec0008003a001e0278009e32900004824200bc
:1046fc0014427800720347009e029000850243002a
:10470c00844a78002e029000e20f520008003a0012
:10471c001e0278009e3290000482420014427800ff
:10472c007c0347009e02900085024300844a780077
:10473c002e029000e30f520009003a001e0278008e
:10474c009e329000048242001442780066022000df
:10475c000e0343009e02900085024300844a7800b9
:10476c002e029000e40f520009003a001e0278005d
:10477c009e3290000482420014427800060320000e
:10478c000e0343009e02900085024300844a780089
:10479c002e029000e50f520009003a001e0278002c
:1047ac009e3290000482420014427800a60320003e
:1047bc000e0343009e02900085024300844a780059
:1047cc002e029000e60f520009003a001e027800fb
:1047dc009e3290000482420014427800460420006d
:1047ec000e0343009e02900085024300844a780029
:1047fc002e029000e70f520009003a001e027800ca
:10480c009e3290000482420014427800e60420009c
:10481c000e0343009e02900085024300844a7800f8
:10482c002e029000e80f520009003a001e02780098
:10483c009e329000048242001442780086052000cb
:10484c000e0343009e02900085024300844a7800c8
:10485c001e0290000402e8001407980005003700bf
:10486c002e0290000402e800240798000002eb00de
:10487c00140798001e0fe8001e0278009e3290006c
:10488c00048242009442780034c2b30084cf5200b8
:10489c007cff3a0068024700040078004bf10700e7
:1048ac00000278008400780020002000d20207006b
:1048bc007c0247000400780044f1070000027800f5
:1048cc008400780040002000cb02070072024700f1
:1048dc00040078003df107000002780084007800a5
:1048ec0060002000c4020700640220000e02420097
:1048fc000400780035f1070000027800840078008d
:10490c0080002000bc020700040320000e024200bd
:10491c00040078002df10700000278008400780074
:10492c00a0002000b4020700a40320000e024200e5
:10493c000400780025f1070000027800840078005c
:10494c00c0002000ac020700440420000e0242000c
:10495c00040078001df10700000278008400780044
:10496c00e0002000a4020700e40420000e02420034
:10497c000400780015f1070000027800840078002c
:10498c00000120009c020700840520000e0242005a
:10499c00040078000df10700000278008400780014
:1049ac00200120009402070091b321000000eb00cd
:1049bc00910207000000fe000080fa0000000600d3
:1049cc000600fa0010079800210798000042eb003f
:1049dc00044f7800240037009e4278000582fb00cb
:1049ec00040242009e0290000482420014027800ed
:1049fc0004427800144798001e4290000402fb0009
:104a0c00d410880000000000c510800004102000a5
:104a1c0004826200e00f5200fbff32009e427800dd
:104a2c000582fb00040242009e02900004824200b8
:104a3c001402780048a2de00044278001447980063
:104a4c001e4290000402fb00d410880000000000fd
:104a5c00c51080000410200004826200e00f520098
:104a6c00fbff32001e4fe8001e4278008482fb00e0
:104a7c002e0290000482d100848f5200d6ff3500a4
:104a8c000080fa00000006000a00fa0040079800b7
:104a9c00b4da2c0014079800440020002407980076
:104aac004e0290003407980064002000040f780038
:104abc000e82e8009e0078000400780008fe0700d3
:104acc000080fa00000006000e00fa005007980063
:104adc0061079800b4da2c001407980044002000f9
:104aec00240798005e029000340798006e02900034
:104afc004407980084002000040f78000e82e80020
:104b0c009e00780004007800f5fd07000080fa0094
:104b1c00000006001200fa00600798007107980068
:104b2c00020f9800b4da2c001407980064002000df
:104b3c00240798006e029000340798007e029000c3
:104b4c00440798000e0a900054079800a400200017
:104b5c00040f78000e82e8009e00780004007800b4
:104b6c00dffd07000080fa00000006001600fa00c6
:104b7c0070079800010f9800120f9800230f9800ef
:104b8c00b4da2c0014079800840020002407980045
:104b9c007e029000340798000e0a9000440798009b
:104bac001e0a9000540798002e0a90006407980083
:104bbc00c4002000040f78000e82e8009e007800ec
:104bcc0004007800c6fd07000080fa000000060013
:104bdc000000fa000002eb00243a8800a00020003c
:104bec00bc0107000082eb0044158800a0002000e7
:104bfc00b80107000082eb0004168800a00020001a
:104c0c00b4010700048f2f0034168800a000200088
:104c1c00b00107000082eb0064168800a0002000a1
:104c2c00ac01070004ff2b0094168800a0002000a4
:104c3c00a8010700c4fd2f00f4168800a000200076
:104c4c00a40107000002eb0014168800a00020004d
:104c5c00a00107000002eb0044168800a000200011
:104c6c009c0107000002eb0074168800a0002000d5
:104c7c00980107000002eb00a4168800a000200099
:104c8c00940107000002eb0004178800a00020002c
:104c9c00900107000080fa00000006000000fa00f6
:104cac0000352c008b0107000040eb005101070080
:104cbc00c40320002410880007a2a90000000000f3
:104ccc000782a800000000000762a9000000000095
:104cdc000742a900000000000722a9000000000004
:104cec000702a9000000000006e2a9000000000075
:104cfc0006c2a9000000000006a2a90000000000e6
:104d0c000682a900000000000662a9000000000055
:104d1c000642a900000000000622a90000000000c5
:104d2c000602a900000000000040eb003101070062
:104d3c0007e2a800e5fb07000080fa00000006006f
:104d4c000400fa008401a900000000008421a900dd
:104d5c00000000008441a900000000008461a9004b
:104d6c00000000008a01a900000000008a21a900af
:104d7c00000000008a41a900000000008a61a9001f
:104d8c00000000009001a900000000009021a90083
:104d9c00000000009041a900000000009061a900f3
:104dac00000000009601a900000000009621a90057
:104dbc00000000009641a900000000009661a900c7
:104dcc000000000011e1a9000000000011a1a900e1
:104ddc000000000010c1a900000000001021a90073
:104dec00000000001061a9000000000084c0a900b0
:104dfc000000000054392100040f78000002eb0081
:104e0c00140798001e027800140888001e029000f7
:104e1c00040c88001e027800640888001e029000b2
:104e2c00340c88001e027800740888001e02900062
:104e3c00640c88001e027800d40888001e029000c2
:104e4c00940c88008401a900000000008421a800b3
:104e5c00000000008441a800000000008a01a900a5
:104e6c00000000008a21a800000000008a41a80070
:104e7c00000000009001a900000000009021a80093
:104e8c00000000009041a800000000009601a9005d
:104e9c00000000009621a800000000009641a80028
:104eac0000000000840880000440a1000450a10010
:104ebc0084088800000000000002eb00040c88004d
:104ecc000002eb00340c88000002eb00640c88003c
:104edc000002eb00940c880011e1a8000080fa009d
:104eec00000006000000fa0017e2a8000000000015
:104efc00000000000000000019e2a9000000000002
:104f0c00c41080000460a1000470a100c4108800cb
:104f1c0000000000b41080000410a1000420a100c7
:104f2c00b4108800000000001602a9000000000068
:104f3c0016a2a90000000000f4002000f410880064
:104f4c00000000001942a800000000008700a90022
:104f5c00000000008720a900000000008f00a800be
:104f6c00000000008f20a900000000000080fa0063
:104f7c00000006000000fa00ca02a800ca22a8001d
:104f8c00cb42a800ca62a800ca42a800cb22a80043
:104f9c000080fa00000006000000fa00ca02a90016
:104fac00ca22a900cb42a900ca62a900ca42a90020
:104fbc00cb22a9000080fa00000006001000fa00c5
:104fcc0070079800143a8000040f7800f48f2f00bb
:104fdc001e0f62001e02780048a2de00040f78004b
:104fec007e029000050020007600200007002000c3
:104ffc00860f5200878f5a0068003e000460010043
:10500c00070037000b0037000f0037001300370084
:10501c00640037006300370062003700140037006b
:10502c009e0278007e02900004827200040f7800c9
:10503c00140037009e0278007e02900004827200f9
:10504c00040f78000f0037009e0278007e0290005b
:10505c0004827200040f78000a0037009e02780068
:10506c007e02900004827200040f78000500370065
:10507c009e0278007e02900004827200040f780079
:10508c000000000084c7b30024479800a4c9b300f3
:10509c0034479800247420000402e8002407980088
:1050ac00140280004522de00674262000482fb008d
:1050bc00340798009402800044079800ff3ffc00de
:1050cc00140280000450a0000460a0000470a00032
:1050dc00140288004e0290009402880000008800a0
:1050ec002e0390002e429000be4290009e0378004a
:1050fc00044b7800054b7800074b780064c4b30070
:10510c002447980074c5b3003447980024742000d9
:10511c0024079800143a8000044278000404a0008c
:10512c00244f9800ae0390002e429000be42900097
:10513c002e4b9000844b7800854b7800864b780082
:10514c0000000000143a800061026200e00f52007f
:10515c00fcff3a009402800064079800ff3ffc00bb
:10516c003e02900004427800674262000482fb0019
:10517c00670262004522dd0016028000f5f12f0067
:10518c008502630004827200140288006e02900093
:10519c009402880000008800030037000000000023
:1051ac0001003700000000000080fa00000006003b
:1051bc000200fa000002eb00040f78000100370037
:1051cc001e0fe800140320009e027800848f52000a
:1051dc00fbff34000040eb000600070070002000cd
:1051ec0076ff0700c05d20003a0007000080fa003f
:1051fc00000006000200fa00004f780004012000b5
:10520c002408880004e62000140888000002eb0043
:10521c00040888008460a90005e1a8009e4278007b
:10522c0061c262000482fb00610262004322dd0065
:10523c006604800075ff2f008502630004827200f3
:10524c00640488001e427800e04f520006003a00c9
:10525c00000000002404800068026200e00f52008d
:10526c00fcff320005e1a9000080fa0000000600f6
:10527c003600f800809fbe00829fbe00849fbe0057
:10528c00869fbe000000fa0010c0b300d9ff0700d3
:10529c000080fa004f03be004f02be004f01be005b
:1052ac004f00be003600f900004006000200fa0074
:1052bc00000f78000040eb00ceff07001e0fe90046
:1052cc001e027800e00f5200faff3d000080fa0049
:1052dc00000006000200fa00000f78000200370000
:1052ec00000000001e0fe9001e027800e00f5200c3
:1052fc00fbff3a000080fa00000006000200fa00f2
:10530c00000f780004022000940888009e027800a8
:10531c00041d200004aab900040278007408880057
:10532c000002eb005408880084e0a90013e1a900f6
:10533c008ce0a8000080fa00000006000000fa00d3
:10534c0013e1a8000080fa00000006000000fa003b
:10535c0013e1a9000080fa00000006003600f800f6
:10536c00809fbe00829fbe00849fbe00869fbe00b1
:10537c000000fa0084e0a90035f007000080fa0074
:10538c004f03be004f02be004f01be004f00be00d7
:10539c003600f900004006000000fa0086c0a900a3
:1053ac000080fa00004006000200fa00000f7800ae
:1053bc001fe1a900000000001fa1a90000000000cf
:1053cc001ec1a900000000001e21a9000000000061
:1053dc0086a0a9000000000084de2f00d4088800fd
:1053ec000002eb00a40888001fe1a80000000000e8
:1053fc000080fa00000006000600fa00889fbe003c
:10540c0010079800210798001e0290000402420029
:10541c00140798009e02900004c02f00048f4200d5
:10542c00f4c7b3000440780032e0b700f407200062
:10543c00243b88001e027800143b8800440424009e
:10544c00043b880054052000343b8800a40a20004b
:10545c00343b880061e7a80000000000053b800099
:10546c000400280004826200e00f5200fbff3a00a7
:10547c0044002400043b88009e0478002e04900015
:10548c00880cbb0044002400043b88005405200019
:10549c00343b8800a40a2000343b880061e7a80054
:1054ac0000000000053b800004002800048262001c
:1054bc00e00f5200fbff3a004f04be000080fa00e0
:1054cc00000006000600fa00881f780020079800ec
:1054dc002e0290000402420024079800ae029000b5
:1054ec0004c02f00048f4200f4c7b30004407800be
:1054fc0032e0b7001e0478001804ba0018079800b0
:10550c001e029000040078004f0478000080fa001e
:04551c000000060085
:020000040000fa
:10552000500900007e00000002000000040000009e
:105530000000000000000000000000000c008800d7
:1055400013010000e803e8000319000064000000f4
:105550000058020058020a00000a00000100000082
:105560000000000008000000000000000000000033
:105570000000000000008f00c2f53c008fc2f50063
:105580003c6f1200033b000000803f000000000061
:10559000000000000000000000803f000000c80084
:1055a00042000000000000000000000000000000b9
:1055b00000000000000000000000000000000000eb
:1055c00000000000000000000000000000000000db
:1055d00000000000060800004a0100000000000072
:1055e000000800000600000000000000fa0f0000a4
:1055f0000600000000000000ce0900004800000086
:1056000000000000160a0000020000000000000078
:045610000000000096
:020000040000fa
:0200000401f009
:04000000e3390000e0
:020000040000fa
:0200000401f009
:04000400ff7f00007a
:020000040000fa
:0200000401f009
:040008006c7f000009
:020000040000fa
:0200000401f009
:04001400ffff0000ea
:020000040000fa
:0200000401f009
:04001800feff0000e7
:00000001FF
