:020000040000fa
:080000000001040000000000f3
:020000040000fa
:100008009401000094010000940100009401000094
:100018009401000094010000940100009401000084
:10002800940100009401000094010000f2260000f1
:10003800940100009401000094010000682700006a
:100048009401000094010000940100009401000054
:100058009401000094010000940100009401000044
:100068009401000094010000940100009401000034
:100078009401000094010000a427000094010000ee
:100088002621000094010000940100009401000062
:100098009401000094010000940100009401000004
:1000a80094010000940100009401000094010000f4
:1000b80094010000940100009401000094010000e4
:1000c80094010000940100009401000094010000d4
:1000d80094010000940100009401000094010000c4
:1000e80094010000940100009401000094010000b4
:0800f8009401000094010000d6
:020000040000fa
:100108009401000094010000940100009401000093
:100118009401000094010000940100009401000083
:10012800940100009401000094010000f2260000f0
:100138009401000094010000940100006827000069
:100148009401000094010000940100009401000053
:100158009401000094010000940100009401000043
:100168009401000094010000940100009401000033
:100178009401000094010000a427000094010000ed
:100188002621000094010000940100009401000061
:100198009401000094010000940100009401000003
:1001a80094010000940100009401000094010000f3
:1001b80094010000940100009401000094010000e3
:1001c80094010000940100009401000094010000d3
:1001d80094010000940100009401000094010000c3
:1001e80094010000940100009401000094010000b3
:0801f8009401000094010000d5
:020000040000fa
:10020000ef9d2000aefe20000e01880000000000df
:1002100000012000200288000c000700407d220021
:100220000100200011000700000020000000e00095
:100230000200320000000200000000003809020045
:10024000000000000040da000000fe004440a90069
:10025000a01920000000e000030032000000200090
:10026000a00188004440a800000006009101880019
:10027000800078000000eb0015003700e2804000ad
:1002800032a0b4009101ba00e280400032a0b40074
:100290009102ba00e280400032a0b4000002eb00fc
:1002a000472bde00f507b200602ce10004003a00a5
:1002b0000059eb008301e900fdff3e000400370018
:1002c0006128e100010032000082eb000400070019
:1002d0001101ba000200e000e8ff3a000000060049
:1002e0003159ba008301e9000c0032002159ba00eb
:1002f0008301e900080032000400e00003003a0036
:10030000e280400032a0b400f5ff370011d9ba00f6
:100310008301e900faff3a008100e800e180400033
:1003200032a0b400000006000040da000000fe0029
:10033000881f78008a1f78004400f800080f20000a
:10034000280288000004900010059000a000900092
:1003500030019000c00190000300ca000280ca0072
:100360000030cb001a00cd004604c3000100ca00d3
:100370004604c0001e04c0000605c0000100cd00f8
:1003800021009800050d7800eaba9700052578004d
:100390004400f9004f0578004f0478000000060083
:1003a000801f78004000b0000008eb004f0078008c
:1003b000801f7800100090000018eb000018eb0080
:1003c0000008eb004f007800000006004400f80031
:1003d000020f200022028800910078003000ca003d
:1003e0003080ca000000cb002080ca000000cb0093
:1003f0003100cd004000ca000000cb000000cb005f
:100400000010cb003100cd001180cc004400f90079
:1004100000000600040024000602ab00feff3a00c4
:100420000642ab00fcff3a000662ab00faff3a005e
:100430000682ab00f8ff3a00461080008602620098
:10044000e08f5200f4ff3a000000060006a2a80068
:100450000682a800000006000602a80000000600b0
:100460000642a8000000060003f0a200889fbe001c
:100470008a9fbe008c1f78008d0107009401330015
:100480006450e1004f0032006420e100520032006d
:1004900003826c0007003b000905d0000306d00072
:1004a000820f54000c065d00020039000200320089
:1004b00089017800030678008582550004003d001c
:1004c0000003fd008103fd008502ea008b854200e8
:1004d000840f720002003b0060001000e0801800f2
:1004e0006011b8000005eb007a28e1000a0039002d
:1004f00006007800c75ddd00f707b2008780750051
:100500002d003700828171000a01780061056000ca
:100510008180d1000080d3008502e900f9ff3b0013
:10052000060440008784480002003b006004140079
:10053000e0841c000988a300070032008a81710052
:1005400082817100610164008904d1000884d300b4
:100550008b05e800170037000978a30013003a0064
:100560000b00e000130034008b05e9000804440090
:1005700089844c000a4474000978a3000d003a00f5
:100580000b00e000070034008b05e900080444007c
:1005900089844c0001003a000b0020000978a30078
:1005a000f7ff32000001eb0002003700828171008a
:1005b0000a017800030107000cf0a70001f0a00079
:1005c0004c0137006420e10002003a00838f6c0088
:1005d0004c0133000801be000200be004501370097
:1005e000889fbe008a9fbe008c1f780030010700e4
:1005f0001002200002003b00e04e8800340137006a
:100600008a0062006408e10002003a00e04e8800bf
:100610003c0137006108e100fcff32000800be0029
:10062000030478007000070001f0a1000900070032
:1006300008f0a600040037000001be009104240069
:10064000b0fd200088ff070009f0a70001f0a2001c
:1006500028013700889fbe008a9fbe008c9fbe0085
:100660000004be00fd0007000800be0089067800f7
:100670006420e10008003900040032000160a0009d
:1006800012022000e24e88005300370091fc230044
:10069000b0fd20004e0037000006eb0009f0a1007d
:1006a00003f82300020020000800be009f0007009e
:1006b0000600340001f82300000020000801be00fd
:1006c000490007000004be002c0020000800be0006
:1006d00093e82300320a230094000700120034003c
:1006e0000801be00d1fd2300703d2b005fff070015
:1006f0000005be00b3f32300f27a26000800be0016
:100700001201070003f823000200200056ff070033
:100710000801be0055ff07000a01be0032000700b5
:100720000004be000c06e8000800be0001f0a100b5
:1007300002002000039823007c0007000800be0090
:10074000160035000801be00000107000005be00cc
:1007500032cd2c0043fb230044ff0700809fbe00e6
:100760001269280003d52b000a00be00f70007001d
:10077000620f210013ef2b003cff07000a01be00af
:10078000f20007004f01be00170007000801be007d
:10079000ee0007000801be0034ff07000c00e00077
:1007a0000b0032000c10a70001f0a200b2fd2000e7
:1007b00093fc23006260e1000400320022a92000c3
:1007c00063f023000c10a70063f8230027ff070045
:1007d0000df0a70001f0a2004f06be004f05be00bd
:1007e0004f04be0000000600889fbe008a9fbe0026
:1007f0008c1f7800ae000700b500330003866c0044
:100800006450e1002e0032006420e1003300320029
:100810006150e1002f0032006120e1003100320020
:1008200085855500eb07b000090020000804200072
:10083000050037000804440089844c000a00310098
:100840000603430087834b000001530081815b0056
:10085000f8ff33000203be000800a00008044400b3
:1008600089844c00f6ff3900c639dd00830173002e
:1008700001003200130020008904d1000884d30055
:100880000998a300050032000800a7000300a0009b
:100890008904d1000884d3008b05e8008904d100c5
:1008a0000884d3000001eb000281d200450007005c
:1008b00001f0a1000cf0a70001f0a0008d003700ae
:1008c0006420e1008f0032000801be000200be007b
:1008d000f7ff37006120e1008a0032006000b800b5
:1008e000f3ff37000000200001f82700f0ff370079
:1008f000839f68000100e00002003d0060001000de
:10090000e08018000300e00002003d0060011100db
:10091000e0811900c10007004f00e00002003b0029
:1009200060001000e08018000000060014002000a5
:10093000cd0037000001be00480007000470a7008a
:1009400003f0a1006509b100160032000d0035006a
:100950006828e10006003500f0ff2f00f1ff2700b6
:100960000300e00013003b00010028000000050028
:1009700000004000818048008502e900fcff3a0049
:1009800008003700f88f420002003c008000eb00b6
:10099000000005008100d1000080d3008502e8003e
:1009a000fcff3a000300e00002003b006000100082
:1009b000e0801800000006004f89de008201780008
:1009c000c400370081002000618055000b003d000d
:1009d0000b00200061fe2f000100e1001d0034002b
:1009e00082817100610164008904d1000884d30010
:1009f0000000e800faff3a00710020006100640086
:100a0000030070000200600009003200610444002d
:100a1000e0844c000988a500050032008b05e80041
:100a20006808e10002003a008904d1000884d3007c
:100a3000f20f20000258e10005003d00c75ddd0017
:100a4000f907b200898075000800780000000600f0
:100a50000bf827008b00780000000500c70ade00b5
:100a6000f107b200f50fb20008003200e1cf4200fa
:100a7000020032000170a00024000500810f700008
:100a8000010032000408050044000500810f7000d9
:100a900002003a00140005008502e9000000400051
:100aa00081c04800fcff3b000170a000240005004d
:100ab0000004be00e9ff07000003be000405be00fd
:100ac0000200be00e5ff0700844f7500000006002d
:100ad0000200be006450e100050036006420e10021
:100ae000020036000968a30001003a000800be00b9
:100af0000160a0004f0678004f05be004f04be0005
:100b000000000600f0ff2f00f1ff2700f9ff37007b
:100b1000811f78000100e00002003d00600010002d
:100b2000e08018000300e00002003d0060011100b9
:100b3000e0811900490007004f00e00002003b007f
:100b400060001000e080180000000600889fbe00d2
:100b50008a9fbe008c1f7800d5ff0700dcff3300a2
:100b600003866c006450e100240032006420e10040
:100b7000270032006150e100220032006120e100d4
:100b8000210032008b854200eb07b1000134b80030
:100b9000003ab8000804420089844a00013ab800cb
:100ba0000030b8008880400009014a00040033008a
:100bb0000000400081804800020149008b05e900e7
:100bc000c909dd008301700001003200130020001c
:100bd000c814de004814dd004709de001200b20030
:100be000c808de000884700076ff070001f0a1004d
:100bf0000cf0a70001f0a000beff37006120e1006b
:100c0000c0ff32000801be000200be00f7ff37003f
:100c10006150e100fcff3a00baff37006022b800e3
:100c2000060220000000d0008180d2000482d200a1
:100c30008582d2000000a0000202520083825a0086
:100c4000030031000202420083824a000000a1003a
:100c50000603e900f3ff3a0000000600efff07007b
:100c60000400be0000000600889fbe008a9fbe00f0
:100c7000841f78008eff07004f00780011003300ba
:100c8000f0ff2f00838f6c0006003b000405650019
:100c90000a00a7000800370009f0a6001000200095
:100ca00008003700820f5400838f5c000300390076
:100cb0001000200001003e000000200009f0a70005
:100cc0000000ea004f05be004f04be000000e00037
:100cd00000000600881f7800030478000300e0008d
:100ce00007003d0060001000e0801800600119005e
:100cf000e081190002003b0001f02d0003003700e5
:100d00000400070008f0a70001f0a0004f047800dd
:100d100000000600889fbe008a9fbe00008270000f
:100d20000402710004827100260032000004be003b
:100d30000200be006011b8006b092000950220007f
:100d40000182cf000a0039000541b1000082cf00c6
:100d5000070039000541b1000982cf0004003900c5
:100d60000541b1000882cf00010039000541b10002
:100d700005425200120032000a003b0082817100dd
:100d8000610164008100d1000080d3008984d30018
:100d90000884d3008b05e8000442e800f7ff3a001e
:100da000070037000804440089844c000000480014
:100db000818048008b05e9000442e900f9ff3a0010
:100dc00000ff07004f05be004f04be0000000600f4
:100dd00006c2b3000002780004007800b042780038
:100de00086cf5200fbff3200e9cf5200f9ff3200fc
:100df000d6c2b30086cf520003003a00000278004a
:100e000016c0b300050037000043eb00b7c2b300c3
:100e100087cf520001003a00000278000000eb008a
:100e2000020037006a00b90000804200b402fb00f3
:100e30000503b100e98f5200faff3600e04f53007e
:100e4000010032000000ea00000006008001780086
:100e500081037800070278000100370085017800df
:100e6000110009000282d800000278008302e80025
:100e7000e00f5200f9ff3a00844a7800110009009f
:100e80008283d800800278000142780085037800d0
:100e9000e94f5200010034006742420001c3b30031
:100ea00081514200e08f5200f4ff3a0003007800c5
:100eb00000000600881f780000047800e08f5000d2
:100ec00005003d0008007800d4c2b3000458780043
:100ed0008100ea000100370008007800dbff07000e
:100ee000080078004f047800000006000002780037
:100ef00002003700315a78000201e900e00f51008a
:100f0000fcff3a000000060000027800b1427800c1
:100f1000055a7800e0cf5200fcff3a0000000600be
:100f2000000278008042eb00b4cf1200fdff3a00cf
:0c0f30000080ea00000042000000060003
:020000040000fa
:100f3c00484f00004c410000205100005545000076
:100f4c0020540000414c0000204500005354000088
:100f5c0041530000207900006f20000065730000f1
:100f6c00746f0000792000006d750000792000007e
:100f7c0062690000656e000020790000207400009a
:100f8c007520000071750000652000007461000080
:100f9c006c000000636f000072720000656300005b
:100fac00746f000028770000686f00002069000053
:100fbc00206100006d3d000031300000342900003c
:100fcc00206e0000756d0000657200006f2000003f
:100fdc006465000020660000616c00006c6f00000e
:100fec00732000003d000000617900003d0000000e
:100ffc00776800006f20000069200000616d000020
:10100c00203d000000650000727200006f7200004d
:10101c0000650000727200006f720000202d00004d
:10102c002d3e0000766100006c6f00007220000005
:10103c00776800006f20000069200000616d0000df
:10104c003d00000045730000746f00002065000037
:10105c0073200000756e00006120000070720000ab
:10106c007565000062610000203d0000200000005a
:10107c00536100006c6700006f2000006465000085
:10108c00204d000079530000746100007274000060
:10109c00207000006f72000020540000696d000089
:1010ac006572000000530000616c0000676f000067
:1010bc0020640000652000004d790000526500009e
:1010cc00737400006172000074200000706f0000e7
:1010dc0072200000546900006d6500007200000071
:1010ec00536100006c6700006f2000006465000015
:1010fc00206d0000795f0000537400006f700000d9
:10110c00207000006f72000020540000696d000018
:10111c006572000000530000616c0000676f0000f6
:10112c0020640000652000006d7900005f5700000e
:10113c007269000074650000207000006f7200007e
:10114c0020540000696d000065720000005300001f
:10115c00616c0000676f00002064000065200000d7
:10116c006d7900005f490000646c00006520000090
:10117c00706f000072200000546900006d65000063
:10118c00720000002d2d00002d2d00002d2d0000d3
:10119c002d2d00002d2d00002d2d00002d2d0000db
:1011ac002d2d00002d2d00002d2d00002d2d0000cb
:1011bc002d2d00002d2d00002d2d00002d2d0000bb
:1011cc002d2d00002d2d00002d2d00002d2d0000ab
:1011dc002d2d00002d2d00002d2d00002d2d00009b
:1011ec002d2d00002d2d00002d2d00002d2d00008b
:1011fc000068000000000000636100006d620000e8
:10120c00696100006e6400006f20000070610000d6
:10121c00726100006d650000747200006f73000055
:10122c003a000000703d0000006900003d00000025
:10123c00643d000000610000757800005f42000012
:10124c0049410000533100003d0000006175000071
:10125c00785f00004249000041530000323d00001d
:04126c00000000007e
:020000040000fa
:101270000000fa00330d07000040eb00ba0e070033
:10128000a80e07000040eb00b70e0700890d07000d
:101290000040eb00b40e0700ef0d07000040eb002c
:1012a000b10e07005a0d07000040eb00ae0e07001c
:1012b000db0907000040eb00ab0e07002d01070023
:1012c0000040eb00a80e0700d50907000040eb0026
:1012d000a50e0700040e07000002eb00344c880046
:1012e00005003700007d2000d70e0700344c800039
:1012f0000402e800344c8800354c8000349c200007
:10130000848f5200f7ff3400000e070021032000f5
:1013100050002000d4090700fc0d070050002000f9
:10132000d30e0700e20e0700808c2800b30b0700e5
:1013300048080700cb02a800ffff37001200fa00a0
:10134000889fbe00ca02a8000002eb00040f7800cc
:101350000002eb00140798000002eb00240798003d
:10136000ca22a800730a070000027800cfa2de009c
:101370000400be0090fd07000003be00444c800046
:10138000554c80000401be000600be0036fc07007c
:101390000002be000404be008c0a070000027800b0
:1013a000cfa2de000400be0083fd07000003be00e4
:1013b000844c8000954c80000401be000600be00f5
:1013c00029fc07000002be000801be000400be00a8
:1013d00083fc07000002be0012ee22005326240008
:1013e0000400be00d9fd07000002be0034079800cb
:1013f00045079800880a070000027800cfa2de00a7
:101400000400be006cfd07000003be00a44c800079
:10141000b54c80000401be000600be0012fc0700af
:101420000002be0002002000333024000400be0091
:10143000edfc07000002be00540798006507980005
:10144000ca22a900d4cc2c00c5d423005e01900090
:10145000ee0190003e009000ce0090005103070086
:101460000002be000400be0032fd07000002be0004
:10147000040f7800ca22a800540020005e019000ea
:10148000ee0190003e009000ce009000c2040700e4
:101490000002be000400be0026fd07000002be00e0
:1014a00074079800ca22a900c5498000d449800069
:1014b000b0498000c6ff2f00861f7800460020003c
:1014c000861f780087c72e008638210080017800ab
:1014d000120020009e0078000000eb00580007007a
:1014e000e487570000027800040f9800ca22a80081
:1014f000f08f28004b0b0700ca22a900ca02a900de
:101500004f04be000080fa00000006001c00fa0034
:101510006007980071079800020f9800130f980059
:10152000240f9800350f9800460f9800570f980029
:10153000ee0290007e029000048252001407980090
:10154000d44a80009e029000048252002407980032
:101550009e0290000e0a900004aab900840278004e
:101560002e0a900004aab90084027800e44a8000a0
:1015700004824200e44a88009e0290001e0a900005
:1015800004aab9000402780034079800e54a8000f4
:101590004e0a9000848f5200030035004e089000e0
:1015a000e04a880006003700e54a80005e0a9000a5
:1015b000848f520002003c00de089000e14a88005f
:1015c000e44a800044079800ae0290003e0a900072
:1015d00004aab900840278000e0a900011000900e4
:1015e0008402d8000002780054079800be029000e0
:1015f0005e029000048f42004e0a90009e02780026
:10160000848f5200020035004e0a9000040f7800cb
:101610005e0a90009e027800848f520002003c0017
:101620005e089000000f78009e009000d14a88006c
:101630001e027800040078000080fa000000060016
:101640001c00fa006007980071079800020f9800cc
:10165000130f9800240f9800350f9800460f98003c
:10166000570f9800ee0290007e0290000482520014
:1016700014079800b44a80009e0290000482520031
:10168000240798009e0290000e0a900004aab90058
:10169000840278002e0a900004aab900840278001f
:1016a000c44a800004824200c44a88009e0290001e
:1016b0001e0a900004aab9000402780034079800ba
:1016c000c54a80004e0a9000848f52000300350006
:1016d0004e089000c04a880006003700c54a8000c6
:1016e0005e0a9000848f520002003c00de089000e9
:1016f000c14a8800c44a800044079800ae029000a6
:101700003e0a900004aab900840278000e0a9000f4
:10171000110009008402d8000002780054079800e4
:10172000be0290005e029000048f42004e0a9000bc
:101730009e027800848f5200020035004e0a90000d
:10174000040f78005e0a90009e027800848f520099
:1017500002003c005e089000000f78009e009000a0
:10176000b14a88001e027800040078000080fa0068
:10177000000006000000fa006022b80064468800fd
:10178000754688006022b800844688009546880027
:101790006022b800a4468800b54688006022b800e0
:1017a000c4468800d5468800f4282c0055cf230075
:1017b000a4458800b5458800d4cc2c00c5dc2300a6
:1017c000c4458800d5458800f426210035b02300a3
:1017d000e4458800f54588000400200005f8230052
:1017e00004468800154688006022b8002446880018
:1017f000354688006022b800444688005546880077
:101800006022b80024478800354788000400200083
:1018100005f823002447880035478800040020008d
:10182000852c240044478800554788006022b80072
:1018300084448800954488006022b800a44488004d
:10184000b54488006022b800c4448800d5448800ac
:101850006022b800e4448800f5448800a4702d009c
:1018600035ca2300c4438800d5438800f4282c00df
:1018700055cf2300e4438800f5438800f426210077
:1018800035b023000444880015448800040020007b
:1018900005f8230024448800354488006022b800fd
:1018a00044448800554488006022b800644488009d
:1018b000754488006022b80044458800554588007a
:1018c0000400200005f823004445880055458800a1
:1018d00004002000852c240064458800754588009c
:1018e0006022b80044488800554888006022b8004b
:1018f00064488800754888006022b80084488800e1
:10190000954888006022b800a4488800b54888003f
:10191000f4282c0055cf2300844788009547880081
:10192000f4282c0055cf2300a4478800b547880031
:10193000f426210035b02300c4478800d54788002d
:101940000400200005f82300e4478800f5478800dc
:101950006022b80004488800154888006022b8005a
:1019600024488800354888006022b800044988006f
:10197000154988000400200005f823000449880068
:101980001549880004002000852c24002449880083
:10199000354988000080fa00000006000c00fa00bb
:1019a000889fbe00008fbe00220798003307980072
:1019b00044079800550798000448800015488000a7
:1019c0000401be002e009000be009000a6fa0700a1
:1019d0000002be002448880035488800e84780009f
:1019e000f947800024488000354880004e0190006f
:1019f000de0190000400be0054fc07000002be009f
:101a00000401be000800be0098fa07000002be00f4
:101a1000e4478800f547880048488000594880001e
:101a2000a4488000b54880004e019000de0190007f
:101a30000400be0045fc07000002be000403be0017
:101a400064488000754880000401be000600be00a6
:101a500085fa07000002be000403be00844880002f
:101a6000954880000401be000600be007efa070013
:101a70000002be000403be0084478000954780003a
:101a80000401be000600be0078fa07000002be0096
:101a90004e019000de0190000400be002bfc070008
:101aa0000002be000401be000800be006ffa07007d
:101ab0000002be00444888005548880068488000fd
:101ac00079488000a4488000b54880004e0190000d
:101ad000de0190000400be001cfc07000002be00f6
:101ae0000401be000800be005ffa07000002be004d
:101af00064488800754888008848800099488000bc
:101b0000a4488000b54880004e019000de0190009e
:101b10000400be000dfc07000002be000401be0070
:101b20000800be0050fa07000002be00844888008a
:101b300095488800a8488000b9488000a4478000e4
:101b4000b54780004e019000de0190000400be0009
:101b5000fefb07000002be000401be000800be003c
:101b600042fa07000002be00a4488800b548880079
:101b70004648800057488000c4478000d547800011
:101b80000401be000600be0038fa07000002be00d5
:101b9000244988003549880046488000574880001d
:101ba00024498000354980000401be000600be00c3
:101bb0000dfb07000002be00c4488800d54888001d
:101bc000864880009748800024498000354980007d
:101bd0000401be000600be0003fb07000002be00b9
:101be000e4488800f5488800e4478000f547800015
:101bf0000401be001e00be001bfa07000002be006a
:101c00000449880015498800e8478000f9478000aa
:101c1000c6488000d74880000449800015498000ec
:101c20000401be000600be00c8fb07000002be00a3
:101c30000401be000800be000cfa07000002be004e
:101c4000e4478800f547880008488000194880006c
:101c5000e6488000f748800004498000154980006c
:101c60000401be000600be00b8fb07000002be0073
:101c70000401be000800be00fcf907000002be001f
:101c8000044888001548880048488000594880006a
:101c9000c6488000d74880004448800055488000ee
:101ca0000401be000600be00a8fb07000002be0043
:101cb0000401be000800be00ebf907000002be00f0
:101cc000444888005548880068488000794880006a
:101cd000c6488000d748800064488000754880006e
:101ce0000401be000600be0098fb07000002be0013
:101cf0000401be000800be00dbf907000002be00c0
:101d000064488800754888008848800099488000a9
:101d1000e6488000f748800044488000554880002d
:101d20000401be000600be0088fb07000002be00e2
:101d30000401be000800be00cbf907000002be008f
:101d40008448880095488800a8488000b9488000e9
:101d5000e6488000f74880006448800075488000ad
:101d60000401be000600be0078fb07000002be00b2
:101d70000401be000800be00bbf907000002be005f
:101d8000a4488800b5488800e4478000f5478000f3
:101d90000400be004f04be000080fa0000000600f0
:101da0000c00fa00889fbe00008fbe00220798003a
:101db0003307980044079800550798002446800090
:101dc000354680000401be002e009000be00900049
:101dd000a5f907000002be00444688005546880069
:101de0000846800019468000444680005546800021
:101df0004e019000de0190000400be0053fb07007e
:101e00000002be000401be000800be0097f90700f2
:101e10000002be000446880015468800684680001f
:101e200079468000c4468000d54680004e0190006f
:101e3000de0190000400be0044fb07000002be006b
:101e40000403be0084468000954680000401be0065
:101e50000600be0084f907000002be000403be00b5
:101e6000a4468000b54680000401be000600be0006
:101e70007df907000002be000403be00a4458000f7
:101e8000b54580000401be000600be0077f90700da
:101e90000002be004e019000de0190000400be0072
:101ea0002afb07000002be000401be000800be00bd
:101eb0006ef907000002be0064468800754688007f
:101ec0008846800099468000c4468000d546800040
:101ed0004e019000de0190000400be001bfb0700d5
:101ee0000002be000401be000800be005ef907004b
:101ef0000002be008446880095468800a8468000ff
:101f0000b9468000c4468000d54680004e0190004e
:101f1000de0190000400be000cfb07000002be00c2
:101f20000401be000800be004ff907000002be0019
:101f3000a4468800b5468800c8468000d94680007f
:101f4000c4458000d54580004e019000de01900020
:101f50000400be00fdfa07000002be000401be003e
:101f60000800be0041f907000002be00c446880018
:101f7000d54688006646800077468000e4458000ac
:101f8000f54580000401be000600be0037f90700d9
:101f90000002be004447880055478800664680001e
:101fa0007746800044478000554780000401be000a
:101fb0000600be000cfa07000002be00e4468800de
:101fc000f5468800a6468000b7468000444780005a
:101fd000554780000401be000600be0002fa07005b
:101fe0000002be00044788001547880004468000b0
:101ff000154680000401be001e00be001af907004d
:102000000002be002447880035478800084680004b
:1020100019468000e6468000f7468000244780008d
:10202000354780000401be000600be00c7fa070065
:102030000002be000401be000800be000bf907004c
:102040000002be000446880015468800284680002d
:1020500039468000064780001747800024478000eb
:10206000354780000401be000600be00b7fa070035
:102070000002be000401be000800be00fbf807001d
:102080000002be002446880035468800684680006d
:1020900079468000e6468000f7468000644680006e
:1020a000754680000401be000600be00a7fa0700c6
:1020b0000002be000401be000800be00eaf80700ee
:1020c0000002be006446880075468800884680008d
:1020d00099468000e6468000f746800084468000ee
:1020e000954680000401be000600be0097fa070076
:1020f0000002be000401be000800be00daf80700be
:102100000002be008446880095468800a8468000ec
:10211000b94680000647800017478000644680006b
:10212000754680000401be000600be0087fa070065
:102130000002be000401be000800be00caf807008d
:102140000002be00a4468800b5468800c84680004c
:10215000d9468000064780001747800084468000eb
:10216000954680000401be000600be0077fa070015
:102170000002be000401be000800be00baf807005d
:102180000002be00c4468800d54688000446800090
:10219000154680000400be004f04be000080fa0017
:1021a000000006000c00fa00889fbe00008fbe00f1
:1021b00022079800330798004407980055079800b5
:1021c00044448000554480000401be002e0090006d
:1021d000be009000a4f807000002be00644488001e
:1021e000754488002844800039448000644480009d
:1021f000754480004e019000de0190000400be0096
:1022000052fa07000002be000401be000800be0032
:1022100096f807000002be00244488003544880078
:102220008844800099448000e4448000f5448000a4
:102230004e019000de0190000400be0043fa07004a
:102240000002be000403be00a4448000b544800028
:102250000401be000600be0083f807000002be00b5
:102260000403be00c4448000d54480000401be00c5
:102270000600be007cf807000002be000403be009a
:10228000c4438000d54380000401be000600be00a8
:1022900076f807000002be004e019000de019000bb
:1022a0000400be0029fa07000002be000401be00bf
:1022b0000800be006df807000002be0084448800dc
:1022c00095448800a8448000b9448000e44480001c
:1022d000f54480004e019000de0190000400be0035
:1022e0001afa07000002be000401be000800be008a
:1022f0005df807000002be00a4448800b5448800d1
:10230000c8448000d9448000e4448000f544800043
:102310004e019000de0190000400be000bfa0700a1
:102320000002be000401be000800be004ef8070017
:102330000002be00c4448800d5448800e844800000
:10234000f9448000e4438000f54380004e01900092
:10235000de0190000400be00fcf907000002be0090
:102360000401be000800be0040f807000002be00e5
:10237000e4448800f5448800864480009744800047
:1023800004448000154480000401be000600be0025
:1023900036f807000002be006445880075458800d5
:1023a0008644800097448000644580007545800025
:1023b0000401be000600be000bf907000002be00cb
:1023c0000445880015458800c6448000d744800035
:1023d00064458000754580000401be000600be0013
:1023e00001f907000002be00244588003545880039
:1023f00024448000354480000401be001e00be005d
:1024000019f807000002be004445880055458800c1
:10241000284480003944800006458000174580002c
:1024200044458000554580000401be000600be0002
:10243000c6f907000002be000401be000800be008d
:102440000af807000002be002444880035448800d2
:10245000484480005944800026458000374580006c
:1024600044458000554580000401be000600be00c2
:10247000b6f907000002be000401be000800be005d
:10248000faf707000002be00444488005544880063
:1024900088448000994480000645800017458000ec
:1024a00084448000954480000401be000600be0004
:1024b000a6f907000002be000401be000800be002d
:1024c000e9f707000002be008444880095448800b4
:1024d000a8448000b944800006458000174580006c
:1024e000a4448000b54480000401be000600be0084
:1024f00096f907000002be000401be000800be00fd
:10250000d9f707000002be00a4448800b544880043
:10251000c8448000d94480002645800037458000ab
:1025200084448000954480000401be000600be0083
:1025300086f907000002be000401be000800be00cc
:10254000c9f707000002be00c4448800d5448800d3
:10255000e8448000f944800026458000374580002b
:10256000a4448000b54480000401be000600be0003
:1025700076f907000002be000401be000800be009c
:10258000b9f707000002be00e4448800f544880063
:1025900024448000354480000400be004f04be0087
:1025a0000080fa00000006000a00fa00000f780020
:1025b00011079800220798003307980044079800f5
:1025c0009e027800040c8000848f520005003100c8
:1025d000050c80004e02900004825200040c88001a
:1025e000080037009e027800040c8000848f52009f
:1025f00004003600050c80004e0290000482420068
:10260000040c88009e029000340c8000848f5200dd
:1026100005003100350c80004e029000048252000b
:10262000340c8800080037009e029000340c8000b3
:10263000848f520004003600350c80004e0290005a
:1026400004824200340c8800ae029000640c8000ca
:10265000848f520005003100650c80004e0290000e
:1026600004825200640c880008003700ae0290001b
:10267000640c8000848f520004003600650c8000da
:102680004e02900004824200640c8800be0290005a
:10269000940c8000848f520005003100950c80005e
:1026a0004e02900004825200940c8800080037000b
:1026b000be029000940c8000848f5200040036000b
:1026c000950c80004e02900004824200940c880019
:1026d0000080fa00000006000200fa00000f7800f7
:1026e0001e027800e00f520003003d000002eb00e4
:1026f000040c8800020037001e027800040c8800d9
:102700000080fa00000006000200fa00000f7800c6
:102710001e027800e00f520003003d000002eb00b3
:10272000340c8800020037001e027800340c880048
:102730000080fa00000006000200fa00000f780096
:102740001e027800e00f520003003d000002eb0083
:10275000640c8800020037001e027800640c8800b8
:102760000080fa00000006000200fa00000f780066
:102770001e027800e00f520003003d000002eb0053
:10278000940c8800020037001e027800940c880028
:102790000080fa00000006001e00fa00200f9800da
:1027a000310f9800420f9800530f9800640f980063
:1027b0000400200005122400048fbe006022b8002f
:1027c00024079800350798006022b8004407980055
:1027d000550798006022b8006407980075079800b4
:1027e0006022b800040f9800150f98006e0a900040
:1027f000cfa2de000400be006ff807000002be009a
:1028000002002000a34724000400be00f6f70700e2
:102810000002be002407980035079800144c800081
:10282000254c80000401be002e089000be089000d8
:102830000df707000002be001e01be000400be002e
:10284000c2f807000002be001e01be000400be0068
:10285000bef807000002be00440798005507980024
:102860004e019000de0190002e009000be0090000e
:10287000b6f807000002be000401be006e00900022
:10288000fe009000f9f607000002be006407980001
:1028900075079800144c8000254c80000401be0090
:1028a0002e089000be089000eff607000002be0060
:1028b0000401be000400be00ecf607000002be00ea
:1028c0001e01be000400be00a0f807000002be000a
:1028d0006e019000fe0190000400be00e3f60700c8
:1028e0000002be004e099000de0990000400be0008
:1028f000def607000002be00040f9800150f9800d6
:102900000e0990009e0990002e009000be009000dd
:102910008ef807000002be000403be00144c8000c5
:10292000254c80000401be000600be00cff6070063
:102930000002be00144c8800254c8800144c800016
:10294000254c80000400be000080fa000000060054
:102950000000fa0044ef2700040c880044ef270031
:10296000340c880044ef2700640c880044ef2700f3
:10297000940c88000080fa00000006000200fa00b3
:102980000002eb00040f78001c003700940c80005c
:102990000402e800940c8800640c80000402e80043
:1029a000640c8800340c80000402e800340c8800b9
:1029b000040c80000402e800040c88008038210028
:1029c00021090700950c8000b4ff2000848f52007d
:1029d0000a003600f4ff2000940c8800f4ff200069
:1029e000640c8800f4ff2000340c8800f4ff200001
:1029f000040c880014002000040f78001e027800e8
:102a0000e00f5200e1ff32001c003700940c800000
:102a10000402e900940c8800640c80000402e900c0
:102a2000640c8800340c80000402e900340c880037
:102a3000040c80000402e900040c880080382100a6
:102a400001090700950c800004072000848f5200c4
:102a50000a003e000002eb00940c88000002eb002c
:102a6000640c88000002eb00340c88000002eb00cc
:102a7000040c88000002eb00040f78001e027800ae
:102a8000e10f5200e1ff32000080fa000000060072
:102a90000200fa000002eb00040f78000082eb0055
:102aa000040f78000b0037001e027800940c880099
:102ab0001e027800640c88001e027800340c880026
:102ac0001e027800040c880080382100de08070010
:102ad0001e0fe9001e027800e00f5200f2ff3400e2
:102ae0000080fa00000006000200fa00000f7800e3
:102af0009e0078008082200003f907008082200079
:102b000007f9070000027800840078008082200026
:102b10006305070080382100cb0807000080fa0019
:102b2000000006000000fa00f4108000a20020005f
:102b30008400780080822000def807008082200078
:102b4000f7f80700000278008400780080822000f7
:102b500053050700f4108000a200200084007800d4
:102b600080822000d3f8070080822000ecf8070064
:102b70000002780084007800808220004805070069
:102b8000f4108000a20020008400780080822000e1
:102b9000c8f8070080822000e1f8070000027800f2
:102ba00084007800808220003d050700f41080003a
:102bb000a20020008400780080822000bdf8070079
:102bc00080822000d6f80700000278008400780098
:102bd000808220003205070022032000e1792800ce
:102be00080822000c1f8070080822000ccf8070016
:102bf0000002780084007800808220002805070009
:102c0000803821009008070080822000c4f8070067
:102c100000027800840078008082200020050700f0
:102c2000803821008808070080822000bcf8070057
:102c300000027800840078008082200018050700d8
:102c4000803821008008070080822000b4f8070047
:102c500000027800840078008082200010050700c0
:102c6000803821007808070080822000acf8070037
:102c700000027800840078008082200008050700a8
:102c8000803821007008070080822000a4f8070027
:102c90000002780084007800808220000005070090
:102ca0008038210068080700808220009cf8070017
:102cb000000278008400780080822000f804070079
:102cc00080382100600807008082200094f8070007
:102cd000000278008400780080822000f004070061
:102ce00080382100580807000080fa000000060024
:102cf0000000fa00c7f50700d7f507000000000044
:102d00003410800061026200e00f5200fcff3a00c4
:102d100000cdb30024020700000000004510800031
:102d20000400280004826200e00f5200fbff3a001a
:102d3000b8f5070050c7b3001b02070000000000f1
:102d4000451080000400280004826200e00f520059
:102d5000fbff3a00aff507000622a80000000000c4
:102d6000000000003410800062026200e00f520098
:102d7000fcff3a0010cdb3000b020700000000007a
:102d8000451080000400280004826200e00f520019
:102d9000fbff3a009ff507000662a8000000000054
:102da0004410800062026200e00f5200fcff32001b
:102db000a6f50700aaf50700000000003410800007
:102dc00064026200e00f5200fcff3a000080fa004b
:102dd000000006001a00fa00200f9800310f98003a
:102de000420f98000002eb00140798002e09900093
:102df000be09900062079800730798006e02900069
:102e00000500200024079800350798007e029000f6
:102e10000474a1000482fb0005002000c022dd0034
:102e2000040020002e039000be0390000602420022
:102e300087824a0024079800350798002e039000e7
:102e4000be03900004002000050820000602420096
:102e500087824a0024079800350798007e02900078
:102e6000c722de0000c2eb0084c2620014c8b300b7
:102e700004c24200044f98000e4a9000f24f5200e4
:102e800010003400ce0a900094c4b300844a780045
:102e90004e0a90008402e800e4c6b300844a780039
:102ea0004e0a90008482e80064c6b300844a780029
:102eb0004e0a9000e30242000042eb00844a780090
:102ec000c40037000e4a9000e34f420008003d0066
:102ed000ce0a900004c3b300844a78004e0a9000e2
:102ee0008402e8000042eb00844a7800b900370011
:102ef0000002eb0014079800fe0290000400280076
:102f000004826200e00f520006003200ce0a9000f8
:102f1000d4c2b300844a78001e0290000402e80084
:102f2000140798000e4a90000402fb007703120079
:102f30002e029000be029000860178008301e90015
:102f4000030033008502d1000482d300fbff370069
:102f5000540798001e029000ce0a9000048342009d
:102f60005e02900005002000060178000400be000b
:102f70009a0007000002eb00040f78000a003700f7
:102f80001e027800ce0a90000482420014427800ab
:102f9000e04f520003003a001e0278001407980028
:102fa000040037001e0fe8001e027800e70f5200f1
:102fb000f3ff34001e029000e50f520084003c0035
:102fc0001e029000ce0a900084824200e4c2b30048
:102fd000844a78001e0290000402e800140798005a
:102fe0000e4a90000402fb00740312002e029000af
:102ff000be0290000401be00860078008100e90056
:10300000030033008301d1000281d300fbff3700ae
:103010000203be00740020000500200006007800b6
:103020000703780084037800050278000700600039
:103030000402630005002000c022dd00040020001f
:103040000403be006102b8000403730085837300ab
:103050007400200005002000840f5300858f5b0062
:1030600041003e0006600100070037000d003700f8
:1030700013003700190037001f0037002500370004
:103080002b0037003100370004c3b3000457980009
:1030900004c3b3001457980004c3b3002457980026
:1030a0003100370014c3b3000457980024c3b300a1
:1030b0001457980054c3b300245798002a003700cf
:1030c00024c3b3000457980054c3b30014579800a6
:1030d00004c3b300245798002300370034c3b3005f
:1030e0000457980074c3b3001457980054c3b30036
:1030f000245798001c00370054c3b30004579800ad
:1031000004c3b3001457980004c3b30024579800b5
:103110001500370064c3b3000457980024c3b300fc
:103120001457980054c3b300245798000e0037007a
:1031300074c3b3000457980054c3b30014579800e5
:1031400004c3b300245798000700370084c3b300ba
:103150000457980074c3b3001457980054c3b300c5
:1031600024579800000000000002eb00040f7800d4
:103170000e0037001e029000e60f52000a003c00cd
:103180001e029000ce0a9000848242007002470026
:103190001e02420014427800844a78001e02900009
:1031a0000402e800140798001e0fe8001e027800d1
:1031b000e20f5200efff34001e029000ce0a900092
:1031c000848242000042eb00844a7800010037000c
:1031d000000000000080fa00000006000c00fa0069
:1031e000881f780030079800410798005207980020
:1031f0003e029000ce029000140798002507980028
:103200001e029000ae029000e00f5200e08f5a00c4
:1032100006003d003e029000ce02900060021200c7
:10322000e0821a0034079800450798000002eb007e
:10323000040f78001e027800de0290000484420031
:103240003e029000ce029000a20020000300200069
:103250000400be002ef607000002be000442780003
:103260000443b000044c78001e0fe8003e029000ba
:10327000ce029000a2002000030020000400be0047
:103280009bf507000002be00340798004507980030
:103290003e029000ce029000e00f5200e08f5a00f4
:1032a000e4ff3c001e029000ae029000e00f5200ce
:1032b000e08f5a0006003d001e027800de029000fa
:1032c00084824200d4c2b300844a78001e0fe80012
:1032d0001e027800de029000848242000042eb0071
:1032e000844a78005e009000030007004f047800d5
:1032f0000080fa00000006000800fa00300798007d
:103300000002eb00040f78003e00900004f7070075
:10331000000278000402e900140798001600370044
:103320001e027800be02900004824200944278009f
:10333000454798001e027800be0290008482420039
:103340001e0290003e0390000402430014427800e5
:10335000844a78001e029000be029000048242005f
:10336000ce429000054a78001e0fe8001e02900031
:103370000402e900140798001e0290009e027800e3
:10338000848f5200e6ff35000080fa00000006003e
:103390000400fa000002eb00040f78002003200074
:1033a0009f0607000002eb0014079800e6020700e2
:1033b00000027800140798009e0290008406200006
:1033c000848f52000b003a00cb22a800cb42a90008
:1033d0009e007800007d28005e0307006802070059
:1033e0000002780084007800a07f280059030700bd
:1033f000160037008a0107009e009000e07f280039
:10340000540307005e020700000278008400780081
:10341000a07f28004f0307001e0fe8009e007800e1
:10342000908028004b0307001e027800e50f520031
:1034300006003a000002eb00040f7800ca62a80000
:10344000cb22a900803e2000750607000080fa000c
:10345000000006000000fa00bb020700000278002e
:1034600085062000850f520003003a00cb22a800f9
:10347000ca62a90002003700cb22a900ca62a800d4
:103480000080fa00000006000c00fa00ae020700ff
:103490000002780085062000850f520016003a00d1
:1034a000ea0247006802470066004700e40347005d
:1034b0000e83e8008001780007017800860078001c
:1034c0000e007800a7020700ce0390003e03900094
:1034d0009e0290001e0278008701780006017800a5
:1034e00085007800040078007d040700cb42a90025
:1034f000ca62a800090037009302070000027800a2
:1035000084007800f080280012030700ca42a90056
:10351000803e200042060700410107000080fa00bb
:10352000000006000200fa000002eb00040f780021
:10353000040037009e007800808228000503070001
:103540001e0fe800f47022009e027800848f520063
:10355000f8ff34000080fa00000006000200fa00c4
:103560000002eb00040f7800090037001e0278000b
:10357000940c8800940c8000640c8800640c80001b
:10358000340c8800340c8000040c88001e0fe80006
:10359000f4e124009e027800848f5200f3ff34008f
:1035a0000080fa00000006000200fa00004f7800d8
:1035b0009e4278000582fb00141088000000000085
:1035c0004410800061026200e00f5200fcff3a00ec
:1035d0000080fa00000006000000fa00040220004b
:1035e0000409880004572000e40888000002eb006a
:1035f000c408880086c0a90021e1a9008ec0a900e6
:1036000021e1a8000080fa00000006000000fa0096
:103610000602a800f0ff070086c0a9000000000015
:103620003410800061026200e00f52000500320099
:10363000350480000404200004826200e00f520080
:10364000f7ff320021e1a9003504800004042000c6
:1036500004826200e00f520002003200e083280082
:10366000e60207000002eb00040078000080fa0088
:10367000000006000000fa000622a800d6ff07009e
:1036800086c0a900000000003410800062026200c1
:10369000e00f5200050032003504800004042000d1
:1036a00004826200e00f5200f7ff320021e1a9001e
:1036b000350480000404200004826200e00f520000
:1036c0000200320090852800cc0207000002eb00c7
:1036d000040078000080fa00000006000000fa00f4
:1036e0000642a800bcff070086c0a9000000000039
:1036f0003410800064026200e00f520005003200c6
:10370000350480000404200004826200e00f5200af
:10371000f7ff320021e1a9003504800004042000f5
:1037200004826200e00f520002003200608728002d
:10373000b20207000002eb00040078000080fa00eb
:10374000000006000200fa00004f78009e42780058
:103750000582fb00141088009fff070086c0a900a7
:10376000000000004410800061026200e00f52007f
:103770000500320035048000040420000482620049
:10378000e00f5200f7ff320021e1a900350480006c
:103790000404200004826200e00f520002003200a4
:1037a00010892800950207000002eb000400780051
:1037b0000080fa00000006000000fa0086ff070003
:1037c00086c0a9000000000045108000040024000d
:1037d00004826200e00f52000500320035048000d0
:1037e0000404200004826200e00f5200f6ff320061
:1037f00021e1a90035048000040420000482620055
:10380000e00f520002003200d08a28007b0207003d
:103810000002eb00040078000080fa0000000600bf
:103820000000fa00441080000482ea004f22de000b
:10383000040078000080fa00000006000000fa0092
:1038400006a2a8000682a800000000003410800034
:1038500070026200e00f5200fcff3a0006a2a900cd
:103860000002eb00040078000080fa00000006006f
:103870000000fa0006a2a9000682a80000000000cd
:103880003410800070026200e00f5200fcff3a002a
:103890000002eb00040078000080fa00000006003f
:1038a0000000fa000662a80000000000441080003a
:1038b00062026200e00f5200fcff32000410800040
:1038c000040078000080fa00000006000000fa0002
:1038d0000662a800100020005b0507000000000041
:1038e0003410800068026200e00f5200fcff3a00d2
:1038f00014002000040078000080fa000000060098
:103900000400fa00000f78002147980011003700ea
:10391000e3ff070000027800044278009e0278006e
:10392000844a78001e0fe800451080000440200003
:1039300004826200e00f5200020032000082eb00bd
:103940000f0037002e429000e04f5200010032007d
:10395000c7ff07002e4290000482fb000402ea0029
:103960004f22de0004427800ae4290008542e9001a
:1039700025479800e04f5200e5ff3a000002eb00b7
:10398000040078000080fa00000006000200fa003f
:10399000004f780088ff07001cff070000cdb30030
:1039a00068ff070084ff07001e40780065ff0700de
:1039b00081ff07002fff070010cdb30061ff070054
:1039c0007dff0700c1ff07009cff070043ff0700c2
:1039d00004108000040078000080fa000000060057
:1039e0000200fa00004f78001147980007ff070017
:1039f00000cdb30053ff07006fff07001e407800a3
:103a000050ff07006cff07001e4090004dff0700ad
:103a100069ff070031ff07000080fa000000060080
:103a20000000fa00f1c0b30090c1b300ecff070042
:103a300011c0b300b0c6b300e9ff070011c0b30066
:103a4000b0c1b300e6ff070011c0b300c0c1b300ae
:103a5000e3ff070061c0b300a0c1b300e0ff0700af
:103a60000080fa00000006000600fa00889fbe00f1
:103a700010079800210798001e009000e804070036
:103a80000002eb00040f780055003700a900070082
:103a900000027800cfa2de000400be00c6f30700db
:103aa0000003be00a44c8000b54c80000401be00a1
:103ab0000600be006df207000002be00444c880004
:103ac000554c8800ae00070000027800cfa2de004f
:103ad0000400be00b8f307000003be00c44c800021
:103ae000d54c80000401be000600be005ff2070056
:103af0000002be00644c8800754c8800b3000700cb
:103b000000027800cfa2de000400be00aaf3070086
:103b10000003be00e44c8000f54c80000401be00b0
:103b20000600be0051f207000002be00844c88006f
:103b3000954c8800b800070000027800cfa2de0094
:103b40000400be009cf307000003be00a44c8000ec
:103b5000b54c80000401be000600be0043f2070021
:103b60000002be00a44c8800b54c8800bd000700d0
:103b700000027800cfa2de000400be008ef3070032
:103b80000003be00c44c8000d54c80000401be0080
:103b90000600be0035f207000002be00c44c8800db
:103ba000d54c8800c200070000027800cfa2de00da
:103bb0000400be0080f307000003be00e44c800058
:103bc000f54c80000401be000600be0027f207008d
:103bd0000002be00e44c8800f54c88001e0fe8008f
:103be0002e0290009e027800848f5200a7ff3500bd
:103bf000484c8000594c80002e029000cfa2de007d
:103c00000400be006cf307000002be000401be0009
:103c10000800be00f4f207000002be00444c880019
:103c2000554c8800684c8000794c80002e02900032
:103c3000cfa2de000400be005ff307000002be005a
:103c40000401be000800be00e7f207000002be004b
:103c5000644c8800754c8800884c8000994c80002a
:103c60002e029000cfa2de000400be0052f3070037
:103c70000002be000401be000800be00daf2070028
:103c80000002be00844c8800954c8800a84c80003f
:103c9000b94c80002e029000cfa2de000400be00ce
:103ca00045f307000002be000401be000800be008c
:103cb000cdf207000002be00a44c8800b54c88007d
:103cc000c84c8000d94c80002e029000cfa2de00ac
:103cd0000400be0038f307000002be000401be006d
:103ce0000800be00c0f207000002be00c44c8800fd
:103cf000d54c8800e84c8000f94c80002e029000e2
:103d0000cfa2de000400be002bf307000002be00bd
:103d10000401be000800be00b3f207000002be00ae
:103d2000e44c8800f54c88004f04be000080fa0087
:103d3000000006000400fa000002eb00040f780007
:103d40000002eb0014079800b0c3b3000fff070098
:103d50000002780014079800c0c3b3000bff0700ef
:103d600000027800040f78001e0290004822dd0057
:103d70001e024200040078000080fa0000000600e5
:103d80000400fa000002eb00040f78000002eb00d0
:103d900014079800d0c3b300fcfe070000027800af
:103da00014079800e0c3b300f8fe07000002780093
:103db000040f78001e0290004822dd001e0242001f
:103dc000040078000080fa00000006000400fa00f9
:103dd0000002eb00040f78000002eb0014079800cb
:103de000f0c3b300e9fe0700000278001407980052
:103df00000c4b300e5fe070000027800040f78005d
:103e00001e0290004822dd001e02420004007800dd
:103e10000080fa00000006000400fa000002eb0037
:103e2000040f78000002eb001407980030c4b300c0
:103e3000d6fe0700000278001407980040c4b300c3
:103e4000d2fe070000027800040f78001e029000e6
:103e50004822dd001e024200040078000080fa00c3
:103e6000000006000400fa000002eb00040f7800d6
:103e70000002eb001407980050c4b300c3fe070013
:103e8000000278001407980060c4b300bffe07006a
:103e900000027800040f78001e0290004822dd0026
:103ea0001e024200040078000080fa0000000600b4
:103eb0000400fa000002eb00040f78000002eb009f
:103ec0001407980070c4b300b0fe07000002780029
:103ed0001407980080c4b300acfe0700000278000d
:103ee000040f78001e0290004822dd001e024200ee
:103ef000040078000080fa00000006000400fa00c8
:103f00000002eb00040f78000002eb001407980099
:103f100010c4b3009dfe070000027800140798004b
:103f200020c4b30099fe070000027800040f780057
:103f30001e0290004822dd001e02420004007800ac
:103f40000080fa00000006000000fa0050c7b3002d
:103f50008efe070000027800040078000080fa005e
:103f6000000006000c00fa00000f7800110798000e
:103f700022079800330798004407980055079800d7
:103f80006cff0700000278009e027800840a780027
:103f90007bff0700000278009e029000840a7800f0
:103fa0008aff070000027800ae029000840a7800c1
:103fb00099ff070000027800be029000840a780092
:103fc000a8ff070000027800ce029000840a780063
:103fd000b7ff070000027800de029000840a780034
:103fe0000080fa00000006000000fa00d400200063
:103ff000d410880000000000c510800004102000cc
:1040000004826200e00f5200fbff3200a400200097
:10401000d410880000000000c510800004102000ab
:1040200004826200e00f5200fbff32000080fa00c1
:10403000000006000600fa0010079800210798000b
:104040000042eb00044f78000e0037009e427800db
:104050000582fb009e029000048242001442780018
:104060000402fb00d410880000000000c51080008e
:104070000410200004826200e00f5200fbff3200b7
:104080001e4fe8001e4278008482fb002e02900042
:10409000848f5200edff35000080fa00000006001a
:1040a0000400fa00000f7800110798009e009000ad
:1040b0001e007800dfff0700cbff07000080fa003a
:1040c000000006000600fa0010079800210798007b
:1040d0000042eb00044f78000e0037009e4278004b
:1040e0000582fb009e029000048242001442780088
:1040f0000482fb00d410880000000000c51080007e
:104100000410200004826200e00f5200fbff320026
:104110001e4fe8001e4278008482fb002e029000b1
:10412000848f5200edff35000080fa000000060089
:104130000400fa00000f7800110798009e0090001c
:104140001e007800dfff0700a7ff07000080fa00cd
:10415000000006000400fa00000f78001107980024
:104160001e0078006ef307000002780084007800db
:104170001e007800afff0700a20020009e00900004
:10418000808220004bf307008082200064f3070048
:10419000000278008400780080822000c0ff0700c1
:1041a0000080fa00000006000400fa00000f78000a
:1041b000110798001e00780059f3070000027800ec
:1041c000840078001e0078009aff0700a2002000fb
:1041d0009e0090008082200036f30700808220003d
:1041e0004ff30700000278008400780080822000ee
:1041f00090ff07000080fa00000006000200fa00ad
:10420000000f78001e00780045f3070000027800d8
:10421000840078001e007800a1ff07000080fa00eb
:10422000000006000200fa00000f78001e0078006f
:104230003bf3070000027800840078001e0078003d
:104240007cff07000080fa00000006003600f8003e
:10425000809fbe00829fbe00849fbe00869fbe00de
:104260000200fa0016030700d64e8000e41080001a
:1042700004427800859a200085024300844a780031
:10428000d54e800004032000848f520003003c00c0
:10429000d44e80000402e800d44e8800d44e800042
:1042a0008402e900849a200004824200944278004b
:1042b00034c2b30084cf520013003a00d44e8000c1
:1042c0000402e900d44e8800809a200017000700fd
:1042d0000002eb00040f780005003700849a2000ec
:1042e0009e02420004c2b300844a78001e0fe80018
:1042f000140320009e027800848f5200f7ff3400e0
:104300000002eb00d44e88008700a9001822a90003
:104310000080fa004f03be004f02be004f01be00f6
:104320004f00be003600f900004006002600fa00eb
:10433000201798000002eb00040f78000002eb0049
:10434000140798000002eb00240798001e02780072
:10435000e30f5200470034001e027800ae129000b6
:10436000048242009442780064c2b30084cf5200b9
:104370003b0032002e029000e00f520008003a008d
:104380001e027800ae1290000482420014427800af
:10439000660347009e02900085024300844a78002d
:1043a0002e029000e10f520008003a001e02780031
:1043b000ae12900004824200144278006c03470061
:1043c0009e02900085024300844a78002e029000ed
:1043d000e20f520008003a001e027800ae12900070
:1043e0000482420014427800720347009e0290004b
:1043f00085024300844a78002e029000e30f5200a9
:1044000008003a001e027800ae12900004824200ba
:1044100014427800780347009e0290008502430012
:10442000844a78002e029000e40f520008003a00ff
:104430001e027800ae1290000482420014427800fe
:104440007e0347009e02900085024300844a780064
:104450001e0290000402e8001407980005003700cf
:104460002e0290000402e800240798000002eb00ee
:10447000140798001e0fe8001e027800ae1290008c
:10448000048242009442780034c2b30084cf5200c8
:10449000aeff3a002090280058ff07006602470050
:1044a000040078004af207000002780084007800d7
:1044b0008091280027ff07006c0247000400780065
:1044c00043f207000002780084007800b0912800d1
:1044d00020ff070072024700040078003cf207004a
:1044e0000002780084007800e091280019ff07009e
:1044f000780247000400780035f2070000027800d7
:10450000840078001092280012ff07007e02470006
:10451000040078002ef20700000278008400780082
:10452000c09228000bff0700610207000080fa001c
:10453000000006000600fa00100798002107980006
:104540000042eb00044f7800240037009e427800c0
:104550000582fb00040242009e0290000482420099
:104560001402780004427800144798001e4290001c
:104570000402fb00d410880000000000c510800079
:104580000410200004826200e00f5200fbff3200a2
:104590009e4278000582fb00040242009e029000c9
:1045a000048242001402780048a2de00044278002f
:1045b000144798001e4290000402fb00d4108800ab
:1045c00000000000c510800004102000048262007a
:1045d000e00f5200fbff32001e4fe8001e42780041
:1045e0008482fb002e0290000482d100848f52004e
:1045f000d6ff35000080fa00000006000a00fa002d
:1046000040079800b4da2c001407980044002000fa
:10461000240798004e0290003407980064002000a0
:10462000040f78000e82e8009e00780004007800f5
:1046300080fe07000080fa00000006000e00fa006d
:104640005007980061079800b4da2c00140798000e
:1046500044002000240798005e0290003407980070
:104660006e0290004407980084002000040f780038
:104670000e82e8009e007800040078006dfe0700be
:104680000080fa00000006001200fa00600798009f
:1046900071079800020f9800b4da2c0014079800f4
:1046a00064002000240798006e02900034079800f0
:1046b0007e029000440798000e0a9000540798006c
:1046c000a4002000040f78000e82e8009e0078000d
:1046d0000400780057fe07000080fa000000060082
:1046e0001600fa0070079800010f9800120f98004a
:1046f000230f9800b4da2c001407980084002000df
:10470000240798007e029000340798000e0a90005b
:10471000440798001e0a9000540798002e0a900043
:1047200064079800c4002000040f78000e82e8009f
:104730009e007800040078003efe07000080fa002a
:10474000000006000000fa000002eb00243a880096
:10475000a0002000bc0107000082eb004415880087
:10476000a0002000b80107000082eb0004168800ba
:10477000a0002000b4010700048f2f003416880029
:10478000a0002000b00107000082eb006416880042
:10479000a0002000ac01070004ff2b009416880045
:1047a000a0002000a8010700c4fd2f00f416880017
:1047b000a0002000a40107000002eb0014168800ee
:1047c000a0002000a00107000002eb0044168800b2
:1047d000a00020009c0107000002eb007416880076
:1047e000a0002000980107000002eb00a41688003a
:1047f000a0002000940107000002eb0004178800cd
:10480000a0002000900107000080fa0000000600d0
:104810000000fa0000352c008b0107000040eb007f
:1048200051010700c40320002410880007a2a9003a
:10483000000000000782a800000000000762a90035
:10484000000000000742a900000000000722a900a4
:10485000000000000702a9000000000006e2a90015
:104860000000000006c2a9000000000006a2a90086
:10487000000000000682a900000000000662a900f6
:10488000000000000642a900000000000622a90066
:10489000000000000602a900000000000040eb003c
:1048a0003101070007e2a8005dfc07000080fa0064
:1048b000000006000400fa008401a90000000000c6
:1048c0008421a900000000008441a900000000002c
:1048d0008461a900000000008a01a9000000000016
:1048e0008a21a900000000008a41a9000000000000
:1048f0008a61a900000000009001a90000000000ea
:104900009021a900000000009041a90000000000d3
:104910009061a900000000009601a90000000000bd
:104920009621a900000000009641a90000000000a7
:104930009661a9000000000011e1a900000000003c
:1049400011a1a9000000000010c1a9000000000092
:104950001021a900000000001061a9000000000063
:1049600084c0a9000000000054392100040f780021
:104970000002eb00140798001e027800140888005b
:104980001e029000040c88001e0278006408880053
:104990001e029000340c88001e0278007408880003
:1049a0001e029000640c88001e027800d408880063
:1049b0001e029000940c88008401a90000000000f1
:1049c0008421a800000000008441a800000000002d
:1049d0008a01a900000000008a21a8000000000050
:1049e0008a41a800000000009001a900000000001a
:1049f0009021a800000000009041a80000000000e5
:104a00009601a900000000009621a8000000000007
:104a10009641a80000000000840880000440a10026
:104a20000450a10084088800000000000002eb0090
:104a3000040c88000002eb00340c88000002eb003c
:104a4000640c88000002eb00940c880011e1a800bf
:104a50000080fa00000006000000fa0017e2a8003b
:104a600000000000000000000000000019e2a900a2
:104a700000000000c41080000460a1000470a100c8
:104a8000c410880000000000b41080000410a100d1
:104a90000420a100b4108800000000001602a90044
:104aa0000000000016a2a90000000000f400200091
:104ab000f4108800000000001942a8000000000067
:104ac0008700a900000000008720a9000000000066
:104ad0008f00a800000000008f20a9000000000047
:104ae0000080fa00000006000000fa00ca02a800d8
:104af000ca22a800cb42a800ca62a800ca42a800e5
:104b0000cb22a8000080fa00000006000000fa0096
:104b1000ca02a900ca22a900cb42a900ca62a90000
:104b2000ca42a900cb22a9000080fa0000000600ba
:104b30001000fa0070079800143a8000040f780003
:104b4000f48f2f001e0f62001e02780048a2de00c4
:104b5000040f78007e0290000500200076002000ff
:104b600007002000860f5200878f5a0068003e0021
:104b700004600100070037000b0037000f0037000a
:104b8000130037006400370063003700620037000d
:104b9000140037009e0278007e02900004827200aa
:104ba000040f7800140037009e0278007e02900007
:104bb00004827200040f78000f0037009e02780014
:104bc0007e02900004827200040f78000a00370011
:104bd0009e0278007e02900004827200040f78002a
:104be000050037009e0278007e0290000482720069
:104bf000040f78000000000084c7b3002447980029
:104c0000a4c9b30034479800247420000402e800cb
:104c100024079800140280004522de0067426200eb
:104c20000482fb0034079800940280004407980037
:104c3000ff3ffc00140280000450a0000460a000ac
:104c40000470a000140288004e02900094028800b4
:104c5000000088002e0390002e429000be4290007b
:104c60009e037800044b7800054b7800074b7800d2
:104c700064c4b3002447980074c5b3003447980057
:104c80002474200024079800143a8000044278001d
:104c90000404a000244f9800ae0390002e42900020
:104ca000be4290002e4b9000844b7800854b7800dc
:104cb000864b780000000000143a80006102620018
:104cc000e00f5200fcff3a00940280006407980055
:104cd000ff3ffc003e029000044278006742620001
:104ce0000482fb00670262004522dd00160280009c
:104cf000f5f12f008502630004827200140288001f
:104d00006e029000940288000000880003003700c3
:104d10000000000001003700000000000080fa00e1
:104d2000000006000200fa000002eb00040f780009
:104d3000010037001e0fe800140320009e027800d7
:104d4000848f5200fbff34000040eb000600070098
:104d50007000200076ff0700c05d20003a000700c9
:104d60000080fa00000006000200fa00004f780000
:104d7000040120002408880004e6200014088800ac
:104d80000002eb00040888008460a90005e1a80087
:104d90009e42780061c262000482fb0061026200f0
:104da0004322dd006604800075ff2f00850263004a
:104db00004827200640488001e427800e04f5200b2
:104dc00006003a000000000024048000680262002f
:104dd000e00f5200fcff320005e1a9000080fa005c
:104de000000006003600f800809fbe00829fbe00d3
:104df000849fbe00869fbe000000fa0010c0b30072
:104e0000d9ff07000080fa004f03be004f02be002a
:104e10004f01be004f00be003600f9000040060002
:104e20000200fa00000f78000040eb00ceff070000
:104e30001e0fe9001e027800e00f5200faff3d004d
:104e40000080fa00000006000200fa00000f78005f
:104e500002003700000000001e0fe9001e0278006b
:104e6000e00f5200fbff3a000080fa00000006004d
:104e70000200fa00000f7800040220009408880065
:104e80009e027800041d200004aab90004027800e4
:104e9000740888000002eb005408880084e0a90030
:104ea00013e1a9008ce0a8000080fa0000000600d1
:104eb0000000fa0013e1a8000080fa0000000600dc
:104ec0000000fa0013e1a9000080fa0000000600cb
:104ed0003600f800809fbe00829fbe00849fbe0007
:104ee000869fbe000000fa0084e0a90054168000ee
:104ef0006402620004f0a7000402ea000402e90070
:104f00004f22de00044278000482fb00610262004e
:104f10004222dd0056168000b5ff2f008502630097
:104f2000048272005416880004f107000080fa0021
:104f30004f03be004f02be004f01be004f00be0037
:104f40003600f900004006000000fa0086c0a90003
:104f50000080fa00004006000200fa00000f78000e
:104f60001fe1a900000000001fa1a900000000002f
:104f70001ec1a900000000001e21a90000000000c1
:104f800086a0a9000000000084de2f00d40888005d
:104f90000002eb00a40888001fe1a8000000000048
:084fa0000080fa000000060089
:020000040000fa
:104fa8002c0900007c000000020000000000000046
:104fb8000000000000000000000c00008813010041
:104fc8000020030020030c000088130001002000cb
:104fd800032003000a000a0000010000000000008e
:104fe80000080000000000000000000000000000b1
:104ff800000000008fc2f5003c8fc200f53c6f0036
:1050080012033b00000080003f0000000000000089
:1050180000000000000080003f000000c8420000bf
:105028000000000000000000000000000000000078
:105038000000000000000000000000000000000068
:105048000000000000000000000000000000000058
:105058000000000006080000260100000000000013
:10506800000800000600000000000000fa0f000021
:105078000600000000000000a8090000340000003d
:1050880000000000dc090000020000000000000031
:045098000000000014
:020000040000fa
:0200000401f009
:04000000e3390000e0
:020000040000fa
:0200000401f009
:04000400ff7f00007a
:020000040000fa
:0200000401f009
:040008006c7f000009
:020000040000fa
:0200000401f009
:04001400ffff0000ea
:020000040000fa
:0200000401f009
:04001800feff0000e7
:00000001FF
