:020000040000fa
:080000000001040000000000f3
:020000040000fa
:100008009401000094010000940100009401000094
:100018009401000094010000940100009401000084
:10002800940100009401000094010000d431000004
:100038009401000094010000940100004a3200007d
:100048009401000094010000940100009401000054
:100058009401000094010000940100009401000044
:100068009401000094010000940100009401000034
:10007800940100009401000068320000940100001f
:10008800fe24000094010000940100009401000087
:100098009401000094010000940100009401000004
:1000a80094010000940100009401000094010000f4
:1000b80094010000940100009401000094010000e4
:1000c80094010000940100009401000094010000d4
:1000d80094010000940100009401000094010000c4
:1000e80094010000940100009401000094010000b4
:0800f8009401000094010000d6
:020000040000fa
:100108009401000094010000940100009401000093
:100118009401000094010000940100009401000083
:10012800940100009401000094010000d431000003
:100138009401000094010000940100004a3200007c
:100148009401000094010000940100009401000053
:100158009401000094010000940100009401000043
:100168009401000094010000940100009401000033
:10017800940100009401000068320000940100001e
:10018800fe24000094010000940100009401000086
:100198009401000094010000940100009401000003
:1001a80094010000940100009401000094010000f3
:1001b80094010000940100009401000094010000e3
:1001c80094010000940100009401000094010000d3
:1001d80094010000940100009401000094010000c3
:1001e80094010000940100009401000094010000b3
:0801f8009401000094010000d5
:020000040000fa
:10020000afa42000aefe20000e0188000000000018
:1002100000012000200288000c0007008029230034
:100220000100200011000700000020000000e00095
:10023000020032000000020000000000260a020056
:10024000000000000040da000000fe004440a90069
:10025000002820000000e000030032000000200021
:10026000a00188004440a800000006009101880019
:10027000800078000000eb0015003700e2804000ad
:1002800032a0b4009101ba00e280400032a0b40074
:100290009102ba00e280400032a0b4000002eb00fc
:1002a000472bde00f507b200602ce10004003a00a5
:1002b0000059eb008301e900fdff3e000400370018
:1002c0006128e100010032000082eb000400070019
:1002d0001101ba000200e000e8ff3a000000060049
:1002e0003159ba008301e9000c0032002159ba00eb
:1002f0008301e900080032000400e00003003a0036
:10030000e280400032a0b400f5ff370011d9ba00f6
:100310008301e900faff3a008100e800e180400033
:1003200032a0b400000006000040da000000fe0029
:10033000881f78008a1f78004400f800080f20000a
:10034000280288000004900010059000a000900092
:1003500030019000c00190000300ca000280ca0072
:100360000030cb001a00cd004604c3000100ca00d3
:100370004604c0001e04c0000605c0000100cd00f8
:1003800021009800050d7800eaba9700052578004d
:100390004400f9004f0578004f0478000000060083
:1003a000801f78004000b0000008eb004f0078008c
:1003b000801f7800100090000018eb000018eb0080
:1003c0000008eb004f007800000006004400f80031
:1003d000020f200022028800910078003000ca003d
:1003e0003080ca000000cb002080ca000000cb0093
:1003f0003100cd004000ca000000cb000000cb005f
:100400000010cb003100cd001180cc004400f90079
:1004100000000600040024000602ab00feff3a00c4
:100420000642ab00fcff3a000662ab00faff3a005e
:100430000682ab00f8ff3a00461080008602620098
:10044000e08f5200f4ff3a000000060006a2a80068
:100450000682a800000006000602a80000000600b0
:100460000642a8000000060003f0a200889fbe001c
:100470008a9fbe008c1f780091010700980133000d
:100480006450e1004f0032006420e100520032006d
:1004900003826c0007003b000905d0000306d00072
:1004a000820f54000c065d00020039000200320089
:1004b00089017800030678008582550004003d001c
:1004c0000003fd008103fd008502ea008b854200e8
:1004d000840f720002003b0060001000e0801800f2
:1004e0006011b8000005eb007a28e1000a0039002d
:1004f00006007800c75ddd00f707b2008780750051
:100500002d003700828171000a01780061056000ca
:100510008180d1000080d3008502e900f9ff3b0013
:10052000060440008784480002003b006004140079
:10053000e0841c000988a300070032008a81710052
:1005400082817100610164008904d1000884d300b4
:100550008b05e800170037000978a30013003a0064
:100560000b00e000130034008b05e9000804440090
:1005700089844c000a4474000978a3000d003a00f5
:100580000b00e000070034008b05e900080444007c
:1005900089844c0001003a000b0020000978a30078
:1005a000f7ff32000001eb0002003700828171008a
:1005b0000a017800070107000cf0a70001f0a00075
:1005c000500137006420e10002003a00838f6c0084
:1005d000500133000801be000200be00490137008f
:1005e000889fbe008a9fbe008c1f780034010700e0
:1005f0001002200002003b00405288003801370002
:100600008a0062006408e10002003a00405288005b
:10061000400137006108e100fcff32000800be0025
:10062000030478007000070001f0a1000900070032
:1006300008f0a600040037000001be009104240069
:10064000b0fd200088ff070009f0a70001f0a2001c
:100650002c013700889fbe008a9fbe008c9fbe0081
:100660000004be00010107000800be0089067800f2
:100670006420e10008003900040032000160a0009d
:1006800012022000425288005300370091fc2300e0
:10069000b0fd20004e0037000006eb0009f0a1007d
:1006a00003f82300020020000800be009f0007009e
:1006b0000600340001f82300000020000801be00fd
:1006c000490007000004be002c0020000800be0006
:1006d00093e82300320a230094000700120034003c
:1006e0000801be00d1fd2300703d2b005fff070015
:1006f0000005be00b3f32300f27a26000800be0016
:100700001601070003f823000200200056ff07002f
:100710000801be0055ff07000a01be0032000700b5
:100720000004be000c06e8000800be0001f0a100b5
:1007300002002000039823007c0007000800be0090
:10074000160035000801be00040107000005be00c8
:1007500032cd2c0043fb230044ff0700809fbe00e6
:100760001269280003d52b000a00be00fb00070019
:10077000620f210013ef2b003cff07000a01be00af
:10078000f60007004f01be00170007000801be0079
:10079000f20007000801be0034ff07000c00e00073
:1007a0000b0032000c10a70001f0a200b2fd2000e7
:1007b00093fc23006260e1000400320022a92000c3
:1007c00063f023000c10a70063f8230027ff070045
:1007d0000df0a70001f0a2004f06be004f05be00bd
:1007e0004f04be0000000600889fbe008a9fbe0026
:1007f0008c1f7800b2000700b900330003866c003c
:100800006450e1002e0032006420e1003300320029
:100810006150e1002f0032006120e1003100320020
:1008200085855500eb07b000090020000804200072
:10083000050037000804440089844c000a00310098
:100840000603430087834b000001530081815b0056
:10085000f8ff33000203be000800a00008044400b3
:1008600089844c00f6ff3900c639dd00830173002e
:1008700001003200130020008904d1000884d30055
:100880000998a300050032000800a7000300a0009b
:100890008904d1000884d3008b05e8008904d100c5
:1008a0000884d3000001eb000281d2004900070058
:1008b00001f0a1000cf0a70001f0a00091003700aa
:1008c0006420e100930032000801be000200be0077
:1008d000f7ff37006120e1008e0032006000b800b1
:1008e000f3ff37000000200001f82700f0ff370079
:1008f000839f68000100e00002003d0060001000de
:10090000e08018000300e00002003d0060011100db
:10091000e0811900c50007004f00e00002003b0025
:1009200060001000e08018000000060014002000a5
:10093000d1003700f4ff2f00cf0037000001be00c8
:100940004a0007000470a70003f0a1006509b10088
:10095000160032000d0035006828e1000600350061
:10096000f0ff2f00f1ff27000300e00013003b0021
:1009700001002800000005000000400081804800c0
:100980008502e900fcff3a0008003700f88f4200ba
:1009900002003c008000eb00000005008100d10057
:1009a0000080d3008502e800fcff3a000300e0006d
:1009b00002003b0060001000e0801800000006000c
:1009c0004f89de0082017800c60037006011b80050
:1009d000d400370081002000618055000b003d00ed
:1009e0000b00200061fe2f000100e1001d0034001b
:1009f00082817100610164008904d1000884d30000
:100a00000000e800faff3a00710020006100640075
:100a1000030070000200600009003200610444001d
:100a2000e0844c000988a500050032008b05e80031
:100a30006808e10002003a008904d1000884d3006c
:100a4000f20f20000258e10005003d00c75ddd0007
:100a5000f907b200898075000800780000000600e0
:100a60000bf827008b00780000000500c70ade00a5
:100a7000f107b200f50fb20008003200e1cf4200ea
:100a8000020032000170a00024000500810f7000f8
:100a9000010032000408050044000500810f7000c9
:100aa00002003a00140005008502e9000000400041
:100ab00081c04800fcff3b000170a000240005003d
:100ac0000004be00e9ff07000003be000405be00ed
:100ad0000200be00e5ff0700844f7500000006001d
:100ae0000200be006450e100050036006420e10011
:100af000020036000968a30001003a000800be00a9
:100b00000160a0004f0678004f05be004f04be00f4
:100b100000000600f0ff2f00f1ff2700f9ff37006b
:100b2000811f78000100e00002003d00600010001d
:100b3000e08018000300e00002003d0060011100a9
:100b4000e0811900490007004f00e00002003b006f
:100b500060001000e080180000000600889fbe00c2
:100b60008a9fbe008c1f7800d5ff0700dcff330092
:100b700003866c006450e100240032006420e10030
:100b8000270032006150e100220032006120e100c4
:100b9000210032008b854200eb07b1000134b80020
:100ba000003ab8000804420089844a00013ab800bb
:100bb0000030b8008880400009014a00040033007a
:100bc0000000400081804800020149008b05e900d7
:100bd000c909dd008301700001003200130020000c
:100be000c814de004814dd004709de001200b20020
:100bf000c808de000884700076ff070001f0a1003d
:100c00000cf0a70001f0a000beff37006120e1005a
:100c1000c0ff32000801be000200be00f7ff37002f
:100c20006150e100fcff3a00baff37006022b800d3
:100c3000060220000000d0008180d2000482d20091
:100c40008582d2000000a0000202520083825a0076
:100c5000030031000202420083824a000000a1002a
:100c60000603e900f3ff3a0000000600efff07006b
:100c70000400be0000000600889fbe008a9fbe00e0
:100c8000841f78008eff07004f00780011003300aa
:100c9000f0ff2f00838f6c0006003b000405650009
:100ca0000a00a7000800370009f0a6001000200085
:100cb00008003700820f5400838f5c000300390066
:100cc0001000200001003e000000200009f0a700f5
:100cd0000000ea004f05be004f04be000000e00027
:100ce00000000600881f7800030478000300e0007d
:100cf00007003d0060001000e0801800600119004e
:100d0000e081190002003b0001f02d0003003700d4
:100d10000400070008f0a70001f0a0004f047800cd
:100d200000000600889fbe008a9fbe0000827000ff
:100d30000402710004827100260032000004be002b
:100d40000200be006011b8006b092000950220006f
:100d50000182cf000a0039000541b1000082cf00b6
:100d6000070039000541b1000982cf0004003900b5
:100d70000541b1000882cf00010039000541b100f2
:100d800005425200120032000a003b0082817100cd
:100d9000610164008100d1000080d3008984d30008
:100da0000884d3008b05e8000442e800f7ff3a000e
:100db000070037000804440089844c000000480004
:100dc000818048008b05e9000442e900f9ff3a0000
:100dd00000ff07004f05be004f04be0000000600e4
:100de00006c2b3000002780004007800b042780028
:100df00086cf5200fbff3200e9cf5200f9ff3200ec
:100e0000d6c2b30086cf520003003a000002780039
:100e100016c0b300050037000043eb00b7c2b300b3
:100e200087cf520001003a00000278000000eb007a
:100e3000020037006a00b90000804200b402fb00e3
:100e40000503b100e98f5200faff3600e04f53006e
:100e5000010032000000ea00000006008001780076
:100e600081037800070278000100370085017800cf
:100e7000110009000282d800000278008302e80015
:100e8000e00f5200f9ff3a00844a7800110009008f
:100e90008283d800800278000142780085037800c0
:100ea000e94f5200010034006742420001c3b30021
:100eb00081514200e08f5200f4ff3a0003007800b5
:100ec00000000600881f780000047800e08f5000c2
:100ed00005003d0008007800d4c2b3000458780033
:100ee0008100ea000100370008007800dbff0700fe
:100ef000080078004f047800000006000002780027
:100f000002003700315a78000201e900e00f510079
:100f1000fcff3a000000060000027800b1427800b1
:100f2000055a7800e0cf5200fcff3a0000000600ae
:100f3000000278008042eb00b4cf1200fdff3a00bf
:0c0f40000080ea000000420000000600f3
:020000040000fa
:100f4c002d2d00002d2d00002d2d00002d2d00002d
:100f5c002d2d00002d2d00002d2d00002d2d00001d
:100f6c002d2d00002d2d00002d2d00002d2d00000d
:100f7c002d2d00002d2d00002d2d00002d2d0000fd
:100f8c002d2d00002d2d00002d2d00002d2d0000ed
:100f9c002d2d00002d2d00002d2d00002d2d0000dd
:100fac002d2d00002d2d00002d2d000000640000c3
:100fbc00617400006f730000206500006e63000018
:100fcc006f6e000074720000616400006f730000ab
:100fdc00206500006e2000006c61000020650000a0
:100fec0065700000726f00006d000000646100000d
:100ffc00746f0000732000006e6f00002020000052
:10100c00656e0000636f00006e740000726100007a
:10101c00646f000073200000656e0000206c0000ff
:10102c006120000065650000707200006f6d0000ab
:10103c002c2000006361000072670000616e0000ec
:10104c00646f000020640000617400006f73000086
:10105c002073000065670000757200006f7300005c
:10106c00004b0000505f00007a7800003d0000004b
:10107c00202c0000204b0000445f00007a78000018
:10108c003d000000202c0000204b0000495f0000b8
:10109c007a7800003d0000004249000041530000f6
:1010ac00315f00007a7800003d000000202c000029
:1010bc002042000049410000533200005f7a0000da
:1010cc00783d0000002000002c2000006b5f000029
:1010dc007a7800003d0000004b5000005f7a000061
:1010ec00793d0000002000002c2000004b44000043
:1010fc005f7a0000793d0000002000002c200000e9
:10110c004b4900005f7a0000793d0000004200006e
:10111c0049410000533100005f7a0000793d000026
:10112c00002000002c200000424900004153000028
:10113c00325f00007a7900003d000000202c000096
:10114c00206b00005f7a0000793d0000004b00002e
:10115c00505f0000787900003d000000202c00005a
:10116c00204b0000445f0000787900003d00000037
:10117c00202c0000204b0000495f00007879000013
:10118c003d0000004249000041530000315f000067
:10119c00787900003d000000202c00002042000067
:1011ac0049410000533200005f7800003d00000010
:1011bc00202c0000206b00005f780000793d0000bf
:1011cc0000540000736100006d7000006c6500003d
:1011dc003d000000202c000020660000696c00001f
:1011ec00747200006f3d000000000000484f0000ca
:1011fc004c410000205100005545000020540000d7
:10120c00414c0000204500005354000041530000a5
:10121c00207900006f20000065730000746f0000df
:10122c00792000006d7500007920000062690000d3
:10123c00656e00002079000020740000752000000d
:10124c007175000065200000746100006c000000e6
:10125c00636f00007272000065630000746f000021
:10126c0028770000686f00002069000020610000f2
:10127c006d3d00003130000034290000206e00006c
:10128c00756d0000657200006f2000006465000041
:10129c0020660000616c00006c6f00007320000081
:1012ac003d000000617900003d00000077680000ff
:1012bc006f20000069200000616d0000203d0000df
:1012cc0000650000727200006f7200000065000083
:1012dc00727200006f720000202d00002d3e000085
:1012ec00766100006c6f00007220000077680000cf
:1012fc006f20000069200000616d00003d000000bf
:10130c0045730000746f000020650000732000001e
:10131c00756e0000612000007072000075650000a1
:10132c0062610000203d00002000000053610000bd
:10133c006c6700006f20000064650000204d000009
:10134c00795300007461000072740000207000007a
:10135c006f72000020540000696d0000657200007f
:10136c0000530000616c0000676f000020640000f7
:10137c00652000004d790000526500007374000078
:10138c006172000074200000706f00007220000079
:10139c00546900006d65000072000000536100008c
:1013ac006c6700006f20000064650000206d000079
:1013bc00795f0000537400006f7000002070000013
:1013cc006f72000020540000696d0000657200000f
:1013dc0000530000616c0000676f00002064000087
:1013ec00652000006d7900005f57000072690000f5
:1013fc0074650000207000006f7200002054000023
:10140c00696d00006572000000530000616c000003
:10141c00676f000020640000652000006d790000fb
:10142c005f490000646c000065200000706f0000d4
:10143c0072200000546900006d650000720000000d
:020000040000fa
:10144c000000fa002d1207000040eb00b413070057
:10145c00a21307000040eb00b11307008312070032
:10146c000040eb00ae130700e91207000040eb0050
:10147c00ab130700541207000040eb00a813070041
:10148c00ac1007000040eb00a51307006003070039
:10149c000040eb00a2130700a61007000040eb0071
:1014ac009f130700fe1207000002eb00a44e8800f9
:1014bc0005003700007d2000d1130700a44e8000ea
:1014cc000402e800a44e8800a54e8000349c200045
:1014dc00848f5200f7ff3400fa120700210320001a
:1014ec0050002000a5100700f6120700520c070050
:1014fc005408070050002000cb130700da13070034
:10150c00607a2800260d0700cb02a800ffff3700e9
:10151c001a00fa00889fbe008a9fbe00ca02a8006b
:10152c000002eb00040f78000002eb001407980097
:10153c000002eb00240798006911070000027800f4
:10154c000402ea00cfa2de000400be0019fd070071
:10155c000004be004f11070000027800cfa2de008d
:10156c000400be0013fd07000002be000801be000f
:10157c000400be0017fc07000002be0012ee2200a1
:10158c00532624000400be0071fd07000002be00bb
:10159c0002002000030024000400be008ffc0700a2
:1015ac000002be0034079800450798005f11070041
:1015bc0000027800cfa2de000400be00fdfc070094
:1015cc000003be00144f8000254f80000401be00b4
:1015dc000600be00a1fb07000002be0002002000b6
:1015ec00333024000400be007cfc07000002be0067
:1015fc005407980065079800540020005e01900085
:10160c00ee0190003e009000ce0090002d070700e8
:10161c000002be000400be00c5fc07000002be00b4
:10162c00140798002e110700000278000402ea004b
:10163c00cfa2de000400be00defc07000004be00ea
:10164c000111070000027800cfa2de000400be00ea
:10165c00d8fc07000002be000801be000400be005a
:10166c00dcfb07000002be0012ee22005326240011
:10167c000400be0036fd07000002be00740798008f
:10168c00050f98003c11070000027800cfa2de0085
:10169c000400be00c7fc07000003be00344f8000ee
:1016ac00454f80000401be000600be006bfb070026
:1016bc000002be0002002000333024000400be00f3
:1016cc0046fc07000002be00140f9800250f98007e
:1016dc00540020001e099000ae0990007e0090007e
:1016ec008e089000870607000002be000400be00b2
:1016fc008ffc07000002be00040f7800f44a800043
:10170c00cfa2de000400be00aafc07000005be004c
:10171c00044b8000cfa2de000400be00a5fc070035
:10172c000004be00e44a8000cfa2de000400be002c
:10173c00a0fc07000002be0086f32f00861f780075
:10174c00860c2000861f780086c72e00861f780026
:10175c008a9fbe00833821000803be00520020007f
:10176c009e0078000000eb000d010700ea8757008f
:10177c0000027800340f9800444b8000cfa2de00aa
:10178c000400be008bfc07000005be00544b80001b
:10179c00cfa2de000400be0086fc07000004be00e1
:1017ac00344b8000cfa2de000400be0081fc070099
:1017bc000002be0086f32f00861f7800860c2000e6
:1017cc00861f780086c72e00861f78008a9fbe0071
:1017dc00833821000803be00520020009e009000b8
:1017ec000000eb0020000700ea8757000002780099
:1017fc00440f9800654b80004e0a90000482420012
:10180c00040078001b060700754b80004e0a900000
:10181c0004825200040078002e060700154b80004d
:10182c003e0a90000482420004007800050607007e
:10183c00154b80003e0a9000048252000400780090
:10184c0018060700be0990004e0990009e00780013
:10185c001e009000800e07004f05be004f04be0016
:10186c000080fa00000006002600fa00889fbe00e7
:10187c00300f9800410f9800520f9800640f980099
:10188c00750f9800061798001717980023179800e3
:10189c00be0a90004e0a9000048252002407980061
:1018ac002e029000cfa2de000400be0041fc070017
:1018bc000003be00244c8000354c80000401be00a7
:1018cc000600be00e5fa07000002be0034079800cf
:1018dc00450798002e029000cfa2de000400be0047
:1018ec0034fc07000002be006e099000fe09900057
:1018fc000400be0096fc07000002be0054079800ce
:10190c0065079800ae0290005e0a900004aab90028
:10191c0004027800cfa2de000400be0025fc070004
:10192c000002be000e1190009e1190000400be003b
:10193c0087fc07000002be000403be00444c80007c
:10194c00554c80000401be000600be00c4fa07001e
:10195c000002be00444c8800554c88003eb99700ec
:10196c00ceb997003e009000ce00900078fc0700a6
:10197c000002be0002002000a34724000400be00a9
:10198c0073fc07000002be000404be005e0a900057
:10199c00cfa2de000400be0006fc07000002be0061
:1019ac000401be000800be008cfb07000002be0054
:1019bc0074079800050f98001eba9700cfa2de009e
:1019cc000400be00fbfb07000003be00444c80007b
:1019dc00554c800018c0b3000401be000600be00c8
:1019ec00cffb070000027800e00f5200010034002a
:1019fc000044eb00e04f5400080032001eba970080
:101a0c00cfa2de000400be00eafb07000002be000d
:101a1c00444c8800554c8800180037000eba9700cb
:101a2c00cfa2de000400be00e2fb07000003be00f4
:101a3c00444c8000554c800018c0b3000401be001b
:101a4c000600be00b8fb070000027800e00f520051
:101a5c0001003d000044eb00e04f54000700320051
:101a6c000eba9700cfa2de000400be00d1fb070027
:101a7c000002be00444c8800554c8800444c800049
:101a8c00554c8000140f9800250f98007e01900093
:101a9c008e0990005e009000ee00900070fa070036
:101aac000002be001e099000ae0990000400be00aa
:101abc006bfa07000002be00048fbe002e129000cd
:101acc00cfa2de000400be00bafb07000002be007d
:101adc0018c0b3001e01be000400be0090fb07003e
:101aec0000027800e00f5200010034000044eb00cb
:101afc00e04f5400060032002e129000cfa2de0000
:101b0c000400be00abfb07000002be00048fbe0049
:101b1c002eba9700cfa2de000400be00a5fb070082
:101b2c000002be0018c0b3001e01be000400be00bf
:101b3c007dfb070000027800e00f520001003d0021
:101b4c000044eb00e04f5400060032002eba970020
:101b5c00cfa2de000400be0096fb07000002be0010
:101b6c00048fbe002e029000cfa2de000400be0047
:101b7c0090fb07000002be00244c8800354c880006
:101b8c001e00be006afb07000002be0004027800c3
:101b9c00040078004f04be000080fa00000006002c
:101bac002600fa00889fbe00300f9800410f980065
:101bbc00520f9800640f9800750f98000617980044
:101bcc001717980023179800be0a90004e0a900031
:101bdc0004825200240798002e029000cfa2de004f
:101bec000400be0073fb07000003be00e44b800042
:101bfc00f54b80000401be000600be0017fa07007a
:101c0c000002be0034079800450798002e02900091
:101c1c00cfa2de000400be0066fb07000002be007f
:101c2c006e099000fe0990000400be00c8fb07007e
:101c3c000002be005407980065079800ae029000a1
:101c4c005e0a900004aab90004027800cfa2de005c
:101c5c000400be0057fb07000002be000e119000ee
:101c6c009e1190000400be00b9fb07000002be00ec
:101c7c000403be00044c8000154c80000401be001f
:101c8c000600be00f6f907000002be00044c8800f6
:101c9c00154c88003eb99700ceb997003e009000d5
:101cac00ce009000aafb07000002be00020020003c
:101cbc00a34724000400be00a5fb07000002be00e1
:101ccc000404be005e0a9000cfa2de000400be0039
:101cdc0038fb07000002be000401be000800be0075
:101cec00befa07000002be0074079800050f9800aa
:101cfc001eba9700cfa2de000400be002dfb070029
:101d0c000003be00044c8000154c800018c0b300ca
:101d1c000401be000600be0001fb070000027800b3
:101d2c00e00f5200010034000044eb00e04f54007f
:101d3c00080032001eba9700cfa2de000400be00dd
:101d4c001cfb07000002be00044c8800154c8800e8
:101d5c00180037000eba9700cfa2de000400be00b8
:101d6c0014fb07000003be00044c8000154c8000df
:101d7c0018c0b3000401be000600be00eafa07005a
:101d8c0000027800e00f520001003d000044eb001f
:101d9c00e04f5400070032000eba9700cfa2de00cd
:101dac000400be0003fb07000002be00044c8800c8
:101dbc00154c8800044c8000154c8000140f9800c2
:101dcc00250f98007e0190008e0990005e00900017
:101ddc00ee009000a2f907000002be001e09900060
:101dec00ae0990000400be009df907000002be0081
:101dfc00048fbe002e129000cfa2de000400be00a5
:101e0c00ecfa07000002be0018c0b3001e01be00b1
:101e1c000400be00c2fa070000027800e00f520076
:101e2c00010034000044eb00e04f54000600320087
:101e3c002e129000cfa2de000400be00ddfa0700d7
:101e4c000002be00048fbe002eba9700cfa2de00a7
:101e5c000400be00d7fa07000002be0018c0b30091
:101e6c001e01be000400be00affa0700000278009d
:101e7c00e00f520001003d000044eb00e04f540025
:101e8c00060032002eba9700cfa2de000400be007e
:101e9c00c8fa07000002be00048fbe002e0290009c
:101eac00cfa2de000400be00c2fa07000002be0092
:101ebc00e44b8800f54b88001e00be009cfa07001e
:101ecc000002be0004027800040078004f04be003b
:101edc000080fa00000006002600fa00889fbe0071
:101eec00300f9800410f9800520f9800640f980023
:101efc00750f98000617980017179800231798006d
:101f0c00be0a90004e0a90000482520024079800ea
:101f1c002e029000cfa2de000400be00a5fa07003e
:101f2c000003be00644c8000754c80000401be00b0
:101f3c000600be0049f907000002be0034079800f5
:101f4c00450798002e029000cfa2de000400be00d0
:101f5c0098fa07000002be006e099000fe0990007e
:101f6c000400be00fafa07000002be0054079800f5
:101f7c0065079800ae0290005e0a900004aab900b2
:101f8c0004027800cfa2de000400be0089fa07002c
:101f9c000002be000e1190009e1190000400be00c5
:101fac00ebfa07000002be000403be00844c800064
:101fbc00954c80000401be000600be0028f9070005
:101fcc000002be00844c8800954c88003eb99700f6
:101fdc00ceb997003e009000ce009000dcfa0700ce
:101fec000002be0002002000a34724000400be0033
:101ffc00d7fa07000002be000404be005e0a90007f
:10200c00cfa2de000400be006afa07000002be0088
:10201c000401be000800be00f0f907000002be007b
:10202c0074079800050f98001eba9700cfa2de0027
:10203c000400be005ffa07000003be00844c800061
:10204c00954c800018c0b3000401be000600be0011
:10205c0033fa070000027800e00f52000100340050
:10206c000044eb00e04f5400080032001eba970009
:10207c00cfa2de000400be004efa07000002be0034
:10208c00844c8800954c8800180037000eba9700d5
:10209c00cfa2de000400be0046fa07000003be001b
:1020ac00844c8000954c800018c0b3000401be0025
:1020bc000600be001cfa070000027800e00f520078
:1020cc0001003d000044eb00e04f540007003200db
:1020dc000eba9700cfa2de000400be0035fa07004e
:1020ec000002be00844c8800954c8800444c800053
:1020fc00554c8000140f9800250f98007e0190001d
:10210c008e0990005e009000ee009000d4f807005d
:10211c000002be001e099000ae0990000400be0033
:10212c00cff807000002be00048fbe002e129000f4
:10213c00cfa2de000400be001efa07000002be00a3
:10214c0018c0b3001e01be000400be00f4f9070065
:10215c0000027800e00f5200010034000044eb0054
:10216c00e04f5400060032002e129000cfa2de0089
:10217c000400be000ffa07000002be00048fbe0070
:10218c002eba9700cfa2de000400be0009fa0700a9
:10219c000002be0018c0b3001e01be000400be0049
:1021ac00e1f9070000027800e00f520001003d0049
:1021bc000044eb00e04f5400060032002eba9700aa
:1021cc00cfa2de000400be00faf907000002be0038
:1021dc00048fbe002e029000cfa2de000400be00d1
:1021ec00f4f907000002be00644c8800754c8800ae
:1021fc001e00be00cef907000002be0004027800eb
:10220c00040078004f04be000080fa0000000600b5
:10221c000000fa006022b800244788003547880087
:10222c006022b80044478800554788006022b800f7
:10223c0064478800754788006022b800844788008e
:10224c0095478800f4282c0055cf230004468800bd
:10225c0015468800f426210035a823002446880062
:10226c0035468800f426210035b02300444688000a
:10227c00554688000400200005f82300c446880059
:10228c00d54688006022b800e4468800f5468800f0
:10229c006022b80004478800154788006022b80007
:1022ac00e4478800f54788000400200005f8230067
:1022bc00e4478800f547880004002000852c2400a2
:1022cc0004488800154888006022b800e44488005f
:1022dc00f54488006022b800044588001545880044
:1022ec006022b80024458800354588006022b8007b
:1022fc004445880055458800a4702d0035ca23003c
:10230c00c4438800d5438800f4282c0055cf230003
:10231c00e4438800f5438800f426210035b02300ff
:10232c0004448800154488000400200005f82300ac
:10233c0084448800954488006022b800a444880036
:10234c00b54488006022b800c4448800d544880095
:10235c006022b800a4458800b54588000400200020
:10236c0005f82300a4458800b5458800040020002a
:10237c00852c2400c4458800d54588006022b8000f
:10238c0064498800754988006022b8008449880037
:10239c00954988006022b800a4498800b549880096
:1023ac006022b800c4498800d5498800d4cc2c00e0
:1023bc00c5dc23004448880055488800f4282c00cc
:1023cc0055cf23006448880075488800f426210006
:1023dc0035b023008448880095488800040020000c
:1023ec0005f8230004498800154988006022b800cc
:1023fc0024498800354988006022b8004449880087
:10240c00554988006022b800244a8800354a880063
:10241c000400200005f82300244a8800354a88006f
:10242c0004002000852c2400444a8800554a88006a
:10243c000080fa00000006000c00fa00889fbe0025
:10244c00008fbe00220798003307980044079800bd
:10245c005507980024498000354980000401be00ce
:10246c002e009000be009000fcf707000002be009a
:10247c004449880055498800084980001949800062
:10248c0044498000554980004e019000de019000c7
:10249c000400be00aef907000002be000401be003d
:1024ac000800be00eef707000002be0004498800d9
:1024bc00154988006849800079498000c44980002a
:1024cc00d54980004e019000de0190000400be0052
:1024dc009ff907000002be000403be00844980007f
:1024ec00954980000401be000600be00dbf7070022
:1024fc000002be000403be00a4498000b549800060
:10250c000401be000600be00d4f707000002be00a6
:10251c000403be0044488000554880000401be00fe
:10252c000600be00cef707000002be004e01900070
:10253c00de0190000400be0085f907000002be0019
:10254c000401be000800be00c5f707000002be0073
:10255c006449880075498800884980009949800041
:10256c00c4498000d54980004e019000de019000e6
:10257c000400be0076f907000002be000401be0094
:10258c000800be00b5f707000002be0084498800b1
:10259c0095498800a8498000b9498000c449800049
:1025ac00d54980004e019000de0190000400be0071
:1025bc0067f907000002be000401be000800be005f
:1025cc00a6f707000002be00a4498800b5498800a0
:1025dc00c8498000d9498000644880007548800053
:1025ec004e019000de0190000400be0058f9070077
:1025fc000002be000401be000800be0098f70700f0
:10260c000002be00c4498800d54988006649800094
:10261c007749800084488000954880000401be0002
:10262c000600be008ef707000002be00444a880078
:10263c00554a88006649800077498000444a8000ea
:10264c00554a80000401be000600be0063f8070076
:10265c000002be00e4498800f5498800a6498000c4
:10266c00b7498000444a8000554a80000401be00ee
:10267c000600be0059f807000002be00044a88009c
:10268c00154a880004498000154980000401be00e9
:10269c001e00be0071f707000002be00244a88002d
:1026ac00354a88000849800019498000e6498000b5
:1026bc00f7498000244a8000354a80000401be009e
:1026cc000600be0022f907000002be000401be0095
:1026dc000800be0062f707000002be000449880033
:1026ec00154988002849800039498000064a800035
:1026fc00174a8000244a8000354a80000401be003d
:10270c000600be0012f907000002be000401be0064
:10271c000800be0052f707000002be0024498800e2
:10272c00354988006849800079498000e649800075
:10273c00f749800064498000754980000401be009f
:10274c000600be0002f907000002be000401be0034
:10275c000800be0041f707000002be006449880073
:10276c00754988008849800099498000e6498000b5
:10277c00f749800084498000954980000401be001f
:10278c000600be00f2f807000002be000401be0005
:10279c000800be0031f707000002be008449880023
:1027ac0095498800a8498000b9498000064a8000f4
:1027bc00174a800064498000754980000401be00fe
:1027cc000600be00e2f807000002be000401be00d5
:1027dc000800be0021f707000002be00a4498800d3
:1027ec00b5498800c8498000d9498000064a800054
:1027fc00174a800084498000954980000401be007e
:10280c000600be00d2f807000002be000401be00a4
:10281c000800be0011f707000002be00c449880082
:10282c00d549880004498000154980000400be0089
:10283c004f04be000080fa00000006000c00fa00f5
:10284c00889fbe00008fbe002207980033079800b7
:10285c004407980055079800e4468000f546800030
:10286c000401be002e009000be009000fbf6070095
:10287c000002be000447880015478800c846800047
:10288c00d946800004478000154780004e01900017
:10289c00de0190000400be00adf807000002be008f
:1028ac000401be000800be00edf607000002be00e9
:1028bc00c4468800d54688002847800039478000e8
:1028cc0084478000954780004e019000de01900007
:1028dc000400be009ef807000002be000403be0008
:1028ec0044478000554780000401be000600be002e
:1028fc00daf607000002be000403be006447800045
:10290c00754780000401be000600be00d3f6070028
:10291c000002be000403be00044680001546800081
:10292c000401be000600be00cdf607000002be008a
:10293c004e019000de0190000400be0084f80700f8
:10294c000002be000401be000800be00c4f6070071
:10295c000002be00244788003547880048478000a5
:10296c005947800084478000954780004e019000b5
:10297c00de0190000400be0075f807000002be00e6
:10298c000401be000800be00b4f607000002be0041
:10299c004447880055478800684780007947800085
:1029ac0084478000954780004e019000de01900026
:1029bc000400be0066f807000002be000401be0061
:1029cc000800be00a5f607000002be0064478800a0
:1029dc00754788008847800099478000244680000e
:1029ec00354680004e019000de0190000400be00d0
:1029fc0057f807000002be000401be000800be002c
:102a0c0097f607000002be008447880095478800af
:102a1c00264780003747800044468000554680009a
:102a2c000401be000600be008df607000002be00c9
:102a3c0004488800154888002647800037478000e6
:102a4c0004488000154880000401be000600be004a
:102a5c0062f707000002be00a4478800b547880053
:102a6c006647800077478000044880001548800046
:102a7c000401be000600be0058f707000002be00ad
:102a8c00c4478800d5478800c4468000d5468000de
:102a9c000401be001e00be0070f607000002be005e
:102aac00e4478800f5478800c8468000d946800076
:102abc00a6478000b7478000e4478000f5478000b8
:102acc000401be000600be0021f807000002be0093
:102adc000401be000800be0061f607000002be0043
:102aec00c4468800d5468800e8468000f946800038
:102afc00c6478000d7478000e4478000f547800038
:102b0c000401be000600be0011f807000002be0062
:102b1c000401be000800be0051f607000002be0012
:102b2c00e4468800f5468800284780003947800035
:102b3c00a6478000b74780002447800035478000b7
:102b4c000401be000600be0001f807000002be0032
:102b5c000401be000800be0040f607000002be00e3
:102b6c002447880035478800484780005947800033
:102b7c00a6478000b7478000444780005547800037
:102b8c000401be000600be00f1f707000002be0003
:102b9c000401be000800be0030f607000002be00b3
:102bac004447880055478800684780007947800073
:102bbc00c6478000d74780002447800035478000f7
:102bcc000401be000600be00e1f707000002be00d3
:102bdc000401be000800be0020f607000002be0083
:102bec0064478800754788008847800099478000b3
:102bfc00c6478000d7478000444780005547800077
:102c0c000401be000600be00d1f707000002be00a2
:102c1c000401be000800be0010f607000002be0052
:102c2c008447880095478800c4468000d5468000bc
:102c3c000400be004f04be000080fa000000060035
:102c4c000c00fa00889fbe00008fbe00220798007f
:102c5c00330798004407980055079800a444800057
:102c6c00b54480000401be002e009000be00900010
:102c7c00faf507000002be00c4448800d544880061
:102c8c008844800099448000c4448000d54480006e
:102c9c004e019000de0190000400be00acf707006e
:102cac000002be000401be000800be00ecf50700e7
:102cbc000002be008444880095448800e8448000eb
:102ccc00f944800044458000554580004e01900039
:102cdc00de0190000400be009df707000002be005c
:102cec000403be0004458000154580000401be00ad
:102cfc000600be00d9f507000002be000403be00aa
:102d0c0024458000354580000401be000600be004d
:102d1c00d2f507000002be000403be00c4438000cd
:102d2c00d54380000401be000600be00ccf50700b0
:102d3c000002be004e019000de0190000400be00b7
:102d4c0083f707000002be000401be000800be00ad
:102d5c00c3f507000002be00e4448800f544880077
:102d6c000845800019458000444580005545800089
:102d7c004e019000de0190000400be0074f70700c5
:102d8c000002be000401be000800be00b3f507003f
:102d9c000002be00044588001545880028458000c7
:102dac003945800044458000554580004e01900017
:102dbc00de0190000400be0065f707000002be00b3
:102dcc000401be000800be00a4f507000002be000e
:102ddc0024458800354588004845800059458000c9
:102dec00e4438000f54380004e019000de0190002a
:102dfc000400be0056f707000002be000401be002e
:102e0c000800be0096f507000002be00444588008d
:102e1c0055458800e6448000f74480000444800057
:102e2c00154480000401be000600be008cf50700ae
:102e3c000002be00c4458800d5458800e6448000e9
:102e4c00f7448000c4458000d54580000401be00d5
:102e5c000600be0061f607000002be006445880053
:102e6c00754588002645800037458000c4458000a4
:102e7c00d54580000401be000600be0057f60700d1
:102e8c000002be008445880095458800844480007b
:102e9c00954480000401be001e00be006ff50700c3
:102eac000002be00a4458800b54588008844800017
:102ebc00994480006645800077458000a4458000d9
:102ecc00b54580000401be000600be0020f70700d7
:102edc000002be000401be000800be0060f5070041
:102eec000002be008444880095448800a8448000f9
:102efc00b94480008645800097458000a445800039
:102f0c00b54580000401be000600be0010f70700a6
:102f1c000002be000401be000800be0050f5070010
:102f2c000002be00a4448800b5448800e844800038
:102f3c00f94480006645800077458000e4448000b9
:102f4c00f54480000401be000600be0000f7070037
:102f5c000002be000401be000800be003ff50700e1
:102f6c000002be00e4448800f54488000845800057
:102f7c001945800066458000774580000445800037
:102f8c00154580000401be000600be00f0f60700e7
:102f9c000002be000401be000800be002ff50700b1
:102fac000002be00044588001545880028458000b5
:102fbc00394580008645800097458000e4448000b8
:102fcc00f54480000401be000600be00e0f60700d8
:102fdc000002be000401be000800be001ff5070081
:102fec000002be0024458800354588004845800015
:102ffc005945800086458000974580000445800037
:10300c00154580000401be000600be00d0f6070086
:10301c000002be000401be000800be000ff5070050
:10302c000002be0044458800554588008444800059
:10303c00954480000400be004f04be000080fa00de
:10304c00000006000200fa00000f78001e02780053
:10305c00e00f520003003d000002eb00040c88005e
:10306c00020037001e027800040c88000080fa0071
:10307c00000006000200fa00000f78001e02780023
:10308c00e00f520003003d000002eb00340c8800fe
:10309c00020037001e027800340c88000080fa0011
:1030ac00000006000200fa00000f78001e027800f3
:1030bc00e00f520003003d000002eb00640c88009e
:1030cc00020037001e027800640c88000080fa00b1
:1030dc00000006000200fa00000f78001e027800c3
:1030ec00e00f520003003d000002eb00940c88003e
:1030fc00020037001e027800940c88000080fa0051
:10310c00000006001a00fa00000f9800110f98003a
:10311c00220f9800330f9800440f98006022b800db
:10312c00048fbe006022b800240798003507980071
:10313c006022b80044079800550798006022b80038
:10314c0064079800750798004e0a9000cfa2de0025
:10315c000400be0017f607000002be0002002000ab
:10316c00a34724000400be009cf507000002be002b
:10317c00048fbe00444e8000554e80000401be00fa
:10318c000e0890009e089000b4f407000002be00e8
:10319c000403be00c44d8000d54d80000401be0068
:1031ac000600be006af607000002be000403be0063
:1031bc00c44d8000d54d80000401be000600be0049
:1031cc0063f607000002be0024079800350798003c
:1031dc002e019000be0190001e00be005cf60700a0
:1031ec000002be000401be004e009000de00900004
:1031fc009bf407000002be00440798005507980096
:10320c00444e8000554e80000401be000e08900014
:10321c009e08900091f407000002be000401be005d
:10322c000400be008ef407000002be000403be00c2
:10323c00c44d8000d54d80000401be000600be00c8
:10324c0043f607000002be004e019000de01900024
:10325c000400be0082f407000002be002e0990009c
:10326c00be0990000400be007df407000002be0001
:10327c0064079800750798006e019000fe0190009d
:10328c001e00be0032f607000002be000403be00a2
:10329c00444e8000554e80000401be000600be0066
:1032ac006ff407000002be00444e8800554e8800a3
:1032bc00444e8000554e80000400be000080fa0091
:1032cc00000006001a00fa00000f9800110f980079
:1032dc00220f9800330f9800440f98006022b8001a
:1032ec00048fbe006022b8002407980035079800b0
:1032fc006022b80044079800550798006022b80077
:10330c0064079800750798004e0a9000cfa2de0063
:10331c000400be00a7f507000002be00020020005a
:10332c00a34724000400be002cf507000002be00d9
:10333c00048fbe00644e8000754e80000401be00f8
:10334c000e0890009e08900044f407000002be0096
:10335c000403be00e44d8000f54d80000401be0066
:10336c000600be00faf507000002be000403be0012
:10337c00e44d8000f54d80000401be000600be0047
:10338c00f3f507000002be002407980035079800eb
:10339c002e019000be0190001e00be00ecf507004f
:1033ac000002be000401be004e009000de00900042
:1033bc002bf407000002be00440798005507980044
:1033cc00644e8000754e80000401be000e08900013
:1033dc009e08900021f407000002be000401be000c
:1033ec000400be001ef407000002be000403be0071
:1033fc00e44d8000f54d80000401be000600be00c7
:10340c00d3f507000002be004e019000de019000d3
:10341c000400be0012f407000002be002e0990004a
:10342c00be0990000400be000df407000002be00af
:10343c0064079800750798006e019000fe019000db
:10344c001e00be00c2f507000002be000403be0051
:10345c00644e8000754e80000401be000600be0064
:10346c00fff307000002be00644e8800754e880012
:10347c00644e8000754e80000400be000080fa008f
:10348c00000006001a00fa00000f9800110f9800b7
:10349c00220f9800330f9800440f98006022b80058
:1034ac00048fbe006022b8002407980035079800ee
:1034bc006022b80044079800550798006022b800b5
:1034cc0064079800750798004e0a9000cfa2de00a2
:1034dc000400be0037f507000002be000200200009
:1034ec00a34724000400be00bcf407000002be0089
:1034fc00048fbe00844e8000954e80000401be00f7
:10350c000e0890009e089000d4f307000002be0045
:10351c000403be00044e8000154e80000401be0062
:10352c000600be008af507000002be000403be00c0
:10353c00044e8000154e80000401be000600be0043
:10354c0083f507000002be00240798003507980099
:10355c002e019000be0190001e00be007cf50700fd
:10356c000002be000401be004e009000de00900080
:10357c00bbf307000002be004407980055079800f3
:10358c00844e8000954e80000401be000e08900011
:10359c009e089000b1f307000002be000401be00bb
:1035ac000400be00aef307000002be000403be0020
:1035bc00044e8000154e80000401be000600be00c3
:1035cc0063f507000002be004e019000de01900082
:1035dc000400be00a2f307000002be002e099000fa
:1035ec00be0990000400be009df307000002be005f
:1035fc0064079800750798006e019000fe0190001a
:10360c001e00be0052f507000002be000403be00ff
:10361c00844e8000954e80000401be000600be0062
:10362c008ff307000002be00844e8800954e880080
:10363c00844e8000954e80000400be000080fa008d
:10364c00000006000000fa000000eb00330c07003d
:10365c000002780095b32100850f52008b003a00d0
:10366c00d07d2800ce040700200020002b0c070082
:10367c0000027800a5002000110009000582d80086
:10368c0000027800e44a880040002000230c070068
:10369c0000027800a5002000110009000582d80066
:1036ac0000027800044b8800600020001b0c07000f
:1036bc0000027800a5002000110009000582d80046
:1036cc0000027800f44a880080002000130c0700e8
:1036dc0000027800144b8800a00020000f0c07009b
:1036ec0000027800244b8800c00020000b0c07005f
:1036fc0000027800050020000400be00b0f40700b2
:10370c000002be00c44d8800d54d8800e0002000aa
:10371c00020c070000027800a5002000110009002f
:10372c000582d80000027800344b8800000120008c
:10373c00fa0b070000027800a50020001100090018
:10374c000582d80000027800544b8800200120002c
:10375c00f20b070000027800a50020001100090000
:10376c000582d80000027800444b880040012000fc
:10377c00ea0b070000027800644b8800600120000f
:10378c00e60b070000027800744b880080012000d3
:10379c00e20b070000027800050020000400be00c8
:1037ac0087f407000002be00e44d8800f54d880048
:1037bc00a0012000d90b070000027800a500200012
:1037cc00110009000582d80000027800844b8800a3
:1037dc00c0012000d10b070000027800a5002000da
:1037ec00110009000582d80000027800a44b880063
:1037fc00e0012000c90b070000027800a5002000a2
:10380c00110009000582d80000027800944b880052
:10381c0000022000c10b070000027800b44b8800a6
:10382c0020022000bd0b070000027800c44b88006a
:10383c0040022000b90b07000002780005002000b0
:10384c000400be005ef407000002be00044e8800b7
:10385c00154e880060022000b00b070000027800b3
:10386c00050020000400be0055f407000002be0055
:10387c00a44c8800b54c880080022000a70b0700e0
:10388c0000027800844a880032003700c07f28008c
:10389c004304070074002000e44a880094002000d0
:1038ac00f44a88000002eb00044b8800843e2000a0
:1038bc00144b8800843e2000244b88000400200018
:1038cc00050a2400c44d8800d54d880074002000e2
:1038dc00344b880094002000444b88000002eb001d
:1038ec00544b8800843e2000644b8800843e2000aa
:1038fc00744b880004002000050a2400e44d880065
:10390c00f54d880074002000844b88009400200042
:10391c00944b88000002eb00a44b8800843e2000ee
:10392c00b44b8800843e2000c44b88000400200067
:10393c00050a2400044e8800154e8800540020000f
:10394c00844a880004002000050c2400a44c880044
:10395c00b54c8800e44a80006a22b9000402780061
:10396c008400780070832800f8030700f44a800074
:10397c006a22b9000402780084007800e0832800f1
:10398c00f2030700044b80006a22b900040278009d
:10399c008400780080842800ec030700144b80001e
:1039ac008400780020852800e8030700244b800061
:1039bc0084007800c0852800e4030700c44d800013
:1039cc00d54d80000400be00d9f307000002be00f4
:1039dc00040278008400780090862800c603070053
:1039ec00344b80006a22b90004027800840078000d
:1039fc0020872800d5030700444b80006a22b900b9
:103a0c00040278008400780090872800cf03070018
:103a1c00544b80006a22b9000402780084007800bc
:103a2c0030882800c9030700644b800084007800ac
:103a3c00d0882800c5030700744b800084007800f0
:103a4c0070892800c1030700e44d8000f54d80000b
:103a5c000400be00b6f307000002be0004027800aa
:103a6c0084007800408a2800a3030700844b800060
:103a7c006a22b9000402780084007800d08a2800f9
:103a8c00b2030700944b80006a22b900040278004c
:103a9c0084007800408b2800ac030700a44b800006
:103aac006a22b9000402780084007800e08b2800b8
:103abc00a6030700b44b800084007800808c28009b
:103acc00a2030700c44b800084007800208d2800de
:103adc009e030700044e8000154e80000400be00bb
:103aec0093f307000002be00040278008400780003
:103afc00e08d280080030700844a80008400780051
:103b0c00708e280091030700a44c8000b54c8000f7
:103b1c000400be0086f307000002be000402780019
:103b2c0084007800008f2800730307000080fa00df
:103b3c00000006000000fa0044ef2700040c880087
:103b4c0044ef2700340c880044ef2700640c8800f5
:103b5c0044ef2700940c88000080fa000000060057
:103b6c000200fa000002eb00040f78001c00370082
:103b7c00940c80000402e800940c8800640c800013
:103b8c000402e800640c8800340c80000402e80095
:103b9c00340c8800040c80000402e800040c88003b
:103bac0080382100160a0700950c8000b4ff200015
:103bbc00848f52000a003600f4ff2000940c880019
:103bcc00f4ff2000640c8800f4ff2000340c880003
:103bdc00f4ff2000040c880014002000040f78006f
:103bec001e027800e00f5200e1ff32001c0037008b
:103bfc00940c80000402e900940c8800640c800092
:103c0c000402e900640c8800340c80000402e90012
:103c1c00340c8800040c80000402e900040c8800b9
:103c2c0080382100f6090700950c8000040720005d
:103c3c00848f52000a003e000002eb00940c8800b6
:103c4c000002eb00640c88000002eb00340c8800ce
:103c5c000002eb00040c88000002eb00040f78005b
:103c6c001e027800e10f5200e1ff32000080fa00e2
:103c7c00000006000200fa000002eb00040f7800be
:103c8c000082eb00040f78000b0037001e02780056
:103c9c00940c88001e027800640c88001e027800c8
:103cac00340c88001e027800040c88008038210037
:103cbc00d30907001e0fe9001e027800e00f520026
:103ccc00f2ff34000080fa00000006000200fa0047
:103cdc00000f78009e007800808220008bf4070093
:103cec00808220008ff407000002780084007800a6
:103cfc0080822000d302070080382100c009070011
:103d0c000080fa00000006000000fa00f4108000a9
:103d1c00a2002000840078008082200066f4070056
:103d2c00808220007ff40700000278008400780075
:103d3c0080822000c3020700f4108000a200200043
:103d4c0084007800808220005bf4070080822000d1
:103d5c0074f4070000027800840078008082200050
:103d6c00b8020700f4108000a20020008400780044
:103d7c008082200050f407008082200069f4070044
:103d8c00000278008400780080822000ad020700d9
:103d9c00f4108000a20020008400780080822000b3
:103dac0045f40700808220005ef4070000027800d2
:103dbc008400780080822000a202070022032000e9
:103dcc00c18f28008082200049f4070080822000e7
:103ddc0054f40700000278008400780080822000f0
:103dec009802070080382100850907008082200096
:103dfc004cf40700000278008400780080822000d8
:103e0c0090020700803821007d0907008082200085
:103e1c0044f40700000278008400780080822000bf
:103e2c008802070080382100750907008082200075
:103e3c003cf40700000278008400780080822000a7
:103e4c0080020700803821006d0907008082200065
:103e5c0034f407000002780084007800808220008f
:103e6c007802070080382100650907008082200055
:103e7c002cf4070000027800840078008082200077
:103e8c0070020700803821005d0907008082200045
:103e9c0024f407000002780084007800808220005f
:103eac006802070080382100550907008082200035
:103ebc001cf4070000027800840078008082200047
:103ecc0060020700803821004d0907000080fa00cd
:103edc00000006000000fa004bf107005bf1070040
:103eec00000000003410800061026200e00f5200fc
:103efc00fcff3a0000cdb300f00407000000000006
:103f0c00451080000400280004826200e00f52007b
:103f1c00fbff3a003cf1070050c7b300e704070071
:103f2c00000000004510800004002800048262009c
:103f3c00e00f5200fbff3a0033f107000622a80005
:103f4c0000000000000000003410800062026200db
:103f5c00e00f5200fcff3a0010cdb300d70407006d
:103f6c00000000004510800004002800048262005c
:103f7c00e00f5200fbff3a0023f107000662a80095
:103f8c00000000004410800062026200e00f52004a
:103f9c00fcff32002af107002ef1070000000000a0
:103fac003410800064026200e00f5200fcff3a0003
:103fbc000080fa00000006001a00fa00200f98009a
:103fcc00310f9800420f98000002eb001407980084
:103fdc002e099000be0990006207980073079800a4
:103fec006e02900005002000240798003507980009
:103ffc007e0290000474a1000482fb0005002000e6
:10400c00c022dd00040020002e039000be039000af
:10401c000602420087824a00240798003507980060
:10402c002e039000be039000040020000508200021
:10403c000602420087824a00240798003507980040
:10404c007e029000c722de0000c2eb0084c2620038
:10405c0014c8b30004c24200044f98000e4a9000ea
:10406c00f24f520010003400ce0a900094c4b300fa
:10407c00844a78004e0a90008402e800e4c6b3003b
:10408c00844a78004e0a90008482e80064c6b3002b
:10409c00844a78004e0a9000e30242000042eb0092
:1040ac00844a7800c40037000e4a9000e34f420067
:1040bc0008003d00ce0a900004c3b300844a780087
:1040cc004e0a90008402e8000042eb00844a78001b
:1040dc00b90037000002eb0014079800fe029000b4
:1040ec000400280004826200e00f52000600320037
:1040fc00ce0a9000d4c2b300844a78001e0290000d
:10410c000402e800140798000e4a90000402fb0019
:10411c00770312002e029000be02900086017800f8
:10412c008301e900030033008502d1000482d3002f
:10413c00fbff3700540798001e029000ce0a900037
:10414c00048342005e029000050020000601780006
:10415c000400be009a0007000002eb00040f780078
:10416c000a0037001e027800ce0a9000048242003a
:10417c0014427800e04f520003003a001e0278000f
:10418c0014079800040037001e0fe8001e02780088
:10419c00e70f5200f3ff34001e029000e50f5200af
:1041ac0084003c001e029000ce0a900084824200e3
:1041bc00e4c2b300844a78001e0290000402e800b6
:1041cc00140798000e4a90000402fb0074031200be
:1041dc002e029000be0290000401be008600780002
:1041ec008100e900030033008301d1000281d30078
:1041fc00fbff37000203be00740020000500200006
:10420c000600780007037800840378000502780024
:10421c00070060000402630005002000c022dd00de
:10422c00040020000403be006102b8000403730004
:10423c00858373007400200005002000840f530058
:10424c00858f5b0041003e000660010007003700cf
:10425c000d00370013003700190037001f0037001e
:10426c00250037002b0037003100370004c3b300a2
:10427c000457980004c3b3001457980004c3b30048
:10428c00245798003100370014c3b300045798002a
:10429c0024c3b3001457980054c3b3002457980098
:1042ac002a00370024c3b3000457980054c3b3004a
:1042bc001457980004c3b300245798002300370008
:1042cc0034c3b3000457980074c3b3001457980058
:1042dc0054c3b300245798001c00370054c3b300d8
:1042ec000457980004c3b3001457980004c3b300d8
:1042fc00245798001500370064c3b3000457980086
:10430c0024c3b3001457980054c3b3002457980027
:10431c000e00370074c3b3000457980054c3b300a5
:10432c001457980004c3b3002457980007003700b3
:10433c0084c3b3000457980074c3b3001457980097
:10434c0054c3b30024579800000000000002eb0097
:10435c00040f78000e0037001e029000e60f52008a
:10436c000a003c001e029000ce0a9000848242009b
:10437c00700247001e02420014427800844a780002
:10438c001e0290000402e800140798001e0fe800bb
:10439c001e027800e20f5200efff34001e02900064
:1043ac00ce0a9000848242000042eb00844a7800de
:1043bc0001003700000000000080fa000000060039
:1043cc000c00fa00881f780030079800410798000d
:1043dc00520798003e029000ce02900014079800fd
:1043ec00250798001e029000ae029000e00f5200cc
:1043fc00e08f5a0006003d003e029000ce02900075
:10440c0060021200e0821a003407980045079800f9
:10441c000002eb00040f78001e027800de02900010
:10442c00048442003e029000ce029000a2002000c4
:10443c00030020000400be00b6f107000002be001d
:10444c00044278000443b000044c78001e0fe800ce
:10445c003e029000ce029000a2002000030020003b
:10446c000400be001ff107000002be0034079800d4
:10447c00450798003e029000ce029000e00f5200db
:10448c00e08f5a00e4ff3c001e029000ae02900048
:10449c00e00f5200e08f5a0006003d001e0278002b
:1044ac00de02900084824200d4c2b300844a7800b9
:1044bc001e0fe8001e027800de029000848242008b
:1044cc000042eb00844a78005e0090000300070075
:1044dc004f0478000080fa00000006000800fa0083
:1044ec00300798000002eb00040f78003e009000ab
:1044fc008cf20700000278000402e900140798000f
:10450c00160037001e027800be02900004824200a2
:10451c0094427800454798001e027800be02900035
:10452c00848242001e0290003e039000040243006d
:10453c0014427800844a78001e029000be0290005b
:10454c0004824200ce429000054a78001e0fe8001b
:10455c001e0290000402e900140798001e0290004d
:10456c009e027800848f5200e6ff35000080fa002e
:10457c00000006000400fa000002eb00040f7800b3
:10458c0020032000940707000002eb00140798009a
:10459c00b205070000027800140798009e029000f4
:1045ac0084062000848f52000b003a00cb22a80016
:1045bc00cb42a9009e007800e0922800ce000700b4
:1045cc0034050700000278008400780080952800ec
:1045dc00c900070016003700560407009e00900023
:1045ec00c0952800c40007002a05070000027800c7
:1045fc008400780080952800bf0007001e0fe8009b
:10460c009e00780070962800bb0007001e02780000
:10461c00e50f520006003a000002eb00040f780090
:10462c00ca62a800cb22a900803e20006a070700be
:10463c000080fa00000006000000fa008705070061
:10464c000002780085062000850f520003003a0016
:10465c00cb22a800ca62a90002003700cb22a90015
:10466c00ca62a8000080fa00000006000c00fa00e4
:10467c007a0507000002780085062000850f52009d
:10468c0016003a00ea02470068024700660047003d
:10469c00e40347000e83e8008001780007017800ee
:1046ac00860078000e00780073050700ce0390009a
:1046bc003e0390009e0290001e0278008701780055
:1046cc00060178008500780004007800e2020700fb
:1046dc00cb42a900ca62a800090037005f05070099
:1046ec000002780084007800d09628008200070031
:1046fc00ca42a900803e2000370707000d040700be
:10470c000080fa00000006000200fa000002eb0034
:10471c00040f7800040037009e0078006098280091
:10472c00750007001e0fe800f47022009e0278004e
:10473c00848f5200f8ff34000080fa00000006005d
:10474c000200fa000002eb00040f780009003700a9
:10475c001e027800940c8800940c8000640c880075
:10476c00640c8000340c8800340c8000040c88002d
:10477c001e0fe800f4e124009e027800848f5200a2
:10478c00f3ff34000080fa00000006000000fa007d
:10479c00d4002000d410880000000000c510800058
:1047ac000410200004826200e00f5200fbff320074
:1047bc00a4002000d410880000000000c510800068
:1047cc000410200004826200e00f5200fbff320054
:1047dc000080fa00000006000600fa00100798009e
:1047ec00210798000042eb00044f78000e003700c0
:1047fc009e4278000582fb009e02900004824200db
:10480c00144278000402fb00d41088000000000061
:10481c00c51080000410200004826200e00f5200da
:10482c00fbff32001e4fe8001e4278008482fb0022
:10483c002e029000848f5200edff35000080fa00ac
:10484c00000006000400fa00000f78001107980021
:10485c009e0090001e007800dfff0700cbff0700d2
:10486c000080fa00000006000600fa00100798000d
:10487c00210798000042eb00044f78000e0037002f
:10488c009e4278000582fb009e029000048242004a
:10489c00144278000482fb00d41088000000000051
:1048ac00c51080000410200004826200e00f52004a
:1048bc00fbff32001e4fe8001e4278008482fb0092
:1048cc002e029000848f5200edff35000080fa001c
:1048dc00000006000400fa00000f78001107980091
:1048ec009e0090001e007800dfff0700a7ff070066
:1048fc000080fa00000006000400fa00000f7800a7
:10490c00110798001e00780086f10700000278005d
:10491c00840078001e007800afff0700a200200082
:10492c009e0090008082200063f1070080822000ae
:10493c007cf107000002780084007800808220005f
:10494c00c0ff07000080fa00000006000400fa0017
:10495c00000f7800110798001e00780071f1070015
:10496c0000027800840078001e0078009aff07008f
:10497c00a20020009e009000808220004ef10700d3
:10498c008082200067f10700000278008400780024
:10499c008082200090ff07000080fa0000000600d3
:1049ac000200fa00000f78001e0078005df107008d
:1049bc0000027800840078001e007800a1ff070038
:1049cc000080fa00000006000200fa00000f7800d8
:1049dc001e00780053f10700000278008400780074
:1049ec001e0078007cff07000080fa000000060023
:1049fc003600f800809fbe00829fbe00849fbe00e0
:104a0c00869fbe000200fa009b060700365280000b
:104a1c00e410800004427800659f2000850243006a
:104a2c00844a78003552800004032000848f5200a1
:104a3c0003003c00345280000402e8003452880029
:104a4c00345280008402e900649f200004824200fa
:104a5c009442780034c2b30084cf520013003a0061
:104a6c00345280000402e90034528800609f200018
:104a7c00170007000002eb00040f78000500370058
:104a8c00649f20009e02420004c2b300844a780056
:104a9c001e0fe800140320009e027800848f520041
:104aac00f7ff34000002eb00345288008700a900a5
:104abc001822a9000080fa004f03be004f02be006e
:104acc004f01be004f00be003600f900004006004a
:104adc005200fa00002f98000002eb00040f78003f
:104aec000002eb00140798000002eb00240798006a
:104afc000002eb00340798006a024700040009002a
:104b0c00001aeb007402470004000900001aeb00c5
:104b1c007e02470004000900001aeb000e02780028
:104b2c008402b00004000900001aeb000e027800a9
:104b3c002403b00004000900001aeb000e027800f8
:104b4c00c403b00004000900001aeb000e02780048
:104b5c006404b00004000900001aeb001e02780087
:104b6c00e00f5200610034001e0278008e2a900083
:104b7c000482420094427800c4c2b30084cf520035
:104b8c00550032002e029000e00f520008003a004f
:104b9c001e0278008e2a9000048242001442780093
:104bac006a0347009e02900085024300844a780005
:104bbc002e029000e10f520008003a001e0278000d
:104bcc008e2a90000482420014427800740347003d
:104bdc009e02900085024300844a78002e029000c9
:104bec00e20f520008003a001e0278008e2a900054
:104bfc0004824200144278007e0347009e0290001b
:104c0c0085024300844a78002e029000e30f520084
:104c1c0009003a001e0278008e2a9000048242009d
:104c2c0014427800860220000e0343009e0290007e
:104c3c0085024300844a78002e029000e40f520053
:104c4c0009003a001e0278008e2a9000048242006d
:104c5c0014427800260320000e0343009e029000ad
:104c6c0085024300844a78002e029000e50f520022
:104c7c0009003a001e0278008e2a9000048242003d
:104c8c0014427800c60320000e0343009e029000dd
:104c9c0085024300844a78002e029000e60f5200f1
:104cac0009003a001e0278008e2a9000048242000d
:104cbc0014427800660420000e0343009e0290000c
:104ccc0085024300844a78001e0290000402e8002a
:104cdc0014079800050037002e0290000402e8002b
:104cec00240798000002eb00140798001e0fe80040
:104cfc001e0278008e2a90000482420094427800b2
:104d0c0034c2b30084cf520094ff3a006a024700c9
:104d1c00040078002ff00700000278004407980088
:104d2c004e029000e10f520032003a00740247002c
:104d3c000400780027f00700000278008400780057
:104d4c0020002000420607007e0247000400780085
:104d5c0020f007000002780084007800400020005a
:104d6c003b060700840220000e024200040078007b
:104d7c0018f0070000027800840078006000200022
:104d8c0033060700240320000e02420004007800c2
:104d9c0010f00700000278008400780080002000ea
:104dac002b060700c40320000e024200040078000a
:104dbc0008f007000002780084007800a0002000b2
:104dcc0023060700640420000e0242000400780051
:104ddc0000f007000002780084007800c00020007a
:104dec001b06070091b321000000eb00180607001a
:104dfc000000fe004e029000e20f520032003a001a
:104e0c007402470004007800f2ef070000027800fb
:104e1c0084007800e00020000d0607007e024700a9
:104e2c0004007800ebef07000002780084007800a3
:104e3c000001200006060700840220000e0242003a
:104e4c0004007800e3ef070000027800840078008b
:104e5c0020012000fe050700240320000e02420062
:104e6c0004007800dbef0700000278008400780073
:104e7c0040012000f6050700c40320000e0242008a
:104e8c0004007800d3ef070000027800840078005b
:104e9c0060012000ee050700640420000e024200b1
:104eac0004007800cbef0700000278008400780043
:104ebc0080012000e605070091b321000000eb0003
:104ecc00e30507000000fe004e029000e30f5200c5
:104edc0032003a007402470004007800bdef07006e
:104eec000002780084007800a0012000d80507009b
:104efc007e02470004007800b6ef0700000278003d
:104f0c0084007800c0012000d10507008402200035
:104f1c000e02420004007800aeef07000002780099
:104f2c0084007800e0012000c9050700240320005c
:104f3c000e02420004007800a6ef07000002780081
:104f4c008400780000022000c1050700c403200083
:104f5c000e024200040078009eef07000002780069
:104f6c008400780020022000b905070064042000aa
:104f7c000e0242000400780096ef07000002780051
:104f8c008400780040022000b105070091b3210095
:104f9c000000eb00ae0507000000fe004e02900082
:104fac00e40f520012003a0074024700040078002b
:104fbc0088ef07000002780084007800600220006f
:104fcc00a30507007e0247000400780081ef07006c
:104fdc000002780084007800800220009c05070005
:104fec0091b321000000eb00990507000000fe00c2
:104ffc004e029000e50f52002a003a00740247005e
:10500c000400780073ef0700000278006f22b900eb
:10501c0004027800644b8800740247000400780096
:10502c006cef0700000278006f22b90004027800d0
:10503c00744b8800740247000400780065ef070089
:10504c00000278006f22b90004027800144b88002b
:10505c0074024700040078005eef0700000278003d
:10506c006f22b90004027800244b880074024700b8
:10507c000400780057ef0700000278006f22b90097
:10508c0004027800b44b88007402470004007800d6
:10509c0050ef0700000278006f22b900040278007c
:1050ac00c44b88000080fa00000006000600fa00dd
:1050bc0010079800210798000042eb00044f78007d
:1050cc00240037009e4278000582fb000402420057
:1050dc009e02900004824200140278000442780080
:1050ec00144798001e4290000402fb00d410880064
:1050fc0000000000c5108000041020000482620033
:10510c00e00f5200fbff32009e4278000582fb004c
:10511c00040242009e0290000482420014027800b5
:10512c0048a2de0004427800144798001e4290000a
:10513c000402fb00d410880000000000c5108000a1
:10514c000410200004826200e00f5200fbff3200ca
:10515c001e4fe8001e4278008482fb002e02900055
:10516c000482d100848f5200d6ff35000080fa00f3
:10517c00000006000a00fa0040079800b4da2c0080
:10518c001407980044002000240798004e02900059
:10519c003407980064002000040f78000e82e800a9
:1051ac009e007800040078008bfd07000080fa0058
:1051bc00000006000e00fa005007980061079800e6
:1051cc00b4da2c001407980044002000240798003f
:1051dc005e029000340798006e029000440798001d
:1051ec0084002000040f78000e82e8009e007800f6
:1051fc000400780078fd07000080fa00000006002b
:10520c001200fa006007980071079800020f9800ce
:10521c00b4da2c00140798006400200024079800ce
:10522c006e029000340798007e02900044079800ac
:10523c000e0a900054079800a4002000040f780078
:10524c000e82e8009e0078000400780062fd0700e2
:10525c000080fa00000006001600fa0070079800a3
:10526c00010f9800120f9800230f9800b4da2c004d
:10527c001407980084002000240798007e029000f8
:10528c00340798000e0a9000440798001e0a9000fc
:10529c00540798002e0a900064079800c400200060
:1052ac00040f78000e82e8009e007800040078005d
:1052bc0049fd07000080fa00000006000200fa0019
:1052cc00004f78009e4278000582fb001410880085
:1052dc00000000004410800061026200e00f5200e8
:1052ec00fcff3a000080fa00000006000000fa0003
:1052fc00040220000409880004572000e4088800f8
:10530c000002eb00c408880086c0a90021e1a900b6
:10531c008ec0a90021e1a8000080fa000000060060
:10532c000000fa000602a800f0ff070086c0a900e2
:10533c00000000003410800061026200e00f520097
:10534c000500320035048000040420000482620051
:10535c00e00f5200f7ff320021e1a9003504800074
:10536c000404200004826200e00f520002003200ac
:10537c00c09928008afd07000002eb0004007800a9
:10538c000080fa00000006000000fa000622a800c7
:10539c00d6ff070086c0a900000000003410800072
:1053ac0062026200e00f52000500320035048000fa
:1053bc000404200004826200e00f5200f7ff320068
:1053cc0021e1a9003504800004042000048262005d
:1053dc00e00f520002003200709b280070fd0700a5
:1053ec000002eb00040078000080fa0000000600c8
:1053fc000000fa000642a800bcff070086c0a90006
:10540c00000000003410800064026200e00f5200c3
:10541c000500320035048000040420000482620080
:10542c00e00f5200f7ff320021e1a90035048000a3
:10543c000404200004826200e00f520002003200db
:10544c00409d280056fd07000002eb000400780088
:10545c000080fa00000006000200fa00004f7800fd
:10546c009e4278000582fb00141088009fff070005
:10547c0086c0a90000000000441080006102620098
:10548c00e00f5200050032003504800004042000b7
:10549c0004826200e00f5200f7ff320021e1a90004
:1054ac00350480000404200004826200e00f5200e6
:1054bc0002003200f09e280039fd07000002eb00cc
:1054cc00040078000080fa00000006000000fa00da
:1054dc0086ff070086c0a900000000004510800070
:1054ec000400240004826200e00f52000500320028
:1054fc00350480000404200004826200e00f520096
:10550c00f6ff320021e1a9003504800004042000dc
:10551c0004826200e00f520002003200b0a02800aa
:10552c001ffd07000002eb00040078000080fa0069
:10553c00000006000000fa00441080000482ea001b
:10554c004f22de00040078000080fa000000060004
:10555c000000fa0006a2a8000682a80000000000c5
:10556c003410800070026200e00f5200fcff3a0021
:10557c0006a2a9000002eb00040078000080fa00eb
:10558c00000006000000fa0006a2a9000682a8008e
:10559c00000000003410800070026200e00f520026
:1055ac00fcff3a000002eb00040078000080fa00d7
:1055bc00000006000000fa000662a80000000000cf
:1055cc004410800062026200e00f5200fcff3200c7
:1055dc0004108000040078000080fa00000006002f
:1055ec000000fa000662a8001000200084030700e7
:1055fc00000000003410800068026200e00f5200ce
:10560c00fcff3a0014002000040078000080fa002f
:10561c00000006000400fa00000f780021479800f3
:10562c0011003700e3ff0700000278000442780005
:10563c009e027800844a78001e0fe8004510800016
:10564c000440200004826200e00f5200020032008d
:10565c000082eb000f0037002e429000e04f52000a
:10566c0001003200c7ff07002e4290000482fb00ad
:10567c000402ea004f22de0004427800ae429000a1
:10568c008542e90025479800e04f5200e5ff3a00bb
:10569c000002eb00040078000080fa000000060015
:1056ac000200fa00004f780088ff07001cff07007b
:1056bc0000cdb30068ff070084ff07001e40780090
:1056cc0065ff070081ff07002fff070010cdb30017
:1056dc0061ff07007dff0700c1ff07009cff07006b
:1056ec0043ff070004108000040078000080fa00db
:1056fc00000006000200fa00004f780011479800e5
:10570c0007ff070000cdb30053ff07006fff070032
:10571c001e40780050ff07006cff07001e409000f1
:10572c004dff070069ff070031ff07000080fa00fa
:10573c00000006000000fa00f1c0b30090c1b300f5
:10574c00ecff070011c0b300b0c6b300e9ff0700bf
:10575c008040eb00b0c1b300e6ff07008040eb00d7
:10576c00c0c1b300e3ff070041c0b300a0c1b30048
:10577c00e0ff07000080fa00000006000600fa00b7
:10578c00889fbe0010079800210798001e0090000b
:10579c00110307000002eb00040f780055003700de
:1057ac00a900070000027800cfa2de000400be00b2
:1057bc0080ec07000003be00144f8000254f8000d2
:1057cc000401be000600be0025eb07000002be006f
:1057dc00b44e8800c54e8800ae0007000002780069
:1057ec00cfa2de000400be0072ec07000003be0076
:1057fc00344f8000454f80000401be000600be00ff
:10580c0017eb07000002be00d44e8800e54e88005e
:10581c00b300070000027800cfa2de000400be0037
:10582c0064ec07000003be00544f8000654f8000fd
:10583c000401be000600be0009eb07000002be001a
:10584c00f44e8800054f8800b8000700000278006d
:10585c00cfa2de000400be0056ec07000003be0021
:10586c00144f8000254f80000401be000600be00ce
:10587c00fbea07000002be00144f8800254f880089
:10588c00bd00070000027800cfa2de000400be00bd
:10589c0048ec07000003be00344f8000454f8000e9
:1058ac000401be000600be00edea07000002be00c7
:1058bc00344f8800454f8800c20007000002780072
:1058cc00cfa2de000400be003aec07000003be00cd
:1058dc00544f8000654f80000401be000600be00de
:1058ec00dfea07000002be00544f8800654f8800b5
:1058fc001e0fe8002e0290009e027800848f52004a
:10590c00a7ff3500b84e8000c94e80002e029000d3
:10591c00cfa2de000400be0026ec07000002be0091
:10592c000401be000800be00aceb07000002be0084
:10593c00b44e8800c54e8800d84e8000e94e8000d9
:10594c002e029000cfa2de000400be0019ec07006e
:10595c000002be000401be000800be009feb070061
:10596c000002be00d44e8800e54e8800f84e800040
:10597c00094f80002e029000cfa2de000400be0072
:10598c000cec07000002be000401be000800be00c3
:10599c0092eb07000002be00f44e8800054f880011
:1059ac00184f8000294f80002e029000cfa2de00fd
:1059bc000400be00ffeb07000002be000401be00a5
:1059cc000800be0085eb07000002be00144f8800e3
:1059dc00254f8800384f8000494f80002e029000e0
:1059ec00cfa2de000400be00f2eb07000002be00f6
:1059fc000401be000800be0078eb07000002be00e8
:105a0c00344f8800454f8800584f8000694f800004
:105a1c002e029000cfa2de000400be00e5eb0700d2
:105a2c000002be000401be000800be006beb0700c4
:105a3c000002be00544f8800654f88004f04be0022
:105a4c000080fa00000006000400fa000002eb00df
:105a5c00040f78000002eb0014079800b0c3b300e9
:105a6c000fff07000002780014079800c0c3b300b2
:105a7c000bff070000027800040f78001e02900054
:105a8c004822dd001e024200040078000080fa006b
:105a9c00000006000400fa000002eb00040f78007e
:105aac000002eb0014079800d0c3b300fcfe070003
